:100000000C94F1000C940E010C940E010C940E0152
:100010000C940E010C940E010C940E010C940E0124
:100020000C940E010C940E010C946B050C94A50518
:100030000C940E010C940E010C940E010C940E0104
:100040000C940E010C94AA020C94BC020C94CE02E7
:100050000C940E010C940E010C940E010C940E01E4
:100060000C940E010C940E010C940E010C940E01D4
:100070000C940E010C940E010C940E010C940E01C4
:100080000C940E010C940E010C940E010C940E01B4
:100090000C940E010C940E010C940E010C940E01A4
:1000A0000C940E010C940E010C940E011405100515
:1000B0000C05080504050005FC04F804F404F0042C
:1000C000EC04E804E404E004DC04D804D404D00420
:1000D000CC04C804C404C004BC04B804B404B00410
:1000E000AC04A804A404A0049C0498049404900400
:1000F0008C048804840480047C04780474047004F0
:100100006C046804640460045C04580454045004DF
:100110004C044804440440043C04380434043004CF
:100120002C042804240420041C04180414040001D2
:100130000000C5011200020000820143000300001C
:100140007E0104010309046A011202030904620129
:100150000603030904580108080334003100300085
:10016000000006034D003200000012034A002E007A
:1001700020004600690065006E0065000000040371
:10018000090409024300020100C032090400000111
:1001900002020100052400100105240101010424CC
:1001A0000206052406000107058203100040090429
:1001B0000100020A000000070503024000000705D5
:1001C00084024000001201000202000010C0167AF2
:1001D000040001010203010001C112018036018106
:1001E000360011241FBECFEFDAE0DEBFCDBF11E035
:1001F000A0E0B1E0E0EDF0E102C005900D92A83082
:10020000B107D9F721E0A8E0B1E001C01D92A0310B
:10021000B207E1F70E94F5070C9466080C94000001
:10022000CF93DF9300D01F92CDB7DEB74B836A83A5
:1002300089830E94050294EA9093BC0089816A81B7
:100240004B819091BC0097FFFCCF90E59093BB0051
:1002500094E89093BC009091BC0097FFFCCF9091E4
:10026000B900987F903229F484E98093BC0080E043
:1002700029C091E09093BB0094E89093BC009091CA
:10028000BC0097FFFCCF8093BB0084E88093BC0048
:100290008091BC0087FFFCCF6093BB0084E8809313
:1002A000BC008091BC0087FFFCCF4093BB0084E87A
:1002B0008093BC008091BC0087FFFCCF84E98093D1
:1002C000BC0081E00F900F900F90DF91CF910895C7
:1002D000AC0184EA8093BC008091BC0087FFFCCF16
:1002E00081E58093BB0084E88093BC008091BC00D2
:1002F00087FFFCCF9091B900987F9834A9F084ECE7
:100300008093BC008091BC0087FFFCCF8091BB0034
:1003100086130AC0FA0120E030E0062E000C770BAD
:100320006150710984EC0EC084E98093BC0080E0C8
:1003300008959091BC0097FFFCCF9091BB009193E2
:100340002F5F3F4F261737071CF48093BC00F1CF77
:1003500084E88093BC008091BC0087FFFCCF809133
:10036000BB00FA01E20FF31F808384E98093BC0095
:1003700081E00895F89494EA9093BC009091BC00B9
:1003800097FFFCCF90E59093BB0094E89093BC005E
:100390009091BC0097FFFCCF9091B900987F90326C
:1003A00031F484E98093BC00789480E0089593E070
:1003B0009093BB0094E89093BC009091BC0097FF91
:1003C000FCCF8093BB0084E88093BC008091BC008C
:1003D00087FFFCCFFB01042E000C550B24E8CF0156
:1003E000861B970B8417950754F481918093BB006B
:1003F0002093BC008091BC0087FFFCCFF0CF84E944
:100400008093BC00789481E00895589A599A5A9A3A
:100410008CE08093B800E9E6F0E080818062808320
:1004200080818F7E8083EA9A7894089584E880930F
:10043000BC008091BC0087FFFCCF8091BB00089579
:1004400084E98093BC00089520E030E08091BC00F6
:1004500087FD06C02F5F3F4F293E83E03807B1F785
:1004600081E0283E334009F480E008958093BB008A
:1004700084E88093BC000E942402882319F08091B4
:10048000B900887F08951F93CF93DF931F92CDB754
:10049000DEB7182F84EA8093BC0069830E9424028F
:1004A0006981811104C094E99093BC0013C0812F2D
:1004B000880F662339F08F5F0E943602883431F04E
:1004C00081E008C00E9436028032D1F784E980932F
:1004D000BC0080E00F90DF91CF911F910895CF93E2
:1004E000DF93C82FD62F60E00E944302882391F04B
:1004F0008D2F0E943602882369F084E98093BC0026
:1005000061E08C2F0E944302882321F0DF91CF917C
:100510000C94160280E0DF91CF910895CF93DF9382
:10052000D62FC42F60E00E944302811102C080E0F8
:100530000EC08D2F0E9436028823C9F38C2F0E9493
:1005400036028823A1F384E98093BC0081E0DF9127
:10055000CF9108951F920F920FB60F92112410920F
:100560000B0110920A01289A29982A9A2B980F9029
:100570000FBE0F901F9018951F920F920FB60F92FB
:1005800011241092090110920801299A28982B9A97
:100590002A980F900FBE0F901F9018951F920F92E0
:1005A0000FB60F9211240F900FBE0F901F90189549
:1005B000E1E8F0E080818960808380E293E09093BD
:1005C00089008093880084E690E090938B0080936C
:1005D0008A00EFE6F0E0808186608083089584B130
:1005E0008F6084B9289829982A982B98089580E8D4
:1005F00085BF85BFE1E6F0E0808310820E94D802CB
:100600000E940502789408958091E80080FFFCCF55
:10061000089581E08093D70080EA8093D80082E13A
:1006200089BD09B400FEFDCF80E98093D800109207
:10063000E00010920F0110920C018CE08093E20018
:100640007894089580910F0108959FB7F894809150
:100650000F01882339F083E08093E9008091E8005E
:1006600085FD03C09FBF8FEF08958091F100209119
:10067000E80025FD03C02BE62093E8009FBF089506
:100680009FB7F89480910F01882331F083E0809325
:10069000E9008091F20001C080E09FBF0895809141
:1006A0000F01882371F08FB7F89493E09093E900DD
:1006B0002BE69091E80095FF03C02093E800F9CF66
:1006C0008FBF089590910F01992371F09FB7F8940F
:1006D00024E02093E90020910D01222349F020918C
:1006E000E80025FD03C09FBF8FEF089510920D0114
:1006F0002091E400275E34E04091E80045FD12C0FF
:100700009FBF9091E400921304C081E080930D019B
:10071000EBCF90910F01992339F39FB7F894309361
:10072000E900EACF8093F1008091E80085FD03C0E5
:100730008AE38093E80085E080930E019FBF80E00C
:10074000089590910F019923D1F09FB7F89424E078
:100750002093E9002091E80025FD02C09FBF0FC053
:100760008093F1008091E80085FD03C08AE38093C7
:10077000E80085E080930E019FBF80E008958FEF31
:1007800008950F931F93CF93DF93DC01CB0120914A
:100790000F01222371F02FB7F89434E03093E90071
:1007A00030910D01332349F03091E80035FD03C04D
:1007B0002FBF8FEF43C110920D01C4E0D0E41AE3C4
:1007C00005E0009709F438C13091E400375E4091AC
:1007D000E80045FD12C02FBF2091E400231304C0A0
:1007E00081E080930D01E5CF20910F01222309F3D1
:1007F0002FB7F894C093E900EACF3091F200ED2FC3
:10080000E31B4E2F50E08417950708F4E82F8E1B4A
:1008100091094E2F50E04134510508F001C1FA0111
:10082000EA5AFF4F0C94FA073C913093F10011966D
:100830003C913093F10011963C913093F100119668
:100840003C913093F10011963C913093F100119658
:100850003C913093F10011963C913093F100119648
:100860003C913093F10011963C913093F100119638
:100870003C913093F10011963C913093F100119628
:100880003C913093F10011963C913093F100119618
:100890003C913093F10011963C913093F100119608
:1008A0003C913093F10011963C913093F1001196F8
:1008B0003C913093F10011963C913093F1001196E8
:1008C0003C913093F10011963C913093F1001196D8
:1008D0003C913093F10011963C913093F1001196C8
:1008E0003C913093F10011963C913093F1001196B8
:1008F0003C913093F10011963C913093F1001196A8
:100900003C913093F10011963C913093F100119697
:100910003C913093F10011963C913093F100119687
:100920003C913093F10011963C913093F100119677
:100930003C913093F10011963C913093F100119667
:100940003C913093F10011963C913093F100119657
:100950003C913093F10011963C913093F100119647
:100960003C913093F10011963C913093F100119637
:100970003C913093F10011963C913093F100119627
:100980003C913093F10011963C913093F100119617
:100990003C913093F10011963C913093F100119607
:1009A0003C913093F10011963C913093F1001196F7
:1009B0003C913093F10011963C913093F1001196E7
:1009C0003C913093F10011963C913093F1001196D7
:1009D0003C913093F10011963C913093F1001196C7
:1009E0003C913093F10011963C913093F1001196B7
:1009F0003C913093F10011963C913093F1001196A7
:100A00003C913093F10011963C913093F100119696
:100A10003C913093F10011963C913093F100119686
:100A20003C913093F10011963091E80035FF10931E
:100A3000E80000930E01C5CE2FBF80E0DF91CF917B
:100A40001F910F9108958FB7F89490910E019923FB
:100A500041F094E09093E9009AE39093E8001092BB
:100A60000E018FBF089580910401089580910501C2
:100A7000089580910601089580910C0108959FB713
:100A8000F89420910F01222339F022E02093E9000D
:100A90003091E80035FD03C09FBF8FEF089531EA24
:100AA0003093F10030E23093F1001092F100109297
:100AB000F1001092F1001092F1002093F1001092D9
:100AC000F1008093F1001092F1008AE38093E80036
:100AD0009FBF80E008951F920F920FB60F921124CE
:100AE0008F939F938091E1001092E10083FF11C0EA
:100AF0001092E90091E09093EB001092EC0092E1EB
:100B00009093ED0098E09093F00010920F011092F6
:100B10000C0182FF13C080910F01882379F080912E
:100B20000E01882359F0815080930E01811106C077
:100B300084E08093E9008AE38093E8009F918F919D
:100B40000F900FBE0F901F9018951F920F920FB627
:100B50000F921124EF92FF920F931F932F933F93C5
:100B60004F935F936F937F938F939F93AF93BF93B5
:100B7000EF93FF93CF93DF931F92CDB7DEB7109221
:100B8000E9008091E80083FF14C19091F100809109
:100B9000F1000091F1002091F10010E0122B309152
:100BA000F1002091F100E32EF12CF22A2091F100C6
:100BB0006091F10032EF3093E800863009F046C0D2
:100BC00036E08EE291E0FC014591549140175107C7
:100BD00039F4FC013296459154914E155F0521F090
:100BE0000796315081F7E5C0FC0134964591549148
:100BF000FC013696849130E0362B2F3F310519F0F9
:100C000010F02FEF30E0281708F4822F3EEF90917C
:100C1000E800292F2570D9F392FDCEC0982F81319D
:100C200008F090E1FA01292F222331F064916093BA
:100C3000F10021503196F8CF490F511D891B309397
:100C4000E8008111E4CF903111F3B6C0853049F44A
:100C50008EEF8093E8000E94040300680093E30095
:100C6000ABC0893059F59111A4C000930F011092C7
:100C70000C0110920E018EEF8093E80041E087EDA9
:100C800091E04093E9009C012F5F3F4FFC0154919C
:100C90005093EB00552359F0F90124912093EC0077
:100CA0009C012D5F3F4F319684918093ED004F5F03
:100CB000453011F0C901E5CF8EE176C0883051F49E
:100CC000903809F076C00E94040380910F01809350
:100CD000F10048C0813279F4913A09F06AC00E946B
:100CE0000403E0E0F1E087E08E0F91919093F10032
:100CF0008E13FBCF37C08032A1F4913209F059C076
:100D00008091E80082FFFCCFE0E0F1E087E08E0F09
:100D10009091F10091938E13FBCF8BEF8093E800BD
:100D200021C0823241F4913209F043C000930C019A
:100D30000E94040317C0811119C099830E94040303
:100D40009981923851F4E092E9008091EB0085FBA3
:100D5000882780F91092E90001C080E08093F100BB
:100D60001092F1008EEF8093E80026C0282F2D7F8F
:100D70002130F9F49230E9F4012BD9F42E2D2F779C
:100D80009FEF920F9430A8F49EEF9093E800209389
:100D9000E900833071F089E18093EB0081E090E01D
:100DA00001C0880F2A95EAF78093EA001092EA00C2
:100DB00003C081E28093EB000F90DF91CF91FF9110
:100DC000EF91BF91AF919F918F917F916F915F91C3
:100DD0004F913F912F911F910F91FF90EF900F90A6
:100DE0000FBE0F901F9018951F93CF93DF93EC01C8
:100DF000FE011491112351F01A3019F48DE00E9474
:100E00006203812F0E9462032196F2CFDF91CF917E
:100E10001F9108958A3010F097E301C090E3890F85
:100E20000C946203CF93C82F82958F700E940A079B
:100E30008C2F8F70CF910C940A07CF93C82F892FD6
:100E40000E9412078C2FCF910C9412070C9412075A
:100E5000EF92FF920F931F93CF93DF93CDB7DEB73F
:100E600027970FB6F894DEBF0FBECDBF8E010F5F80
:100E70001F4F27E0F80111922A95E9F74AE0B801DF
:100E80000E9400087E01F8E0EF0EF11CF80181914C
:100E90008F0181110E9462030E151F05B9F7279675
:100EA0000FB6F894DEBF0FBECDBFDF91CF911F917B
:100EB0000F91FF90EF900895EF92FF920F931F9381
:100EC000CF93DF9300D000D000D0CDB7DEB78E0136
:100ED0000F5F1F4F26E0F80111922A95E9F74AE0CB
:100EE000B8010E943C087E01F6E0EF0EF11CF8010B
:100EF00081918F0181110E9462030E151F05B9F7C0
:100F000026960FB6F894DEBF0FBECDBFDF91CF910E
:100F10001F910F91FF90EF900895EF92FF920F9322
:100F20001F93CF93DF93CDB7DEB72B970FB6F8940F
:100F3000DEBF0FBECDBF8E010F5F1F4F2BE0F8014C
:100F400011922A95E9F72AE0A8010E940B087E0178
:100F5000FCE0EF0EF11CF80181918F0181110E94DC
:100F600062030E151F05B9F72B960FB6F894DEBF76
:100F70000FBECDBFDF91CF911F910F91FF90EF90EA
:100F80000895EF92FF920F931F93CF93DF93CDB706
:100F9000DEB72B970FB6F894DEBF0FBECDBF8E0124
:100FA0000F5F1F4F2BE0F80111922A95E9F72AE015
:100FB000A8010E941A087E01FBE0EF0EF11CF80167
:100FC00081918F0181110E9462030E151F05B9F7EF
:100FD0002B960FB6F894DEBF0FBECDBFDF91CF9139
:100FE0001F910F91FF90EF9008950E94F7026E9A63
:100FF000769AFFCFEE0FFF1F0590F491E02D099434
:10100000BB274A3031F4992322F4BDE290958195B3
:101010009F4F0C943D08BB272A3051F4992342F48A
:10102000BDE290958095709561957F4F8F4F9F4F52
:101030000C941B08BB27FA01A62F621771058105C6
:101040009105330B30FB66F0AA27660F771F881FC8
:10105000991FAA1FA21710F0A21B63953850A9F779
:10106000A05DAA3308F0A95DA19336F7B111B19341
:101070001082CA010C945608BB27FB015527AA27EA
:10108000880F991FAA1FA41710F0A41B8395505115
:10109000B9F7A05DAA3308F0A95DA193009779F78D
:1010A000B111B1931192CB010C945608DC01FC01F3
:1010B000672F71917723E1F7329704C07C916D938C
:1010C00070836291AE17BF07C8F30895F894FFCFFD
:0810D00000E10000000008002F
:00000001FF
