:100000000C94C1010C94DE010C94DE010C94F00EF2
:100010000C94DE010C94DE010C94DE010C94DE01E4
:100020000C94DE010C94DE010C94960A0C94D10A17
:100030000C94DE010C94DE010C94DE010C94DE01C4
:100040000C94DE010C94DE010C94DE010C94DE01B4
:100050000C94DE010C94DE010C94DE010C94DE01A4
:100060000C94DE010C94DE010C94DE010C94DE0194
:100070000C94DE010C943D0F0C94DE010C94DE0117
:100080000C94190F0C94DE010C94DE010C94DE012B
:100090000C94DE010C94DE010C94DE010C94DE0164
:1000A0000C94DE010C94DE010C94DE01300232026D
:1000B00039023B02470253025A02610272021703DD
:1000C0001B03210324033203400335033803330A9F
:1000D000300A2D0A2A0A270A240A210A1E0A1B0AA4
:1000E000180A150A120A0F0A0C0A090A060A030A54
:1000F000000AFD09FA09F709F409F109EE09EB090B
:10010000E809E509E209DF09DC09D909D609D309BB
:10011000D009CD09CA09C709C409C109BE09BB096B
:10012000B809B509B209AF09AC09A909A609A3091B
:10013000A0099D099A099709940991098E098B09CB
:100140008809850982097F097C097909760973097B
:1001500042616420636861726163746572207265D4
:1001600063656976656421204974207761733A205C
:1001700000556E7265636F676E697A6564205769B2
:1001800072656C6573734D6573736167650A0057BB
:100190006972656C6573734D65737361676520691A
:1001A0007320554E4B4E4F574E2E0A0057697265BD
:1001B0006C6573734D657373616765206973204760
:1001C000414D455F4F5645522E0A00576972656C86
:1001D0006573734D6573736167652069732048416A
:1001E0004C4654494D452E0A00576972656C65733B
:1001F000734D657373616765206973205041555372
:10020000452E0A000A000953636F726520426C751F
:100210006520697320000A000953636F72652052DC
:1002200065642069732000576972656C6573734D4E
:1002300065737361676520697320474F414C5F4266
:100240002E0A000A000953636F726520426C7565BF
:1002500020697320000A000953636F72652052659C
:10026000642069732000576972656C6573734D650E
:10027000737361676520697320474F414C5F522E4D
:100280000A00576972656C6573734D6573736167B6
:100290006520697320504C41592E0A0057697265D8
:1002A0006C6573734D657373616765206973204373
:1002B0004F4D4D5F544553542E0A0074696D65725D
:1002C0005F696E697469616C697A6564210A00000E
:1002D00001000003031200020000150343000300A5
:1002E00000580304010309045C03120203090470AB
:1002F0000306030309047803080001C112018036D4
:100300000181361201000202000010C0167A0400BA
:10031000010102030109024300020100C032090485
:100320000000010202010005240010010524010162
:1003300001042402060524060001070582031000BB
:100340004009040100020A00000007050302400002
:1003500000070584024000000403090412034A0058
:100360002E0020004600690065006E006500000058
:1003700006034D0032000000080334003100300055
:10038000000011241FBECFEFDAE0DEBFCDBF11E0C9
:10039000A0E0B1E0E2E2F4E202C005900D92AA30E2
:1003A000B107D9F721E0AAE0B1E001C01D92A43461
:1003B000B207E1F70E948A0F0C940F120C94000010
:1003C00080B38F7380BB81B38F7381BBECE7F0E0A8
:1003D00080818F77808380818F7B8083AAE7B0E0E4
:1003E0008C9184608C938C9181608C93EEE7F0E02B
:1003F0008081816080838081826080838081806150
:10040000808380818062808380818064808380811A
:1004100080688083EDE7F0E0808181608083808167
:10042000886080838081806180838C9188608C93D8
:100430008C918F778C93089520917A002F77209359
:100440007A0090930D0180930C018930910508F09A
:100450005BC0FC01EA5AFF4F80917B000C9477113E
:100460008F7D29C08F7D80937B0080917C008B7F66
:1004700008C08F7D38C08F7D80937B0080917C0089
:10048000846080937C0080917C008D7F25C08F7D6F
:1004900080937B0080917C00846080937C008091BD
:1004A0007C0082602AC08F7D80937B0080917C00DD
:1004B00084600DC0806280937B0080917C008B7F84
:1004C00017C0806280937B0080917C008B7F80933B
:1004D0007C0080917C00826080937C0080917C0015
:1004E000816010C0806280937B0080917C0084607A
:1004F00080937C0080917C008D7F80937C00809134
:100500007C008E7F80937C0080917A00806880934D
:100510007A0080917A00806480937A000895209117
:100520000E0130910F01232B71F4209110013091B5
:100530001101232B41F421E030E030930F0120938F
:100540000E010E941C028091100190911101892BD3
:1005500071F0109211011092100160910A017091D6
:100560000B0180910C0190910D010C949C04089555
:1005700081E090E0909311018093100110920F019F
:1005800010920E01809178009091790090930B0168
:1005900080930A01EAE7F0E080818F7780830895F5
:1005A0004AE0682F81E00E941B08109233011092EC
:1005B0003201109231011092300108958091320180
:1005C0009091330101969093330180933201089505
:1005D0000F931F93CF93DF93CDB7DEB72A970FB654
:1005E000F894DEBF0FBECDBF8C0120913201309157
:1005F000330180913001909131012817390709F4B6
:100600004DC0019690933101809330016AE0CE0194
:1006100001960E947B07498150E0FA01E05AF109F6
:10062000E830F10568F5E15AFF4F0C947711F801B5
:100630001182108222C081E090E0F80191838083D2
:100640002FC082E090E002C083E090E0F801918347
:1006500080838A8190E0938382838B8190E095836D
:1006600084830BC084E090E005C085E090E002C088
:1006700086E090E0F8019183808381E090E010C0F3
:1006800087E090E0F8019183808380E591E00E940B
:100690003C0C898190E00E94680CEFCF80E090E0F4
:1006A0002A960FB6F894DEBF0FBECDBFDF91CF9173
:1006B0001F910F910895AF92BF92CF92DF92EF9268
:1006C000FF920F931F93DF93CF93CDB7DEB7609761
:1006D0000FB6F894DEBF0FBECDBFA982BA82CB821F
:1006E000DC82ED82FE820F83188729873A874B8749
:1006F0005C876D877E878F87988B0B811C81ED804F
:10070000FE8089819A8183309105C1F18430910501
:1007100030F481309105B1F00297B8F410C0853003
:10072000910509F447C08530910508F440C0863032
:10073000910509F442C0079709F045C041C08CE912
:1007400092E043C082E892E040C086E692E00E94D8
:100750003C0C87E592E00E943C0CC8010E94E50C2D
:1007600085E592E00E943C0C85E492E00E943C0CFE
:10077000C7010E94E50C83E492E027C087E292E083
:100780000E943C0C88E192E00E943C0CC8010E944F
:10079000E50C86E192E00E943C0C86E092E00E942B
:1007A0003C0CC7010E94E50C84E092E00EC089EE8B
:1007B00091E00BC08BEC91E008C08CEA91E005C0A1
:1007C0008FE891E002C081E791E00E943C0C6096C6
:1007D0000FB6F894DEBF0FBECDBFCF91DF911F9152
:1007E0000F91FF90EF90DF90CF90BF90AF90089562
:1007F0000E946B080E9484088823E1F388E893E153
:1008000020E931E0F9013197F1F70197D9F70E941A
:100810008408882389F06E9A76986A9A729880E1A3
:1008200097E220E931E0F9013197F1F70197D9F723
:100830006E9A769A6A9A729A08958F929F92AF9260
:10084000BF92CF92DF92EF92FF920F931F93DF93AD
:10085000CF93CDB7DEB768970FB6F894DEBF0FBE63
:10086000CDBF8C01CE0101960E94A00D882371F0AE
:10087000DE0111969801A8016D0171E0872E912C7F
:1008800069E1A62EB12CAC0EBD1E0AC0F801118E76
:10089000108E138E128E158E148E178E168EE8CF34
:1008A0000D911C91119712966D917C91139714964E
:1008B000ED90FC901597F801EE0FFF1FEC0DFD1D5C
:1008C000808191818F5F934071F4FB01EE0FFF1FD8
:1008D000EC0DFD1D808191818F5F934021F4FA0121
:1008E000118E108E0AC0FA01918E808EF90111834B
:1008F000008373836283F582E48216964E5F5F4FB6
:100900002A5F3F4FAA15BB0559F668960FB6F894B3
:10091000DEBF0FBECDBFCF91DF911F910F91FF9032
:10092000EF90DF90CF90BF90AF909F908F90089501
:100930000E942D0E08950895FC01EE0FFF1FEE5E3C
:10094000FE4F71836083089580911201909113018D
:100950006A9A853F914024F0729881E090E0089572
:10096000729A80E090E008954F925F926F927F922A
:100970008F929F92AF92BF92CF92DF92EF92FF92AF
:100980000F931F93CF93DF9304E111E0C0E0D0E019
:10099000812C912C540175016401F80161917191D0
:1009A0008F01685C7109882777FD8095982F0E94D8
:1009B000881020E030E048E454E40E941E102B012F
:1009C0003C019B01AC01C501B4010E94BA0F4B016F
:1009D0005C0120E030E044E352E4C301B2010E9434
:1009E00014112B013C01BE01882777FD8095982FBB
:1009F0000E9488109B01AC01C301B2010E94141136
:100A00009B01AC01C701B6010E94BA0F6B017C01CA
:100A10002196C830D10509F6A50194010E941E1047
:100A2000DF91CF911F910F91FF90EF90DF90CF90CA
:100A3000BF90AF909F908F907F906F905F904F90FE
:100A400008958091240190912501A0912601B091F3
:100A500027010196A11DB11D8093240190932501CA
:100A6000A0932601B093270108956091240170910D
:100A7000250180912601909127010895A1E9B0E018
:100A80008C918F7E8C938C9188608C93E0E9F0E060
:100A900080818D7F808380818E7F808380818F772E
:100AA000808380818F7B8083E1E7F0E080818260BA
:100AB0008083C19A80E89EE3909399008093980088
:100AC0008C918B7F8C938C918D7F8C938C9181609A
:100AD0008C938BEB92E00E943C0C0895589A599AA3
:100AE0005A9A8CE08093B800E9E6F0E08081806259
:100AF000808380818F7E8083EA9A7894089584E849
:100B00008093BC008091BC0087FFFCCF8091BB002C
:100B1000089584E98093BC00089520E030E080913E
:100B2000BC0087FD06C02F5F3F4F83E0293E38079A
:100B3000B1F780E0285E334009F081E008958093AA
:100B4000BB0084E88093BC000E948D05882319F0C7
:100B50008091B900887F08950F931F93182F062F57
:100B600084EA8093BC000E948D05882371F0812F58
:100B7000880F002331F08F5F0E949F05883451F465
:100B800004C00E949F05803229F484E98093BC0050
:100B900080E001C081E01F910F9108950F931F9392
:100BA000162F042F60E00E94AC05882379F0812F76
:100BB0000E949F05882351F0802F0E949F05882363
:100BC00029F084E98093BC0081E001C080E01F919E
:100BD0000F9108950F931F93082F162F60E00E9426
:100BE000AC058823C1F0812F0E949F05882399F0CE
:100BF00084E98093BC00802F61E00E94AC058823CB
:100C000051F084E88093BC008091BC0087FFFCCF4A
:100C10008091BB0001C080E01F910F910895DF9289
:100C2000EF92FF920F931F93DF93CF9300D000D0EA
:100C300000D0CDB7DEB7082FD92E7E010894E11C75
:100C4000F11C1EE489E6612F0E94EA05F7018193F9
:100C50007F0111501834B1F7DE011196802F9D2DC0
:100C60009C01F9019E01295F3F4F8D919D919583D4
:100C700084833297A217B307C1F781E026960FB697
:100C8000F894DEBF0FBECDBFCF91DF911F910F91C2
:100C9000FF90EF90DF900895DF92EF92FF920F9315
:100CA0001F93DF93CF9300D000D000D0CDB7DEB735
:100CB000082FD92E7E010894E11CF11C18E489E666
:100CC000612F0E94EA05F70181937F0111501234D0
:100CD000B1F7DE011196802F9D2D9C01F9019E0137
:100CE000295F3F4F8D919D91958384833297A21701
:100CF000B307C1F781E026960FB6F894DEBF0FBEAA
:100D0000CDBFCF91DF911F910F91FF90EF90DF90BA
:100D10000895DF92EF92FF920F931F93DF93CF938B
:100D200000D000D000D0CDB7DEB7082FD92E7E017D
:100D30000894E11CF11C10E489E6612F0E94EA0589
:100D4000F70181937F0111501A33B1F7DE0111963B
:100D5000802F9D2D9C01F9019E01295F3F4F8D91B0
:100D60009D91958384833297A217B307C1F781E0E1
:100D700026960FB6F894DEBF0FBECDBFCF91DF91A0
:100D80001F910F91FF90EF90DF900895DF92EF9207
:100D9000FF920F931F93DF93CF93CDB7DEB7649786
:100DA0000FB6F894DEBF0FBECDBF082FD92E7E013F
:100DB0000894E11CF11C1EE489E6612F0E94EA05FB
:100DC000F70181937F0111501A33B1F7DE011196BB
:100DD000802F9D2D9C01F9019E01295F3F4F1E969A
:100DE0008D919C911F979583848316968D919C91EC
:100DF0001797938782878D919D91918B808B3297E6
:100E0000A217B30761F781E064960FB6F894DEBFCE
:100E10000FBECDBFCF91DF911F910F91FF90EF904B
:100E2000DF9008950F931F93182F062F843008F03A
:100E30005EC0643008F05BC00E946E0588EB9BE0EA
:100E400020E931E0F9013197F1F70197D9F789E607
:100E500065E70E94EA05883609F049C089E66BE635
:100E600041E00E94CE05110F110F110F89E66CE1D0
:100E7000412F0E94CE05000F000F000F89E66BE1A5
:100E8000402F0E94CE0589E667E342E00E94CE052E
:100E90008EE162E040E00E94CE0589E667E340E033
:100EA0000E94CE0589E664E34EE10E94CE0589E604
:100EB00067E641E00E94CE0589E664E24DE10E94CA
:100EC000CE0589E665E24EE90E94CE0589E666E236
:100ED00043E00E94CE0589E667E246E90E94CE051E
:100EE00089E66AE640E20E94CE0581E001C080E02A
:100EF0001F910F9108959C0184EA8093BC0080911A
:100F0000BC0087FFFCCF81E58093BB0084E8809321
:100F1000BC008091BC0087FFFCCF8091B900887F26
:100F20008834A1F084EC8093BC008091BC0087FFE2
:100F3000FCCF8091BB00861749F4A0E0B0E0772792
:100F400067FD70956150704094EC12C084E9809305
:100F5000BC0080E008959093BC008091BC0087FFA6
:100F6000FCCF8091BB00F901EA0FFB1F8083119633
:100F7000A617B70784F384E88093BC008091BC0077
:100F800087FFFCCF8091BB00A20FB31F8C9384E935
:100F90008093BC0081E00895982FF89484EA8093B0
:100FA000BC008091BC0087FFFCCF80E58093BB0034
:100FB00084E88093BC008091BC0087FFFCCF8091C7
:100FC000B900887F803231F484E98093BC00789442
:100FD00080E0089583E08093BB0084E88093BC00A8
:100FE0008091BC0087FFFCCF9093BB0084E8809386
:100FF000BC008091BC0087FFFCCF20E030E055278B
:1010000047FD509594E80EC0FB01E20FF31F80816D
:101010008093BB009093BC008091BC0087FFFCCF05
:101020002F5F3F4F241735077CF384E98093BC0082
:10103000789481E00895FF920F931F93182F062F45
:10104000F42E0E946E0584EA8093BC008091BC005F
:1010500087FFFCCF80E58093BB0084E88093BC00D1
:101060008091BC0087FFFCCF8091B900887F8032DF
:1010700029F484E98093BC0080E029C081E080935A
:10108000BB0084E88093BC008091BC0087FFFCCF4C
:101090001093BB0084E88093BC008091BC0087FF64
:1010A000FCCF0093BB0084E88093BC008091BC001F
:1010B00087FFFCCFF092BB0084E88093BC00809156
:1010C000BC0087FFFCCF84E98093BC0081E01F91C6
:1010D0000F91FF90089581E08093D70080EA80937C
:1010E000D80082E189BD09B400FEFDCF80E980937C
:1010F000D8001092E00010922801109229018CE093
:101100008093E200789408958091280108959FB714
:10111000F89480912801882339F083E08093E900D6
:101120008091E80085FD03C09FBF8FEF0895209157
:10113000F1008091E80085FD03C08BE68093E80014
:101140009FBF822F08959FB7F8948091280188232C
:1011500029F083E08093E9008091F2009FBF089519
:1011600080912801882371F09FB7F89483E08093E1
:10117000E9002BE602C02093E8008091E80085FD9D
:10118000FACF9FBF0895482F809128018823D9F175
:101190002FB7F89484E08093E90080912B01882395
:1011A00041F08091E80085FD02C02FBF12C010926F
:1011B0002B019091E400975E34E08091E80085FD7A
:1011C00013C02FBF8091E400891729F481E0809338
:1011D0002B018FEF0895809128018823A1F02FB76C
:1011E000F8943093E900E9CF4093F1008091E80052
:1011F00085FD03C08AE38093E80085E080932A019F
:101200002FBF80E008958FEF0895282F8091280147
:10121000882351F09FB7F89484E08093E90080918F
:10122000E80085FD03C09FBF8FEF08952093F10074
:101230008091E80085FD03C08AE38093E80085E0A3
:1012400080932A019FBF80E00895CF93DF93EC0144
:1012500080912801882309F41CC13FB7F89484E0E9
:101260008093E90080912B01882309F407C18091C4
:10127000E80085FD02C03FBF0CC110922B01FEC0EB
:101280009091E400975E8091E80085FD13C03FBF18
:101290008091E400891721F481E080932B01F9C04B
:1012A00080912801882309F4F4C03FB7F894509343
:1012B000E900E9CF8091F2002A2F281B822F90E0CD
:1012C0006817790708F4262F822F90E08134910562
:1012D00008F0C6C089599F4FFC01EE0FFF1F059013
:1012E000F491E02D099489918093F1008991809384
:1012F000F10089918093F10089918093F1008991A7
:101300008093F10089918093F10089918093F1009D
:1013100089918093F10089918093F1008991809364
:10132000F10089918093F10089918093F100899176
:101330008093F10089918093F10089918093F1006D
:1013400089918093F10089918093F1008991809334
:10135000F10089918093F10089918093F100899146
:101360008093F10089918093F10089918093F1003D
:1013700089918093F10089918093F1008991809304
:10138000F10089918093F10089918093F100899116
:101390008093F10089918093F10089918093F1000D
:1013A00089918093F10089918093F10089918093D4
:1013B000F10089918093F10089918093F1008991E6
:1013C0008093F10089918093F10089918093F100DD
:1013D00089918093F10089918093F10089918093A4
:1013E000F10089918093F10089918093F1008991B6
:1013F0008093F10089918093F10089918093F100AD
:1014000089918093F10089918093F1008991809373
:10141000F10089918093F10089918093F100899185
:101420008093F10089918093F10089918093F1007C
:1014300089918093F10089918093F1008991809343
:10144000F10089918093F10089918093F100899155
:101450008093F10089918093F10089918093F1004C
:1014600089918093F1008091E80085FD02C0B093DE
:10147000E800621B710940932A0104C054E0A0E413
:10148000BAE345E06115710509F0FACE3FBF80E08F
:1014900001C08FEFDF91CF9108959FB7F8948091AD
:1014A0002A01882341F084E08093E9008AE3809355
:1014B000E80010922A019FBF0895809104010895C9
:1014C0008091050108958091060108958091290178
:1014D0000895382F9FB7F89480912801882339F018
:1014E00022E02093E9008091E80085FD03C09FBFC2
:1014F0008FEF089581EA8093F10080E28093F100FC
:101500001092F1001092F1001092F1001092F1008F
:101510002093F1001092F1003093F1001092F1004D
:101520008AE38093E8009FBF80E008951F920F92A6
:101530000FB60F9211248F939F938091E100109228
:10154000E100982F83FF11C01092E90081E08093A1
:10155000EB001092EC0082E18093ED0088E0809334
:10156000F000109228011092290192FF13C080917F
:101570002801882379F080912A01882359F081502D
:1015800080932A01882331F484E08093E9008AE380
:101590008093E8009F918F910F900FBE0F901F9046
:1015A00018951F920F920FB60F9211240F931F934D
:1015B0002F933F934F935F936F937F938F939F935B
:1015C000AF93BF93EF93FF931092E9008091E800EF
:1015D00083FF3CC14091F1003091F1008091F10016
:1015E000682F70E02091F100922F80E0682B792B1A
:1015F0008091F100A82FB0E02091F100922F80E0BF
:10160000A82BB92B1091F1000091F10082EF80938B
:10161000E800363009F05AC026ED32E0A901455005
:101620005040F9013797859194918617970701F5F6
:10163000FA01859194918A179B07D1F49A012E5F44
:101640003F4FF901659174912E5F3F4FF90144912D
:10165000212F30E0902F80E0282B392B2F3F3105B0
:1016600019F010F02FEF30E0241758F4422F09C082
:10167000295F3F4F495F5F4FF3E020303F0789F616
:10168000E5C05EEF8091E800282F30E0C901857049
:101690009070892BB9F322FDDCC0342F413108F062
:1016A00030E1232FCB0106C0FC010196E491E093C9
:1016B000F10021502223C1F7630F711D431B50938A
:1016C000E8004423F9F63031E9F2C3C0353061F463
:1016D0008EEF8093E8008091E80080FFFCCF862F9A
:1016E00080688093E300B5C0393051F5442309F098
:1016F000ADC0609328011092290110922A018EEF4B
:101700008093E80089EF92E021E02093E900FC015A
:101710000196E491E093EB00EE2369F0AC014F5F9A
:101720005F4FFC0184918093EC00CA010196FA019D
:1017300034913093ED002F5F253039F78EE181C071
:10174000383061F4403809F081C08091E80080FFB2
:10175000FCCF809128018093F10050C0313289F490
:10176000413A09F073C08091E80080FFFCCFE0E0CF
:10177000F1E081918093F10081E0E730F807C9F74B
:101780003DC03032A1F4413209F060C08091E800E0
:1017900082FFFCCFE0E0F1E08091F100819381E0F5
:1017A000E730F807C9F78BEF8093E80027C03232A3
:1017B00051F4413209F04AC0609329018091E80058
:1017C00080FFFCCF1BC03323E9F48091E80080FF49
:1017D000FCCF423811F080E00DC0A093E900809169
:1017E000EB0090E025E0969587952A95E1F78170CA
:1017F0001092E9008093F1001092F1008EEF809337
:10180000E80027C0313011F0333001F54230F1F4F7
:10181000672BE1F42A2F2F77822F81508430B0F488
:101820008EEF8093E8002093E900333079F089E16E
:101830008093EB0081E090E002C0880F991F2A9509
:10184000E2F78093EA001092EA0003C081E28093FD
:10185000EB00FF91EF91BF91AF919F918F917F919D
:101860006F915F914F913F912F911F910F910F9029
:101870000FBE0F901F9018951F93CF93DF93EC012D
:10188000FE0121961491112349F01A3019F48DE0CC
:101890000E94C308812F0E94C308F2CFDF91CF912D
:1018A0001F910895982F8A3010F087E301C080E3DC
:1018B000890F0E94C30808951F93182F82958F7077
:1018C0000E94520C812F8F700E94520C1F9108951C
:1018D0001F93182F892F0E945C0C812F0E945C0C93
:1018E0001F9108950E945C0C0895EF92FF920F9350
:1018F0001F93DF93CF93CDB7DEB72B970FB6F89436
:10190000DEBF0FBECDBF8E010F5F1F4F2BE0F80172
:1019100011922A95E9F7A8012AE030E00E94AD1162
:101920003BE0E32EF12CEC0EFD1EF80180818823B4
:1019300011F00E94C3080F5F1F4F0E151F05A9F776
:101940002B960FB6F894DEBF0FBECDBFCF91DF91BF
:101950001F910F91FF90EF900895EF92FF920F93D8
:101960001F93DF93CF93CDB7DEB72B970FB6F894C5
:10197000DEBF0FBECDBF8E010F5F1F4F2BE0F80102
:1019800011922A95E9F7A8012AE030E00E9493110C
:101990004CE0E42EF12CEC0EFD1EF8018081882332
:1019A00011F00E94C3080F5F1F4F0E151F05A9F706
:1019B0002B960FB6F894DEBF0FBECDBFCF91DF914F
:1019C0001F910F91FF90EF900895EF92FF920F9368
:1019D0001F93DF93CF9300D000D000D0CDB7DEB7F8
:1019E0008E010F5F1F4F26E0F80111922A95E9F74B
:1019F000B8014AE050E00E94DA1156E0E52EF12CE1
:101A0000EC0EFD1EF8018081882311F00E94C308AE
:101A10000F5F1F4F0E151F05A9F726960FB6F894F6
:101A2000DEBF0FBECDBFCF91DF911F910F91FF9011
:101A3000EF900895EF92FF920F931F93DF93CF9350
:101A4000CDB7DEB727970FB6F894DEBF0FBECDBF78
:101A50008E010F5F1F4F27E0F80111922A95E9F7D9
:101A6000B8014AE050E00E947D1168E0E62EF12CBA
:101A7000EC0EFD1EF8018081882311F00E94C3083E
:101A80000F5F1F4F0E151F05A9F727960FB6F89485
:101A9000DEBF0FBECDBFCF91DF911F910F91FF90A1
:101AA000EF90089520E030E08091BC0087FD06C0F3
:101AB0002F5F3F4F83E0293E3807B1F780E0285E73
:101AC000334009F081E008958093BB0084E880935F
:101AD000BC000E94520D882319F08091B900887FC4
:101AE00008951F93182F84EA8093BC000E94520D22
:101AF000882369F0110F812F8F5F0E94640D883455
:101B000011F081E004C084E98093BC0080E01F9163
:101B100008951F93182F84EA8093BC000E94520DF1
:101B2000882361F0812F880F0E94640D803211F0AC
:101B300081E004C084E98093BC0080E01F91089597
:101B40000F931F93DF93CF93CDB7DEB760970FB698
:101B5000F894DEBF0FBECDBF182F092F88E50E9475
:101B6000890D882309F469C086E30E94640D8823E7
:101B700009F463C084E98093BC0085E88A95F1F795
:101B800088E50E94710D882309F457C0FE01319643
:101B900080E1DF011D928A95E9F794EC9E01205FB8
:101BA0003F4F9093BC008091BC0087FFFCCF809199
:101BB000BB008193E217F307A1F784E88093BC0090
:101BC0008091BC0087FFFCCF8091BB00888B84E9AB
:101BD0008093BC00DE011296212F302FC901FC0139
:101BE000BE01625F7F4F12962C91129730E0C901BF
:101BF0008073907054E0880F991F5A95E1F74C91CB
:101C0000840F911D91838083C901807C9070880F1F
:101C1000991F880F991F11964C911197840F911D50
:101C2000938382832F703070358324831396369686
:101C3000A617B707C1F681E001C080E060960FB635
:101C4000F894DEBF0FBECDBFCF91DF911F910F91F2
:101C5000089584E98093BC0008951F93CF93DF9388
:101C60000E946E0588E50E94890D882309F4B3C09F
:101C700080E30E94640D882309F4ADC081E00E94D6
:101C8000640D882309F4A7C084E98093BC0080E434
:101C90009CE90197F1F788E50E94890D882309F4F2
:101CA0009AC080E00E94640D882309F494C080E00B
:101CB0000E94640D882309F48EC080E00E94640DA8
:101CC000882309F488C080E00E94640D882309F409
:101CD00082C080E00E94640D882309F47CC080E00B
:101CE0000E94640D882309F476C080E00E94640D90
:101CF000882309F470C080E90E94640D882309F4E8
:101D00006AC014E91093BC00C0E4DCE9CE0101977D
:101D1000F1F788E50E94890D882309F45CC087E00B
:101D20000E94640D882309F456C080E00E94640D6F
:101D3000882309F450C081E40E94640D882309F4CB
:101D40004AC01093BC00CE010197F1F788E50E94CC
:101D5000890D882309F43FC08AE10E94640D88231D
:101D600009F439C080E40E94640D8823A1F180E069
:101D70000E94640D882379F11093BC00CE01019775
:101D8000F1F788E50E94890D882329F183E30E94F9
:101D9000640D882301F183E00E94640D8823D9F04B
:101DA0001093BC00CE010197F1F788E50E94890DE0
:101DB000882389F080E30E94640D882361F088E025
:101DC0000E94640D882339F01093BC00CE01019766
:101DD000F1F781E001C080E0DF91CF911F9108957C
:101DE0001F920F920FB60F9211242F933F934F9390
:101DF0005F936F937F938F939F93AF93BF93EF9373
:101E0000FF936A9A8EB194E089278EB90E94DE0210
:101E1000FF91EF91BF91AF919F918F917F916F91C2
:101E20005F914F913F912F910F900FBE0F901F9098
:101E300018951F920F920FB60F9211242F933F9374
:101E40004F935F936F937F938F939F93AF93BF93C2
:101E5000EF93FF930E942105FF91EF91BF91AF9106
:101E60009F918F917F916F915F914F913F912F91B2
:101E70000F900FBE0F901F9018951F920F920FB6E4
:101E80000F9211242F933F934F935F936F937F9300
:101E90008F939F93AF93BF93EF93FF930E94B802EA
:101EA000FF91EF91BF91AF919F918F917F916F9132
:101EB0005F914F913F912F910F900FBE0F901F9008
:101EC000189580E885BF85BFE1E6F0E08083108249
:101ED0000E946E052FEF83EC99E0215080409040E6
:101EE000E1F700C000000E94F8032FEF89E698E1B7
:101EF000215080409040E1F700C000008091070130
:101F0000909108010E94D0020E943E050E94E001CB
:101F1000789408950E94610FC0E484E391E00E94E8
:101F2000E80280E090E00E948F020E94A4040E94D8
:101F3000350500912C0110912D0120912E01309139
:101F40002F01601B710B820B930B653F7140810564
:101F500091051CF36E9A8EB18C278EB90E943505BF
:101F600060932C0170932D0180932E0190932F018B
:101F7000D4CF5058BB27AA270ED01CC10DD130F0AA
:101F800012D120F031F49F3F11F41EF402C10EF47F
:101F9000E095E7FBF8C0E92F1ED180F3BA1762077E
:101FA00073078407950718F071F49EF536C10EF497
:101FB000E0950B2EBA2FA02D0B01B90190010C0159
:101FC000CA01A0011124FF27591B99F0593F50F471
:101FD000503E68F11A16F040A22F232F342F4427C9
:101FE000585FF3CF469537952795A795F0405395C1
:101FF000C9F77EF41F16BA0B620B730B840BBAF091
:102000009150A1F0FF0FBB1F661F771F881FC2F7FB
:102010000EC0BA0F621F731F841F48F4879577950F
:102020006795B795F7959E3F08F0B3CF9395880FC6
:1020300008F09927EE0F9795879508950CD0BAC0B0
:10204000B2D040F0A9D030F021F45F3F19F09BC02E
:102050005111E4C09EC0BFD098F39923C9F3552312
:10206000B1F3951B550BBB27AA276217730784078B
:1020700038F09F5F5F4F220F331F441FAA1FA9F341
:1020800033D00E2E3AF0E0E830D091505040E69533
:10209000001CCAF729D0FE2F27D0660F771F881F94
:1020A000BB1F261737074807AB07B0E809F0BB0B83
:1020B000802DBF01FF2793585F4F2AF09E3F5105A7
:1020C00068F061C0ABC05F3FECF3983EDCF38695EF
:1020D00077956795B795F7959F5FC9F7880F911D1D
:1020E0009695879597F90895E1E0660F771F881F09
:1020F000BB1F621773078407BA0720F0621B730BBC
:10210000840BBA0BEE1F88F7E0950895E89409C098
:1021100097FB3EF490958095709561957F4F8F4F1A
:102120009F4F9923A9F0F92F96E9BB279395F69530
:10213000879577956795B795F111F8CFFAF4BB0FAE
:1021400011F460FF1BC06F5F7F4F8F4F9F4F16C012
:10215000882311F096E911C0772321F09EE8872F9C
:10216000762F05C0662371F096E8862F70E060E058
:102170002AF09A95660F771F881FDAF7880F9695D1
:10218000879597F9089597F99F6780E870E060E078
:1021900008959FEF80EC089500240A941616170600
:1021A00018060906089500240A9412161306140648
:1021B00005060895092E0394000C11F4882352F0AB
:1021C000BB0F40F4BF2B11F460FF04C06F5F7F4F63
:1021D0008F4F9F4F089557FD9058440F551F59F04A
:1021E0005F3F71F04795880F97FB991F61F09F3F04
:1021F00079F087950895121613061406551FF2CF2D
:102200004695F1DF08C0161617061806991FF1CF7C
:1022100086957105610508940895E894BB276627A3
:102220007727CB0197F908950BD0C4CFB5DF28F0FD
:10223000BADF18F0952309F0A6CFABCF1124EECF6B
:10224000CADFA0F3959FD1F3950F50E0551F629F11
:10225000F001729FBB27F00DB11D639FAA27F00DFF
:10226000B11DAA1F649F6627B00DA11D661F829F26
:102270002227B00DA11D621F739FB00DA11D621F0B
:10228000839FA00D611D221F749F3327A00D611D28
:10229000231F849F600D211D822F762F6A2F11240A
:1022A0009F5750408AF0E1F088234AF0EE0FFF1F5D
:1022B000BB1F661F771F881F91505040A9F79E3F94
:1022C000510570F060CFAACF5F3FECF3983EDCF38E
:1022D000869577956795B795F795E7959F5FC1F7D1
:1022E000FE2B880F911D9695879597F90895EE0F0F
:1022F000FF1F0590F491E02D09944532510520F41B
:10230000423010F00C948811FB011082CB0108952B
:10231000BB274A3031F4992322F4BDE29095819590
:102320009F4F0C94E6112532310520F4223010F035
:102330000C949E11FA011082CA010895BB272A301D
:1023400051F4992342F4BDE2909580957095619582
:102350007F4F8F4F9F4F0C94B9112532310520F4D8
:10236000223010F00C94B811FA011082CA010895BD
:10237000BB27FA01A62F6217710581059105330B62
:1023800030FB66F0AA27660F771F881F991FAA1FC8
:10239000A21710F0A21B63953850A9F7A05DAA33CD
:1023A00008F0A95DA19336F7B111B1931082CA016B
:1023B0000C94FF114532510520F4423010F00C947A
:1023C000E511FB011082CB010895BB27FB015527C6
:1023D000AA27880F991FAA1FA41710F0A41B839582
:1023E0005051B9F7A05DAA3308F0A95DA1930097F9
:1023F00079F7B111B1931192CB010C94FF11DC016B
:10240000FC01672F71917723E1F7329704C07C912B
:102410006D9370836291AE17BF07C8F30895F89467
:02242000FFCFEC
:0A24220000E100000000082C00009B
:00000001FF
