:100000000C94B0010C94CD010C94CD010C94E10D35
:100010000C94CD010C94CD010C94CD010C94CD0128
:100020000C94CD010C94CD010C9412090C944D0943
:100030000C94CD010C94CD010C94CD010C94CD0108
:100040000C94CD010C94CD010C94CD010C94CD01F8
:100050000C94CD010C94CD010C94CD010C94CD01E8
:100060000C94CD010C94CD010C94CD010C94CD01D8
:100070000C94CD010C94CD010C94CD010C94CD01C8
:100080000C94BD0D0C94CD010C94CD010C94CD01BC
:100090000C94CD010C94CD010C94CD010C94CD01A8
:1000A0000C94CD010C94CD010C94CD01AF08AC089B
:1000B000A908A608A308A0089D089A08970894080C
:1000C00091088E088B088808850882087F087C08BC
:1000D00079087608730870086D086A08670864086C
:1000E00061085E085B085808550852084F084C081C
:1000F00049084608430840083D083A0837083408CC
:1001000031082E082B082808250822081F081C087B
:1001100019081608130810080D080A08070804082B
:100120000108FE07FB07F807F507F207EF07426132
:1001300064206368617261637465722072656365CF
:100140006976656421204974207761733A200055EF
:100150006E7265636F676E697A6564205769726550
:100160006C6573734D6573736167650A00576972D7
:10017000656C6573734D6573736167652069732082
:10018000554E4B4E4F574E2E0A00576972656C659F
:1001900073734D6573736167652069732047414DC3
:1001A000455F4F5645522E0A00576972656C65735C
:1001B000734D6573736167652069732048414C46D0
:1001C00054494D452E0A00576972656C6573734D2D
:1001D0006573736167652069732050415553452EDF
:1001E0000A000A000953636F726520426C7565202E
:1001F000697320000A000953636F726520526564B9
:100200002069732000576972656C6573734D65735F
:100210007361676520697320474F414C5F422E0A26
:10022000000A000953636F726520426C756520698E
:100230007320000A000953636F72652052656420C1
:1002400069732000576972656C6573734D657373CC
:1002500061676520697320474F414C5F522E0A0049
:10026000576972656C6573734D657373616765205B
:10027000697320504C41592E0A00576972656C65AC
:1002800073734D65737361676520697320434F4DC8
:100290004D5F544553542E0A0074696D65725F6951
:1002A0006E697469616C697A6564210A00000100F5
:1002B00000E1021200020000F302430003000036D6
:1002C0000304010309043A0312020309044E03065E
:1002D000030309045603080001C11201803601819D
:1002E000361201000202000010C0167A040001015B
:1002F00002030109024300020100C03209040000A8
:10030000010202010005240010010524010101047D
:100310002402060524060001070582031000400997
:10032000040100020A000000070503024000000764
:100330000584024000000403090412034A002E0051
:1003400020004600690065006E006500000006039D
:100350004D0032000000080334003100300000007E
:1003600011241FBECFEFDAE0DEBFCDBF11E0A0E069
:10037000B1E0E4ECFDE102C005900D92AA30B107B6
:10038000D9F711E0AAE0B1E001C01D92AA32B1078D
:10039000E1F70E94930D0C94E00E0C940000809104
:1003A00018019091190101969093190180931801F9
:1003B00008950F931F93DF93CF93CDB7DEB72A979E
:1003C0000FB6F894DEBF0FBECDBF8C01809118012F
:1003D000909119012091160130911701821793070E
:1003E00019F420E030E04FC02F5F3F4F30931701EA
:1003F00020931601CE0101966AE00E94F7058981DB
:10040000833AD1F0843A38F4813A81F0823A88F420
:10041000803A51F507C0863AF1F0873AF9F0843A0C
:1004200019F516C0F801118210822BC081E090E00E
:1004300017C082E090E002C083E090E0F801918371
:1004400080838A81828313828B818483158219C081
:1004500084E090E005C085E090E002C086E090E096
:10046000F801918380830DC087E090E0F8019183CB
:1004700080838EE291E00E94B80A898190E00E9418
:10048000E40A21E030E0C9012A960FB6F894DEBFF5
:100490000FBECDBFCF91DF911F910F910895682FAF
:1004A00081E04AE00E94970610921901109218010B
:1004B00010921701109216010895AF92BF92CF9239
:1004C000DF92EF92FF920F931F93DF93CF93CDB7FD
:1004D000DEB760970FB6F894DEBF0FBECDBFA9821E
:1004E000BA82CB82DC82ED82FE820F831887298755
:1004F0003A874B875C876D877E878F87988B0B81C8
:100500001C81ED80FE8089819A8183309105C1F143
:100510008430910530F481309105B1F00297B8F440
:1005200010C08530910509F447C08530910508F465
:1005300040C08630910509F442C0079709F045C0D4
:1005400041C08AE792E043C080E692E040C084E484
:1005500092E00E94B80A85E392E00E94B80AC801BE
:100560000E94610B83E392E00E94B80A83E292E06A
:100570000E94B80AC7010E94610B81E292E027C085
:1005800085E092E00E94B80A86EF91E00E94B80AE6
:10059000C8010E94610B84EF91E00E94B80A84EECA
:1005A00091E00E94B80AC7010E94610B82EE91E0BF
:1005B0000EC087EC91E00BC089EA91E008C08AE8A0
:1005C00091E005C08DE691E002C08FE491E00E94C9
:1005D000B80A60960FB6F894DEBF0FBECDBFCF91BC
:1005E000DF911F910F91FF90EF90DF90CF90BF9020
:1005F000AF9008950E94E7060E9400078823E1F368
:1006000088E893E120E931E0F9013197F1F70197AA
:10061000D9F70E940007882389F06E9A76986A9A23
:10062000729880E197E220E931E0F9013197F1F722
:100630000197D9F76E9A769A6A9A729A08958F926C
:100640009F92AF92BF92CF92DF92EF92FF920F9361
:100650001F93DF93CF93CDB7DEB768970FB6F894AB
:10066000DEBF0FBECDBF8C01CE0101960E941C0CD7
:10067000882371F0DE0111969801A8016D0171E0E7
:10068000872E912C69E1A62EB12CAC0EBD1E0AC09E
:10069000F801118E108E138E128E158E148E178EF9
:1006A000168EE8CF0D911C91119712966D917C9149
:1006B00013971496ED90FC901597F801EE0FFF1F1D
:1006C000EC0DFD1D808191818F5F934071F4FB01E2
:1006D000EE0FFF1FEC0DFD1D808191818F5F934018
:1006E00021F4FA01118E108E0AC0FA01918E808ECB
:1006F000F9011183008373836283F582E482169685
:100700004E5F5F4F2A5F3F4FAA15BB0559F66896AB
:100710000FB6F894DEBF0FBECDBFCF91DF911F9112
:100720000F91FF90EF90DF90CF90BF90AF909F9090
:100730008F9008950E94A90C089580910A019091CC
:100740000B01A0910C01B0910D010196A11DB11DED
:1007500080930A0190930B01A0930C01B0930D01BB
:10076000089560910A0170910B0180910C019091A4
:100770000D010895A1E9B0E08C918F7E8C938C914E
:1007800088608C93E0E9F0E080818D7F80838081B8
:100790008E7F808380818F77808380818F7B808331
:1007A000E1E7F0E0808182608083C19A80E89EE387
:1007B00090939900809398008C918B7F8C938C916F
:1007C0008D7F8C938C9181608C9389E992E00E945B
:1007D000B80A0895589A599A5A9A8CE08093B800AA
:1007E000E9E6F0E080818062808380818F7E808373
:1007F000EA9A7894089584E88093BC008091BC00C4
:1008000087FFFCCF8091BB00089584E98093BC00F2
:10081000089520E030E08091BC0087FD06C02F5F86
:100820003F4F83E0293E3807B1F780E0285E334030
:1008300009F081E008958093BB0084E88093BC00B8
:100840000E940904882319F08091B900887F0895D7
:100850000F931F93182F062F84EA8093BC000E94E9
:100860000904882371F0812F880F002331F08F5FF6
:100870000E941B04883451F404C00E941B0480327F
:1008800029F484E98093BC0080E001C081E01F91DD
:100890000F9108950F931F93162F042F60E00E946D
:1008A0002804882379F0812F0E941B04882351F0AB
:1008B000802F0E941B04882329F084E98093BC00C8
:1008C00081E001C080E01F910F9108950F931F9365
:1008D000082F162F60E00E9428048823C1F0812F82
:1008E0000E941B04882399F084E98093BC00802F28
:1008F00061E00E942804882351F084E88093BC00C2
:100900008091BC0087FFFCCF8091BB0001C080E0DC
:100910001F910F910895DF92EF92FF920F931F9313
:10092000DF93CF9300D000D000D0CDB7DEB7082F33
:10093000D92E7E010894E11CF11C1EE489E6612F8A
:100940000E946604F70181937F0111501834B1F7BA
:10095000DE011196802F9D2D9C01F9019E01295FDA
:100960003F4F8D919D91958384833297A217B30752
:10097000C1F781E026960FB6F894DEBF0FBECDBF5B
:10098000CF91DF911F910F91FF90EF90DF9008952D
:10099000DF92EF92FF920F931F93DF93CF9300D0DC
:1009A00000D000D0CDB7DEB7082FD92E7E01089435
:1009B000E11CF11C18E489E6612F0E946604F7012E
:1009C00081937F0111501234B1F7DE011196802F0F
:1009D0009D2D9C01F9019E01295F3F4F8D919D91B5
:1009E000958384833297A217B307C1F781E02696D7
:1009F0000FB6F894DEBF0FBECDBFCF91DF911F9130
:100A00000F91FF90EF90DF900895DF92EF92FF92A9
:100A10000F931F93DF93CF9300D000D000D0CDB7BA
:100A2000DEB7082FD92E7E010894E11CF11C10E4DA
:100A300089E6612F0E946604F70181937F011150BE
:100A40001A33B1F7DE011196802F9D2D9C01F9011B
:100A50009E01295F3F4F8D919D91958384833297AD
:100A6000A217B307C1F781E026960FB6F894DEBF50
:100A70000FBECDBFCF91DF911F910F91FF90EF90EF
:100A8000DF900895DF92EF92FF920F931F93DF9311
:100A9000CF93CDB7DEB764970FB6F894DEBF0FBE25
:100AA000CDBF082FD92E7E010894E11CF11C1EE455
:100AB00089E6612F0E946604F70181937F0111503E
:100AC0001A33B1F7DE011196802F9D2D9C01F9019B
:100AD0009E01295F3F4F1E968D919C911F97958394
:100AE000848316968D919C911797938782878D9119
:100AF0009D91918B808B3297A217B30761F781E0AC
:100B000064960FB6F894DEBF0FBECDBFCF91DF91D4
:100B10001F910F91FF90EF90DF9008950F931F9317
:100B2000182F062F843008F05EC0643008F05BC0D8
:100B30000E94EA0388EB9BE020E931E0F90131975C
:100B4000F1F70197D9F789E665E70E9466048836D0
:100B500009F049C089E66BE641E00E944A04110FA2
:100B6000110F110F89E66CE1412F0E944A04000F1A
:100B7000000F000F89E66BE1402F0E944A0489E6CE
:100B800067E342E00E944A048EE162E040E00E9496
:100B90004A0489E667E340E00E944A0489E664E388
:100BA0004EE10E944A0489E667E641E00E944A0459
:100BB00089E664E24DE10E944A0489E665E24EE975
:100BC0000E944A0489E666E243E00E944A0489E6FC
:100BD00067E246E90E944A0489E66AE640E20E942A
:100BE0004A0481E001C080E01F910F9108959C01AB
:100BF00084EA8093BC008091BC0087FFFCCF81E534
:100C00008093BB0084E88093BC008091BC0087FF88
:100C1000FCCF8091B900887F8834A1F084EC809368
:100C2000BC008091BC0087FFFCCF8091BB00861781
:100C300049F4A0E0B0E0772767FD709561507040FF
:100C400094EC12C084E98093BC0080E008959093F6
:100C5000BC008091BC0087FFFCCF8091BB00F901F4
:100C6000EA0FFB1F80831196A617B70784F384E869
:100C70008093BC008091BC0087FFFCCF8091BB00BB
:100C8000A20FB31F8C9384E98093BC0081E0089588
:100C9000982FF89484EA8093BC008091BC0087FF71
:100CA000FCCF80E58093BB0084E88093BC008091FA
:100CB000BC0087FFFCCF8091B900887F803231F47F
:100CC00084E98093BC00789480E0089583E0809369
:100CD000BB0084E88093BC008091BC0087FFFCCF00
:100CE0009093BB0084E88093BC008091BC0087FF98
:100CF000FCCF20E030E0552747FD509594E80EC02A
:100D0000FB01E20FF31F80818093BB009093BC0036
:100D10008091BC0087FFFCCF2F5F3F4F2417350722
:100D20007CF384E98093BC00789481E00895FF927D
:100D30000F931F93182F062FF42E0E94EA0384EAC4
:100D40008093BC008091BC0087FFFCCF80E580933E
:100D5000BB0084E88093BC008091BC0087FFFCCF7F
:100D60008091B900887F803229F484E98093BC00A7
:100D700080E029C081E08093BB0084E88093BC00C0
:100D80008091BC0087FFFCCF1093BB0084E8809368
:100D9000BC008091BC0087FFFCCF0093BB0084E8BF
:100DA0008093BC008091BC0087FFFCCFF092BB0019
:100DB00084E88093BC008091BC0087FFFCCF84E96D
:100DC0008093BC0081E01F910F91FF90089581E016
:100DD0008093D70080EA8093D80082E189BD09B46E
:100DE00000FEFDCF80E98093D8001092E0001092C1
:100DF0000E0110920F018CE08093E2007894089528
:100E000080910E0108959FB7F89480910E01882378
:100E100039F083E08093E9008091E80085FD03C00C
:100E20009FBF8FEF08952091F1008091E80085FD2C
:100E300003C08BE68093E8009FBF822F08959FB781
:100E4000F89480910E01882329F083E08093E900D3
:100E50008091F2009FBF089580910E01882371F068
:100E60009FB7F89483E08093E9002BE602C02093BB
:100E7000E8008091E80085FDFACF9FBF0895482FD4
:100E800080910E018823D9F12FB7F89484E08093E4
:100E9000E90080911101882341F08091E80085FDEF
:100EA00002C02FBF12C0109211019091E400975E12
:100EB00034E08091E80085FD13C02FBF8091E400ED
:100EC000891729F481E0809311018FEF08958091B3
:100ED0000E018823A1F02FB7F8943093E900E9CFF1
:100EE0004093F1008091E80085FD03C08AE3809380
:100EF000E80085E0809310012FBF80E008958FEF18
:100F00000895282F80910E01882351F09FB7F894FF
:100F100084E08093E9008091E80085FD03C09FBFD5
:100F20008FEF08952093F1008091E80085FD03C0C4
:100F30008AE38093E80085E0809310019FBF80E002
:100F40000895CF93DF93EC0180910E01882309F47B
:100F50001CC13FB7F89484E08093E90080911101AF
:100F6000882309F407C18091E80085FD02C03FBFD6
:100F70000CC110921101FEC09091E400975E809127
:100F8000E80085FD13C03FBF8091E400891721F47C
:100F900081E080931101F9C080910E01882309F44A
:100FA000F4C03FB7F8945093E900E9CF8091F20084
:100FB0002A2F281B822F90E06817790708F4262F24
:100FC000822F90E08134910508F0C6C08A5A9F4F65
:100FD000FC01EE0FFF1F0590F491E02D099489911B
:100FE0008093F10089918093F10089918093F100C1
:100FF00089918093F10089918093F1008991809388
:10100000F10089918093F10089918093F100899199
:101010008093F10089918093F10089918093F10090
:1010200089918093F10089918093F1008991809357
:10103000F10089918093F10089918093F100899169
:101040008093F10089918093F10089918093F10060
:1010500089918093F10089918093F1008991809327
:10106000F10089918093F10089918093F100899139
:101070008093F10089918093F10089918093F10030
:1010800089918093F10089918093F10089918093F7
:10109000F10089918093F10089918093F100899109
:1010A0008093F10089918093F10089918093F10000
:1010B00089918093F10089918093F10089918093C7
:1010C000F10089918093F10089918093F1008991D9
:1010D0008093F10089918093F10089918093F100D0
:1010E00089918093F10089918093F1008991809397
:1010F000F10089918093F10089918093F1008991A9
:101100008093F10089918093F10089918093F1009F
:1011100089918093F10089918093F1008991809366
:10112000F10089918093F10089918093F100899178
:101130008093F10089918093F10089918093F1006F
:1011400089918093F10089918093F1008991809336
:10115000F10089918093F10089918093F100809151
:10116000E80085FD02C0B093E800621B710940935E
:10117000100104C054E0A0E4BAE345E06115710534
:1011800009F0FACE3FBF80E001C08FEFDF91CF9131
:1011900008959FB7F89480911001882341F084E06E
:1011A0008093E9008AE38093E800109210019FBFCA
:1011B000089580910401089580910501089580911A
:1011C0000601089580910F010895382F9FB7F89474
:1011D00080910E01882339F022E02093E90080916C
:1011E000E80085FD03C09FBF8FEF089581EA8093DB
:1011F000F10080E28093F1001092F1001092F10072
:101200001092F1001092F1002093F1001092F10081
:101210003093F1001092F1008AE38093E8009FBFC1
:1012200080E008951F920F920FB60F9211248F93B2
:101230009F938091E1001092E100982F83FF11C0ED
:101240001092E90081E08093EB001092EC0082E1C3
:101250008093ED0088E08093F00010920E011092D0
:101260000F0192FF13C080910E01882379F08091C5
:101270001001882359F0815080931001882331F4A4
:1012800084E08093E9008AE38093E8009F918F9146
:101290000F900FBE0F901F9018951F920F920FB6D0
:1012A0000F9211240F931F932F933F934F935F93AC
:1012B0006F937F938F939F93AF93BF93EF93FF931E
:1012C0001092E9008091E80083FF3CC14091F10059
:1012D0003091F1008091F100682F70E02091F100D1
:1012E000922F80E0682B792B8091F100A82FB0E03D
:1012F0002091F100922F80E0A82BB92B1091F100E2
:101300000091F10082EF8093E800363009F05AC076
:1013100024EB32E0A90145505040F90137978591FF
:1013200094918617970701F5FA01859194918A1790
:101330009B07D1F49A012E5F3F4FF901659174919B
:101340002E5F3F4FF9014491212F30E0902F80E034
:10135000282B392B2F3F310519F010F02FEF30E0FB
:10136000241758F4422F09C0295F3F4F495F5F4F50
:10137000F2E02E3D3F0789F6E5C05EEF8091E80080
:10138000282F30E0C90185709070892BB9F322FDB8
:10139000DCC0342F413108F030E1232FCB0106C0EF
:1013A000FC010196E491E093F10021502223C1F762
:1013B000630F711D431B5093E8004423F9F630314D
:1013C000E9F2C3C0353061F48EEF8093E80080917C
:1013D000E80080FFFCCF862F80688093E300B5C0D3
:1013E000393051F5442309F0ADC060930E011092DD
:1013F0000F01109210018EEF8093E80087ED92E0CC
:1014000021E02093E900FC010196E491E093EB00D8
:10141000EE2369F0AC014F5F5F4FFC018491809334
:10142000EC00CA010196FA0134913093ED002F5F70
:10143000253039F78EE181C0383061F4403809F049
:1014400081C08091E80080FFFCCF80910E018093E5
:10145000F10050C0313289F4413A09F073C08091F3
:10146000E80080FFFCCFE0E0F1E081918093F100A3
:1014700081E0E730F807C9F73DC03032A1F44132CE
:1014800009F060C08091E80082FFFCCFE0E0F1E06D
:101490008091F100819381E0E730F807C9F78BEF85
:1014A0008093E80027C0323251F4413209F04AC03B
:1014B00060930F018091E80080FFFCCF1BC03323B5
:1014C000E9F48091E80080FFFCCF423811F080E021
:1014D0000DC0A093E9008091EB0090E025E0969587
:1014E00087952A95E1F781701092E9008093F100C9
:1014F0001092F1008EEF8093E80027C0313011F098
:10150000333001F54230F1F4672BE1F42A2F2F77C5
:10151000822F81508430B0F48EEF8093E8002093C6
:10152000E900333079F089E18093EB0081E090E0CD
:1015300002C0880F991F2A95E2F78093EA00109263
:10154000EA0003C081E28093EB00FF91EF91BF912D
:10155000AF919F918F917F916F915F914F913F914B
:101560002F911F910F910F900FBE0F901F90189504
:101570001F93CF93DF93EC01FE0121961491112369
:1015800049F01A3019F48DE00E943F07812F0E9424
:101590003F07F2CFDF91CF911F910895982F8A30A6
:1015A00010F087E301C080E3890F0E943F07089590
:1015B0001F93182F82958F700E94CE0A812F8F70F3
:1015C0000E94CE0A1F9108951F93182F892F0E9401
:1015D000D80A812F0E94D80A1F9108950E94D80A24
:1015E0000895EF92FF920F931F93DF93CF93CDB7A0
:1015F000DEB72B970FB6F894DEBF0FBECDBF8E01BE
:101600000F5F1F4F2BE0F80111922A95E9F7A8010F
:101610002AE030E00E945F0E3BE0E32EF12CEC0E5E
:10162000FD1EF8018081882311F00E943F070F5FA3
:101630001F4F0E151F05A9F72B960FB6F894DEBFA6
:101640000FBECDBFCF91DF911F910F91FF90EF9013
:101650000895EF92FF920F931F93DF93CF93CDB72F
:10166000DEB72B970FB6F894DEBF0FBECDBF8E014D
:101670000F5F1F4F2BE0F80111922A95E9F7A8019F
:101680002AE030E00E942B0E4CE0E42EF12CEC0E10
:10169000FD1EF8018081882311F00E943F070F5F33
:1016A0001F4F0E151F05A9F72B960FB6F894DEBF36
:1016B0000FBECDBFCF91DF911F910F91FF90EF90A3
:1016C0000895EF92FF920F931F93DF93CF9300D073
:1016D00000D000D0CDB7DEB78E010F5F1F4F26E0E0
:1016E000F80111922A95E9F7B8014AE050E00E940A
:1016F000840E56E0E52EF12CEC0EFD1EF8018081E3
:10170000882311F00E943F070F5F1F4F0E151F0522
:10171000A9F726960FB6F894DEBF0FBECDBFCF91C6
:10172000DF911F910F91FF90EF900895EF92FF923C
:101730000F931F93DF93CF93CDB7DEB727970FB6E5
:10174000F894DEBF0FBECDBF8E010F5F1F4F27E0A5
:10175000F80111922A95E9F7B8014AE050E00E9499
:101760000A0E68E0E62EF12CEC0EFD1EF8018081D9
:10177000882311F00E943F070F5F1F4F0E151F05B2
:10178000A9F727960FB6F894DEBF0FBECDBFCF9155
:10179000DF911F910F91FF90EF90089520E030E0CE
:1017A0008091BC0087FD06C02F5F3F4F83E0293E3C
:1017B0003807B1F780E0285E334009F081E00895F2
:1017C0008093BB0084E88093BC000E94CE0B8823EA
:1017D00019F08091B900887F08951F93182F84EA2B
:1017E0008093BC000E94CE0B882369F0110F812FDB
:1017F0008F5F0E94E00B883411F081E004C084E91F
:101800008093BC0080E01F9108951F93182F84EAF5
:101810008093BC000E94CE0B882361F0812F880F3B
:101820000E94E00B803211F081E004C084E98093D3
:10183000BC0080E01F9108950F931F93DF93CF9317
:10184000CDB7DEB760970FB6F894DEBF0FBECDBF41
:10185000182F092F88E50E94050C882309F469C018
:1018600086E30E94E00B882309F463C084E9809337
:10187000BC0085E88A95F1F788E50E94ED0B882386
:1018800009F457C0FE01319680E1DF011D928A956F
:10189000E9F794EC9E01205F3F4F9093BC0080914C
:1018A000BC0087FFFCCF8091BB008193E217F30758
:1018B000A1F784E88093BC008091BC0087FFFCCF37
:1018C0008091BB00888B84E98093BC00DE01129676
:1018D000212F302FC901FC01BE01625F7F4F12969C
:1018E0002C91129730E0C9018073907054E0880FFA
:1018F000991F5A95E1F74C91840F911D9183808334
:10190000C901807C9070880F991F880F991F1196CC
:101910004C911197840F911D938382832F703070A7
:101920003583248313963696A617B707C1F681E050
:1019300001C080E060960FB6F894DEBF0FBECDBF49
:10194000CF91DF911F910F91089584E98093BC009E
:1019500008951F93CF93DF930E94EA0388E50E94C6
:10196000050C882309F4B3C080E30E94E00B8823B0
:1019700009F4ADC081E00E94E00B882309F4A7C000
:1019800084E98093BC0080E49CE90197F1F788E545
:101990000E94050C882309F49AC080E00E94E00BA5
:1019A000882309F494C080E00E94E00B882309F4A6
:1019B0008EC080E00E94E00B882309F488C080E09C
:1019C0000E94E00B882309F482C080E00E94E00BB3
:1019D000882309F47CC080E00E94E00B882309F48E
:1019E00076C080E00E94E00B882309F470C080E993
:1019F0000E94E00B882309F46AC014E91093BC002C
:101A0000C0E4DCE9CE010197F1F788E50E94050CFE
:101A1000882309F45CC087E00E94E00B882309F466
:101A200056C080E00E94E00B882309F450C081E496
:101A30000E94E00B882309F44AC01093BC00CE0139
:101A40000197F1F788E50E94050C882309F43FC04F
:101A50008AE10E94E00B882309F439C080E40E94E7
:101A6000E00B8823A1F180E00E94E00B882379F14C
:101A70001093BC00CE010197F1F788E50E94050C98
:101A8000882329F183E30E94E00B882301F183E09E
:101A90000E94E00B8823D9F01093BC00CE0101977F
:101AA000F1F788E50E94050C882389F080E30E9405
:101AB000E00B882361F088E00E94E00B882339F076
:101AC0001093BC00CE010197F1F781E001C080E0E6
:101AD000DF91CF911F91089580E885BF85BF8093E6
:101AE0006100109261000E94EA0380ED97E020E916
:101AF00031E0F9013197F1F70197D9F70E94FA0225
:101B000088E893E120E931E0F9013197F1F7019795
:101B1000D9F780910701909108010E944F020E941D
:101B2000BA03789408951F930E946C0D10E48AE123
:101B300091E00E94D9010E94B103209112013091DD
:101B400013014091140150911501621B730B840B1A
:101B5000950B655F7140804090404CF36E9A8EB15A
:101B600081278EB90E94B103609312017093130113
:101B70008093140190931501DACF1F920F920FB644
:101B80000F9211242F933F934F935F936F937F9303
:101B90008F939F93AF93BF93EF93FF930E949D0307
:101BA000FF91EF91BF91AF919F918F917F916F9135
:101BB0005F914F913F912F910F900FBE0F901F900B
:101BC00018951F920F920FB60F9211242F933F93E7
:101BD0004F935F936F937F938F939F93AF93BF9335
:101BE000EF93FF936A9A8EB194E089278EB90E9491
:101BF000CF01FF91EF91BF91AF919F918F917F9115
:101C00006F915F914F913F912F910F900FBE0F9069
:101C10001F901895FB019F01E8944230C4F04532B3
:101C2000B4F44A3029F497FB1EF4909581959F4FA8
:101C3000642F77270E94AA0E805D8A330CF0895D9D
:101C40008193CB010097A1F716F45DE251931082C6
:101C5000C9010C949A0EFA01CF93FF93EF932230AF
:101C600044F1253234F5C22FE894CA3049F497FB89
:101C70003EF490958095709561957F4F8F4F9F4F63
:101C80002C2F332744275527FF93EF930E94BE0E36
:101C9000EF91FF91605D6A330CF0695D6193B9016A
:101CA000CA01605070408040904051F716F4CDE278
:101CB000C19310828F919F91CF910C949A0EFA014B
:101CC000CF93FF93EF932230CCF02532BCF4C22F98
:101CD0002C2F332744275527FF93EF930E94BE0EE6
:101CE000EF91FF91605D6A330CF0695D6193B9011A
:101CF000CA01605070408040904051F710828F912F
:101D00009F91CF910C949A0EFB019F01423074F089
:101D1000453264F4642F77270E94AA0E805D8A33CF
:101D20000CF0895D8193CB010097A1F71082C90166
:101D30000C949A0EDC01FC01672F71917723E1F777
:101D4000329704C07C916D9370836291AE17BF0788
:101D5000C8F30895AA1BBB1B51E107C0AA1FBB1FF4
:101D6000A617B70710F0A61BB70B881F991F5A9527
:101D7000A9F780959095BC01CD010895A1E21A2E96
:101D8000AA1BBB1BFD010DC0AA1FBB1FEE1FFF1F1F
:101D9000A217B307E407F50720F0A21BB30BE40B6F
:101DA000F50B661F771F881F991F1A9469F76095B6
:101DB0007095809590959B01AC01BD01CF01089570
:041DC000F894FFCFC5
:0A1DC40000E100000000082C000000
:00000001FF
