:100000000C9428020C9445020C9445020C94F61BA7
:100010000C9445020C9445020C9445020C94450244
:100020000C9445020C9445020C94C4170C94FE17D2
:100030000C9445020C9445020C9445020C94450224
:100040000C9445020C9445020C9445020C94450214
:100050000C9445020C9445020C9445020C94450204
:100060000C9445020C9445020C9445020C944502F4
:100070000C9445020C94431C0C9445020C944502CC
:100080000C941F1C0C9445020C9445020C944502E0
:100090000C9445020C9445020C9445020C944502C4
:1000A0000C9445020C9445020C9445029702990267
:1000B000AE02A202BA02A002C102C802D902ED0C2D
:1000C000F10CF70CFA0C080D160D0B0D0E0D7C0D36
:1000D0007F0D820D9B0DB40DB70DBA0DBD0D6C17C4
:1000E00064175C1754174C1744173C1734172C1718
:1000F00024171C1714170C170417FC16F416EC160B
:10010000E416DC16D416CC16C416BC16B416AC16FF
:10011000A4169C1694168C1684167C1674166C16EF
:1001200064165C1654164C1644163C1634162C16DF
:1001300024161C1614160C160416FC15F415EC15D2
:10014000E415DC15D415CC15C415BC15B415AC15C7
:10015000A4159C1594158C1584157C1574156C15B7
:10016000084AD73B3BCE016E84BCBFFDC12F3D6C1E
:1001700074319ABD56833DDA3D00C77F11BED9E484
:10018000BB4C3E916BAAAABE000000803F05A84C64
:10019000CDB2D44EB93836A9020C50B99186880830
:1001A0003CA6AAAA2ABE000000803F00426164204B
:1001B00063686172616374657220726563656976F4
:1001C000656421204974207761733A2000207068AB
:1001D000692A3130303A20002079506F733A20007C
:1001E0000A2043757272656E742078506F733A20DE
:1001F00000207363616C653A20002074683A200027
:100200002079433A20000A20436F6E7374206461A2
:1002100074613A2078433A20003A20002076003A70
:1002200020002079003A20000A206D576969207863
:10023000000A205075636B20416E676C653A2000A0
:1002400020000A205075636B204144432056616CA6
:10025000733A00556E7265636F676E697A656420E4
:10026000576972656C6573734D6573736167650A71
:1002700000576972656C6573734D6573736167656B
:1002800020697320554E4B4E4F574E2E0A0057692A
:1002900072656C6573734D6573736167652069730F
:1002A0002047414D455F4F5645522E0A005769720F
:1002B000656C6573734D6573736167652069732041
:1002C00048414C4654494D452E0A00576972656CA9
:1002D0006573734D65737361676520697320504161
:1002E0005553452E0A000A000953636F7265204278
:1002F0006C756520697320000A000953636F72658D
:10030000205265642069732000576972656C6573BB
:10031000734D65737361676520697320474F414C66
:100320005F422E0A000A000953636F726520426C17
:10033000756520697320000A000953636F72652098
:100340005265642069732000576972656C65737328
:100350004D65737361676520697320474F414C5F3A
:10036000522E0A00576972656C6573734D6573731D
:1003700061676520697320504C41592E0A00576906
:1003800072656C6573734D6573736167652069731E
:1003900020434F4D4D5F544553542E0A0000010039
:1003A0000034041200020000F1034300030000EDDA
:1003B000030401030904D9031202030904D103064B
:1003C00003030904C70308080334003100300000A8
:1003D0000006034D003200000012034A002E0020E8
:1003E000004600690065006E006500000004030916
:1003F0000409024300020100C032090400000102A6
:100400000201000524001001052401010104240259
:1004100006052406000107058203100040090401B7
:1004200000020A00000007050302400000070584DF
:10043000024000001201000202000010C0167A04FF
:100440000001010203010001C11201803601813661
:1004500011241FBECFEFDAE0DEBFCDBF11E0A0E078
:10046000B1E0E0E1F3E402C005900D92A834B107D9
:10047000D9F721E0A8E4B1E001C01D92AA3EB2077D
:10048000E1F70E94391D0C9486210C94000080B382
:100490008F7380BB81B38F7381BBECE7F0E0808109
:1004A0008F778083808180648083AAE7B0E08C911D
:1004B00084608C938C9181608C93EEE7F0E0808176
:1004C000816080838081826080838081806180837D
:1004D0008081806280838081806480838081806865
:1004E0008083EDE7F0E08081816080838081886097
:1004F00080838081806180838C9188608C938C91D3
:100500008F778C93089520917A002F7720937A002B
:1005100090934B0180934A018930910508F05BC0AC
:10052000FC01EA5AFF4F80917B000C9406218F7DDD
:1005300029C08F7D80937B0080917C008B7F08C0D9
:100540008F7D38C08F7D80937B0080917C0084609C
:1005500080937C0080917C008D7F25C08F7D80936F
:100560007B0080917C00846080937C0080917C0083
:1005700082602AC08F7D80937B0080917C008460A4
:100580000DC0806280937B0080917C008B7F17C0C0
:10059000806280937B0080917C008B7F80937C00C5
:1005A00080917C00826080937C0080917C008160DF
:1005B00010C0806280937B0080917C008460809377
:1005C0007C0080917C008D7F80937C0080917C00FA
:1005D0008E7F80937C0080917A00806880937A007F
:1005E00080917A00806480937A00089520914C0174
:1005F00030914D01232B71F420914E0130914F0128
:10060000232B41F421E030E030934D0120934C0145
:100610000E94830280914E0190914F01892B71F0CD
:1006200010924F0110924E01609148017091490162
:1006300080914A0190914B010C94C80F089581E07C
:1006400090E090934F0180934E0110924D011092D3
:100650004C018091780090917900909349018093AA
:100660004801EAE7F0E080818F778083089508955C
:1006700088EE93E090938F0180938E019093910187
:100680008093900110929201109293011092940124
:100690001092950110929601109297011092980174
:1006A00010929901109272011092730110927401CC
:1006B00010927501109276011092770110927801D4
:1006C0001092790110927A0110927B0110927C01B4
:1006D00010927D010895EF92FF920F931F93CF9395
:1006E000DF93CDB7DEB7FE0139966CE171E044E1EE
:1006F00051E09E012F5D3F4F8CE0E82E81E0F82E07
:1007000084E090E000811181DB010D931D93BD0118
:1007100002811381DA010D931D93AD01D9010D9171
:100720001D919D01D7010D931D937D010197369673
:10073000009741F7DF91CF911F910F91FF90EF90BC
:100740000895861B970B421B530B889FB001899F0E
:10075000700D700D1124449FC001459F900D900DA8
:100760001124680F791F882777FD8095982F0E94A4
:10077000051F0E948B200E94D21ECB010895FC0110
:100780004191519121E030E080E090E02617370759
:1007900064F4A191B191A417B50714F0DA0101C076
:1007A000C9012F5F3F4FAD01F1CF0895FC01419189
:1007B000519121E030E080E090E02617370764F4A3
:1007C000A191B1914A175B0714F0DA0101C0C90188
:1007D0002F5F3F4FAD01F1CF08952F923F924F927F
:1007E0005F926F927F928F929F92AF92BF92CF92C1
:1007F000DF92EF92FF920F931F93CF93DF93CDB7CA
:10080000DEB7A0970FB6F894DEBF0FBECDBF9E87B0
:100810008D878B014A0120918E0130918F013C8F91
:100820002B8F60919001709191017A8F698F8091E7
:10083000920190919301A0919401B09195018D8BBB
:100840009E8BAF8BB88F60919601709197018091CC
:10085000980190919901698B7A8B8B8B9C8BDA0133
:100860004D905C9011971296AD90BC901397F80143
:1008700020803180628073809201A501B101C301A3
:100880000E94A103988B8F87D4011496CD90DC90A1
:100890001597F801E480F5809501A601B301C70121
:1008A0000E94A1035C019201A601B101C7010E944F
:1008B000A1032F85388938872F83BA86A9869C871C
:1008C0008B8763E070E0CE0107960E94BF03FC01B6
:1008D000EE0FFF1F61E070E06C0F7D1FE60FF71F4A
:1008E000C680D780FE0137969B017E017DE0E70E32
:1008F000F11C48EEA42E43E0B42E419151914A9D43
:10090000C0014B9D900D5A9D900D1124B6010E947F
:10091000F220D9016D937D939D01EE15FF0569F7D6
:1009200089819A812B813C81820F931F2D813E8189
:10093000820F931F8B32B2E19B070CF4ABC063E0D4
:1009400070E0CE0101960E94BF037C0163E070E07D
:10095000CE0101960E94D603E114F10469F48130BE
:10096000910539F422E030E030937F0120937E013D
:1009700023C082E090E00EC0892BA9F4EA94EF280E
:1009800039F410927F0110927E0181E090E014C052
:1009900081E090E090937F0180937E0110929D0111
:1009A00010929C010DC0EA94EF2859F310927F0138
:1009B00010927E0182E090E090939D0180939C01D3
:1009C00040919C0150919D01440F551FF801E40F87
:1009D000F51F608171817093890160938801809116
:1009E0007E0190917F01880F991FF801E80FF91F90
:1009F000208131813093870120938601F401E40F37
:100A0000F51F008111811093830100938201F4018D
:100A1000E80FF91FE080F180F0928101E0928001FF
:100A2000CB01820F931F97FD019695958795909323
:100A3000A7018093A601C8018E0D9F1D97FD019609
:100A4000959587959093850180938401621B730B24
:100A5000882777FD8095982F0E94051F2BED3FE09A
:100A600049EC5FE30E949C1D9B01AC01B8016E192B
:100A70007F09882777FD8095982F2D8F3E8F4F8F88
:100A800058A30E94051F2D8D3E8D4F8D58A10E94A9
:100A9000101E24C2863A2EE092070CF066C163E075
:100AA00070E0CE0101960E94BF037C0163E070E01C
:100AB000CE0101960E94D603E114F10479F481304D
:100AC000910529F490937F0180937E0104C01092D8
:100AD0007F0110927E0182E090E011C00097A1F4A6
:100AE00031E0E316F10429F4F0927F01E0927E01F7
:100AF0001BC010927F0110927E0181E090E09093E4
:100B0000A5018093A40114C08130910539F422E03D
:100B100030E030937F0120937E01F1CF82E090E0BE
:100B200090937F0180937E011092A5011092A40101
:100B30004091A4015091A501BA01660F771FF801F9
:100B4000E60FF71FE080F180F092A301E092A2018E
:100B500020917E0130917F01C901880F991FF80112
:100B6000E80FF91F208031803092870120928601A2
:100B7000F401E60FF71FC080D180D092A901C09286
:100B8000A801F401E80FF91F60817181788B6F87EC
:100B9000709381016093800183E090E0841B950B4A
:100BA000821B930B880F991FF801E80FF91FA08093
:100BB000B180B092A101A092A001F401E80FF91F49
:100BC0000081118110939F0100939E01B70162196A
:100BD0007309882777FD8095982F0E94051F9B0138
:100BE000AC01B6018F859889681B790B882777FD42
:100BF0008095982F2D8F3E8F4F8F58A30E94051FF1
:100C00002D8D3E8D4F8D58A10E94101E29E130E997
:100C10004DE85FE30E949D1D2BED3FE049E450E469
:100C20000E949D1D2B013C0120E030E0A9010E94A3
:100C3000631E87FD09C040928A0150928B01609229
:100C40008C0170928D0110C02BED3FE049EC50E417
:100C5000C301B2010E949D1D60938A0170938B01B4
:100C600080938C0190938D019801A601B501C70175
:100C70000E94A103BC01882777FD8095982F0E94D0
:100C8000051F23E436E142E35FE30E941E206B016F
:100C90007C0120EF35E849E55FE360918A017091BE
:100CA0008B0180918C0190918D010E949C1D2BEDF8
:100CB0003FE049E450E40E949C1D2B013C010E944E
:100CC000671E9B01AC01B501882777FD8095982FA1
:100CD0002D8F3E8F4F8F58A30E94051F4B015C0143
:100CE0002D8D3E8D4F8D58A1C701B6010E941E204B
:100CF0009B01AC01C501B4010E949D1D0E94D21E42
:100D00004B015C017093890160938801C301B201BA
:100D10000E9481209B01AC01B801882777FD809556
:100D2000982F2D8F3E8F4F8F58A30E94051F2B01A8
:100D30003C012D8D3E8D4F8D58A1C701B6010E94FB
:100D40001E209B01AC01C301B2010E949D1D0E94A7
:100D5000D21E7093830160938201820C931C97FED4
:100D600046C2AFEF8A1A9A0A42C28F3BFFE09F0742
:100D70000CF4D6C063E070E0CE0101960E94BF0380
:100D80007C0163E070E0CE0101960E94D603E1147D
:100D9000F10469F48130910539F422E030E03093B8
:100DA0007F0120937E012DC082E090E011C0892B4D
:100DB000C1F421E0E216F10449F410927F0110928F
:100DC0007E01F0929D01E0929C011FC081E090E0C5
:100DD00090937F0180937E0110929D0110929C015F
:100DE00014C0EA94EF2829F410927F0110927E013A
:100DF00006C081E090E090937F0180937E0182E0C5
:100E000090E090939D0180939C0140919C015091B2
:100E10009D01440F551FF801E40FF51F608171819A
:100E2000709389016093880180917E0190917F0188
:100E3000880F991FF801E80FF91F20813181309345
:100E4000870120938601F401E40FF51FE080F18013
:100E5000F0928301E0928201F401E80FF91F008112
:100E600011811093810100938001CB01820F931FA8
:100E700097FD0196959587959093A7018093A6017C
:100E8000C701800F911F97FD0196959587959093C7
:100E9000850180938401621B730B882777FD809501
:100EA000982F0E94051F9B01AC01B701601B710BBD
:100EB000882777FD8095982F2D8F3E8F4F8F58A3D1
:100EC0000E94051F2D8D3E8D4F8D58A10E94101E32
:100ED0002BED3FE049EC5FE30E949C1D6B017C0120
:100EE00060938A0170938B0180938C0190938D01A4
:100EF00020E030E0A9010E94631E87FFAFC12BED07
:100F00003FE049EC50E4C701B6010E949D1D60938B
:100F10008A0170938B0180938C0190938D019EC107
:100F20008E3B9F4009F478C163E070E0CE010196EA
:100F30000E94BF037C0163E070E0CE0101960E9435
:100F4000D603E114F10479F48130910529F410926B
:100F50009D0110929C012CC081E090E090939D0136
:100F600080939C0111C00097A1F482E090E09093DF
:100F70009D0180939C0171E0E716F10429F4F09241
:100F8000A501E092A40118C01092A5011092A4013D
:100F900013C0019729F410929D0110929C0106C084
:100FA00081E090E090939D0180939C0182E090E02D
:100FB0009093A5018093A40140919C0150919D01C3
:100FC000BA01660F771FF801E60FF71F2080318006
:100FD00030928901209288012091A4013091A501CD
:100FE000C901880F991FF801E80FF91FE080F1800F
:100FF000F092A301E092A201F401E60FF71FA08195
:10100000B181B88BAF87B0938301A0938201F401C3
:10101000E80FF91FC080D180D092A901C092A80129
:1010200083E090E0841B950B821B930B880F991F24
:10103000F801E80FF91FA080B180B092A101A09241
:10104000A001F401E80FF91F0081118110939F01A5
:1010500000939E01B1016A197B09882777FD80956D
:10106000982F0E94051F9B01AC016F857889601B3A
:10107000710B882777FD8095982F2D8F3E8F4F8F8E
:1010800058A30E94051F2D8D3E8D4F8D58A10E94A3
:10109000101E20EF35E849E55FE30E949D1D2BED12
:1010A0003FE049E450E40E949D1D2B013C0120E0FB
:1010B00030E0A9010E94631E87FD09C040928A01A9
:1010C00050928B0160928C0170928D0110C02BEDBB
:1010D0003FE049EC50E4C301B2010E949D1D6093C2
:1010E0008A0170938B0180938C0190938D019801FC
:1010F000A601B501C7010E94A103BC01882777FDA5
:101100008095982F0E94051F23ED3BE94EE55FE394
:101110000E941E206B017C0124E036E54EE05FE377
:1011200060918A0170918B0180918C0190918D0169
:101130000E949C1D2BED3FE049EC5FE30E949C1D4B
:101140002B013C010E94671E9B01AC01B501882761
:1011500077FD8095982F2D8F3E8F4F8F58A30E943B
:10116000051F4B015C012D8D3E8D4F8D58A1C70190
:10117000B6010E941E209B01AC01C501B4010E9472
:101180009D1D0E94D21E4B015C01709387016093EC
:101190008601C301B2010E9481209B01AC01B8010C
:1011A000882777FD8095982F2D8F3E8F4F8F58A3DE
:1011B0000E94051F2B013C012D8D3E8D4F8D58A1A6
:1011C000C701B6010E941E209B01AC01C301B20100
:1011D0000E949D1D0E94D21E709381016093800128
:1011E000820C931C97FE03C0BFEF8B1A9B0A959449
:1011F00087949092A7018092A601EF85F8896E0FDF
:101200007F1F77FF02C06F5F7F4F75956795709363
:1012100085016093840122C0EB8DFC8DAD85BE8578
:101220001196FC93EE93298D3A8D13963C932E9351
:1012300012976D897E898F89988D14966D937D9311
:101240008D939C93179769897A898B899C891896C5
:101250006D937D938D939C931B9741C0A090A601A5
:10126000B090A7010091840110918501C0908A017E
:10127000D0908B01E0908C01F0908D012091820143
:1012800030918301409180015091810160918801EA
:101290007091890180918601909187010E94A1033C
:1012A000ED85FE85B182A08213830283C482D5823C
:1012B000E682F782BC01882777FD8095982F0E94EF
:1012C000051F9B01AC0160E070E088EE91E40E9494
:1012D0006A1EED85FE8560877187828793878D857D
:1012E0009E85A0960FB6F894DEBF0FBECDBFDF91EE
:1012F000CF911F910F91FF90EF90DF90CF90BF9013
:10130000AF909F908F907F906F905F904F903F90A5
:101310002F9008952F923F924F925F926F927F92FB
:101320008F929F92AF92BF92CF92DF92EF92FF92F5
:101330000F931F93CF93DF93CDB7DEB7C254D1097C
:101340000FB6F894DEBF0FBECDBF9AAB89AB8B0151
:101350003A01DA01ED90FC90119712962D903C9095
:101360001397FB0180809180228133813CAB2BABB2
:101370009701A101B4018BA99CA90E94A10398AF78
:101380008FABD3011496AD90BC901597F8014480B3
:1013900055809101A5016BA97CA9C2010E94A103FE
:1013A0009AAF89AFD30116960D90BC91A02DBEAB1C
:1013B000ADABF801C680D7809501AD01B201C60181
:1013C0000E94A1039CAF8BAF2DA93EA9A701B60136
:1013D000C4010E94A1039EAF8DAF9701A501B40186
:1013E000C2010E94A1037C0191014DA95EA96BA9D4
:1013F0007CA9C6010E94A1032FA938AD3EA32DA34D
:10140000A9ADBAADB8A7AFA3EBADFCADFAA7E9A7FC
:101410002DAD3EAD3CA72BA7FEA6EDA698AB8FA7A2
:1014200066E070E0CE0185960E94BF03FC01EE0FDE
:10143000FF1F81E090E08C0F9D1FE80FF91FC4A0F3
:10144000D5A09E012B5D3F4FFE0179967E0191E371
:10145000E90EF11C4F0198EEA92E93E0B92ED901A7
:101460006D917D919D016A9DC0016B9D900D7A9D4E
:10147000900D1124B6010E94F220619371932E15F4
:101480003F0569F78CE0EFE2F1E0DE011D96019087
:101490000D928A95E1F78CE0EBE3F1E0DE01119625
:1014A00001900D928A95E1F766E070E0C4010E9418
:1014B000BF03FC01EE0FFF1F21E030E02C0F3D1FAA
:1014C000E20FF31FC484D584E080F18066E070E011
:1014D000C4010E94D603FC01EE0FFF1F81E090E0E3
:1014E0008C0F9D1FE80FF91F248535858081918120
:1014F000C216D30641F4D0929D01C0929C019093F4
:101500007F0180937E01C816D90641F490939D0116
:1015100080939C0130937F0120937E01E216F306B5
:1015200041F4F0929D01E0929C0190937F018093A1
:101530007E01E816F90641F4F0929D01E0929C01CB
:1015400030937F0120937E0120919C0130919D0179
:1015500021503048220F331FF801E20FF31FE080C3
:10156000F18080917E0190917F0181509048880F99
:10157000991FF801E80FF91F00811181F301E20FB3
:10158000F31FA080B180F301E80FF91FC080D18064
:101590004701800E911E97FE03C09FEF891A990A9A
:1015A0009594879415012C0C3D1C37FE03C0AFEFBA
:1015B0002A1A3A0A35942794B701601B710B8827C1
:1015C00077FD8095982F0E94051F9B01AC01B50106
:1015D0006C197D09882777FD8095982F2FAF21966C
:1015E0003FAF219722964FAF229723965FAF239765
:1015F0000E94051F2FAD21963FAD219722964FAD3A
:10160000229723965FAD23970E94101E2BED3FE09B
:1016100049EC5FE30E949C1D2B013C0120E030E07F
:10162000A9010E94631E87FF0AC02BED3FE049EC31
:1016300050E4C301B2010E949D1D2B013C019501A4
:10164000A601B701C8010E94A103E9A9FAA99182E4
:101650008082338222824482558266827782BC01F4
:10166000882777FD8095982F0E94051F9B01AC016C
:1016700060E070E088EE91E40E946A1EE9A9FAA990
:101680006087718782879387CF01CE5BDF4F0FB66C
:10169000F894DEBF0FBECDBFDF91CF911F910F91A8
:1016A000FF90EF90DF90CF90BF90AF909F908F9082
:1016B0007F906F905F904F903F902F9008954F9242
:1016C0005F926F927F928F929F92AF92BF92CF92D2
:1016D000DF92EF92FF920F931F93CF93DF93CDB7DB
:1016E000DEB7AC970FB6F894DEBF0FBECDBF8C014E
:1016F00080910C0190910D0120910E0130910F010C
:10170000820F931F2091100130911101820F931FBE
:101710002091120130911301820F931F7CE0E72E7C
:1017200071E0F72E20E030E040E050E0D7016D910D
:101730007D917D01672BD9F0FA01EE0FFF1F61E06B
:1017400070E06C0F7D1FE60FF71FB901645E7E4FDE
:10175000DB016D917C9171876087B9016C5E7E4F72
:10176000DB016D917C91718360834F5F5F4F2E5FD2
:101770003F4F28303105D1F68330910559F4AE0141
:101780004F5F5F4FBE01675F7F4FCE0141960E9462
:10179000ED030CC0049799F4AE014F5F5F4FBE019B
:1017A000675F7F4FCE0141960E948A098CE0FE015F
:1017B0007196AEE8B1E001900D928A95E1F76091E3
:1017C00096017091970180919801909199016D8F88
:1017D0007E8F8F8F98A340909201509093016090DC
:1017E000940170909501C301B2010E94671E6B01C4
:1017F0007C0160918E0170918F016F5F714088272D
:1018000077FD8095982F0E94051F69A37AA38BA36B
:101810009CA3C301B2010E9481204B015C016FE7D0
:1018200071E08091900190919101681B790B88275C
:1018300077FD8095982F0E94051F6DA37EA38FA32F
:1018400098A729A13AA14BA15CA1C701B6010E94AA
:101850001E2069A77AA78BA79CA72DA13EA14FA107
:1018600058A5C501B4010E941E209B01AC0169A5C9
:101870007AA58BA59CA50E949D1D9B01AC016D8D39
:101880007E8D8F8D98A10E941E20609372017093AF
:1018900073018093740190937501C501B401905850
:1018A00029A13AA14BA15CA10E941E204B015C0121
:1018B0002DA13EA14FA158A5C701B6010E941E202F
:1018C0009B01AC01C501B4010E949D1D9B01AC01AF
:1018D0006D8D7E8D8F8D98A10E941E206093760164
:1018E000709377018093780190937901A30192011D
:1018F0006BED7FE089E490E40E949C1D60937A0187
:1019000070937B0180937C0190937D018CE0E2E7F2
:10191000F1E0D80101900D928A95E1F7C801AC96EB
:101920000FB6F894DEBF0FBECDBFDF91CF911F91F0
:101930000F91FF90EF90DF90CF90BF90AF909F906E
:101940008F907F906F905F904F9008954AE0682F3E
:1019500081E00E9468131092AD011092AC011092C8
:10196000AB011092AA0108958091AC019091AD0154
:1019700001969093AD018093AC0108950F931F934E
:10198000CF93DF93CDB7DEB72A970FB6F894DEBFBB
:101990000FBECDBF8C012091AC013091AD01809183
:1019A000AA019091AB012817390709F44DC001969F
:1019B0009093AB018093AA016AE0CE0101960E9448
:1019C000C013498150E0FA01E05AF109E830F1050D
:1019D00068F5E15AFF4F0C940621F801118210823C
:1019E00022C081E090E0F801918380832FC082E0E3
:1019F00090E002C083E090E0F801918380838A81C7
:101A000090E0938382838B8190E0958384830BC0E5
:101A100084E090E005C085E090E002C086E090E0C0
:101A2000F8019183808381E090E010C087E090E02E
:101A3000F801918380838CEA91E00E944D1989819D
:101A400090E00E947619EFCF80E090E02A960FB6E2
:101A5000F894DEBF0FBECDBFDF91CF911F910F91E4
:101A600008950E9461140E947A148823E1F32FEFF5
:101A700089E698E1215080409040E1F700C00000E5
:101A80000E947A14882389F06E9A76986A9A7298DE
:101A90002FEF83ED90E3215080409040E1F700C0AC
:101AA00000006E9A769A6A9A729A0895AF92BF92DF
:101AB000CF92DF92EF92FF920F931F93CF93DF931A
:101AC000CDB7DEB760970FB6F894DEBF0FBECDBFBF
:101AD000A982BA82CB82DC82ED82FE82EB80FC801E
:101AE0000D811E81E981FA81E830F10508F048C0D6
:101AF000E959FF4F0C9406218EE793E043C084E63A
:101B000093E040C088E493E00E944D1989E393E09C
:101B10000E944D19C7010E94B51987E393E00E9406
:101B20004D1987E293E00E944D19C8010E94B51932
:101B300085E293E027C089E093E00E944D198AEF87
:101B400092E00E944D19C7010E94B51988EF92E0FA
:101B50000E944D1988EE92E00E944D19C8010E9422
:101B6000B51986EE92E00EC08BEC92E00BC08DEAC8
:101B700092E008C08EE892E005C081E792E002C0E2
:101B800083E592E060960FB6F894DEBF0FBECDBF3E
:101B9000DF91CF911F910F91FF90EF90DF90CF9049
:101BA000BF90AF900C944D190F931F93CF93DF9379
:101BB0008C0182E492E00E944D19E80109E010E0F6
:101BC00080E492E00E944D19899199910E94B51983
:101BD000015011090115110599F7DF91CF911F915E
:101BE0000F910895CF92DF92EF92FF926B017C01EB
:101BF00081E392E00E944D19C701B6010E94D21EF6
:101C0000CB01FF90EF90DF90CF900C948119CF9291
:101C1000DF92EF92FF920F931F93CF93DF93CDB795
:101C2000DEB7CE010B967C016E0193E2C90ED11C8A
:101C300000E010E088E292E00E944D19C8010E9485
:101C4000811985E292E00E944D19F701808191810E
:101C50000E94811982E292E00E944D19C8010E94FF
:101C600081198FE192E00E944D19F70182819381E1
:101C70000E9481198CE192E00E944D19C8010E94D6
:101C8000811989E192E00E944D19F60181919191AB
:101C90006F010E9481190F5F1F4FF6E0EF0EF11CDC
:101CA0000430110539F6DF91CF911F910F91FF900C
:101CB000EF90DF90CF900895EF92FF920F931F93D4
:101CC000CF93DF93CDB7DEB72C970FB6F894DEBF76
:101CD0000FBECDBFE982FA820B831C832D833E8326
:101CE0004F83588769877A878B879C8786E092E045
:101CF0000E944D1989819A810E94811980E092E0A9
:101D00000E944D198B819C810E9481198AEF91E07C
:101D10000E944D1920E030E048EC52E46D817E8154
:101D20008F8198850E941E200E94D21ECB010E94A6
:101D3000811981EF91E00E944D1920E030E048ECDC
:101D400052E469857A858B859C850E941E200E94BD
:101D5000D21ECB012C960FB6F894DEBF0FBECDBFBE
:101D6000DF91CF911F910F91FF90EF900C9481190B
:101D7000EF92FF920F931F93CF93DF93CDB7DEB710
:101D80002C970FB6F894DEBF0FBECDBFE982FA8262
:101D90000B831C832D833E834F83588769877A8703
:101DA0008B879C8780EE91E00E944D1969817A8132
:101DB0008B819C810E94D21ECB010E94811988EDEB
:101DC00091E00E944D196D817E818F8198850E94DE
:101DD000D21ECB010E9481198DEC91E00E944D1919
:101DE00020E030E048EC52E469857A858B859C855B
:101DF0000E941E200E94D21ECB012C960FB6F89492
:101E0000DEBF0FBECDBFDF91CF911F910F91FF902D
:101E1000EF900C9481190C94841A8F929F92AF9238
:101E2000BF92CF92DF92EF92FF920F931F93CF93C7
:101E3000DF93CDB7DEB768970FB6F894DEBF0FBE5D
:101E4000CDBFCE0101960E94691B811110C0109276
:101E5000C7011092C6011092C9011092C8011092D8
:101E6000CB011092CA011092CD011092CC01FE015B
:101E7000319686EC91E0BEEA8B2EB1E09B2E8E016E
:101E8000075E1F4FEE24E394F12C60817181428143
:101E90005381C480D5809B01220F331FAA24A394B1
:101EA000B12CAC0EBD1E2A0D3B1DD9012D913C91CC
:101EB0002F3F334079F49A01220F331F2A0D3B1D27
:101EC000D9012D913C912F3F334021F4DC011D922B
:101ED0001C920FC0DC01ED92FC92D40111967C9310
:101EE0006E9313965C934E9312971596DC92CE9256
:101EF000149736960296B6E08B0E911CE017F10708
:101F000021F68DB79EB780970FB6F8949EBF0FBE8F
:101F10008DBFADB7BEB7119680E2EEEAF1E0019059
:101F20000D928A95E1F70E946B030FB6F894DEBF1D
:101F30000FBECDBF68960FB6F894DEBF0FBECDBF03
:101F4000DF91CF911F910F91FF90EF90DF90CF9095
:101F5000BF90AF909F908F90089580915001909185
:101F600051010E94F6028091500190915101019619
:101F7000893091052CF4909351018093500104C055
:101F8000109251011092500182E591E00C94D40D11
:101F9000FC01EE0FFF1FEE5AFE4F80E094E0861B1F
:101FA000970B91838083089581E090E02091520106
:101FB00030915301253F314014F480E090E00895C2
:101FC0002F923F924F925F926F927F928F929F9249
:101FD000AF92BF92CF92DF92EF92FF920F931F9337
:101FE000CF93DF9300D000D0CDB7DEB780915401FE
:101FF00090915501813293400CF0F5C0E4E5F1E099
:1020000000E010E020E034E081E090E04191519167
:102010004217530714F0A90101C08C0101968930C1
:10202000910579F41801220C331CC1018E5A9E4F80
:102030001C011C821B82812C912C540175016401AE
:1020400002C09A01E3CF8B819C8101969A83898398
:102050008B819C81800F911F09970CF046C0EB810A
:10206000FC81EE0FFF1FE20DF31D60817181882757
:1020700077FD8095982F0E94051F20E030E040E812
:102080005AE30E941E202B013C019B01AC01C501BB
:10209000B4010E949D1D4B015C01EB81FC81BF01DD
:1020A000882777FD8095982F0E94051F20E030E05B
:1020B00044E352E40E941E2020E030E044E353E475
:1020C0000E949C1D9B01AC01C301B2010E941E2015
:1020D0009B01AC01C701B6010E949D1D6B017C01F3
:1020E00029813A813C832B83AECFE4E5F1E0FA838A
:1020F000E98322242394312C2B813C812150310906
:102100003C832B83201631060CF044C0E981FA8110
:1021100061917191FA83E983882777FD8095982FE3
:102120000E94051F20E030E040E85AE30E941E2094
:102130002B013C019B01AC01C501B4010E949D1D16
:102140004B015C016B817C81620D731D882777FDDB
:102150008095982F0E94051F20E030E044E352E470
:102160000E941E2020E030E044E353E40E949C1DC6
:102170009B01AC01C301B2010E941E209B01AC0176
:10218000C701B6010E949D1D6B017C01FFEF2F1A54
:102190003F0AB8CFA5019401C701B6010E946A1E8B
:1021A00020E030E044E353E40E949D1D6B017C017C
:1021B000015011098DE2809FB001819F700D1124A3
:1021C000882777FD8095982F0E94051F9B01AC0101
:1021D000C701B6010E949D1D8B017C010E94F20D7A
:1021E0003E2D2F2D04C000E010E030E020E0B801CB
:1021F000832F922F0F900F900F900F90DF91CF9120
:102200001F910F91FF90EF90DF90CF90BF90AF9014
:102210009F908F907F906F905F904F903F902F9006
:1022200008958091640190916501A0916601B0913B
:1022300067010196A11DB11D809364019093650112
:10224000A0936601B09367010895E1E9F0E0808111
:102250008F7E8083808188608083A0E9B0E08C914C
:102260008D7F8C938C918E7F8C938C918F778C93B8
:102270008C918F7B8C93A1E7B0E08C9182608C93E2
:10228000C19A80E89EE390939900809398008081A2
:102290008B7F808380818D7F80838081816080833C
:1022A000089560916401709165018091660190913B
:1022B00067010895589A599A5A9A8CE08093B80009
:1022C000E9E6F0E080818062808380818F7E808378
:1022D000EA9A7894089584E88093BC008091BC00C9
:1022E00087FFFCCF8091BB00089584E98093BC00F8
:1022F000089520E030E08091BC0087FD06C02F5F8C
:102300003F4F293E83E03807B1F781E0283E334054
:1023100009F480E008958093BB0084E88093BC00BA
:102320000E947911882321F08091B900887F089557
:1023300080E008951F93CF93DF931F92CDB7DEB750
:10234000182F84EA8093BC0069830E947911698107
:10235000811104C094E99093BC0014C0812F880FB0
:10236000662331F08F5F0E948B11883451F404C0D2
:102370000E948B11803229F484E98093BC0080E0B4
:1023800001C081E00F90DF91CF911F910895CF930D
:10239000DF93C82FD62F60E00E949A11882391F016
:1023A0008D2F0E948B11882369F084E98093BC00F3
:1023B00061E08C2F0E949A11882321F0DF91CF9148
:1023C0000C946B1180E0DF91CF910895CF93DF9350
:1023D000D62FC42F60E00E949A11811102C080E0C4
:1023E0000EC08D2F0E948B118823C9F38C2F0E9461
:1023F0008B118823A1F384E98093BC0081E0DF91F5
:10240000CF910895CF93DF93D82FC62F843010F04B
:1024100080E05BC06430E0F70E945A112FEF85EA3C
:102420009EE0215080409040E1F700C0000065E749
:1024300089E60E94C711883659F741E06BE689E6C4
:102440000E94E6114D2F440F440F440F6CE189E6C2
:102450000E94E6114C2F440F440F440F6BE189E6B4
:102460000E94E61142E067E389E60E94E61140E03F
:1024700062E08EE10E94E61140E067E389E60E9497
:10248000E6114EE164E389E60E94E61141E067E669
:1024900089E60E94E6114DE164E289E60E94E611B8
:1024A0004EE965E289E60E94E61143E066E289E6CC
:1024B0000E94E61146E967E289E60E94E61140E2E1
:1024C0006AE689E60E94E61181E0DF91CF910895E6
:1024D000EF92FF920F931F93CF93DF93CDB7DEB7A9
:1024E00065970FB6F894DEBF0FBECDBF8C01CE014D
:1024F00001967C019EE4692F89E69D8B0E94C7119D
:10250000F70181937F019D8991509A33A1F78F85BF
:102510009889F801958384838F8198859387828732
:1025200089819A81918B808B89899A89938382830F
:1025300089859A85918780878B819C8197878687FB
:102540008B899C89918380838B859C8597838683E7
:102550008D819E819587848781E065960FB6F8947A
:10256000DEBF0FBECDBFDF91CF911F910F91FF90C6
:10257000EF900895EF92FF920F931F93CF93DF9305
:10258000CDB7DEB727970FB6F894DEBF0FBECDBF2D
:102590008C01CE0101967C0190E4692F89E69F832E
:1025A0000E94C711F70181937F019F8191509A3357
:1025B000A1F789819A81F801958384838B819C811D
:1025C000938382838D819E819183808381E027968E
:1025D0000FB6F894DEBF0FBECDBFDF91CF911F9134
:1025E0000F91FF90EF900895EF92FF920F931F933A
:1025F000CF93DF93CDB7DEB727970FB6F894DEBF42
:102600000FBECDBF8C01CE0101967C0198E4692FED
:1026100089E69F830E94C711F70181937F019F8103
:1026200091509234A1F789819A81F801958384832E
:102630008B819C81938382838D819E819183808312
:1026400081E027960FB6F894DEBF0FBECDBFDF91B5
:10265000CF911F910F91FF90EF900895EF92FF920D
:102660000F931F93CF93DF93CDB7DEB727970FB6A6
:10267000F894DEBF0FBECDBF8C01CE0101967C0168
:102680009EE4692F89E69F830E94C711F701819319
:102690007F019F8191509834A1F789819A81F80137
:1026A000958384838B819C81938382838D819E819A
:1026B0009183808381E027960FB6F894DEBF0FBE2A
:1026C000CDBFDF91CF911F910F91FF90EF900895B3
:1026D000CF93DF9300D01F92CDB7DEB74B836A83D1
:1026E00089830E945A1194EA9093BC0089816A817F
:1026F0004B819091BC0097FFFCCF90E59093BB007D
:1027000094E89093BC009091BC0097FFFCCF90910F
:10271000B900987F903229F484E98093BC0080E06E
:1027200029C091E09093BB0094E89093BC009091F5
:10273000BC0097FFFCCF8093BB0084E88093BC0073
:102740008091BC0087FFFCCF6093BB0084E880933E
:10275000BC008091BC0087FFFCCF4093BB0084E8A5
:102760008093BC008091BC0087FFFCCF84E98093FC
:10277000BC0081E00F900F900F90DF91CF910895F2
:1027800024EA2093BC002091BC0027FFFCCF21E568
:102790002093BB0024E82093BC002091BC0027FFBD
:1027A000FCCF2091B900287F2834A9F024EC209395
:1027B000BC002091BC0027FFFCCF2091BB0026135A
:1027C0000AC0FC0120E030E0772767FD709561507A
:1027D000710944EC0EC084E98093BC0080E0089548
:1027E0005091BC0057FFFCCF5091BB0051932F5F1D
:1027F0003F4F261737071CF44093BC00F1CF44E845
:102800004093BC004091BC0047FFFCCF4091BB000F
:10281000FC01E20FF31F408384E98093BC0081E058
:102820000895F89494EA9093BC009091BC0097FFAF
:10283000FCCF90E59093BB0094E89093BC009091FE
:10284000BC0097FFFCCF9091B900987F903231F493
:1028500084E98093BC00789480E0089593E090939D
:10286000BB0094E89093BC009091BC0097FFFCCF14
:102870008093BB0084E88093BC008091BC0087FFFC
:10288000FCCFFB01552747FD509524E8CF01861B5F
:10289000970B8417950754F481918093BB00209384
:1028A000BC008091BC0087FFFCCFF0CF84E980930F
:1028B000BC00789481E008958091E80080FFFCCF0F
:1028C000089581E08093D70080EA8093D80082E168
:1028D00089BD09B400FEFDCF80E98093D800109235
:1028E000E00010926B01109268018CE08093E2008E
:1028F0007894089580916B0108959FB7F894809122
:102900006B01882339F083E08093E9008091E8002F
:1029100085FD03C09FBF8FEF08958091F100209146
:10292000E80025FD03C02BE62093E8009FBF089533
:102930009FB7F89480916B01882331F083E08093F6
:10294000E9008091F20001C080E09FBF089580916E
:102950006B01882371F08FB7F89493E09093E900AE
:102960002BE69091E80095FF03C02093E800F9CF93
:102970008FBF089590916B01992371F09FB7F894E0
:1029800024E02093E90020916901222349F020915D
:10299000E80025FD03C09FBF8FEF089510926901E5
:1029A0002091E400275E34E04091E80045FD12C02C
:1029B0009FBF9091E400921304C081E0809369016D
:1029C000EBCF90916B01992339F39FB7F894309333
:1029D000E900EACF8093F1008091E80085FD03C013
:1029E0008AE38093E80085E080936A019FBF80E0DE
:1029F000089590916B019923D1F09FB7F89424E04A
:102A00002093E9002091E80025FD02C09FBF0FC080
:102A10008093F1008091E80085FD03C08AE38093F4
:102A2000E80085E080936A019FBF80E008958FEF02
:102A30000895EF92FF921F93CF93DF937C01CB0118
:102A400020916B01222371F0AFB7F89424E020931A
:102A5000E90020916901222349F02091E80025FD39
:102A600003C0AFBF8FEF42C210926901B4E0C0E46F
:102A7000DAE315E0009709F437C22091E400275EFD
:102A80003091E80035FD12C0AFBF3091E400321341
:102A900004C081E080936901E5CF30916B0133235D
:102AA00009F3AFB7F894B093E900EACF2091F200B0
:102AB0004C2F421B242F30E08217930708F4482F35
:102AC000841B910950E04134510508F0FDC1415982
:102AD0005F4FFA010C940621F70120812093F10049
:102AE00097012F5F3F4F7901F70120812093F1007B
:102AF00097012F5F3F4F7901F70120812093F1006B
:102B000097012F5F3F4F7901F70120812093F1005A
:102B100097012F5F3F4F7901F70120812093F1004A
:102B200097012F5F3F4F7901F70120812093F1003A
:102B300097012F5F3F4F7901F70120812093F1002A
:102B400097012F5F3F4F7901F70120812093F1001A
:102B500097012F5F3F4F7901F70120812093F1000A
:102B600097012F5F3F4F7901F70120812093F100FA
:102B700097012F5F3F4F7901F70120812093F100EA
:102B800097012F5F3F4F7901F70120812093F100DA
:102B900097012F5F3F4F7901F70120812093F100CA
:102BA00097012F5F3F4F7901F70120812093F100BA
:102BB00097012F5F3F4F7901F70120812093F100AA
:102BC00097012F5F3F4F7901F70120812093F1009A
:102BD00097012F5F3F4F7901F70120812093F1008A
:102BE00097012F5F3F4F7901F70120812093F1007A
:102BF00097012F5F3F4F7901F70120812093F1006A
:102C000097012F5F3F4F7901F70120812093F10059
:102C100097012F5F3F4F7901F70120812093F10049
:102C200097012F5F3F4F7901F70120812093F10039
:102C300097012F5F3F4F7901F70120812093F10029
:102C400097012F5F3F4F7901F70120812093F10019
:102C500097012F5F3F4F7901F70120812093F10009
:102C600097012F5F3F4F7901F70120812093F100F9
:102C700097012F5F3F4F7901F70120812093F100E9
:102C800097012F5F3F4F7901F70120812093F100D9
:102C900097012F5F3F4F7901F70120812093F100C9
:102CA00097012F5F3F4F7901F70120812093F100B9
:102CB00097012F5F3F4F7901F70120812093F100A9
:102CC00097012F5F3F4F7901F70120812093F10099
:102CD00097012F5F3F4F7901F70120812093F10089
:102CE00097012F5F3F4F7901F70120812093F10079
:102CF00097012F5F3F4F7901F70120812093F10069
:102D000097012F5F3F4F7901F70120812093F10058
:102D100097012F5F3F4F7901F70120812093F10048
:102D200097012F5F3F4F7901F70120812093F10038
:102D300097012F5F3F4F7901F70120812093F10028
:102D400097012F5F3F4F7901F70120812093F10018
:102D500097012F5F3F4F7901F70120812093F10008
:102D600097012F5F3F4F7901F70120812093F100F8
:102D700097012F5F3F4F7901F70120812093F100E8
:102D800097012F5F3F4F7901F70120812093F100D8
:102D900097012F5F3F4F7901F70120812093F100C8
:102DA00097012F5F3F4F7901F70120812093F100B8
:102DB00097012F5F3F4F7901F70120812093F100A8
:102DC00097012F5F3F4F7901F70120812093F10098
:102DD00097012F5F3F4F7901F70120812093F10088
:102DE00097012F5F3F4F7901F70120812093F10078
:102DF00097012F5F3F4F7901F70120812093F10068
:102E000097012F5F3F4F7901F70120812093F10057
:102E100097012F5F3F4F7901F70120812093F10047
:102E200097012F5F3F4F7901F70120812093F10037
:102E300097012F5F3F4F7901F70120812093F10027
:102E400097012F5F3F4F7901F70120812093F10017
:102E500097012F5F3F4F7901F70120812093F10007
:102E600097012F5F3F4F7901F70120812093F100F7
:102E700097012F5F3F4F7901F70120812093F100E7
:102E800097012F5F3F4F7901F70120812093F100D7
:102E900097012F5F3F4F7901F70120812093F100C7
:102EA00097012F5F3F4F7901F70120812093F100B7
:102EB00097012F5F3F4F7901F70120812093F100A7
:102EC00097012F5F3F4F7901F70120812093F10097
:102ED00097012F5F3F4F79012091E80025FFD093A4
:102EE000E80010936A01C6CDAFBF80E0DF91CF91BB
:102EF0001F91FF90EF9008958FB7F89490916A0119
:102F0000992341F094E09093E9009AE39093E800CC
:102F100010926A018FBF08958091280108958091D1
:102F20002901089580912A010895809168010895EA
:102F30009FB7F89420916B01222339F022E020936F
:102F4000E9003091E80035FD03C09FBF8FEF089581
:102F500031EA3093F10030E23093F1001092F10049
:102F60001092F1001092F1001092F1002093F10004
:102F70001092F1008093F1001092F1008AE38093A7
:102F8000E8009FBF80E008951F920F920FB60F9246
:102F900011248F939F938091E1001092E10083FFB1
:102FA00011C01092E90091E09093EB001092EC00B8
:102FB00092E19093ED0098E09093F00010926B01F5
:102FC0001092680182FF13C080916B01882379F011
:102FD00080916A01882359F0815080936A018111A0
:102FE00006C084E08093E9008AE38093E8009F9123
:102FF0008F910F900FBE0F901F9018951F920F92F8
:103000000FB60F921124EF92FF920F931F932F93FD
:103010003F934F935F936F937F938F939F93AF9360
:10302000BF93EF93FF93CF93DF931F92CDB7DEB79C
:103030001092E9008091E80083FF14C19091F100A3
:103040008091F1003091F1002091F100E32EF12CFC
:10305000F22A0091F1002091F10010E0122B209152
:10306000F1006091F10032EF3093E800863009F012
:1030700046C036E08DE993E0FC01459154914E1530
:103080005F0539F4FC013296459154914017510780
:1030900021F00796315081F7E5C0FC013496459147
:1030A0005491FC013696849130E0362B2F3F310548
:1030B00019F010F02FEF30E0281708F4822F3EEFC0
:1030C0009091E800292F2570D9F392FDCEC0982F5A
:1030D000813108F090E1FA01292F222331F0649127
:1030E0006093F10021503196F8CF490F511D891B93
:1030F0003093E8008111E4CF903111F3B6C08530F0
:1031000051F48EEF8093E8000E945C148E2D80684D
:103110008093E300AAC0893059F5911180C0E092F4
:103120006B011092680110926A018EEF8093E800A3
:1031300041E086E494E04093E9009C012F5F3F4F1B
:10314000FC0154915093EB00552359F0F90124915F
:103150002093EC009C012D5F3F4F3196849180932A
:10316000ED004F5F453011F0C901E5CF8EE175C02C
:10317000883051F4903809F052C00E945C1480915C
:103180006B018093F10047C0813279F4913A09F0E4
:1031900046C00E945C14E4E2F1E081918093F1006A
:1031A00081E0EB32F807C9F736C0803299F49132EA
:1031B000B1F58091E80082FFFCCFE4E2F1E080917C
:1031C000F100819381E0EB32F807C9F78BEF809330
:1031D000E80021C0823241F4913209F043C0E0920C
:1031E00068010E945C1417C0811119C099830E9464
:1031F0005C149981923851F40093E9008091EB00BE
:1032000085FB882780F91092E90001C080E0809357
:10321000F1001092F1008EEF8093E80026C0282F75
:103220002D7F2130F9F49230E9F4EF28D9F40F77AB
:103230009FEF900F9430B0F49EEF9093E8000093CE
:10324000E900833079F089E18093EB0081E090E040
:10325000002E01C0880F0A94EAF78093EA001092CA
:10326000EA0003C081E28093EB000F90DF91CF91E1
:10327000FF91EF91BF91AF919F918F917F916F914E
:103280005F914F913F912F911F910F91FF90EF9080
:103290000F900FBE0F901F9018951F93CF93DF9341
:1032A000EC01FE011491112351F01A3019F48DE054
:1032B0000E94BA14812F0E94BA142196F2CFDF9196
:1032C000CF911F9108958A3010F490E301C097E3E5
:1032D000890F0C94BA14CF93C82F82958F700E94D7
:1032E00063198C2F8F70CF910C946319CF93C82FD3
:1032F000892F0E946B198C2FCF910C946B190C9411
:103300006B19EF92FF920F931F93CF93DF93CDB77B
:10331000DEB727970FB6F894DEBF0FBECDBF8E0184
:103320000F5F1F4F27E0F80111922A95E9F74AE055
:10333000B8010E9420217E01F8E0EF0EF11CF80197
:1033400081918F0181110E94BA140E151F05B9F7E2
:1033500027960FB6F894DEBF0FBECDBFDF91CF9199
:103360001F910F91FF90EF900895EF92FF920F93AE
:103370001F93CF93DF9300D000D000D0CDB7DEB73E
:103380008E010F5F1F4F26E0F80111922A95E9F791
:103390004AE0B8010E945C217E01F6E0EF0EF11CCC
:1033A000F80181918F0181110E94BA140E151F0539
:1033B000B9F726960FB6F894DEBF0FBECDBFDF91EA
:1033C000CF911F910F91FF90EF900895EF92FF9290
:1033D0000F931F93CF93DF93CDB7DEB72B970FB625
:1033E000F894DEBF0FBECDBF8E010F5F1F4F2BE0E5
:1033F000F80111922A95E9F72AE0A8010E942B21F1
:103400007E01FCE0EF0EF11CF80181918F0181112A
:103410000E94BA140E151F05B9F72B960FB6F89433
:10342000DEBF0FBECDBFDF91CF911F910F91FF90F7
:10343000EF900895EF92FF920F931F93CF93DF9336
:10344000CDB7DEB72B970FB6F894DEBF0FBECDBF5A
:103450008E010F5F1F4F2BE0F80111922A95E9F7BB
:103460002AE0A8010E943A217E01FBE0EF0EF11C48
:10347000F80181918F0181110E94BA140E151F0568
:10348000B9F72B960FB6F894DEBF0FBECDBFDF9114
:10349000CF911F910F91FF90EF90089520E030E0C1
:1034A0008091BC0087FD06C02F5F3F4F293E83E01F
:1034B0003807B1F781E0283E334009F480E00895F1
:1034C0008093BB0084E88093BC000E944E1A88233E
:1034D00019F08091B900887F0895CF93C82F84EAAE
:1034E0008093BC000E944E1A882361F08C2F880FB5
:1034F0000E94601A803229F484E98093BC0080E045
:1035000001C081E0CF9108950E945A1188E50E9480
:103510006D1A811102C080E0089580E30E94601A54
:103520008823C9F381E00E94601A8823A1F384E90B
:103530008093BC008FE39CE90197F1F700C0000085
:1035400088E50E946D1A882331F380E00E94601A9A
:10355000882309F380E00E94601A8823E1F280E06A
:103560000E94601A8823B9F280E00E94601A8823C2
:1035700091F280E00E94601A882369F280E00E9444
:10358000601A882341F280E00E94601A882319F2B1
:1035900080E90E94601A882309F4BDCF84E98093F2
:1035A000BC008FE39CE90197F1F700C0000088E5BB
:1035B0000E946D1A882309F4AECF87E00E94601A3A
:1035C000882309F4A8CF80E00E94601A882309F4B8
:1035D000A2CF81E40E94601A882309F49CCF84E979
:1035E0008093BC008FE39CE90197F1F700C00000D5
:1035F00088E50E946D1A882309F48DCF8AE10E9424
:10360000601A882309F487CF80E40E94601A882317
:1036100009F481CF80E00E94601A882309F47BCFEF
:1036200084E98093BC008FE39CE90197F1F700C027
:10363000000088E50E946D1A882309F46CCF83E3AB
:103640000E94601A882309F466CF83E00E94601A02
:10365000882309F460CF84E98093BC008FE39CE960
:103660000197F1F700C0000088E50E946D1A8823D9
:1036700009F451CF80E30E94601A882309F44BCFEC
:1036800088E00E94601A882309F445CF84E980937A
:10369000BC008FE39CE90197F1F700C0000081E0D6
:1036A0000895CF93C82F84EA8093BC000E944E1ADD
:1036B000882369F08C2F880F8F5F0E94601A8834EE
:1036C00029F484E98093BC0080E001C081E0CF91BF
:1036D0000895EF92FF920F931F93CF93DF93CDB78F
:1036E000DEB760970FB6F894DEBF0FBECDBF7C018A
:1036F0008E010F5F1F4F80E1F80111928A95E9F763
:1037000088E50E946D1A811102C080E05EC086E3E8
:103710000E94601A8823C9F384E98093BC00F5E80D
:10372000FA95F1F7000088E50E94511B882369F3A0
:10373000F8019E01205F3F4F94EC9093BC00809174
:10374000BC0087FFFCCF8091BB008193E217F30799
:10375000A1F784E88093BC008091BC0087FFFCCF78
:103760008091BB00888B84E98093BC00DE011496B5
:1037700087016C91762F7073AD0142505109FA01A7
:10378000808190E0F0E17F9F800D911D1124F80170
:1037900091838083762F707C4F5F5F4FFA01808129
:1037A00090E0F4E07F9F800D911D1124F801938338
:1037B00082836F70862F90E09583848313960A5FCF
:1037C0001F4FA217B307A9F681E060960FB6F894D1
:1037D000DEBF0FBECDBFDF91CF911F910F91FF9044
:1037E000EF90089584E98093BC0008951F920F9292
:1037F0000FB60F9211242F933F934F935F936F93C4
:103800007F938F939F93AF93BF93EF93FF936A9AA6
:103810008EB194E089278EB90E94B40CFF91EF918C
:10382000BF91AF919F918F917F916F915F914F91D8
:103830003F912F910F900FBE0F901F9018951F92E0
:103840000F920FB60F9211242F933F934F935F93D4
:103850006F937F938F939F93AF93BF93EF93FF9358
:103860000E941111FF91EF91BF91AF919F918F91A4
:103870007F916F915F914F913F912F910F900FBE6C
:103880000F901F9018951F920F920FB60F92112450
:103890002F933F934F935F936F937F938F939F9358
:1038A000AF93BF93EF93FF930E941F03FF91EF919C
:1038B000BF91AF919F918F917F916F915F914F9148
:1038C0003F912F910F900FBE0F901F90189580E899
:1038D00085BF85BFE1E6F0E0808310820E945A1127
:1038E0002FEF83EC99E0215080409040E1F700C039
:1038F00000000E94310D2FEF89E698E121508040B1
:103900009040E1F700C0000080912B0190912C01C4
:103910000E94A60C0E9425110E9447020E940B0FD4
:103920000E943803789408958F929F92AF92BF922D
:10393000CF92DF92EF92FF92C090CE01D090CF0154
:10394000E090D001F090D10120E030E0A901C70162
:10395000B6010E94132018162CF460E070E086EE89
:1039600092EC04C060E070E086EE92E4A70196015C
:103970000E949C1D6B017C012091D2013091D301EA
:103980004091D4015091D50160E070E0CB010E94DC
:103990009C1DA70196010E94101E9B01AC016BEDBE
:1039A0007FE089EC9FE30E949C1D6B017C0120E07D
:1039B00030E0A9010E94631E87FF0AC02BED3FE0A3
:1039C00049EC50E4C701B6010E949D1D6B017C01CA
:1039D0002091D6013091D7014091D8015091D90161
:1039E000C701B6010E949C1D6B017C019F772AE0F4
:1039F00037ED43EA5DE30E94631E87FF07C02DECAD
:103A00003CEC4CE45FE3CA01B90129C020E030E09E
:103A100044E353E4C701B6010E94132018161CF4B6
:103A20006FEF7FEF02C061E070E0882777FD80953F
:103A3000982F0E94051F6B017C0120E030E040E0E0
:103A40005FEB0E941E204B015C0120E030E040E073
:103A50005FE3C701B6010E941E20A5019401FF90FB
:103A6000EF90DF90CF90BF90AF909F908F900C948D
:103A70003703CF93DF93CDB7DEB72C970FB6F8940B
:103A8000DEBF0FBECDBF0E94671C8CE0E82E90E425
:103A9000F92E8AED91E00E94BE0C892B79F081E02D
:103AA00090E02091DA013091DB012130310511F0F5
:103AB00080E090E090936D0180936C010E940D0F67
:103AC000CE0101960E945F0BFE013196AEECB1E093
:103AD0008E2D01900D928A95E1F70E94AD0F0E9404
:103AE000E00F80912D0190912E01892B11F00E9401
:103AF000941C0E94511100916E0110916F01209150
:103B0000700130917101601B710B820B930B653F4B
:103B10007140810591050CF4BCCF6E9A8EB18F2552
:103B20008EB90E94511160936E0170936F01809362
:103B3000700190937101ADCF5058BB27AA270ED0CA
:103B400027C2F0D130F0F5D120F031F49F3F11F4CD
:103B50001EF4C0C10EF4E095E7FBB6C1E92F3AD2DE
:103B600080F3BA17620773078407950718F071F49A
:103B70009EF552C20EF4E0950B2EBA2FA02D0B012C
:103B8000B90190010C01CA01A0011124FF27591BA2
:103B900099F0593F50F4503E68F11A16F040A22FA8
:103BA000232F342F4427585FF3CF46953795279519
:103BB000A795F0405395C9F77EF41F16BA0B620B18
:103BC000730B840BBAF09150A1F0FF0FBB1F661F5F
:103BD000771F881FC2F70EC0BA0F621F731F841FA2
:103BE00048F4879577956795B795F7959E3F08F0C8
:103BF000B3CF9395880F08F09927EE0F9795879587
:103C0000089590D158F080E891E009F49EEF91D1A9
:103C100028F040E851E059F45EEF09C05BC1FCC1F7
:103C2000E92FE078D7D168F3092E052AC1F32617CA
:103C300037074807590738F00E2E07F8E02569F0D6
:103C4000E025E0640AC0EF6307F8009407FADB019F
:103C5000B9019D01DC01CA01AD01EF934AD098D1B1
:103C60000AD05F91552331F02BED3FE049E450FD40
:103C700049EC63CF0895DF93DD27B92FBF7740E884
:103C80005FE31616170648075B0710F4D92FCFD14C
:103C90009F938F937F936F937CD2E0E6F1E01DD1E9
:103CA00077D12F913F914F915F91D4D1DD2349F08E
:103CB0009058A2EA2AED3FE049EC5FE3D0785D2717
:103CC0004DDFDF9165C1DCD008F481E0089539D182
:103CD000E3956FC10CD05CC12CD140F023D130F002
:103CE00021F45F3F19F0F0C0511197C1F3C072D1B8
:103CF00098F39923C9F35523B1F3951B550BBB27B3
:103D0000AA2762177307840738F09F5F5F4F220F5F
:103D1000331F441FAA1FA9F333D00E2E3AF0E0E858
:103D200030D091505040E695001CCAF729D0FE2FA4
:103D300027D0660F771F881FBB1F26173707480736
:103D4000AB07B0E809F0BB0B802DBF01FF279358EC
:103D50005F4F2AF09E3F510568F0B6C05EC15F3FDD
:103D6000ECF3983EDCF3869577956795B795F795D4
:103D70009F5FC9F7880F911D9695879597F90895CC
:103D8000E1E0660F771F881FBB1F62177307840768
:103D9000BA0720F0621B730B840BBA0BEE1F88F777
:103DA000E095089504D06894B11137C108951AD1EF
:103DB00088F09F5790F0B92F9927B751A0F0D1F014
:103DC000660F771F881F991F1AF0BA95C9F712C09E
:103DD000B13081F021D1B1E008951EC1672F782F55
:103DE0008827B85F39F0B93FCCF38695779567950A
:103DF000B395D9F73EF490958095709561957F4F76
:103E00008F4F9F4F0895E89409C097FB3EF490951B
:103E10008095709561957F4F8F4F9F4F9923A9F0A3
:103E2000F92F96E9BB279395F69587957795679532
:103E3000B795F111F8CFFAF4BB0F11F460FF1BC076
:103E40006F5F7F4F8F4F9F4F16C0882311F096E909
:103E500011C0772321F09EE8872F762F05C06623B7
:103E600071F096E8862F70E060E02AF09A95660F70
:103E7000771F881FDAF7880F9695879597F9089529
:103E8000990F0008550FAA0BE0E8FEEF161617066B
:103E9000E807F907C0F012161306E407F50798F0D3
:103EA000621B730B840B950B39F40A2661F0232BEC
:103EB000242B252B21F408950A2609F4A140A69568
:103EC0008FEF811D811D089597F99F6780E870E04D
:103ED00060E008959FEF80EC0895DF93CF931F93E8
:103EE0000F93FF92EF92DF927B018C01689405C0E3
:103EF000DA2EEF01AFD0FE01E894A591259135911E
:103F000045915591AEF3EF0129DEFE019701A8011D
:103F1000DA9479F7DF90EF90FF900F911F91CF9196
:103F2000DF91089500240A9416161706180609064C
:103F3000089500240A94121613061406050608951F
:103F4000C9CF50D0E8F3E894E0E0BB279F57F0F0EA
:103F50002AED3FE049EC06C0EE0FBB0F661F771F4E
:103F6000881F28F0B23A62077307840728F0B25A14
:103F7000620B730B840BE3959A9572F7803830F4DB
:103F80009A95BB0F661F771F881FD2F7904806C10E
:103F9000092E0394000C11F4882352F0BB0F40F457
:103FA000BF2B11F460FF04C06F5F7F4F8F4F9F4F97
:103FB0000895EF93E0FF06C0A2EA2AED3FE049EC46
:103FC0005FEBCCDDE5DF0F90039401FC9058EDE84A
:103FD000F1E0F7C057FD9058440F551F59F05F3F6F
:103FE00071F04795880F97FB991F61F09F3F79F01B
:103FF00087950895121613061406551FF2CF46959D
:10400000F1DF08C0161617061806991FF1CF86951E
:104010007105610508940895E894BB276627772702
:10402000CB0197F908952CDF08F48FEF08959B01D9
:10403000AC0160E070E080E89FE34CCE0BD0A8CFED
:1040400071DF28F076DF18F0952309F03DCF42CFDD
:104050001124E3CFBFDFA0F3959FD1F3950F50E07C
:10406000551F629FF001729FBB27F00DB11D639F2A
:10407000AA27F00DB11DAA1F649F6627B00DA11DD0
:10408000661F829F2227B00DA11D621F739FB00D76
:10409000A11D621F839FA00D611D221F749F3327E6
:1040A000A00D611D231F849F600D211D822F762F7F
:1040B0006A2F11249F5750408AF0E1F088234AF07C
:1040C000EE0FFF1FBB1F661F771F881F91505040C8
:1040D000A9F79E3F510570F0F7CE9FCF5F3FECF3FD
:1040E000983EDCF3869577956795B795F795E795B4
:1040F0009F5FC1F7FE2B880F911D9695879597F9C5
:1041000008959F931EDF0F9007FCEE5F52CF11F4CE
:104110000EF4E0CE41C066DFD0F39923D9F3CEF39D
:104120009F57550B87FF46D00024A0E640EA900138
:1041300080585695979528F4805C660F771F881FE6
:1041400020F026173707480730F4621B730B840BE7
:10415000202931294A2BA69517940794202531252B
:104160004A2758F7660F771F881F20F02617370752
:10417000480730F4620B730B840B200D311D411D79
:10418000A09581F7B901842F9158880F969587954E
:1041900008959B01AC0152CF9F3F31F0915020F424
:1041A000879577956795B795880F911D9695879513
:1041B00097F9089591505040660F771F881FD2F7E6
:1041C00008959F938F937F936F93FF93EF939B013A
:1041D000AC0134DFEF91FF9180DE2F913F914F9141
:1041E0005F912CCF97FB072E16F4009407D077FD34
:1041F00009D00E940C2107FC05D03EF490958195D2
:104200009F4F0895709561957F4F0895EE0FFF1FA2
:104210000590F491E02D0994AA1BBB1B51E107C046
:10422000AA1FBB1FA617B70710F0A61BB70B881F46
:10423000991F5A95A9F780959095BC01CD010895D5
:10424000BB274A3031F4992322F4BDE29095819541
:104250009F4F0C945D21BB272A3051F4992342F4DF
:10426000BDE290958095709561957F4F8F4F9F4FE0
:104270000C943B21BB27FA01A62F6217710581051B
:104280009105330B30FB66F0AA27660F771F881F56
:10429000991FAA1FA21710F0A21B63953850A9F707
:1042A000A05DAA3308F0A95DA19336F7B111B193CF
:1042B0001082CA010C947621BB27FB015527AA273F
:1042C000880F991FAA1FA41710F0A41B83955051A3
:1042D000B9F7A05DAA3308F0A95DA193009779F71B
:1042E000B111B1931192CB010C947621DC01FC0148
:1042F000672F71917723E1F7329704C07C916D931A
:1043000070836291AE17BF07C8F30895F894FFCF8A
:104310000D001A00140010001D001700010001001C
:1043200000000100BC019C01B801FD0145037003C0
:1043300097035D0300E100000000082C000100016C
:104340000002000300040001000200020003000458
:0843500000010003000400005D
:00000001FF
