:100000000C9428010C9445010C9445010C94551E48
:100010000C9445010C9445010C9445010C94450148
:100020000C9445010C9445010C94231A0C945D1A10
:100030000C9445010C9445010C9445010C94450128
:100040000C9445010C9445010C9445010C94450118
:100050000C9445010C9445010C9445010C94450108
:100060000C9445010C9445010C9445010C944501F8
:100070000C9445010C949D1E0C9445010C94450173
:100080000C94791E0C9445010C9445010C94450187
:100090000C9445010C9445010C9445010C944501C8
:1000A0000C9445010C9445010C944501BA01D90109
:1000B000C801A201AE01A0019901C1019701B00CD4
:1000C000B40CBA0CBD0CCB0CD90CCE0CD10CCB198A
:1000D000C319BB19B319AB19A3199B1993198B1920
:1000E00083197B1973196B1963195B1953194B1910
:1000F00043193B1933192B1923191B1913190B1900
:100100000319FB18F318EB18E318DB18D318CB18F6
:10011000C318BB18B318AB18A3189B1893188B18E7
:1001200083187B1873186B1863185B1853184B18D7
:1001300043183B1833182B1823181B1813180B18C7
:100140000318FB17F317EB17E317DB17D317CB17BE
:10015000084AD73B3BCE016E84BCBFFDC12F3D6C2E
:1001600074319ABD56833DDA3D00C77F11BED9E494
:10017000BB4C3E916BAAAABE000000803F05A84C74
:10018000CDB2D44EB93836A9020C50B99186880840
:100190003CA6AAAA2ABE000000803F000001000081
:1001A00033021200020000F0014300030000EC01E2
:1001B0000401030904D8011202030904D001060353
:1001C000030904C6010808033400310030000000B0
:1001D00006034D003200000012034A002E002000EA
:1001E0004600690065006E00650000000403090414
:1001F00009024300020100C03209040000010202AA
:100200000100052400100105240101010424020657
:1002100005240600010705820310004009040100BF
:10022000020A0000000705030240000007058402DF
:100230004000001201000202000010C0167A040003
:1002400001010203010001C1120180360181360063
:1002500011241FBECFEFDAE0DEBFCDBF11E0A0E07A
:10026000B1E0E2E5F8E402C005900D92A834B107D0
:10027000D9F722E0A8E4B1E001C01D92A631B2078F
:10028000E1F70E94B81F0C9427240C94000080B35F
:100290008F7380BB81B38F7381BBECE7F0E080810B
:1002A0008F778083808180648083AAE7B0E08C911F
:1002B00084608C938C9181608C93EEE7F0E0808178
:1002C000816080838081826080838081806180837F
:1002D0008081806280838081806480838081806867
:1002E0008083EDE7F0E08081816080838081886099
:1002F00080838081806180838C9188608C938C91D5
:100300008F778C93089520917A002F7720937A002D
:1003100090934B0180934A018930910508F05BC0AE
:10032000FC01EA5AFF4F80917B000C94A7238F7D3C
:1003300029C08F7D80937B0080917C008B7F08C0DB
:100340008F7D38C08F7D80937B0080917C0084609E
:1003500080937C0080917C008D7F25C08F7D809371
:100360007B0080917C00846080937C0080917C0085
:1003700082602AC08F7D80937B0080917C008460A6
:100380000DC0806280937B0080917C008B7F17C0C2
:10039000806280937B0080917C008B7F80937C00C7
:1003A00080917C00826080937C0080917C008160E1
:1003B00010C0806280937B0080917C008460809379
:1003C0007C0080917C008D7F80937C0080917C00FC
:1003D0008E7F80937C0080917A00806880937A0081
:1003E00080917A00806480937A00089520914C0176
:1003F00030914D01232B71F420914E0130914F012A
:10040000232B41F421E030E030934D0120934C0147
:100410000E94830180914E0190914F01892B71F0D0
:1004200010924F0110924E01609148017091490164
:1004300080914A0190914B010C940B0E089581E03C
:1004400090E090934F0180934E0110924D011092D5
:100450004C018091780090917900909349018093AC
:100460004801EAE7F0E080818F7780830895CF929A
:10047000DF92EF92FF926B017C0120E030E0A90156
:100480000E94042187FD1EC020E030E040E85FE3C9
:10049000C701B6010E94B4221816A4F0609188002A
:1004A0007091890080E090E00E94A4219B01AC0142
:1004B000C701B6010E94BF220E94782170938B0071
:1004C00060938A00FF90EF90DF90CF900895CF92D5
:1004D000DF92EF92FF926B017C0120E030E0A901F6
:1004E0000E94042187FD1EC020E030E040E85FE369
:1004F000C701B6010E94B4221816A4F060918800CA
:100500007091890080E090E00E94A4219B01AC01E1
:10051000C701B6010E94BF220E94782170938D000E
:1005200060938C00FF90EF90DF90CF900895A1E84A
:10053000B0E08C9180618C938C9188608C93E0E822
:10054000F0E080818260808380818160808384B1DB
:10055000806C84B980818062808380818F7E80837B
:1005600080818860808380818B7F808380E293E0BC
:1005700090938900809388008C918B7F8C938C91D1
:100580008D7F8C938C9181608C9308950C9497024D
:10059000CF93DF9300D000D0CDB7DEB729833A8365
:1005A0004B835C830E94370229813A814B815C81B5
:1005B000CA01B9010F900F900F900F90DF91CF916A
:1005C0000C94670288EE93E09093A7018093A601B4
:1005D0009093A9018093A8011092AA011092AB01F7
:1005E0001092AC011092AD011092AE011092AF01C9
:1005F0001092B0011092B10110928A0110928B01F9
:1006000010928C0110928D0110928E0110928F0128
:100610001092900110929101109292011092930108
:1006200010929401109295010895EF92FF920F930A
:100630001F93CF93DF93CDB7DEB7FE0139966CE100
:1006400071E044E151E09E012F5D3F4F8CE0E82EC8
:1006500081E0F82E84E090E000811181DB010D93B0
:100660001D93BD0102811381DA010D931D93AD012C
:10067000D9010D911D919D01D7010D931D937D0110
:1006800001973696009741F7DF91CF911F910F9117
:10069000FF90EF900895861B970B421B530B889F8A
:1006A000B001899F700D700D1124449FC001459FBA
:1006B000900D900D1124680F791F882777FD809584
:1006C000982F0E94A6210E942C230E947321CB0107
:1006D0000895FC014191519121E030E080E090E0EB
:1006E0002617370764F4A191B191A417B50714F048
:1006F000DA0101C0C9012F5F3F4FAD01F1CF08956D
:10070000FC014191519121E030E080E090E026171A
:10071000370764F4A191B1914A175B0714F0DA012D
:1007200001C0C9012F5F3F4FAD01F1CF08952F9256
:100730003F924F925F926F927F928F929F92AF9271
:10074000BF92CF92DF92EF92FF920F931F93CF93BE
:10075000DF93CDB7DEB7A0970FB6F894DEBF0FBE1C
:10076000CDBF9E878D878B014A012091A6013091D4
:10077000A7013C8F2B8F6091A8017091A9017A8FFE
:10078000698F8091AA019091AB01A091AC01B091C9
:10079000AD018D8B9E8BAF8BB88F6091AE01709148
:1007A000AF018091B0019091B101698B7A8B8B8BF5
:1007B0009C8BDA014D905C9011971296AD90BC9095
:1007C0001397F80120803180628073809201A50127
:1007D000B101C3010E944B03988B8F87D4011496FB
:1007E000CD90DC901597F801E480F5809501A60185
:1007F000B301C7010E944B035C019201A601B10144
:10080000C7010E944B032F85388938872F83BA860A
:10081000A9869C878B8763E070E0CE0107960E94D3
:100820006903FC01EE0FFF1F61E070E06C0F7D1F9C
:10083000E60FF71FC680D780FE0137969B017E0129
:100840007DE0E70EF11C48EEA42E43E0B42E41916A
:1008500051914A9DC0014B9D900D5A9D900D1124C0
:10086000B6010E949323D9016D937D939D01EE15EE
:10087000FF0569F789819A812B813C81820F931F43
:100880002D813E81820F931F8B32B2E19B070CF4C6
:10089000ABC063E070E0CE0101960E9469037C0169
:1008A00063E070E0CE0101960E948003E114F10440
:1008B00069F48130910539F422E030E030939701FA
:1008C0002093960123C082E090E00EC0892BA9F40A
:1008D000EA94EF2839F4109297011092960181E082
:1008E00090E014C081E090E090939701809396018E
:1008F0001092B5011092B4010DC0EA94EF2859F39B
:10090000109297011092960182E090E09093B501C9
:100910008093B4014091B4015091B501440F551F2B
:10092000F801E40FF51F608171817093A10160935C
:10093000A0018091960190919701880F991FF8016D
:10094000E80FF91F2081318130939F0120939E0190
:10095000F401E40FF51F0081118110939B010093B6
:100960009A01F401E80FF91FE080F180F0929901FB
:10097000E0929801CB01820F931F97FD0196959508
:1009800087959093BF018093BE01C8018E0D9F1D76
:1009900097FD01969595879590939D0180939C0175
:1009A000621B730B882777FD8095982F0E94A621E4
:1009B0002BED3FE049EC5FE30E943D209B01AC0141
:1009C000B8016E197F09882777FD8095982F2D8FA4
:1009D0003E8F4F8F58A30E94A6212D8D3E8D4F8DA7
:1009E00058A10E94B12024C2863A2EE092070CF052
:1009F00066C163E070E0CE0101960E9469037C014C
:100A000063E070E0CE0101960E948003E114F104DE
:100A100079F48130910529F49093970180939601A0
:100A200004C0109297011092960182E090E011C0EC
:100A30000097A1F431E0E316F10429F4F092970154
:100A4000E09296011BC0109297011092960181E0EE
:100A500090E09093BD018093BC0114C0813091055A
:100A600039F422E030E03093970120939601F1CFE2
:100A700082E090E090939701809396011092BD01DF
:100A80001092BC014091BC015091BD01BA01660FAA
:100A9000771FF801E60FF71FE080F180F092BB01AD
:100AA000E092BA012091960130919701C901880F17
:100AB000991FF801E80FF91F2080318030929F01C3
:100AC00020929E01F401E60FF71FC080D180D092E2
:100AD000C101C092C001F401E80FF91F608171816A
:100AE000788B6F87709399016093980183E090E011
:100AF000841B950B821B930B880F991FF801E80F3D
:100B0000F91FA080B180B092B901A092B801F401A0
:100B1000E80FF91F008111811093B7010093B6010E
:100B2000B70162197309882777FD8095982F0E9475
:100B3000A6219B01AC01B6018F859889681B790BB2
:100B4000882777FD8095982F2D8F3E8F4F8F58A344
:100B50000E94A6212D8D3E8D4F8D58A10E94B1205F
:100B600029E130E94DE85FE30E943E202BED3FE0B4
:100B700049E450E40E943E202B013C0120E030E09B
:100B8000A9010E94042187FD09C04092A201509250
:100B9000A3016092A4017092A50110C02BED3FE06B
:100BA00049EC50E4C301B2010E943E206093A201CF
:100BB0007093A3018093A4019093A5019801A601CD
:100BC000B501C7010E944B03BC01882777FD8095C2
:100BD000982F0E94A62123E436E142E35FE30E94BE
:100BE000BF226B017C0120EF35E849E55FE36091AE
:100BF000A2017091A3018091A4019091A5010E948E
:100C00003D202BED3FE049E450E40E943D202B01C4
:100C10003C010E9408219B01AC01B501882777FDAA
:100C20008095982F2D8F3E8F4F8F58A30E94A6211D
:100C30004B015C012D8D3E8D4F8D58A1C701B60132
:100C40000E94BF229B01AC01C501B4010E943E205D
:100C50000E9473214B015C017093A1016093A0017C
:100C6000C301B2010E9422239B01AC01B801882775
:100C700077FD8095982F2D8F3E8F4F8F58A30E9420
:100C8000A6212B013C012D8D3E8D4F8D58A1C70112
:100C9000B6010E94BF229B01AC01C301B2010E94B8
:100CA0003E200E94732170939B0160939A01820CF5
:100CB000931C97FE46C2AFEF8A1A9A0A42C28F3B34
:100CC000FFE09F070CF4D6C063E070E0CE01019610
:100CD0000E9469037C0163E070E0CE0101960E94EE
:100CE0008003E114F10469F48130910539F422E0C4
:100CF00030E030939701209396012DC082E090E080
:100D000011C0892BC1F421E0E216F10449F41092DC
:100D1000970110929601F092B501E092B4011FC0C4
:100D200081E090E090939701809396011092B50135
:100D30001092B40114C0EA94EF2829F4109297019C
:100D40001092960106C081E090E090939701809305
:100D5000960182E090E09093B5018093B4014091B8
:100D6000B4015091B501440F551FF801E40FF51F70
:100D7000608171817093A1016093A00180919601BF
:100D800090919701880F991FF801E80FF91F2081B2
:100D9000318130939F0120939E01F401E40FF51FF0
:100DA000E080F180F0929B01E0929A01F401E80F5B
:100DB000F91F008111811093990100939801CB01D3
:100DC000820F931F97FD0196959587959093BF018C
:100DD0008093BE01C701800F911F97FD01969595E5
:100DE000879590939D0180939C01621B730B8827CC
:100DF00077FD8095982F0E94A6219B01AC01B70139
:100E0000601B710B882777FD8095982F2D8F3E8F63
:100E10004F8F58A30E94A6212D8D3E8D4F8D58A136
:100E20000E94B1202BED3FE049EC5FE30E943D20A2
:100E30006B017C016093A2017093A3018093A401D4
:100E40009093A50120E030E0A9010E94042187FFD2
:100E5000AFC12BED3FE049EC50E4C701B6010E9461
:100E60003E206093A2017093A3018093A40190930C
:100E7000A5019EC18E3B9F4009F478C163E070E0FC
:100E8000CE0101960E9469037C0163E070E0CE010F
:100E900001960E948003E114F10479F481309105F8
:100EA00029F41092B5011092B4012CC081E090E0B9
:100EB0009093B5018093B40111C00097A1F482E032
:100EC00090E09093B5018093B40171E0E716F104CE
:100ED00029F4F092BD01E092BC0118C01092BD014E
:100EE0001092BC0113C0019729F41092B501109221
:100EF000B40106C081E090E09093B5018093B40105
:100F000082E090E09093BD018093BC014091B401D8
:100F10005091B501BA01660F771FF801E60FF71F70
:100F2000208031803092A1012092A0012091BC014B
:100F30003091BD01C901880F991FF801E80FF91F11
:100F4000E080F180F092BB01E092BA01F401E60F7B
:100F5000F71FA081B181B88BAF87B0939B01A0939D
:100F60009A01F401E80FF91FC080D180D092C1012D
:100F7000C092C00183E090E0841B950B821B930B11
:100F8000880F991FF801E80FF91FA080B180B09277
:100F9000B901A092B801F401E80FF91F0081118195
:100FA0001093B7010093B601B1016A197B09882734
:100FB00077FD8095982F0E94A6219B01AC016F853B
:100FC0007889601B710B882777FD8095982F2D8F6E
:100FD0003E8F4F8F58A30E94A6212D8D3E8D4F8DA1
:100FE00058A10E94B12020EF35E849E55FE30E9457
:100FF0003E202BED3FE049E450E40E943E202B01CF
:101000003C0120E030E0A9010E94042187FD09C0D5
:101010004092A2015092A3016092A4017092A50196
:1010200010C02BED3FE049EC50E4C301B2010E9437
:101030003E206093A2017093A3018093A40190933A
:10104000A5019801A601B501C7010E944B03BC018F
:10105000882777FD8095982F0E94A62123ED3BE9F4
:101060004EE55FE30E94BF226B017C0124E036E580
:101070004EE05FE36091A2017091A3018091A40111
:101080009091A5010E943D202BED3FE049EC5FE3EC
:101090000E943D202B013C010E9408219B01AC01D4
:1010A000B501882777FD8095982F2D8F3E8F4F8F24
:1010B00058A30E94A6214B015C012D8D3E8D4F8DC2
:1010C00058A1C701B6010E94BF229B01AC01C50116
:1010D000B4010E943E200E9473214B015C01709379
:1010E0009F0160939E01C301B2010E9422239B01D4
:1010F000AC01B801882777FD8095982F2D8F3E8F02
:101100004F8F58A30E94A6212B013C012D8D3E8DAF
:101110004F8D58A1C701B6010E94BF229B01AC01AF
:10112000C301B2010E943E200E9473217093990175
:1011300060939801820C931C97FE03C0BFEF8B1A3B
:101140009B0A959487949092BF018092BE01EF858F
:10115000F8896E0F7F1F77FF02C06F5F7F4F759515
:10116000679570939D0160939C0122C0EB8DFC8D6F
:10117000AD85BE851196FC93EE93298D3A8D13961D
:101180003C932E9312976D897E898F89988D149642
:101190006D937D938D939C93179769897A898B8939
:1011A0009C8918966D937D938D939C931B9741C05A
:1011B000A090BE01B090BF0100919C0110919D01D3
:1011C000C090A201D090A301E090A401F090A501ED
:1011D00020919A0130919B01409198015091990181
:1011E0006091A0017091A10180919E0190919F0159
:1011F0000E944B03ED85FE85B182A082138302839A
:10120000C482D582E682F782BC01882777FD80956B
:10121000982F0E94A6219B01AC0160E070E088EE4F
:1012200091E40E940B21ED85FE856087718782879E
:1012300093878D859E85A0960FB6F894DEBF0FBE6E
:10124000CDBFDF91CF911F910F91FF90EF90DF9075
:10125000CF90BF90AF909F908F907F906F905F9056
:101260004F903F902F9008952F923F924F925F9210
:101270006F927F928F929F92AF92BF92CF92DF92A6
:10128000EF92FF920F931F93CF93DF93CDB7DEB70B
:10129000C254D1090FB6F894DEBF0FBECDBF9AABD2
:1012A00089AB8B013A01DA01ED90FC90119712960F
:1012B0002D903C901397FB01808091802281338197
:1012C0003CAB2BAB9701A101B4018BA99CA90E9457
:1012D0004B0398AF8FABD3011496AD90BC9015978C
:1012E000F801448055809101A5016BA97CA9C20138
:1012F0000E944B039AAF89AFD30116960D90BC9113
:10130000A02DBEABADABF801C680D7809501AD0175
:10131000B201C6010E944B039CAF8BAF2DA93EA921
:10132000A701B601C4010E944B039EAF8DAF970188
:10133000A501B401C2010E944B037C0191014DA99A
:101340005EA96BA97CA9C6010E944B032FA938ADE9
:101350003EA32DA3A9ADBAADB8A7AFA3EBADFCAD2D
:10136000FAA7E9A72DAD3EAD3CA72BA7FEA6EDA69B
:1013700098AB8FA766E070E0CE0185960E94690366
:10138000FC01EE0FFF1F81E090E08C0F9D1FE80F26
:10139000F91FC4A0D5A09E012B5D3F4FFE01799699
:1013A0007E0191E3E90EF11C4F0198EEA92E93E026
:1013B000B92ED9016D917D919D016A9DC0016B9DF2
:1013C000900D7A9D900D1124B6010E949323619394
:1013D00071932E153F0569F78CE0E0E3F1E0DE0143
:1013E0001D9601900D928A95E1F78CE0ECE3F1E017
:1013F000DE01119601900D928A95E1F766E070E0AA
:10140000C4010E946903FC01EE0FFF1F21E030E0E0
:101410002C0F3D1FE20FF31FC484D584E080F180C0
:1014200066E070E0C4010E948003FC01EE0FFF1F24
:1014300081E090E08C0F9D1FE80FF91F2485358512
:1014400080819181C216D30641F4D092B501C09239
:10145000B4019093970180939601C816D90641F480
:101460009093B5018093B401309397012093960136
:10147000E216F30641F4F092B501E092B4019093C4
:10148000970180939601E816F90641F4F092B501B0
:10149000E092B40130939701209396012091B4011A
:1014A0003091B50121503048220F331FF801E20F6F
:1014B000F31FE080F1808091960190919701815017
:1014C0009048880F991FF801E80FF91F00811181DA
:1014D000F301E20FF31FA080B180F301E80FF91FC1
:1014E000C080D1804701800E911E97FE03C09FEF00
:1014F000891A990A9594879415012C0C3D1C37FE86
:1015000003C0AFEF2A1A3A0A35942794B701601B3B
:10151000710B882777FD8095982F0E94A6219B014B
:10152000AC01B5016C197D09882777FD8095982F4E
:101530002FAF21963FAF219722964FAF2297239648
:101540005FAF23970E94A6212FAD21963FAD219733
:1015500022964FAD229723965FAD23970E94B1202C
:101560002BED3FE049EC5FE30E943D202B013C0165
:1015700020E030E0A9010E94042187FF0AC02BED82
:101580003FE049EC50E4C301B2010E943E202B0130
:101590003C019501A601B701C8010E944B03E9A9CE
:1015A000FAA99182808233822282448255826682A5
:1015B0007782BC01882777FD8095982F0E94A6210D
:1015C0009B01AC0160E070E088EE91E40E940B2189
:1015D000E9A9FAA96087718782879387CF01CE5BDB
:1015E000DF4F0FB6F894DEBF0FBECDBFDF91CF91B6
:1015F0001F910F91FF90EF90DF90CF90BF90AF9031
:101600009F908F907F906F905F904F903F902F9022
:1016100008954F925F926F927F928F929F92AF92B6
:10162000BF92CF92DF92EF92FF920F931F93CF93CF
:10163000DF93CDB7DEB7AC970FB6F894DEBF0FBE21
:10164000CDBF8C0180910C0190910D0120910E0174
:1016500030910F01820F931F2091100130911101E1
:10166000820F931F2091120130911301820F931F5B
:101670007CE0E72E71E0F72E20E030E040E050E023
:10168000D7016D917D917D01672BD9F0FA01EE0FA5
:10169000FF1F61E070E06C0F7D1FE60FF71FB901BF
:1016A000645E7E4FDB016D917C9171876087B9012B
:1016B0006C5E7E4FDB016D917C91718360834F5F27
:1016C0005F4F2E5F3F4F28303105D1F683309105B3
:1016D00059F4AE014F5F5F4FBE01675F7F4FCE0190
:1016E00041960E9497030CC0049799F4AE014F5F96
:1016F0005F4FBE01675F7F4FCE0141960E94340964
:101700008CE0FE017196A6EAB1E001900D928A95F7
:10171000E1F76091AE017091AF018091B0019091BD
:10172000B1016D8F7E8F8F8F98A34090AA0150904A
:10173000AB016090AC017090AD01C301B2010E9499
:1017400008216B017C016091A6017091A7016F5F78
:101750007140882777FD8095982F0E94A62169A364
:101760007AA38BA39CA3C301B2010E9422234B0145
:101770005C016FE771E08091A8019091A901681B5D
:10178000790B882777FD8095982F0E94A6216DA35D
:101790007EA38FA398A729A13AA14BA15CA1C70161
:1017A000B6010E94BF2269A77AA78BA79CA72DA18B
:1017B0003EA14FA158A5C501B4010E94BF229B01C3
:1017C000AC0169A57AA58BA59CA50E943D209B0133
:1017D000AC016D8D7E8D8F8D98A10E94BF2260938C
:1017E0008A0170938B0180938C0190938D0129A1C4
:1017F0003AA14BA15CA1C501B4010E94BF224B01DB
:101800005C012DA13EA14FA158A5C701B6010E94C0
:10181000BF229B01AC01C501B4010E943E209B0187
:10182000AC016D8D7E8D8F8D98A10E94BF2260933B
:101830008E0170938F018093900190939101A30189
:10184000920160E070E0CB010E943D206B017C01C1
:101850002BED3FE049E450EC0E94042187FD09C0D4
:10186000C0929201D0929301E0929401F09295017E
:1018700010C02BED3FE049EC50E4C701B6010E94D7
:101880003E20609392017093930180939401909312
:1018900095018CE0EAE8F1E0D80101900D928A957B
:1018A000E1F7C801AC960FB6F894DEBF0FBECDBF0E
:1018B000DF91CF911F910F91FF90EF90DF90CF902C
:1018C000BF90AF909F908F907F906F905F904F9060
:1018D00008954AE0682F81E00E94C7151092C50163
:1018E0001092C4011092C3011092C2010895809118
:1018F000C4019091C50101969093C5018093C401E4
:1019000008950F931F93CF93DF93CDB7DEB72A9738
:101910000FB6F894DEBF0FBECDBF8C012091C4017D
:101920003091C5018091C2019091C30128173907F8
:1019300009F442C001969093C3018093C2016AE00A
:10194000CE0101960E941F16498150E0FA01E05A2B
:10195000F109E830F10568F5E15AFF4F0C94A7232F
:10196000F8011182108222C081E090E0F801918399
:10197000808324C082E090E002C083E090E0F80120
:10198000918380838A8190E0938382838B8190E02E
:10199000958384830BC084E090E005C085E090E0EF
:1019A00002C086E090E0F8019183808381E090E0BE
:1019B00005C087E090E0F7CF80E090E02A960FB670
:1019C000F894DEBF0FBECDBFDF91CF911F910F9175
:1019D00008950895AF92BF92CF92DF92EF92FF9257
:1019E0000F931F93CF93DF93CDB7DEB760970FB6FA
:1019F000F894DEBF0FBECDBF60960FB6F894DEBF81
:101A00000FBECDBFDF91CF911F910F91FF90EF904F
:101A1000DF90CF90BF90AF90089508950895CF9331
:101A2000DF93CDB7DEB7DF91CF910895EF92FF92AC
:101A30000F931F93CF93DF93CDB7DEB72C970FB6DD
:101A4000F894DEBF0FBECDBF2C960FB6F894DEBF64
:101A50000FBECDBFDF91CF911F910F91FF90EF90FF
:101A60000895EF92FF920F931F93CF93DF93CDB71B
:101A7000DEB72C970FB6F894DEBF0FBECDBF2C9605
:101A80000FB6F894DEBF0FBECDBFDF91CF911F918F
:101A90000F91FF90EF900895089508950C94E31C22
:101AA0008F929F92AF92BF92CF92DF92EF92FF926E
:101AB0000F931F93CF93DF93CDB7DEB768970FB621
:101AC000F894DEBF0FBECDBFCE0101960E94C81DA7
:101AD000811110C01092DF011092DE011092E1011D
:101AE0001092E0011092E3011092E2011092E501E0
:101AF0001092E401FE0131968EED91E0B6EC8B2E52
:101B0000B1E09B2E8E01075E1F4FEE24E394F12C73
:101B10006081718142815381C480D5809B01220FF5
:101B2000331FAA24A394B12CAC0EBD1E2A0D3B1D5D
:101B3000D9012D913C912F3F334079F49A01220F26
:101B4000331F2A0D3B1DD9012D913C912F3F33406E
:101B500021F4DC011D921C920FC0DC01ED92FC927D
:101B6000D40111967C936E9313965C934E931297C7
:101B70001596DC92CE92149736960296B6E08B0EAE
:101B8000911CE017F10721F68DB79EB780970FB62D
:101B9000F8949EBF0FBE8DBFADB7BEB7119680E261
:101BA000E6ECF1E001900D928A95E1F70E941503B1
:101BB0000FB6F894DEBF0FBECDBF68960FB6F8948F
:101BC000DEBF0FBECDBFDF91CF911F910F91FF9070
:101BD000EF90DF90CF90BF90AF909F908F9008953F
:101BE00080915601909157010E94F6018091560113
:101BF000909157010196893091052CF490935701EB
:101C00008093560104C0109257011092560188E546
:101C100091E00C940D0DFC01EE0FFF1FE85AFE4FF2
:101C200080E094E0861B970B91838083089581E088
:101C300090E02091580130915901253F314014F432
:101C400080E090E008952F923F924F925F926F92C2
:101C50007F928F929F92AF92BF92CF92DF92EF923C
:101C6000FF920F931F93CF93DF9300D000D000D04B
:101C7000CDB7DEB780915A0190915B01873B9340CD
:101C80000CF012C1EAE5F1E01E821D8220E034E092
:101C900081E090E0419151914217530714F0A9015E
:101CA00002C09E838D8301968930910599F48D81C0
:101CB0009E819A8389831C01220C331CF101E85A0E
:101CC000FE4F1F0100E010E0C12CD12C760146012F
:101CD000570153C09A01DECF2D813E812930310555
:101CE0000CF050C02D813E8127303105A9F3F80159
:101CF000EE0FFF1FE20DF31D80819181BC0188274B
:101D000077FD8095982F0E94A62120E030E040E8E2
:101D10005AE30E94BF222B013C019B01AC01C70189
:101D2000B6010E943E206B017C01B801882777FD37
:101D30008095982F0E94A62120E030E044E352E4F1
:101D40000E94BF2220E030E044E353E40E943D20A3
:101D50009B01AC01C301B2010E94BF229B01AC01F7
:101D6000C501B4010E943E204B015C018D819E8122
:101D700001969E838D830B811C81F8013196FC8333
:101D8000EB83AACF0AE511E081E090E09E838D838A
:101D90002B803C8092E0291A31088D819E81E98157
:101DA000FA818E179F070CF049C0ED81FE813797AD
:101DB000A1F3F801619171918F01882777FD8095DA
:101DC000982F0E94A62120E030E040E85AE30E94CC
:101DD000BF222B013C019B01AC01C701B6010E944F
:101DE0003E206B017C016D817E81620D731D882711
:101DF00077FD8095982F0E94A62120E030E044E3F3
:101E000052E40E94BF2220E030E044E353E40E9409
:101E10003D209B01AC01C301B2010E94BF229B0186
:101E2000AC01C501B4010E943E204B015C012D8133
:101E30003E812F5F3F4F3E832D83AFCF01E010E007
:101E40002DEC3CEC4CEC5DE3C701B6010E94B422E2
:101E5000181614F000E010E010935501009354019F
:101E6000A7019601C501B4010E940B2120E030E0DA
:101E700044E353E40E943E206B017C0189819A81F6
:101E800001972DE2289FB001299F700D112488270A
:101E900077FD8095982F0E94A6219B01AC01C70178
:101EA000B6010E943E2003C060E070E0CB012696A0
:101EB0000FB6F894DEBF0FBECDBFDF91CF911F915B
:101EC0000F91FF90EF90DF90CF90BF90AF909F90D9
:101ED0008F907F906F905F904F903F902F900895DC
:101EE00080915401909155010895EAE5F1E060E098
:101EF00070E081919191681779070CF4BC0181E041
:101F0000EA36F807B1F7882777FD8095982F0E9469
:101F1000A62120E030E040E85AE30E94BF229B0166
:101F2000AC0160E070E080E89FE30E943D200895EE
:101F3000CF93DF93C0912401D0912501BE01882762
:101F400077FD8095982F0E94A6219B01AC0160919E
:101F5000EA017091EB018091EC019091ED010E94FA
:101F60003D209F7720E030E040EA50E40E940421C9
:101F700087FF0AC0D195C195D109D0932501C0939F
:101F80002401DF91CF9108952091F6013091F7015E
:101F90004091F8015091F9016091F2017091F301C3
:101FA0008091F4019091F501DF91CF910C94C802DA
:101FB0004F925F926F927F92AF92BF92CF92DF92D9
:101FC000EF92FF920F931F93CF93DF93CDB7DEB7BE
:101FD00028970FB6F894DEBF0FBECDBF69837A8312
:101FE0008B839C8329013A01ED82FE820F8318873F
:101FF000B601882777FD8095982F0E94A621298118
:102000003A814B815C810E943D206B017C01B501CE
:10201000882777FD8095982F0E94A621A301920121
:102020000E943D20A70196010E94B1209B01AC01B6
:102030006BED7FE089EC9FE30E943D202D813E8186
:102040004F8158850E943D202B013C012BED3FE044
:1020500049E450EC0E94042187FF0AC02BED3FE0C9
:1020600049EC50E4C301B2010E943E202B013C0127
:102070002BED3FE049E450E4C301B2010E94B422D9
:10208000181654F42BED3FE049EC50E4C301B201C3
:102090000E943D202B013C01C301B20128960FB6DE
:1020A000F894DEBF0FBECDBFDF91CF911F910F918E
:1020B000FF90EF90DF90CF90BF90AF907F906F90A8
:1020C0005F904F900895CF92DF92EF92FF921F930F
:1020D000CF93DF93CDB7DEB728970FB6F894DEBF66
:1020E0000FBECDBF2091EE013091EF014091F00184
:1020F0005091F1010E943D202BED3FE049E450E476
:102100000E940B2120ED3CEC4CEC5DE30E94BF22D1
:102110006B017C0120E030E040E05FE30E943E2064
:10212000162F462F572FBC0149835A836B837C831C
:10213000A701960160E070E080E09FE30E943D20EF
:10214000E62F462F572FBC014D835E836F83788720
:10215000212F3A814B815C816E2F7E818F81988502
:1021600028960FB6F894DEBF0FBECDBFDF91CF919A
:102170001F91FF90EF90DF90CF9008954F925F9264
:102180006F927F928F929F92AF92BF92CF92DF9287
:10219000EF92FF920F931F93CF93DF93CDB7DEB7EC
:1021A0002C970FB6F894DEBF0FBECDBF2B013C01BC
:1021B00069017A019B01AC0160E070E080E89FE377
:1021C0000E943D204B015C012BED3FE049E450E4CF
:1021D000C701B6010E940B216B017C01012B09F1A3
:1021E000DC01CB01BF7789879A87AB87BC872DEC51
:1021F0003CEC4CEC5DE3BC01CD010E94B42218160E
:1022000084F42DEC3CEC4CEC5DE3C701B6010E947C
:10221000BF2229853A854B855C850E940B216B0185
:102220007C0120E030E0A901C701B6010E94B42280
:1022300018169CF4A701960160E070E080E89FE327
:102240000E943D2069877A878B879C87C12CD12C7F
:1022500080E8E82E8FE3F82E12C020E030E040E85E
:102260005FE3C701B6010E943E206B017C0180E064
:1022700090E0A0E8BFE389879A87AB87BC87A50178
:102280009401C301B2010E943D202B013C01A70132
:1022900096010E94BF229B01AC01C501B4010E94BE
:1022A0003E20162FAB01BC0149835A836B837C838C
:1022B00029853A854B855C85C301B2010E94BF2206
:1022C0009B01AC01C501B4010E943E20E62F462FC0
:1022D000572FBC014D835E836F837887212F3A810E
:1022E0004B815C816E2F7E818F8198852C960FB6F5
:1022F000F894DEBF0FBECDBFDF91CF911F910F913C
:10230000FF90EF90DF90CF90BF90AF909F908F9015
:102310007F906F905F904F900895AF92BF92CF9251
:10232000DF92EF92FF920F931F93CF93DF93CDB77E
:10233000DEB764970FB6F894DEBF0FBECDBF8B013A
:102340000E94500DCE0109960E94090B8CE0FE01FF
:102350003996A6EEB1E001900D928A95E1F78AE1F7
:10236000809F6001819FD00CD01A112483E7C80E92
:10237000D11CE090EE01F090EF010091F00110917E
:10238000F1012091EA013091EB014091EC01509173
:10239000ED016091E6017091E7018091E801909173
:1023A000E901A12CB12C0E94D80F9B01AC0100E0E7
:1023B00010E06AE979E989E19FE30E94BE10298370
:1023C0003A834B835C836D837E838F8398872D81D3
:1023D0003E814F81588569817A818B819C81649689
:1023E0000FB6F894DEBF0FBECDBFDF91CF911F9126
:1023F0000F91FF90EF90DF90CF90BF90AF900C9433
:10240000C8024F925F926F927F92AF92BF92CF922B
:10241000DF92EF92FF920F931F93CF93DF93CDB78D
:10242000DEB728970FB6F894DEBF0FBECDBF21E010
:1024300030E0281B390B86EE829F6001839FD00C11
:10244000112483E7C81AD1084090EA015090EB01AB
:102450006090EC017090ED0120E030E0A901C30133
:10246000B2010E94B42218161CF42AE030E002C027
:1024700026EF3FEFE090EE01F090EF010091F001C8
:102480001091F1016091E6017091E7018091E801FE
:102490009091E9015901A30192010E94D80F9B017B
:1024A000AC0101E010E06DEC7CEC8CE49FE30E9459
:1024B000BE1029833A834B835C836D837E838F8335
:1024C00098872D813E814F81588569817A818B81E2
:1024D0009C8128960FB6F894DEBF0FBECDBFDF916A
:1024E000CF911F910F91FF90EF90DF90CF90BF9011
:1024F000AF907F906F905F904F900C94C8020F93B5
:102500001F93CF93DF93CDB7DEB728970FB6F8941C
:10251000DEBF0FBECDBF209172013091730140919B
:1025200074015091750100E010E06DEC7CEC8CE4DE
:102530009FE30E94BE1029833A834B835C836D83A3
:102540007E838F8398872D813E814F815885698155
:102550007A818B819C8128960FB6F894DEBF0FBEDE
:10256000CDBFDF91CF911F910F910C94C8024F9274
:102570005F926F927F92AF92BF92CF92DF92EF9273
:10258000FF920F931F93CF93DF93CDB7DEB72897BA
:102590000FB6F894DEBF0FBECDBF20EAAC01249F7A
:1025A000C001259F900D11246C0150E5C51AD1087A
:1025B0004090E6015090E7016090E8017090E901D9
:1025C000B601882777FD8095982F0E94A6219B0150
:1025D000AC01C301B2010E943D209F7720E030E0B2
:1025E00040EA50E40E94042187FF31C020E030E03F
:1025F00040EA51E46091EA017091EB018091EC01B5
:102600009091ED010E943D209F7720E030E040EA6C
:1026100050E40E94042187FF1AC06BED7FE089EC33
:102620009FE328960FB6F894DEBF0FBECDBFDF91B3
:10263000CF911F910F91FF90EF90DF90CF90BF90BF
:10264000AF907F906F905F904F900C946310E090EC
:10265000EE01F090EF010091F0011091F101209155
:10266000EA013091EB014091EC015091ED0194E1D0
:10267000A92EB12CC301B2010E94D80F9B01AC015D
:1026800000916C0110916D016DEC7CEC8CE49FE38A
:102690000E94BE1029833A834B835C836D837E83C3
:1026A0008F8398872D813E814F81588569817A81FA
:1026B0008B819C8128960FB6F894DEBF0FBECDBFEC
:1026C000DF91CF911F910F91FF90EF90DF90CF900E
:1026D000BF90AF907F906F905F904F900C94C80226
:1026E0008091760190917701A0917801B091790164
:1026F0000196A11DB11D8093760190937701A0935F
:102700007801B09379010895E1E9F0E080818F7E4E
:102710008083808188608083A0E9B0E08C918D7F88
:102720008C938C918E7F8C938C918F778C938C91E2
:102730008F7B8C93A1E7B0E08C9182608C93C19ADF
:1027400080E89EE3909399008093980080818B7F2E
:10275000808380818D7F80838081816080830895E4
:102760006091760170917701809178019091790163
:102770000895589A599A5A9A8CE08093B800E9E6DD
:10278000F0E080818062808380818F7E8083EA9AFE
:102790007894089584E88093BC008091BC0087FF02
:1027A000FCCF8091BB00089584E98093BC0008951C
:1027B00020E030E08091BC0087FD06C02F5F3F4FD6
:1027C000293E83E03807B1F781E0283E334009F421
:1027D00080E008958093BB0084E88093BC000E9451
:1027E000D813882321F08091B900887F089580E074
:1027F00008951F93CF93DF931F92CDB7DEB7182FA5
:1028000084EA8093BC0069830E94D8136981811196
:1028100004C094E99093BC0014C0812F880F6623F4
:1028200031F08F5F0E94EA13883451F404C00E9493
:10283000EA13803229F484E98093BC0080E001C06F
:1028400081E00F90DF91CF911F910895CF93DF9397
:10285000C82FD62F60E00E94F913882391F08D2FA6
:102860000E94EA13882369F084E98093BC0061E048
:102870008C2F0E94F913882321F0DF91CF910C94C3
:10288000CA1380E0DF91CF910895CF93DF93D62FC5
:10289000C42F60E00E94F913811102C080E00EC0D5
:1028A0008D2F0E94EA138823C9F38C2F0E94EA130C
:1028B0008823A1F384E98093BC0081E0DF91CF916C
:1028C0000895CF93DF93D82FC62F843010F080E087
:1028D0005BC06430E0F70E94B9132FEF85EA9EE0F9
:1028E000215080409040E1F700C0000065E789E694
:1028F0000E942614883659F741E06BE689E60E946B
:1029000045144D2F440F440F440F6CE189E60E949B
:1029100045144C2F440F440F440F6BE189E60E948D
:10292000451442E067E389E60E94451440E062E016
:102930008EE10E94451440E067E389E60E94451459
:102940004EE164E389E60E94451441E067E689E6CA
:102950000E9445144DE164E289E60E9445144EE967
:1029600065E289E60E94451443E066E289E60E943A
:10297000451446E967E289E60E94451440E26AE6AA
:1029800089E60E94451481E0DF91CF910895EF928E
:10299000FF920F931F93CF93DF93CDB7DEB7659769
:1029A0000FB6F894DEBF0FBECDBF8C01CE010196ED
:1029B0007C019EE4692F89E69D8B0E942614F70115
:1029C00081937F019D8991509A33A1F78F859889D2
:1029D000F801958384838F81988593878287898185
:1029E0009A81918B808B89899A8993838283898547
:1029F0009A85918780878B819C81978786878B8931
:102A00009C89918380838B859C85978386838D8128
:102A10009E819587848781E065960FB6F894DEBF26
:102A20000FBECDBFDF91CF911F910F91FF90EF901F
:102A30000895EF92FF920F931F93CF93DF93CDB73B
:102A4000DEB727970FB6F894DEBF0FBECDBF8C015F
:102A5000CE0101967C0190E4692F89E69F830E9454
:102A60002614F70181937F019F8191509A33A1F73A
:102A700089819A81F801958384838B819C819383DA
:102A800082838D819E819183808381E027960FB61A
:102A9000F894DEBF0FBECDBFDF91CF911F910F9194
:102AA000FF90EF900895EF92FF920F931F93CF93B3
:102AB000DF93CDB7DEB727970FB6F894DEBF0FBE12
:102AC000CDBF8C01CE0101967C0198E4692F89E687
:102AD0009F830E942614F70181937F019F8191506B
:102AE0009234A1F789819A81F801958384838B813F
:102AF0009C81938382838D819E819183808381E0F9
:102B000027960FB6F894DEBF0FBECDBFDF91CF91F1
:102B10001F910F91FF90EF900895EF92FF920F9306
:102B20001F93CF93DF93CDB7DEB727970FB6F894F7
:102B3000DEBF0FBECDBF8C01CE0101967C019EE4AD
:102B4000692F89E69F830E942614F70181937F01F4
:102B50009F8191509834A1F789819A81F8019583DA
:102B600084838B819C81938382838D819E819183D9
:102B7000808381E027960FB6F894DEBF0FBECDBFED
:102B8000DF91CF911F910F91FF90EF900895CF9318
:102B9000DF9300D01F92CDB7DEB74B836A83898362
:102BA0000E94B91394EA9093BC0089816A814B8199
:102BB0009091BC0097FFFCCF90E59093BB0094E808
:102BC0009093BC009091BC0097FFFCCF9091B9000E
:102BD000987F903229F484E98093BC0080E029C07A
:102BE00091E09093BB0094E89093BC009091BC005E
:102BF00097FFFCCF8093BB0084E88093BC0080915A
:102C0000BC0087FFFCCF6093BB0084E88093BC00CE
:102C10008091BC0087FFFCCF4093BB0084E8809389
:102C2000BC008091BC0087FFFCCF84E98093BC008E
:102C300081E00F900F900F90DF91CF91089524EADB
:102C40002093BC002091BC0027FFFCCF21E52093FE
:102C5000BB0024E82093BC002091BC0027FFFCCFE0
:102C60002091B900287F2834A9F024EC2093BC00DF
:102C70002091BC0027FFFCCF2091BB0026130AC087
:102C8000FC0120E030E0772767FD70956150710905
:102C900044EC0EC084E98093BC0080E0089550911C
:102CA000BC0057FFFCCF5091BB0051932F5F3F4FAB
:102CB000261737071CF44093BC00F1CF44E840933B
:102CC000BC004091BC0047FFFCCF4091BB00FC0121
:102CD000E20FF31F408384E98093BC0081E00895F4
:102CE000F89494EA9093BC009091BC0097FFFCCFBD
:102CF00090E59093BB0094E89093BC009091BC0049
:102D000097FFFCCF9091B900987F903231F484E91D
:102D10008093BC00789480E0089593E09093BB008A
:102D200094E89093BC009091BC0097FFFCCF8093F7
:102D3000BB0084E88093BC008091BC0087FFFCCF7F
:102D4000FB01552747FD509524E8CF01861B970BC3
:102D50008417950754F481918093BB002093BC00A5
:102D60008091BC0087FFFCCFF0CF84E98093BC004A
:102D7000789481E008958091E80080FFFCCF089569
:102D800081E08093D70080EA8093D80082E189BDFA
:102D900009B400FEFDCF80E98093D8001092E000D6
:102DA00010927D0110927A018CE08093E200789479
:102DB000089580917D0108959FB7F89480917D01D9
:102DC000882339F083E08093E9008091E80085FD55
:102DD00003C09FBF8FEF08958091F1002091E8001C
:102DE00025FD03C02BE62093E8009FBF08959FB701
:102DF000F89480917D01882331F083E08093E9008D
:102E00008091F20001C080E09FBF089580917D0114
:102E1000882371F08FB7F89493E09093E9002BE644
:102E20009091E80095FF03C02093E800F9CF8FBF91
:102E3000089590917D01992371F09FB7F89424E053
:102E40002093E90020917B01222349F02091E800A2
:102E500025FD03C09FBF8FEF089510927B01209145
:102E6000E400275E34E04091E80045FD12C09FBFBA
:102E70009091E400921304C081E080937B01EBCF3A
:102E800090917D01992339F39FB7F8943093E9002D
:102E9000EACF8093F1008091E80085FD03C08AE3CA
:102EA0008093E80085E080937C019FBF80E00895D7
:102EB00090917D019923D1F09FB7F89424E020935D
:102EC000E9002091E80025FD02C09FBF0FC080935C
:102ED000F1008091E80085FD03C08AE38093E8005B
:102EE00085E080937C019FBF80E008958FEF089577
:102EF000EF92FF921F93CF93DF937C01CB01209140
:102F00007D01222371F0AFB7F89424E02093E9000B
:102F100020917B01222349F02091E80025FD03C088
:102F2000AFBF8FEF42C210927B01B4E0C0E4DAE39E
:102F300015E0009709F437C22091E400275E309134
:102F4000E80035FD12C0AFBF3091E400321304C079
:102F500081E080937B01E5CF30917D01332309F33C
:102F6000AFB7F894B093E900EACF2091F2004C2F6C
:102F7000421B242F30E08217930708F4482F841B4C
:102F8000910950E04134510508F0FDC149595F4FA6
:102F9000FA010C94A723F70120812093F1009701F7
:102FA0002F5F3F4F7901F70120812093F1009701B6
:102FB0002F5F3F4F7901F70120812093F1009701A6
:102FC0002F5F3F4F7901F70120812093F100970196
:102FD0002F5F3F4F7901F70120812093F100970186
:102FE0002F5F3F4F7901F70120812093F100970176
:102FF0002F5F3F4F7901F70120812093F100970166
:103000002F5F3F4F7901F70120812093F100970155
:103010002F5F3F4F7901F70120812093F100970145
:103020002F5F3F4F7901F70120812093F100970135
:103030002F5F3F4F7901F70120812093F100970125
:103040002F5F3F4F7901F70120812093F100970115
:103050002F5F3F4F7901F70120812093F100970105
:103060002F5F3F4F7901F70120812093F1009701F5
:103070002F5F3F4F7901F70120812093F1009701E5
:103080002F5F3F4F7901F70120812093F1009701D5
:103090002F5F3F4F7901F70120812093F1009701C5
:1030A0002F5F3F4F7901F70120812093F1009701B5
:1030B0002F5F3F4F7901F70120812093F1009701A5
:1030C0002F5F3F4F7901F70120812093F100970195
:1030D0002F5F3F4F7901F70120812093F100970185
:1030E0002F5F3F4F7901F70120812093F100970175
:1030F0002F5F3F4F7901F70120812093F100970165
:103100002F5F3F4F7901F70120812093F100970154
:103110002F5F3F4F7901F70120812093F100970144
:103120002F5F3F4F7901F70120812093F100970134
:103130002F5F3F4F7901F70120812093F100970124
:103140002F5F3F4F7901F70120812093F100970114
:103150002F5F3F4F7901F70120812093F100970104
:103160002F5F3F4F7901F70120812093F1009701F4
:103170002F5F3F4F7901F70120812093F1009701E4
:103180002F5F3F4F7901F70120812093F1009701D4
:103190002F5F3F4F7901F70120812093F1009701C4
:1031A0002F5F3F4F7901F70120812093F1009701B4
:1031B0002F5F3F4F7901F70120812093F1009701A4
:1031C0002F5F3F4F7901F70120812093F100970194
:1031D0002F5F3F4F7901F70120812093F100970184
:1031E0002F5F3F4F7901F70120812093F100970174
:1031F0002F5F3F4F7901F70120812093F100970164
:103200002F5F3F4F7901F70120812093F100970153
:103210002F5F3F4F7901F70120812093F100970143
:103220002F5F3F4F7901F70120812093F100970133
:103230002F5F3F4F7901F70120812093F100970123
:103240002F5F3F4F7901F70120812093F100970113
:103250002F5F3F4F7901F70120812093F100970103
:103260002F5F3F4F7901F70120812093F1009701F3
:103270002F5F3F4F7901F70120812093F1009701E3
:103280002F5F3F4F7901F70120812093F1009701D3
:103290002F5F3F4F7901F70120812093F1009701C3
:1032A0002F5F3F4F7901F70120812093F1009701B3
:1032B0002F5F3F4F7901F70120812093F1009701A3
:1032C0002F5F3F4F7901F70120812093F100970193
:1032D0002F5F3F4F7901F70120812093F100970183
:1032E0002F5F3F4F7901F70120812093F100970173
:1032F0002F5F3F4F7901F70120812093F100970163
:103300002F5F3F4F7901F70120812093F100970152
:103310002F5F3F4F7901F70120812093F100970142
:103320002F5F3F4F7901F70120812093F100970132
:103330002F5F3F4F7901F70120812093F100970122
:103340002F5F3F4F7901F70120812093F100970112
:103350002F5F3F4F7901F70120812093F100970102
:103360002F5F3F4F7901F70120812093F1009701F2
:103370002F5F3F4F7901F70120812093F1009701E2
:103380002F5F3F4F7901F70120812093F1009701D2
:103390002F5F3F4F79012091E80025FFD093E8008F
:1033A00010937C01C6CDAFBF80E0DF91CF911F911C
:1033B000FF90EF9008958FB7F89490917C01992336
:1033C00041F094E09093E9009AE39093E800109222
:1033D0007C018FBF089580912A01089580912B016F
:1033E000089580912C01089580917A0108959FB7E6
:1033F000F89420917D01222339F022E02093E90006
:103400003091E80035FD03C09FBF8FEF089531EA8A
:103410003093F10030E23093F1001092F1001092FD
:10342000F1001092F1001092F1002093F10010923F
:10343000F1008093F1001092F1008AE38093E8009C
:103440009FBF80E008951F920F920FB60F92112434
:103450008F939F938091E1001092E10083FF11C050
:103460001092E90091E09093EB001092EC0092E151
:103470009093ED0098E09093F00010927D011092EF
:103480007A0182FF13C080917D01882379F08091B9
:103490007C01882359F0815080937C01811106C002
:1034A00084E08093E9008AE38093E8009F918F9104
:1034B0000F900FBE0F901F9018951F920F920FB68E
:1034C0000F921124EF92FF920F931F932F933F932C
:1034D0004F935F936F937F938F939F93AF93BF931C
:1034E000EF93FF93CF93DF931F92CDB7DEB7109288
:1034F000E9008091E80083FF14C19091F100809170
:10350000F1003091F1002091F100E32EF12CF22A2C
:103510000091F1002091F10010E0122B2091F100B8
:103520006091F10032EF3093E800863009F046C038
:1035300036E08CE991E0FC01459154914E155F0510
:1035400039F4FC013296459154914017510721F00E
:103550000796315081F7E5C0FC01349645915491AE
:10356000FC013696849130E0362B2F3F310519F05F
:1035700010F02FEF30E0281708F4822F3EEF9091E3
:10358000E800292F2570D9F392FDCEC0982F813104
:1035900008F090E1FA01292F222331F06491609321
:1035A000F10021503196F8CF490F511D891B3093FE
:1035B000E8008111E4CF903111F3B6C0853051F4A9
:1035C0008EEF8093E8000E94BB168E2D806880935A
:1035D000E300AAC0893059F5911180C0E0927D01C5
:1035E00010927A0110927C018EEF8093E80041E006
:1035F00085E492E04093E9009C012F5F3F4FFC017E
:1036000054915093EB00552359F0F90124912093E4
:10361000EC009C012D5F3F4F319684918093ED002B
:103620004F5F453011F0C901E5CF8EE175C088309C
:1036300051F4903809F052C00E94BB1680917D0170
:103640008093F10047C0813279F4913A09F046C085
:103650000E94BB16E6E2F1E081918093F10081E0E7
:10366000ED32F807C9F736C0803299F49132B1F5DE
:103670008091E80082FFFCCFE6E2F1E08091F1006A
:10368000819381E0ED32F807C9F78BEF8093E80072
:1036900021C0823241F4913209F043C0E0927A01B4
:1036A0000E94BB1617C0811119C099830E94BB16D6
:1036B0009981923851F40093E9008091EB0085FBE9
:1036C000882780F91092E90001C080E08093F10022
:1036D0001092F1008EEF8093E80026C0282F2D7FF6
:1036E0002130F9F49230E9F4EF28D9F40F779FEF05
:1036F000900F9430B0F49EEF9093E8000093E900AF
:10370000833079F089E18093EB0081E090E0002E36
:1037100001C0880F0A94EAF78093EA001092EA0049
:1037200003C081E28093EB000F90DF91CF91FF9176
:10373000EF91BF91AF919F918F917F916F915F9129
:103740004F913F912F911F910F91FF90EF900F900C
:103750000FBE0F901F9018951F93CF93DF93EC012E
:10376000FE011491112351F01A3019F48DE00E94DA
:103770001917812F0E9419172196F2CFDF91CF914F
:103780001F9108958A3010F490E301C097E3890FE8
:103790000C941917CF93C82F82958F700E94C21B6B
:1037A0008C2F8F70CF910C94C21BCF93C82F892F71
:1037B0000E94CA1B8C2FCF910C94CA1B0C94CA1B5D
:1037C000EF92FF920F931F93CF93DF93CDB7DEB7A6
:1037D00027970FB6F894DEBF0FBECDBF8E010F5FE7
:1037E0001F4F27E0F80111922A95E9F74AE0B80146
:1037F0000E94C1237E01F8E0EF0EF11CF8018191D7
:103800008F0181110E9419170E151F05B9F7279610
:103810000FB6F894DEBF0FBECDBFDF91CF911F91E1
:103820000F91FF90EF900895EF92FF920F931F93E7
:10383000CF93DF9300D000D000D0CDB7DEB78E019C
:103840000F5F1F4F26E0F80111922A95E9F74AE031
:10385000B8010E94FD237E01F6E0EF0EF11CF80195
:1038600081918F0181110E9419170E151F05B9F75B
:1038700026960FB6F894DEBF0FBECDBFDF91CF9175
:103880001F910F91FF90EF900895EF92FF920F9389
:103890001F93CF93DF93CDB7DEB72B970FB6F89476
:1038A000DEBF0FBECDBF8E010F5F1F4F2BE0F801B3
:1038B00011922A95E9F72AE0A8010E94CC237E0103
:1038C000FCE0EF0EF11CF80181918F0181110E9443
:1038D00019170E151F05B9F72B960FB6F894DEBF12
:1038E0000FBECDBFDF91CF911F910F91FF90EF9051
:1038F0000895EF92FF920F931F93CF93DF93CDB76D
:10390000DEB72B970FB6F894DEBF0FBECDBF8E018A
:103910000F5F1F4F2BE0F80111922A95E9F72AE07B
:10392000A8010E94DB237E01FBE0EF0EF11CF801F1
:1039300081918F0181110E9419170E151F05B9F78A
:103940002B960FB6F894DEBF0FBECDBFDF91CF919F
:103950001F910F91FF90EF90089520E030E080914B
:10396000BC0087FD06C02F5F3F4F293E83E038072C
:10397000B1F781E0283E334009F480E00895809358
:10398000BB0084E88093BC000E94AD1C882319F022
:103990008091B900887F0895CF93C82F84EA8093DF
:1039A000BC000E94AD1C882361F08C2F880F0E9400
:1039B000BF1C803229F484E98093BC0080E001C000
:1039C00081E0CF9108950E94B91388E50E94CC1C34
:1039D000811102C080E0089580E30E94BF1C88230B
:1039E000C9F381E00E94BF1C8823A1F384E980937E
:1039F000BC008FE39CE90197F1F700C0000088E567
:103A00000E94CC1C882331F380E00E94BF1C8823D5
:103A100009F380E00E94BF1C8823E1F280E00E944D
:103A2000BF1C8823B9F280E00E94BF1C882391F25A
:103A300080E00E94BF1C882369F280E00E94BF1CC6
:103A4000882341F280E00E94BF1C882319F280E99C
:103A50000E94BF1C882309F4BDCF84E98093BC0079
:103A60008FE39CE90197F1F700C0000088E50E9410
:103A7000CC1C882309F4AECF87E00E94BF1C8823AA
:103A800009F4A8CF80E00E94BF1C882309F4A2CFCC
:103A900081E40E94BF1C882309F49CCF84E98093B1
:103AA000BC008FE39CE90197F1F700C0000088E5B6
:103AB0000E94CC1C882309F48DCF8AE10E94BF1C90
:103AC000882309F487CF80E40E94BF1C882309F46F
:103AD00081CF80E00E94BF1C882309F47BCF84E95A
:103AE0008093BC008FE39CE90197F1F700C00000D0
:103AF00088E50E94CC1C882309F46CCF83E30E94E4
:103B0000BF1C882309F466CF83E00E94BF1C882372
:103B100009F460CF84E98093BC008FE39CE90197AE
:103B2000F1F700C0000088E50E94CC1C882309F44E
:103B300051CF80E30E94BF1C882309F44BCF88E05B
:103B40000E94BF1C882309F445CF84E98093BC0000
:103B50008FE39CE90197F1F700C0000081E0089530
:103B6000CF93C82F84EA8093BC000E94AD1C8823A9
:103B700069F08C2F880F8F5F0E94BF1C883429F456
:103B800084E98093BC0080E001C081E0CF9108957A
:103B9000EF92FF920F931F93CF93DF93CDB7DEB7D2
:103BA00060970FB6F894DEBF0FBECDBF7C018E01CB
:103BB0000F5F1F4F80E1F80111928A95E9F788E5C0
:103BC0000E94CC1C811102C080E05EC086E30E948E
:103BD000BF1C8823C9F384E98093BC00F5E8FA95FB
:103BE000F1F7000088E50E94B01D882369F3F80111
:103BF0009E01205F3F4F94EC9093BC008091BC00ED
:103C000087FFFCCF8091BB008193E217F307A1F7F8
:103C100084E88093BC008091BC0087FFFCCF80913A
:103C2000BB00888B84E98093BC00DE011496870179
:103C30006C91762F7073AD0142505109FA01808169
:103C400090E0F0E17F9F800D911D1124F801918398
:103C50008083762F707C4F5F5F4FFA01808190E008
:103C6000F4E07F9F800D911D1124F80193838283DE
:103C70006F70862F90E09583848313960A5F1F4FA1
:103C8000A217B307A9F681E060960FB6F894DEBFDD
:103C90000FBECDBFDF91CF911F910F91FF90EF909D
:103CA000089584E98093BC0008951F920F920FB687
:103CB0000F9211242F933F934F935F936F937F93B2
:103CC0008F939F93AF93BF93EF93FF930E94770CD3
:103CD000FF91EF91BF91AF919F918F917F916F91E4
:103CE0005F914F913F912F910F900FBE0F901F90BA
:103CF00018951F920F920FB60F9211242F933F9396
:103D00004F935F936F937F938F939F93AF93BF93E3
:103D1000EF93FF930E947013FF91EF91BF91AF91CA
:103D20009F918F917F916F915F914F913F912F91D3
:103D30000F900FBE0F901F9018951F920F920FB605
:103D40000F9211242F933F934F935F936F937F9321
:103D50008F939F93AF93BF93EF93FF930E941F02A4
:103D6000FF91EF91BF91AF919F918F917F916F9153
:103D70005F914F913F912F910F900FBE0F901F9029
:103D800018956E9A769880E885BF85BFE1E6F0E0E9
:103D9000808310820E94B9132FEF83EC99E02150A9
:103DA00080409040E1F700C000000E94E90C809143
:103DB0002D0190912E010E94690C0E9484130E9493
:103DC00047010E944E0D0E94E2020E94C6025798CF
:103DD0005F9A229A239A2A982B9884B1836084B997
:103DE00085B1836085B978940895CF92DF92EF9280
:103DF000FF920F931F93CF93DF93CDB7DEB72C972E
:103E00000FB6F894DEBF0FBECDBF0E94500DCE019D
:103E100001960E94090B8CE0FE013196AAEFB1E0F9
:103E200001900D928A95E1F74F9906C081E090E0EC
:103E30009093810180938001C090FA01D090FB01A2
:103E4000E090FC01F090FD0101E010E020E030E0A6
:103E5000A901C701B6010E94B422181614F000E0AF
:103E600010E010937F0100937E0120E030E044EBEE
:103E700052ECC701B6010E94042187FD0AC020E070
:103E800030E044EB52E4C701B6010E94B422181698
:103E900034F481E090E090938301809382012C962A
:103EA0000FB6F894DEBF0FBECDBFDF91CF911F914B
:103EB0000F91FF90EF90DF90CF9008958091800157
:103EC00090918101892B51F12A9A2FEF84E39CE094
:103ED000215080409040E1F700C000002A982FEF69
:103EE00084E39CE0215080409040E1F700C0000056
:103EF0002A9A2FEF84E39CE0215080409040E1F724
:103F000000C000002A982FEF84E39CE021508040FD
:103F10009040E1F700C000002A9A08952B9A2FEFF5
:103F200084E39CE0215080409040E1F700C0000015
:103F30002B982FEF84E39CE0215080409040E1F7E4
:103F400000C000002B9A2FEF84E39CE021508040BA
:103F50009040E1F700C000002B982FEF84E39CE035
:103F6000215080409040E1F700C000002B9A089556
:103F7000CF93DF93CDB7DEB72C970FB6F894DEBFA3
:103F80000FBECDBF0E94C11E6E9A76986A9A729A31
:103F90000E94F51E85B1836085B98CE0E82E90E41F
:103FA000F92E0E94500DCE0101960E94090BFE01D0
:103FB0003196AAEFB1E08E2D01900D928A95E1F72E
:103FC00086E092E00E94810C892B99F08091060294
:103FD0009091070221E030E08130910511F020E05E
:103FE00030E03093850120938401892B11F40E94E5
:103FF0005E1F8091840190918501892B71F085B1BC
:104000008C7F85B96A9A729820E030E040E45FE3E3
:104010006DEC7CEC8CE49FE30BC085B1836085B9CB
:104020006A9A729A20E030E040E05FE3CA01B90189
:104030000E94C8020E94B01300918601109187016E
:104040002091880130918901601B710B820B930BC9
:10405000653F7140810591050CF4A3CF6E9A8EB136
:104060008F258EB90E94B0136093860170938701EB
:10407000809388019093890194CF5058BB27AA2739
:104080000ED027C2F0D130F0F5D120F031F49F3FAF
:1040900011F41EF4C0C10EF4E095E7FBB6C1E92FA0
:1040A0003AD280F3BA17620773078407950718F0AE
:1040B00071F49EF552C20EF4E0950B2EBA2FA02D8E
:1040C0000B01B90190010C01CA01A0011124FF27C5
:1040D000591B99F0593F50F4503E68F11A16F040C0
:1040E000A22F232F342F4427585FF3CF46953795BF
:1040F0002795A795F0405395C9F77EF41F16BA0B84
:10410000620B730B840BBAF09150A1F0FF0FBB1F31
:10411000661F771F881FC2F70EC0BA0F621F731F7A
:10412000841F48F4879577956795B795F7959E3FD7
:1041300008F0B3CF9395880F08F09927EE0F979565
:104140008795089590D158F080E891E009F49EEFAA
:1041500091D128F040E851E059F45EEF09C05BC10D
:10416000FCC1E92FE078D7D168F3092E052AC1F305
:10417000261737074807590738F00E2E07F8E025AD
:1041800069F0E025E0640AC0EF6307F8009407FADD
:10419000DB01B9019D01DC01CA01AD01EF934AD0F9
:1041A00098D10AD05F91552331F02BED3FE049E4DF
:1041B00050FD49EC63CF0895DF93DD27B92FBF771A
:1041C00040E85FE31616170648075B0710F4D92F7F
:1041D000CFD19F938F937F936F937CD2E0E5F1E0F3
:1041E0001DD177D12F913F914F915F91D4D1DD2394
:1041F00049F09058A2EA2AED3FE049EC5FE3D0781D
:104200005D274DDFDF9165C1DCD008F481E00895C2
:1042100039D1E3956FC10CD05CC12CD140F023D1D2
:1042200030F021F45F3F19F0F0C0511197C1F3C095
:1042300072D198F39923C9F35523B1F3951B550B0C
:10424000BB27AA2762177307840738F09F5F5F4F69
:10425000220F331F441FAA1FA9F333D00E2E3AF0AA
:10426000E0E830D091505040E695001CCAF729D0C4
:10427000FE2F27D0660F771F881FBB1F2617370713
:104280004807AB07B0E809F0BB0B802DBF01FF2743
:1042900093585F4F2AF09E3F510568F0B6C05EC14B
:1042A0005F3FECF3983EDCF3869577956795B7957D
:1042B000F7959F5FC9F7880F911D9695879597F998
:1042C0000895E1E0660F771F881FBB1F6217730711
:1042D0008407BA0720F0621B730B840BBA0BEE1F26
:1042E00088F7E095089504D06894B11137C1089516
:1042F0001AD188F09F5790F0B92F9927B751A0F0A5
:10430000D1F0660F771F881F991F1AF0BA95C9F769
:1043100012C0B13081F021D1B1E008951EC1672FE4
:10432000782F8827B85F39F0B93FCCF38695779519
:104330006795B395D9F73EF4909580957095619502
:104340007F4F8F4F9F4F0895E89409C097FB3EF42D
:1043500090958095709561957F4F8F4F9F4F9923D2
:10436000A9F0F92F96E9BB279395F6958795779550
:104370006795B795F111F8CFFAF4BB0F11F460FF10
:104380001BC06F5F7F4F8F4F9F4F16C0882311F068
:1043900096E911C0772321F09EE8872F762F05C07C
:1043A000662371F096E8862F70E060E02AF09A9517
:1043B000660F771F881FDAF7880F9695879597F90C
:1043C0000895990F0008550FAA0BE0E8FEEF1616A6
:1043D0001706E807F907C0F012161306E407F507F9
:1043E00098F0621B730B840B950B39F40A2661F06D
:1043F000232B242B252B21F408950A2609F4A14010
:10440000A6958FEF811D811D089597F99F6780E81C
:1044100070E060E008959FEF80EC0895DF93CF9304
:104420001F930F93FF92EF92DF927B018C016894B0
:1044300005C0DA2EEF01AFD0FE01E894A5912591D9
:10444000359145915591AEF3EF0129DEFE019701BB
:10445000A801DA9479F7DF90EF90FF900F911F9108
:10446000CF91DF91089500240A94161617061806B6
:104470000906089500240A94121613061406050668
:104480000895C9CF50D0E8F3E894E0E0BB279F57E8
:10449000F0F02AED3FE049EC06C0EE0FBB0F661FBF
:1044A000771F881F28F0B23A62077307840728F045
:1044B000B25A620B730B840BE3959A9572F78038AE
:1044C00030F49A95BB0F661F771F881FD2F790486C
:1044D00006C1092E0394000C11F4882352F0BB0F7F
:1044E00040F4BF2B11F460FF04C06F5F7F4F8F4F0C
:1044F0009F4F0895EF93E0FF06C0A2EA2AED3FE048
:1045000049EC5FEBCCDDE5DF0F90039401FC9058A4
:10451000EDE7F1E0F7C057FD9058440F551F59F0F3
:104520005F3F71F04795880F97FB991F61F09F3FA0
:1045300079F087950895121613061406551FF2CFC9
:104540004695F1DF08C0161617061806991FF1CF19
:1045500086957105610508940895E894BB27662740
:104560007727CB0197F908952CDF08F48FEF089592
:104570009B01AC0160E070E080E89FE34CCE0BD083
:10458000A8CF71DF28F076DF18F0952309F03DCF32
:1045900042CF1124E3CFBFDFA0F3959FD1F3950F56
:1045A00050E0551F629FF001729FBB27F00DB11DB7
:1045B000639FAA27F00DB11DAA1F649F6627B00D47
:1045C000A11D661F829F2227B00DA11D621F739F30
:1045D000B00DA11D621F839FA00D611D221F749F3E
:1045E0003327A00D611D231F849F600D211D822F85
:1045F000762F6A2F11249F5750408AF0E1F08823CC
:104600004AF0EE0FFF1FBB1F661F771F881F9150D8
:104610005040A9F79E3F510570F0F7CE9FCF5F3F06
:10462000ECF3983EDCF3869577956795B795F7950B
:10463000E7959F5FC1F7FE2B880F911D9695879593
:1046400097F908959F931EDF0F9007FCEE5F52CFFE
:1046500011F40EF4E0CE41C066DFD0F39923D9F314
:10466000CEF39F57550B87FF46D00024A0E640EAC3
:10467000900180585695979528F4805C660F771FB7
:10468000881F20F026173707480730F4621B730B8A
:10469000840B202931294A2BA695179407942025AD
:1046A00031254A2758F7660F771F881F20F02617F5
:1046B0003707480730F4620B730B840B200D311D54
:1046C000411DA09581F7B901842F9158880F9695C7
:1046D000879508959B01AC0152CF9F3F31F09150D7
:1046E00020F4879577956795B795880F911D9695D6
:1046F000879597F9089591505040660F771F881F4E
:10470000D2F708959F938F937F936F93FF93EF93C7
:104710009B01AC0134DFEF91FF9180DE2F913F913F
:104720004F915F912CCF97FB072E16F4009407D082
:1047300077FD09D00E94AD2307FC05D03EF490958B
:1047400081959F4F0895709561957F4F0895EE0F65
:10475000FF1F0590F491E02D0994AA1BBB1B51E1AA
:1047600007C0AA1FBB1FA617B70710F0A61BB70BE1
:10477000881F991F5A95A9F780959095BC01CD0186
:104780000895BB274A3031F4992322F4BDE2909575
:1047900081959F4F0C94FE23BB272A3051F4992317
:1047A00042F4BDE290958095709561957F4F8F4F53
:1047B0009F4F0C94DC23BB27FA01A62F62177105CB
:1047C00081059105330B30FB66F0AA27660F771F32
:1047D000881F991FAA1FA21710F0A21B63953850BB
:1047E000A9F7A05DAA3308F0A95DA19336F7B1112E
:1047F000B1931082CA010C941724BB27FB015527E3
:10480000AA27880F991FAA1FA41710F0A41B83952D
:104810005051B9F7A05DAA3308F0A95DA1930097A4
:1048200079F7B111B1931192CB010C941724DC01EB
:10483000FC01672F71917723E1F7329704C07C91D7
:104840006D9370836291AE17BF07C8F30895F89413
:02485000FFCF98
:104852000D001A00140010001D00170001000100D5
:1048620000000100BC019C01B801FD014503700379
:1048720097035D03140000E100000000082C000013
:104882000100020003000400010002000200030014
:08489200040001000300040012
:00000001FF
