:100000000C9439020C9456020C9456020C947C1DEC
:100010000C9456020C9456020C9456020C94560200
:100020000C9456020C9456020C9402190C943C1930
:100030000C9456020C9456020C9456020C945602E0
:100040000C9456020C94341D0C94581D0C945602BA
:100050000C9456020C9456020C9456020C945602C0
:100060000C9456020C9456020C9456020C945602B0
:100070000C9456020C94C91D0C9456020C94560212
:100080000C94A51D0C9456020C9456020C94560226
:100090000C9456020C9456020C9456020C94560280
:1000A0000C9456020C9456020C945602A802AA0212
:1000B000BF02B302CB02B102D202D902EA02EA0DB8
:1000C000EE0DF40DF70D050E130E080E0B0E790E46
:1000D0007C0E7F0E980EB10EB40EB70EBA0EAA1893
:1000E000A2189A1892188A1882187A1872186A1820
:1000F00062185A1852184A1842183A1832182A1810
:1001000022181A1812180A180218FA17F217EA1702
:10011000E217DA17D217CA17C217BA17B217AA17F7
:10012000A2179A1792178A1782177A1772176A17E7
:1001300062175A1752174A1742173A1732172A17D7
:1001400022171A1712170A170217FA16F216EA16CA
:10015000E216DA16D216CA16C216BA16B216AA16BF
:10016000084AD73B3BCE016E84BCBFFDC12F3D6C1E
:1001700074319ABD56833DDA3D00C77F11BED9E484
:10018000BB4C3E916BAAAABE000000803F05A84C64
:10019000CDB2D44EB93836A9020C50B99186880830
:1001A0003CA6AAAA2ABE000000803F00426164204B
:1001B00063686172616374657220726563656976F4
:1001C000656421204974207761733A2000207269A8
:1001D0006768743A20000A204D6F746F722064754E
:1001E000747920287831303029206C6566743A2083
:1001F00000207068692A3130303A20002079506F31
:10020000733A20000A43757272656E742078506FDD
:10021000733A2000207363616C653A200020746893
:100220003A20002079433A20000A436F6E7374200D
:10023000646174613A2078433A20003A20002076C5
:10024000003A20002079003A20000A6D57696920A1
:1002500078000A205075636B20416E676C653A2008
:100260000020000A205075636B20414443205661F2
:100270006C733A00556E7265636F676E697A656478
:1002800020576972656C6573734D6573736167653B
:100290000A00576972656C6573734D6573736167A6
:1002A0006520697320554E4B4E4F574E2E0A00570E
:1002B0006972656C6573734D6573736167652069F9
:1002C000732047414D455F4F5645522E0A005769EE
:1002D00072656C6573734D657373616765206973CF
:1002E0002048414C4654494D452E0A0057697265D5
:1002F0006C6573734D657373616765206973205016
:10030000415553452E0A000A000953636F72652058
:10031000426C756520697320000A000953636F728F
:1003200065205265642069732000576972656C65A9
:1003300073734D65737361676520697320474F411F
:100340004C5F422E0A000A000953636F7265204217
:100350006C756520697320000A000953636F72652C
:10036000205265642069732000576972656C65735B
:10037000734D65737361676520697320474F414C06
:100380005F522E0A00576972656C6573734D657311
:100390007361676520697320504C41592E0A0057DC
:1003A0006972656C6573734D657373616765206908
:1003B0007320434F4D4D5F544553542E0A000001A6
:1003C0000000550412000200001204430003000064
:1003D0000E040401030904FA031202030904F203E0
:1003E0000603030904E80308080334003100300061
:1003F000000006034D003200000012034A002E00E8
:1004000020004600690065006E00650000000403DE
:10041000090409024300020100C03209040000017E
:100420000202010005240010010524010101042439
:100430000206052406000107058203100040090496
:100440000100020A00000007050302400000070542
:1004500084024000001201000202000010C0167A5F
:10046000040001010203010001C112018036018173
:10047000360011241FBECFEFDAE0DEBFCDBF11E0A2
:10048000A0E0B1E0ECE1F6E402C005900D92A834E2
:10049000B107D9F721E0A8E4B1E001C01D92AE3E5A
:1004A000B207E1F70E94BF1E0C940C230C940000CD
:1004B00080B38F7380BB81B38F7381BBECE7F0E0B7
:1004C00080818F778083808180648083AAE7B0E019
:1004D0008C9184608C938C9181608C93EEE7F0E03A
:1004E000808181608083808182608083808180615F
:1004F000808380818062808380818064808380812A
:1005000080688083EDE7F0E0808181608083808176
:10051000886080838081806180838C9188608C93E7
:100520008C918F778C93089520917A002F77209368
:100530007A0090934B0180934A018930910508F02D
:100540005BC0FC01EA5AFF4F80917B000C948C2227
:100550008F7D29C08F7D80937B0080917C008B7F75
:1005600008C08F7D38C08F7D80937B0080917C0098
:10057000846080937C0080917C008D7F25C08F7D7E
:1005800080937B0080917C00846080937C008091CC
:100590007C0082602AC08F7D80937B0080917C00EC
:1005A00084600DC0806280937B0080917C008B7F93
:1005B00017C0806280937B0080917C008B7F80934A
:1005C0007C0080917C00826080937C0080917C0024
:1005D000816010C0806280937B0080917C00846089
:1005E00080937C0080917C008D7F80937C00809143
:1005F0007C008E7F80937C0080917A00806880935D
:100600007A0080917A00806480937A000895209126
:100610004C0130914D01232B71F420914E0130910A
:100620004F01232B41F421E030E030934D01209322
:100630004C010E94940280914E0190914F01892BB0
:1006400071F010924F0110924E016091480170912B
:10065000490180914A0190914B010C940611089533
:1006600081E090E090934F0180934E0110924D01F4
:1006700010924C01809178009091790090934901FB
:1006800080934801EAE7F0E080818F7780830895C6
:100690001092530110925201289A29982A9A2B9865
:1006A00008951092510110925001299A28982B9A7E
:1006B0002A980895E1E8F0E080818960808380E2F3
:1006C00093E0909389008093880080E991E0909373
:1006D0008B0080938A00EFE6F0E080818660808363
:1006E000089584B18F6084B9289829982A982B9806
:1006F0000895CF92DF92EF92FF926B017C0120E090
:1007000030E0A9010E94E91F87FD1EC020E030E013
:1007100040E85FE3C701B6010E9499211816A4F0D2
:10072000609188007091890080E090E00E948920AB
:100730009B01AC01C701B6010E94A4210E945D206B
:1007400070938B0060938A00FF90EF90DF90CF90C2
:100750000895CF92DF92EF92FF926B017C0120E02F
:1007600030E0A9010E94E91F87FD1EC020E030E0B3
:1007700040E85FE3C701B6010E9499211816A4F072
:10078000609188007091890080E090E00E9489204B
:100790009B01AC01C701B6010E94A4210E945D200B
:1007A00070938D0060938C00FF90EF90DF90CF905E
:1007B0000895A1E8B0E08C9180618C938C91886061
:1007C0008C93E0E8F0E080818260808380818160AA
:1007D000808384B1806C84B98081806280838081D1
:1007E0008F7E808380818860808380818B7F8083FF
:1007F000EFE6F0E080818260808380E293E0909376
:100800008900809388008C918B7F8C938C918D7F55
:100810008C938C9181608C930895CF92DF92EF92AC
:10082000FF9269017A0120E030E040E05FE30E943E
:10083000A42120E030E040E05FE30E94231F0E94FB
:10084000790320E030E040E05FE3C701B6010E9499
:10085000A42120E030E040E05FE30E94231FFF90EE
:10086000EF90DF90CF900C94A90388EE93E09093E3
:10087000930180939201909395018093940110923B
:10088000960110929701109298011092990110927E
:100890009A0110929B0110929C0110929D0110925E
:1008A00076011092770110927801109279011092DE
:1008B0007A0110927B0110927C0110927D011092BE
:1008C0007E0110927F0110928001109281010895A3
:1008D000EF92FF920F931F93CF93DF93CDB7DEB7C5
:1008E000FE0139966CE171E044E151E09E012F5D1B
:1008F0003F4F8CE0E82E81E0F82E84E090E000810C
:100900001181DB010D931D93BD0102811381DA0179
:100910000D931D93AD01D9010D911D919D01D7013D
:100920000D931D937D0101973696009741F7DF9156
:10093000CF911F910F91FF90EF900895861B970B19
:10094000421B530B889FB001899F700D700D1124BD
:10095000449FC001459F900D900D1124680F791F91
:10096000882777FD8095982F0E948B200E94112266
:100970000E945820CB010895FC014191519121E042
:1009800030E080E090E02617370764F4A191B19140
:10099000A417B50714F0DA0101C0C9012F5F3F4F5A
:1009A000AD01F1CF0895FC014191519121E030E07A
:1009B00080E090E02617370764F4A191B1914A17BF
:1009C0005B0714F0DA0101C0C9012F5F3F4FAD0191
:1009D000F1CF08952F923F924F925F926F927F9244
:1009E0008F929F92AF92BF92CF92DF92EF92FF923F
:1009F0000F931F93CF93DF93CDB7DEB7A0970FB6BA
:100A0000F894DEBF0FBECDBF9E878D878B014A0154
:100A100020919201309193013C8F2B8F6091940132
:100A2000709195017A8F698F8091960190919701CD
:100A3000A0919801B09199018D8B9E8BAF8BB88F4F
:100A400060919A0170919B0180919C0190919D0110
:100A5000698B7A8B8B8B9C8BDA014D905C90119714
:100A60001296AD90BC901397F8012080318062807F
:100A700073809201A501B101C3010E949E04988B6D
:100A80008F87D4011496CD90DC901597F801E480FF
:100A9000F5809501A601B301C7010E949E045C0187
:100AA0009201A601B101C7010E949E042F853889D9
:100AB00038872F83BA86A9869C878B8763E070E08E
:100AC000CE0107960E94BC04FC01EE0FFF1F61E0FF
:100AD00070E06C0F7D1FE60FF71FC680D780FE0108
:100AE00037969B017E017DE0E70EF11C48EEA42EB7
:100AF00043E0B42E419151914A9DC0014B9D900D10
:100B00005A9D900D1124B6010E947822D9016D934F
:100B10007D939D01EE15FF0569F789819A812B81EF
:100B20003C81820F931F2D813E81820F931F8B3258
:100B3000B2E19B070CF4ABC063E070E0CE0101961C
:100B40000E94BC047C0163E070E0CE0101960E942B
:100B5000D304E114F10469F48130910539F422E001
:100B600030E0309383012093820123C082E090E043
:100B70000EC0892BA9F4EA94EF2839F4109283016E
:100B80001092820181E090E014C081E090E09093A7
:100B90008301809382011092A1011092A0010DC0E7
:100BA000EA94EF2859F3109283011092820182E0B7
:100BB00090E09093A1018093A0014091A0015091F9
:100BC000A101440F551FF801E40FF51F60817181E9
:100BD00070938D0160938C018091820190918301CB
:100BE000880F991FF801E80FF91F20813181309398
:100BF0008B0120938A01F401E40FF51F008111811C
:100C00001093870100938601F401E80FF91FE0803B
:100C1000F180F0928501E0928401CB01820F931F55
:100C200097FD0196959587959093AB018093AA01C6
:100C3000C8018E0D9F1D97FD019695958795909300
:100C4000890180938801621B730B882777FD80954B
:100C5000982F0E948B202BED3FE049EC5FE30E9430
:100C6000221F9B01AC01B8016E197F09882777FD0F
:100C70008095982F2D8F3E8F4F8F58A30E948B20E9
:100C80002D8D3E8D4F8D58A10E94961F24C2863A0D
:100C90002EE092070CF066C163E070E0CE01019691
:100CA0000E94BC047C0163E070E0CE0101960E94CA
:100CB000D304E114F10479F48130910529F490937F
:100CC00083018093820104C01092830110928201FB
:100CD00082E090E011C00097A1F431E0E316F10446
:100CE00029F4F0928301E09282011BC010928301EB
:100CF0001092820181E090E09093A9018093A80175
:100D000014C08130910539F422E030E03093830142
:100D100020938201F1CF82E090E090938301809351
:100D200082011092A9011092A8014091A80150914E
:100D3000A901BA01660F771FF801E60FF71FE080DF
:100D4000F180F092A701E092A601209182013091FA
:100D50008301C901880F991FF801E80FF91F20804E
:100D6000318030928B0120928A01F401E60FF71F47
:100D7000C080D180D092AD01C092AC01F401E80FE7
:100D8000F91F60817181788B6F8770938501609303
:100D9000840183E090E0841B950B821B930B880FEA
:100DA000991FF801E80FF91FA080B180B092A5014A
:100DB000A092A401F401E80FF91F008111811093A2
:100DC000A3010093A201B70162197309882777FD77
:100DD0008095982F0E948B209B01AC01B6018F85D6
:100DE0009889681B790B882777FD8095982F2D8F20
:100DF0003E8F4F8F58A30E948B202D8D3E8D4F8D9F
:100E000058A10E94961F29E130E94DE85FE30E9456
:100E1000231F2BED3FE049E450E40E94231F2B01E8
:100E20003C0120E030E0A9010E94E91F87FD09C0D4
:100E300040928E0150928F016092900170929101C8
:100E400010C02BED3FE049EC50E4C301B2010E9419
:100E5000231F60938E0170938F0180939001909374
:100E600091019801A601B501C7010E949E04BC0131
:100E7000882777FD8095982F0E948B2023E436E108
:100E800042E35FE30E94A4216B017C0120EF35E87F
:100E900049E55FE360918E0170918F01809190012F
:100EA000909191010E94221F2BED3FE049E450E414
:100EB0000E94221F2B013C010E94ED1F9B01AC01EF
:100EC000B501882777FD8095982F2D8F3E8F4F8F06
:100ED00058A30E948B204B015C012D8D3E8D4F8DC0
:100EE00058A1C701B6010E94A4219B01AC01C50114
:100EF000B4010E94231F0E9458204B015C01709393
:100F00008D0160938C01C301B2010E9407229B01F5
:100F1000AC01B801882777FD8095982F2D8F3E8FE3
:100F20004F8F58A30E948B202B013C012D8D3E8DAD
:100F30004F8D58A1C701B6010E94A4219B01AC01AD
:100F4000C301B2010E94231F0E94582070938701A1
:100F500060938601820C931C97FE46C2AFEF8A1AFB
:100F60009A0A42C28F3BFFE09F070CF4D6C063E0B1
:100F700070E0CE0101960E94BC047C0163E070E049
:100F8000CE0101960E94D304E114F10469F481308A
:100F9000910539F422E030E03093830120938201FF
:100FA0002DC082E090E011C0892BC1F421E0E2164F
:100FB000F10449F41092830110928201F092A10190
:100FC000E092A0011FC081E090E0909383018093A4
:100FD00082011092A1011092A00114C0EA94EF289E
:100FE00029F4109283011092820106C081E090E002
:100FF000909383018093820182E090E09093A1011D
:101000008093A0014091A0015091A101440F551F70
:10101000F801E40FF51F6081718170938D01609379
:101020008C018091820190918301880F991FF801B2
:10103000E80FF91F2081318130938B0120938A01C1
:10104000F401E40FF51FE080F180F0928701E09257
:101050008601F401E80FF91F0081118110938501C9
:1010600000938401CB01820F931F97FD0196959504
:1010700087959093AB018093AA01C701800F911FC0
:1010800097FD0196959587959093890180938801A6
:10109000621B730B882777FD8095982F0E948B2009
:1010A0009B01AC01B701601B710B882777FD809510
:1010B000982F2D8F3E8F4F8F58A30E948B202D8D00
:1010C0003E8D4F8D58A10E94961F2BED3FE049ECBD
:1010D0005FE30E94221F6B017C0160938E0170937D
:1010E0008F01809390019093910120E030E0A9015D
:1010F0000E94E91F87FFAFC12BED3FE049EC50E4B0
:10110000C701B6010E94231F60938E0170938F0167
:1011100080939001909391019EC18E3B9F4009F472
:1011200078C163E070E0CE0101960E94BC047C01AE
:1011300063E070E0CE0101960E94D304E114F10453
:1011400079F48130910529F41092A1011092A00147
:101150002CC081E090E09093A1018093A00111C088
:101160000097A1F482E090E09093A1018093A00108
:1011700071E0E716F10429F4F092A901E092A801C8
:1011800018C01092A9011092A80113C0019729F468
:101190001092A1011092A00106C081E090E090930E
:1011A000A1018093A00182E090E09093A901809337
:1011B000A8014091A0015091A101BA01660F771FCB
:1011C000F801E60FF71F2080318030928D012092C8
:1011D0008C012091A8013091A901C901880F991FA4
:1011E000F801E80FF91FE080F180F092A701E0928A
:1011F000A601F401E60FF71FA081B181B88BAF877C
:10120000B0938701A0938601F401E80FF91FC08015
:10121000D180D092AD01C092AC0183E090E0841BFC
:10122000950B821B930B880F991FF801E80FF91F8C
:10123000A080B180B092A501A092A401F401E80FB2
:10124000F91F008111811093A3010093A201B10144
:101250006A197B09882777FD8095982F0E948B203B
:101260009B01AC016F857889601B710B882777FD26
:101270008095982F2D8F3E8F4F8F58A30E948B20E3
:101280002D8D3E8D4F8D58A10E94961F20EF35E881
:1012900049E55FE30E94231F2BED3FE049E450E462
:1012A0000E94231F2B013C0120E030E0A9010E9495
:1012B000E91F87FD09C040928E0150928F01609214
:1012C00090017092910110C02BED3FE049EC50E489
:1012D000C301B2010E94231F60938E0170938F019E
:1012E00080939001909391019801A601B501C701E7
:1012F0000E949E04BC01882777FD8095982F0E944C
:101300008B2023ED3BE94EE55FE30E94A4216B01B6
:101310007C0124E036E54EE05FE360918E01709140
:101320008F0180919001909191010E94221F2BEDDD
:101330003FE049EC5FE30E94221F2B013C010E9429
:10134000ED1F9B01AC01B501882777FD8095982F93
:101350002D8F3E8F4F8F58A30E948B204B015C0135
:101360002D8D3E8D4F8D58A1C701B6010E94A4213D
:101370009B01AC01C501B4010E94231F0E945820AB
:101380004B015C0170938B0160938A01C301B20130
:101390000E9407229B01AC01B801882777FD809548
:1013A000982F2D8F3E8F4F8F58A30E948B202B019B
:1013B0003C012D8D3E8D4F8D58A1C701B6010E9475
:1013C000A4219B01AC01C301B2010E94231F0E9412
:1013D00058207093850160938401820C931C97FEC2
:1013E00003C0BFEF8B1A9B0A959487949092AB0130
:1013F0008092AA01EF85F8896E0F7F1F77FF02C0E8
:101400006F5F7F4F75956795709389016093880131
:1014100022C0EB8DFC8DAD85BE851196FC93EE93BD
:10142000298D3A8D13963C932E9312976D897E8960
:101430008F89988D14966D937D938D939C931797B8
:1014400069897A898B899C8918966D937D938D9390
:101450009C931B9741C0A090AA01B090AB01009152
:10146000880110918901C0908E01D0908F01E09089
:101470009001F09091012091860130918701409177
:1014800084015091850160918C0170918D01809152
:101490008A0190918B010E949E04ED85FE85B182A8
:1014A000A08213830283C482D582E682F782BC01C4
:1014B000882777FD8095982F0E948B209B01AC0197
:1014C00060E070E088EE91E40E94F01FED85FE85FB
:1014D00060877187828793878D859E85A0960FB6DA
:1014E000F894DEBF0FBECDBFDF91CF911F910F915A
:1014F000FF90EF90DF90CF90BF90AF909F908F9034
:101500007F906F905F904F903F902F9008952F9213
:101510003F924F925F926F927F928F929F92AF9283
:10152000BF92CF92DF92EF92FF920F931F93CF93D0
:10153000DF93CDB7DEB7C254D1090FB6F894DEBF42
:101540000FBECDBF9AAB89AB8B013A01DA01ED90AA
:10155000FC90119712962D903C901397FB01808080
:101560009180228133813CAB2BAB9701A101B40167
:101570008BA99CA90E949E0498AF8FABD3011496AF
:10158000AD90BC901597F801448055809101A5015C
:101590006BA97CA9C2010E949E049AAF89AFD301B6
:1015A00016960D90BC91A02DBEABADABF801C680D8
:1015B000D7809501AD01B201C6010E949E049CAF87
:1015C0008BAF2DA93EA9A701B601C4010E949E04BC
:1015D0009EAF8DAF9701A501B401C2010E949E0488
:1015E0007C0191014DA95EA96BA97CA9C6010E944D
:1015F0009E042FA938AD3EA32DA3A9ADBAADB8A7BF
:10160000AFA3EBADFCADFAA7E9A72DAD3EAD3CA76E
:101610002BA7FEA6EDA698AB8FA766E070E0CE01E3
:1016200085960E94BC04FC01EE0FFF1F81E090E054
:101630008C0F9D1FE80FF91FC4A0D5A09E012B5D44
:101640003F4FFE0179967E0191E3E90EF11C4F01B7
:1016500098EEA92E93E0B92ED9016D917D919D014F
:101660006A9DC0016B9D900D7A9D900D1124B6016D
:101670000E947822619371932E153F0569F78CE0E3
:10168000E0E3F1E0DE011D9601900D928A95E1F70D
:101690008CE0ECE3F1E0DE01119601900D928A9569
:1016A000E1F766E070E0C4010E94BC04FC01EE0FAB
:1016B000FF1F21E030E02C0F3D1FE20FF31FC48419
:1016C000D584E080F18066E070E0C4010E94D3041C
:1016D000FC01EE0FFF1F81E090E08C0F9D1FE80FD3
:1016E000F91F2485358580819181C216D30641F486
:1016F000D092A101C092A0019093830180938201B6
:10170000C816D90641F49093A1018093A0013093AB
:10171000830120938201E216F30641F4F092A101C5
:10172000E092A0019093830180938201E816F9066C
:1017300041F4F092A101E092A00130938301209343
:1017400082012091A0013091A10121503048220F47
:10175000331FF801E20FF31FE080F18080918201D6
:101760009091830181509048880F991FF801E80FEC
:10177000F91F00811181F301E20FF31FA080B180F6
:10178000F301E80FF91FC080D1804701800E911E40
:1017900097FE03C09FEF891A990A959487941501C3
:1017A0002C0C3D1C37FE03C0AFEF2A1A3A0A3594C1
:1017B0002794B701601B710B882777FD8095982FC0
:1017C0000E948B209B01AC01B5016C197D09882713
:1017D00077FD8095982F2FAF21963FAF21972296C6
:1017E0004FAF229723965FAF23970E948B202FAD98
:1017F00021963FAD219722964FAD229723965FAD5C
:1018000023970E94961F2BED3FE049EC5FE30E9477
:10181000221F2B013C0120E030E0A9010E94E91FBA
:1018200087FF0AC02BED3FE049EC50E4C301B20151
:101830000E94231F2B013C019501A601B701C8019D
:101840000E949E04E9A9FAA99182808233822282B1
:101850004482558266827782BC01882777FD809515
:10186000982F0E948B209B01AC0160E070E088EE15
:1018700091E40E94F01FE9A9FAA960877187828725
:101880009387CF01CE5BDF4F0FB6F894DEBF0FBE5C
:10189000CDBFDF91CF911F910F91FF90EF90DF901F
:1018A000CF90BF90AF909F908F907F906F905F9000
:1018B0004F903F902F9008954F925F926F927F923A
:1018C0008F929F92AF92BF92CF92DF92EF92FF9250
:1018D0000F931F93CF93DF93CDB7DEB7AC970FB6BF
:1018E000F894DEBF0FBECDBF8C0180910C019091AA
:1018F0000D0120910E0130910F01820F931F209155
:10190000100130911101820F931F2091120130912B
:101910001301820F931F7CE0E72E71E0F72E20E089
:1019200030E040E050E0D7016D917D917D01672B63
:10193000D9F0FA01EE0FFF1F61E070E06C0F7D1F20
:10194000E60FF71FB901645E7E4FDB016D917C915C
:1019500071876087B9016C5E7E4FDB016D917C9170
:10196000718360834F5F5F4F2E5F3F4F283031059B
:10197000D1F68330910559F4AE014F5F5F4FBE0140
:10198000675F7F4FCE0141960E94EA040CC0049726
:1019900099F4AE014F5F5F4FBE01675F7F4FCE018D
:1019A00041960E94870A8CE0FE017196A2E9B1E09F
:1019B00001900D928A95E1F760919A0170919B01D7
:1019C00080919C0190919D016D8F7E8F8F8F98A348
:1019D0004090960150909701609098017090990105
:1019E000C301B2010E94ED1F6B017C016091920165
:1019F000709193016F5F7140882777FD8095982FD4
:101A00000E948B2069A37AA38BA39CA3C301B2017C
:101A10000E9407224B015C016FE771E08091940105
:101A200090919501681B790B882777FD8095982FF9
:101A30000E948B206DA37EA38FA398A729A13AA112
:101A40004BA15CA1C701B6010E94A42169A77AA796
:101A50008BA79CA72DA13EA14FA158A5C501B401FC
:101A60000E94A4219B01AC0169A57AA58BA59CA528
:101A70000E94231F9B01AC016D8D7E8D8F8D98A1DF
:101A80000E94A4216093760170937701809378017E
:101A900090937901C501B401905829A13AA14BA1B5
:101AA0005CA10E94A4214B015C012DA13EA14FA18C
:101AB00058A5C701B6010E94A4219B01AC01C50134
:101AC000B4010E94231F9B01AC016D8D7E8D8F8D13
:101AD00098A10E94A42160937A0170937B01809366
:101AE0007C0190937D01A30192016BED7FE089E47D
:101AF00090E40E94221F60937E0170937F01809387
:101B00008001909381018CE0E6E7F1E0D80101903B
:101B10000D928A95E1F7C801AC960FB6F894DEBF36
:101B20000FBECDBFDF91CF911F910F91FF90EF902E
:101B3000DF90CF90BF90AF909F908F907F906F90ED
:101B40005F904F9008954AE0682F81E00E94A614AC
:101B50001092B1011092B0011092AF011092AE013B
:101B600008958091B0019091B10101969093B101D7
:101B70008093B00108950F931F93CF93DF93CDB758
:101B8000DEB72A970FB6F894DEBF0FBECDBF8C012B
:101B90002091B0013091B1018091AE019091AF01DF
:101BA0002817390709F44DC001969093AF0180932F
:101BB000AE016AE0CE0101960E94FE14498150E018
:101BC000FA01E05AF109E830F10568F5E15AFF4FF2
:101BD0000C948C22F8011182108222C081E090E0E6
:101BE000F801918380832FC082E090E002C083E0FF
:101BF00090E0F801918380838A8190E093838283CF
:101C00008B8190E0958384830BC084E090E005C0D5
:101C100085E090E002C086E090E0F8019183808347
:101C200081E090E010C087E090E0F801918380832C
:101C30008CEA91E00E948B1A898190E00E94B41A8C
:101C4000EFCF80E090E02A960FB6F894DEBF0FBE8B
:101C5000CDBFDF91CF911F910F9108950E949F15E5
:101C60000E94B8158823E1F32FEF89E698E121500F
:101C700080409040E1F700C000000E94B815882322
:101C800089F06E9A76986A9A72982FEF83ED90E3B6
:101C9000215080409040E1F700C000006E9A769A93
:101CA0006A9A729A0895AF92BF92CF92DF92EF92A2
:101CB000FF920F931F93CF93DF93CDB7DEB760975B
:101CC0000FB6F894DEBF0FBECDBFA982BA82CB8219
:101CD000DC82ED82FE82EB80FC800D811E81E98139
:101CE000FA81E830F10508F048C0E959FF4F0C943B
:101CF0008C228FE993E043C085E893E040C089E6F9
:101D000093E00E948B1A8AE593E00E948B1AC70128
:101D10000E94F31A88E593E00E948B1A88E493E00E
:101D20000E948B1AC8010E94F31A86E493E027C030
:101D30008AE293E00E948B1A8BE193E00E948B1A57
:101D4000C7010E94F31A89E193E00E948B1A89E08F
:101D500093E00E948B1AC8010E94F31A87E093E077
:101D60000EC08CEE92E00BC08EEC92E008C08FEAC1
:101D700092E005C082E992E002C084E792E06096BA
:101D80000FB6F894DEBF0FBECDBFDF91CF911F918C
:101D90000F91FF90EF90DF90CF90BF90AF900C9499
:101DA0008B1A0F931F93CF93DF938C0183E692E0FE
:101DB0000E948B1AE80109E010E081E692E00E949F
:101DC0008B1A899199910E94F31A015011090115FA
:101DD000110599F7DF91CF911F910F910895CF923F
:101DE000DF92EF92FF926B017C0182E592E00E940C
:101DF0008B1AC701B6010E945820CB01FF90EF90CB
:101E0000DF90CF900C94BF1ACF92DF92EF92FF92A7
:101E10000F931F93CF93DF93CDB7DEB7CE010B9611
:101E20007C016E0193E2C90ED11C00E010E08AE44F
:101E300092E00E948B1AC8010E94BF1A87E492E0C8
:101E40000E948B1AF701808191810E94BF1A84E45D
:101E500092E00E948B1AC8010E94BF1A81E492E0AE
:101E60000E948B1AF701828193810E94BF1A8EE330
:101E700092E00E948B1AC8010E94BF1A8BE392E085
:101E80000E948B1AF601819191916F010E94BF1AF5
:101E90000F5F1F4FF6E0EF0EF11C0430110539F60D
:101EA000DF91CF911F910F91FF90EF90DF90CF9036
:101EB0000895EF92FF920F931F93CF93DF93CDB7C7
:101EC000DEB72C970FB6F894DEBF0FBECDBFE98208
:101ED000FA820B831C832D833E834F835887698747
:101EE0007A878B879C8789E292E00E948B1A89818E
:101EF0009A810E94BF1A83E292E00E948B1A8B8122
:101F00009C810E94BF1A8DE192E00E948B1A20E012
:101F100030E048EC52E46D817E818F8198850E948B
:101F2000A4210E945820CB010E94BF1A84E192E0B4
:101F30000E948B1A20E030E048EC52E469857A85F3
:101F40008B859C850E94A4210E945820CB012C9651
:101F50000FB6F894DEBF0FBECDBFDF91CF911F91BA
:101F60000F91FF90EF900C94BF1AEF92FF920F9396
:101F70001F93CF93DF93CDB7DEB72C970FB6F894AE
:101F8000DEBF0FBECDBFE982FA820B831C832D8397
:101F90003E834F83588769877A878B879C8784E045
:101FA00092E00E948B1A69817A818B819C810E94C8
:101FB0005820CB010E94BF1A8CEF91E00E948B1A2F
:101FC0006D817E818F8198850E945820CB010E946F
:101FD000BF1A81EF91E00E948B1A20E030E048ECBC
:101FE00052E469857A858B859C850E94A4210E9494
:101FF0005820CB012C960FB6F894DEBF0FBECDBF94
:10200000DF91CF911F910F91FF90EF900C94BF1A29
:10201000CF92DF92EF92FF921F93CF93DF9300D086
:1020200000D0CDB7DEB76B017C0186ED91E029834E
:102030003A834B835C830E948B1AC701B6010E94CE
:10204000582014E6169FF001179FF00D1124CF01C0
:102050000E94BF1A8DEC91E00E948B1A29813A816F
:102060004B815C81CA01B9010E945820169F9001E2
:10207000179F300D1124C9010F900F900F900F90F2
:10208000DF91CF911F91FF90EF90DF90CF900C9454
:10209000BF1A0C94C21B8F929F92AF92BF92CF92A5
:1020A000DF92EF92FF920F931F93CF93DF93CDB701
:1020B000DEB768970FB6F894DEBF0FBECDBFCE0176
:1020C00001960E94A71C811110C01092CB011092A2
:1020D000CA011092CD011092CC011092CF01109242
:1020E000CE011092D1011092D001FE0131968AECFE
:1020F00091E0B2EB8B2EB1E09B2E8E01075E1F4F5D
:10210000EE24E394F12C6081718142815381C4807B
:10211000D5809B01220F331FAA24A394B12CAC0EAF
:10212000BD1E2A0D3B1DD9012D913C912F3F3340FF
:1021300079F49A01220F331F2A0D3B1DD9012D91ED
:102140003C912F3F334021F4DC011D921C920FC0C3
:10215000DC01ED92FC92D40111967C936E93139660
:102160005C934E9312971596DC92CE921497369606
:102170000296B6E08B0E911CE017F10721F68DB7A1
:102180009EB780970FB6F8949EBF0FBE8DBFADB7B8
:10219000BEB7119680E2E2EBF1E001900D928A95D4
:1021A000E1F70E9468040FB6F894DEBF0FBECDBF02
:1021B00068960FB6F894DEBF0FBECDBFDF91CF910A
:1021C0001F910F91FF90EF90DF90CF90BF90AF9055
:1021D0009F908F90089580915401909155010E9495
:1021E0000703809154019091550101968930910522
:1021F0002CF4909355018093540104C01092550122
:102200001092540186E591E00C94D10EFC01EE0F82
:10221000FF1FEA5AFE4F80E094E0861B970B9183E4
:102220008083089581E090E020915601309157011C
:10223000253F314014F480E090E008952F923F92C2
:102240004F925F926F927F928F929F92AF92BF92C6
:10225000CF92DF92EF92FF920F931F93CF93DF9372
:1022600000D000D0CDB7DEB78091580190915901D0
:10227000813293400CF0F5C0E8E5F1E000E010E0B9
:1022800020E034E081E090E0419151914217530702
:1022900014F0A90101C08C0101968930910579F4EF
:1022A0001801220C331CC1018A5A9E4F1C011C824A
:1022B0001B82812C912C54017501640102C09A018A
:1022C000E3CF8B819C8101969A8389838B819C814A
:1022D000800F911F09970CF046C0EB81FC81EE0F37
:1022E000FF1FE20DF31D60817181882777FD8095C6
:1022F000982F0E948B2020E030E040E85AE30E94B3
:10230000A4212B013C019B01AC01C501B4010E9439
:10231000231F4B015C01EB81FC81BF01882777FD06
:102320008095982F0E948B2020E030E044E352E417
:102330000E94A42120E030E044E353E40E94221FE5
:102340009B01AC01C301B2010E94A4219B01AC011D
:10235000C701B6010E94231F6B017C0129813A81CC
:102360003C832B83AECFE8E5F1E0FA83E9832224B6
:102370002394312C2B813C81215031093C832B83C8
:10238000201631060CF044C0E981FA816191719107
:10239000FA83E983882777FD8095982F0E948B2008
:1023A00020E030E040E85AE30E94A4212B013C01E8
:1023B0009B01AC01C501B4010E94231F4B015C01CC
:1023C0006B817C81620D731D882777FD8095982F26
:1023D0000E948B2020E030E044E352E40E94A421DC
:1023E00020E030E044E353E40E94221F9B01AC0153
:1023F000C301B2010E94A4219B01AC01C701B60137
:102400000E94231F6B017C01FFEF2F1A3F0AB8CFF8
:10241000A5019401C701B6010E94F01F20E030E041
:1024200044E353E40E94231F6B017C010150110916
:102430008DE2809FB001819F700D1124882777FD68
:102440008095982F0E948B209B01AC01C701B6019B
:102450000E94231F8B017C010E94EF0E3E2D2F2D29
:1024600004C000E010E030E020E0B801832F922F9C
:102470000F900F900F900F90DF91CF911F910F91C0
:10248000FF90EF90DF90CF90BF90AF909F908F9094
:102490007F906F905F904F903F902F900895809124
:1024A000680190916901A0916A01B0916B01019658
:1024B000A11DB11D8093680190936901A0936A01E9
:1024C000B0936B010895E1E9F0E080818F7E808315
:1024D000808188608083A0E9B0E08C918D7F8C93AF
:1024E0008C918E7F8C938C918F778C938C918F7B3A
:1024F0008C93A1E7B0E08C9182608C93C19A80E8C4
:102500009EE3909399008093980080818B7F8083D5
:1025100080818D7F80838081816080830895609138
:1025200068017091690180916A0190916B01089531
:10253000589A599A5A9A8CE08093B800E9E6F0E0EC
:1025400080818062808380818F7E8083EA9A789404
:10255000089584E88093BC008091BC0087FFFCCF85
:102560008091BB00089584E98093BC00089520E029
:1025700030E08091BC0087FD06C02F5F3F4F293EB1
:1025800083E03807B1F781E0283E334009F480E06A
:1025900008958093BB0084E88093BC000E94B7122A
:1025A000882321F08091B900887F089580E0089504
:1025B0001F93CF93DF931F92CDB7DEB7182F84EA16
:1025C0008093BC0069830E94B7126981811104C0A5
:1025D00094E99093BC0014C0812F880F662331F0DA
:1025E0008F5F0E94C912883451F404C00E94C9123E
:1025F000803229F484E98093BC0080E001C081E04E
:102600000F90DF91CF911F910895CF93DF93C82F43
:10261000D62F60E00E94D812882391F08D2F0E945F
:10262000C912882369F084E98093BC0061E08C2F93
:102630000E94D812882321F0DF91CF910C94A91227
:1026400080E0DF91CF910895CF93DF93D62FC42FF1
:1026500060E00E94D812811102C080E00EC08D2F70
:102660000E94C9128823C9F38C2F0E94C9128823A3
:10267000A1F384E98093BC0081E0DF91CF910895BC
:10268000CF93DF93D82FC62F843010F080E05BC04B
:102690006430E0F70E9498122FEF85EA9EE0215007
:1026A00080409040E1F700C0000065E789E60E94A5
:1026B0000513883659F741E06BE689E60E9424133A
:1026C0004D2F440F440F440F6CE189E60E94241300
:1026D0004C2F440F440F440F6BE189E60E942413F2
:1026E00042E067E389E60E94241340E062E08EE165
:1026F0000E94241340E067E389E60E9424134EE120
:1027000064E389E60E94241341E067E689E60E94BB
:1027100024134DE164E289E60E9424134EE965E248
:1027200089E60E94241343E066E289E60E942413AE
:1027300046E967E289E60E94241340E26AE689E6F8
:102740000E94241381E0DF91CF910895EF92FF92D0
:102750000F931F93CF93DF93CDB7DEB765970FB677
:10276000F894DEBF0FBECDBF8C01CE0101967C0177
:102770009EE4692F89E69D8B0E940513F7018193E2
:102780007F019D8991509A33A1F78F859889F8012F
:10279000958384838F8198859387828789819A81A5
:1027A000918B808B89899A899383828389859A8585
:1027B000918780878B819C81978786878B899C896D
:1027C000918380838B859C85978386838D819E8171
:1027D0009587848781E065960FB6F894DEBF0FBEBB
:1027E000CDBFDF91CF911F910F91FF90EF90089592
:1027F000EF92FF920F931F93CF93DF93CDB7DEB786
:1028000027970FB6F894DEBF0FBECDBF8C01CE0167
:1028100001967C0190E4692F89E69F830E9405134D
:10282000F70181937F019F8191509A33A1F78981AC
:102830009A81F801958384838B819C819383828321
:102840008D819E819183808381E027960FB6F894D5
:10285000DEBF0FBECDBFDF91CF911F910F91FF90D3
:10286000EF900895EF92FF920F931F93CF93DF9312
:10287000CDB7DEB727970FB6F894DEBF0FBECDBF3A
:102880008C01CE0101967C0198E4692F89E69F8333
:102890000E940513F70181937F019F81915092342B
:1028A000A1F789819A81F801958384838B819C812A
:1028B000938382838D819E819183808381E027969B
:1028C0000FB6F894DEBF0FBECDBFDF91CF911F9141
:1028D0000F91FF90EF900895EF92FF920F931F9347
:1028E000CF93DF93CDB7DEB727970FB6F894DEBF4F
:1028F0000FBECDBF8C01CE0101967C019EE4692FF5
:1029000089E69F830E940513F70181937F019F81D0
:1029100091509834A1F789819A81F8019583848335
:102920008B819C81938382838D819E81918380831F
:1029300081E027960FB6F894DEBF0FBECDBFDF91C2
:10294000CF911F910F91FF90EF900895CF93DF9358
:1029500000D01F92CDB7DEB74B836A8389830E9474
:10296000981294EA9093BC0089816A814B8190917E
:10297000BC0097FFFCCF90E59093BB0094E8909348
:10298000BC009091BC0097FFFCCF9091B900987F5C
:10299000903229F484E98093BC0080E029C091E062
:1029A0009093BB0094E89093BC009091BC0097FF7B
:1029B000FCCF8093BB0084E88093BC008091BC0076
:1029C00087FFFCCF6093BB0084E88093BC008091BC
:1029D000BC0087FFFCCF4093BB0084E88093BC0021
:1029E0008091BC0087FFFCCF84E98093BC0081E02C
:1029F0000F900F900F90DF91CF91089524EA2093CC
:102A0000BC002091BC0027FFFCCF21E52093BB0038
:102A100024E82093BC002091BC0027FFFCCF20912C
:102A2000B900287F2834A9F024EC2093BC00209121
:102A3000BC0027FFFCCF2091BB0026130AC0FC017D
:102A400020E030E0772767FD70956150710944EC14
:102A50000EC084E98093BC0080E008955091BC00D2
:102A600057FFFCCF5091BB0051932F5F3F4F26176C
:102A700037071CF44093BC00F1CF44E84093BC00FE
:102A80004091BC0047FFFCCF4091BB00FC01E20F2E
:102A9000F31F408384E98093BC0081E00895F8949B
:102AA00094EA9093BC009091BC0097FFFCCF90E516
:102AB0009093BB0094E89093BC009091BC0097FF6A
:102AC000FCCF9091B900987F903231F484E98093E3
:102AD000BC00789480E0089593E09093BB0094E864
:102AE0009093BC009091BC0097FFFCCF8093BB00FB
:102AF00084E88093BC008091BC0087FFFCCFFB0181
:102B0000552747FD509524E8CF01861B970B841766
:102B1000950754F481918093BB002093BC00809171
:102B2000BC0087FFFCCFF0CF84E98093BC00789491
:102B300081E008958091E80080FFFCCF089581E056
:102B40008093D70080EA8093D80082E189BD09B4E0
:102B500000FEFDCF80E98093D8001092E000109233
:102B60006F0110926C018CE08093E20078940895DC
:102B700080916F0108959FB7F89480916F01882329
:102B800039F083E08093E9008091E80085FD03C07F
:102B90009FBF8FEF08958091F1002091E80025FDFF
:102BA00003C02BE62093E8009FBF08959FB7F894D9
:102BB00080916F01882331F083E08093E900809158
:102BC000F20001C080E09FBF089580916F018823CB
:102BD00071F08FB7F89493E09093E9002BE6909111
:102BE000E80095FF03C02093E800F9CF8FBF089558
:102BF00090916F01992371F09FB7F89424E020938E
:102C0000E90020916D01222349F02091E80025FD83
:102C100003C09FBF8FEF089510926D012091E400D3
:102C2000275E34E04091E80045FD12C09FBF9091BF
:102C3000E400921304C081E080936D01EBCF90918A
:102C40006F01992339F39FB7F8943093E900EACFE5
:102C50008093F1008091E80085FD03C08AE38093B2
:102C6000E80085E080936E019FBF80E00895909119
:102C70006F019923D1F09FB7F89424E02093E900E5
:102C80002091E80025FD02C09FBF0FC08093F10096
:102C90008091E80085FD03C08AE38093E80085E029
:102CA00080936E019FBF80E008958FEF0895EF92AB
:102CB000FF921F93CF93DF937C01CB0120916F0193
:102CC000222371F0AFB7F89424E02093E90020911B
:102CD0006D01222349F02091E80025FD03C0AFBF1C
:102CE0008FEF42C210926D01B4E0C0E4DAE315E068
:102CF000009709F437C22091E400275E3091E80084
:102D000035FD12C0AFBF3091E400321304C081E042
:102D100080936D01E5CF30916F01332309F3AFB795
:102D2000F894B093E900EACF2091F2004C2F421BB7
:102D3000242F30E08217930708F4482F841B910951
:102D400050E04134510508F0FDC141595F4FFA018F
:102D50000C948C22F70120812093F10097012F5FC2
:102D60003F4F7901F70120812093F10097012F5FF8
:102D70003F4F7901F70120812093F10097012F5FE8
:102D80003F4F7901F70120812093F10097012F5FD8
:102D90003F4F7901F70120812093F10097012F5FC8
:102DA0003F4F7901F70120812093F10097012F5FB8
:102DB0003F4F7901F70120812093F10097012F5FA8
:102DC0003F4F7901F70120812093F10097012F5F98
:102DD0003F4F7901F70120812093F10097012F5F88
:102DE0003F4F7901F70120812093F10097012F5F78
:102DF0003F4F7901F70120812093F10097012F5F68
:102E00003F4F7901F70120812093F10097012F5F57
:102E10003F4F7901F70120812093F10097012F5F47
:102E20003F4F7901F70120812093F10097012F5F37
:102E30003F4F7901F70120812093F10097012F5F27
:102E40003F4F7901F70120812093F10097012F5F17
:102E50003F4F7901F70120812093F10097012F5F07
:102E60003F4F7901F70120812093F10097012F5FF7
:102E70003F4F7901F70120812093F10097012F5FE7
:102E80003F4F7901F70120812093F10097012F5FD7
:102E90003F4F7901F70120812093F10097012F5FC7
:102EA0003F4F7901F70120812093F10097012F5FB7
:102EB0003F4F7901F70120812093F10097012F5FA7
:102EC0003F4F7901F70120812093F10097012F5F97
:102ED0003F4F7901F70120812093F10097012F5F87
:102EE0003F4F7901F70120812093F10097012F5F77
:102EF0003F4F7901F70120812093F10097012F5F67
:102F00003F4F7901F70120812093F10097012F5F56
:102F10003F4F7901F70120812093F10097012F5F46
:102F20003F4F7901F70120812093F10097012F5F36
:102F30003F4F7901F70120812093F10097012F5F26
:102F40003F4F7901F70120812093F10097012F5F16
:102F50003F4F7901F70120812093F10097012F5F06
:102F60003F4F7901F70120812093F10097012F5FF6
:102F70003F4F7901F70120812093F10097012F5FE6
:102F80003F4F7901F70120812093F10097012F5FD6
:102F90003F4F7901F70120812093F10097012F5FC6
:102FA0003F4F7901F70120812093F10097012F5FB6
:102FB0003F4F7901F70120812093F10097012F5FA6
:102FC0003F4F7901F70120812093F10097012F5F96
:102FD0003F4F7901F70120812093F10097012F5F86
:102FE0003F4F7901F70120812093F10097012F5F76
:102FF0003F4F7901F70120812093F10097012F5F66
:103000003F4F7901F70120812093F10097012F5F55
:103010003F4F7901F70120812093F10097012F5F45
:103020003F4F7901F70120812093F10097012F5F35
:103030003F4F7901F70120812093F10097012F5F25
:103040003F4F7901F70120812093F10097012F5F15
:103050003F4F7901F70120812093F10097012F5F05
:103060003F4F7901F70120812093F10097012F5FF5
:103070003F4F7901F70120812093F10097012F5FE5
:103080003F4F7901F70120812093F10097012F5FD5
:103090003F4F7901F70120812093F10097012F5FC5
:1030A0003F4F7901F70120812093F10097012F5FB5
:1030B0003F4F7901F70120812093F10097012F5FA5
:1030C0003F4F7901F70120812093F10097012F5F95
:1030D0003F4F7901F70120812093F10097012F5F85
:1030E0003F4F7901F70120812093F10097012F5F75
:1030F0003F4F7901F70120812093F10097012F5F65
:103100003F4F7901F70120812093F10097012F5F54
:103110003F4F7901F70120812093F10097012F5F44
:103120003F4F7901F70120812093F10097012F5F34
:103130003F4F7901F70120812093F10097012F5F24
:103140003F4F7901F70120812093F10097012F5F14
:103150003F4F79012091E80025FFD093E8001093BC
:103160006E01C6CDAFBF80E0DF91CF911F91FF9080
:10317000EF9008958FB7F89490916E01992341F0E4
:1031800094E09093E9009AE39093E80010926E0126
:103190008FBF089580912801089580912901089595
:1031A00080912A01089580916C0108959FB7F89449
:1031B00020916F01222339F022E02093E900309121
:1031C000E80035FD03C09FBF8FEF089531EA3093CB
:1031D000F10030E23093F1001092F1001092F10012
:1031E0001092F1001092F1002093F1001092F10082
:1031F0008093F1001092F1008AE38093E8009FBF72
:1032000080E008951F920F920FB60F9211248F93B2
:103210009F938091E1001092E10083FF11C0109212
:10322000E90091E09093EB001092EC0092E1909312
:10323000ED0098E09093F00010926F0110926C01F5
:1032400082FF13C080916F01882379F080916E0115
:10325000882359F0815080936E01811106C084E06B
:103260008093E9008AE38093E8009F918F910F900B
:103270000FBE0F901F9018951F920F920FB60F92CE
:103280001124EF92FF920F931F932F933F934F932D
:103290005F936F937F938F939F93AF93BF93EF93BE
:1032A000FF93CF93DF931F92CDB7DEB71092E90063
:1032B0008091E80083FF14C19091F1008091F100AA
:1032C0003091F1002091F100E32EF12CF22A0091CF
:1032D000F1002091F10010E0122B2091F10060919B
:1032E000F10032EF3093E800863009F046C036E056
:1032F0008EEB93E0FC01459154914E155F0539F436
:10330000FC013296459154914017510721F00796E0
:10331000315081F7E5C0FC01349645915491FC0190
:103320003696849130E0362B2F3F310519F010F09E
:103330002FEF30E0281708F4822F3EEF9091E8003D
:10334000292F2570D9F392FDCEC0982F813108F036
:1033500090E1FA01292F222331F064916093F1006A
:1033600021503196F8CF490F511D891B3093E80049
:103370008111E4CF903111F3B6C0853051F48EEF56
:103380008093E8000E949A158E2D80688093E30058
:10339000AAC0893059F5911180C0E0926F01109256
:1033A0006C0110926E018EEF8093E80041E087E699
:1033B00094E04093E9009C012F5F3F4FFC01549142
:1033C0005093EB00552359F0F90124912093EC0020
:1033D0009C012D5F3F4F319684918093ED004F5FAC
:1033E000453011F0C901E5CF8EE175C0883051F448
:1033F000903809F052C00E949A1580916F01809315
:10340000F10047C0813279F4913A09F046C00E9438
:103410009A15E4E2F1E081918093F10081E0EB32D2
:10342000F807C9F736C0803299F49132B1F580912E
:10343000E80082FFFCCFE4E2F1E08091F1008193AB
:1034400081E0EB32F807C9F78BEF8093E80021C0E9
:10345000823241F4913209F043C0E0926C010E9443
:103460009A1517C0811119C099830E949A159981E4
:10347000923851F40093E9008091EB0085FB882796
:1034800080F91092E90001C080E08093F100109271
:10349000F1008EEF8093E80026C0282F2D7F213089
:1034A000F9F49230E9F4EF28D9F40F779FEF900FF9
:1034B0009430B0F49EEF9093E8000093E9008330DD
:1034C00079F089E18093EB0081E090E0002E01C06B
:1034D000880F0A94EAF78093EA001092EA0003C08A
:1034E00081E28093EB000F90DF91CF91FF91EF91FC
:1034F000BF91AF919F918F917F916F915F914F910C
:103500003F912F911F910F91FF90EF900F900FBE61
:103510000F901F9018951F93CF93DF93EC01FE013E
:103520001491112351F01A3019F48DE00E94F8150E
:10353000812F0E94F8152196F2CFDF91CF911F9134
:1035400008958A3010F490E301C097E3890F0C943A
:10355000F815CF93C82F82958F700E94A11A8C2FD7
:103560008F70CF910C94A11ACF93C82F892F0E94EE
:10357000A91A8C2FCF910C94A91A0C94A91AEF9226
:10358000FF920F931F93CF93DF93CDB7DEB72797AB
:103590000FB6F894DEBF0FBECDBF8E010F5F1F4F79
:1035A00027E0F80111922A95E9F74AE0B8010E9454
:1035B000A6227E01F8E0EF0EF11CF80181918F0147
:1035C00081110E94F8150E151F05B9F727960FB641
:1035D000F894DEBF0FBECDBFDF91CF911F910F9149
:1035E000FF90EF900895EF92FF920F931F93CF9368
:1035F000DF9300D000D000D0CDB7DEB78E010F5FD3
:103600001F4F26E0F80111922A95E9F74AE0B80128
:103610000E94E2227E01F6E0EF0EF11CF80181919A
:103620008F0181110E94F8150E151F05B9F7269616
:103630000FB6F894DEBF0FBECDBFDF91CF911F91C3
:103640000F91FF90EF900895EF92FF920F931F93C9
:10365000CF93DF93CDB7DEB72B970FB6F894DEBFCD
:103660000FBECDBF8E010F5F1F4F2BE0F8011192EF
:103670002A95E9F72AE0A8010E94B1227E01FCE028
:10368000EF0EF11CF80181918F0181110E94F81554
:103690000E151F05B9F72B960FB6F894DEBF0FBEB7
:1036A000CDBFDF91CF911F910F91FF90EF900895C3
:1036B000EF92FF920F931F93CF93DF93CDB7DEB7B7
:1036C0002B970FB6F894DEBF0FBECDBF8E010F5FF4
:1036D0001F4F2BE0F80111922A95E9F72AE0A80183
:1036E0000E94C0227E01FBE0EF0EF11CF8018191E7
:1036F0008F0181110E94F8150E151F05B9F72B9641
:103700000FB6F894DEBF0FBECDBFDF91CF911F91F2
:103710000F91FF90EF90089520E030E08091BC0081
:1037200087FD06C02F5F3F4F293E83E03807B1F782
:1037300081E0283E334009F480E008958093BB0087
:1037400084E88093BC000E948C1B882319F0809130
:10375000B900887F0895CF93C82F84EA8093BC0076
:103760000E948C1B882361F08C2F880F0E949E1B67
:10377000803229F484E98093BC0080E001C081E0BC
:10378000CF9108950E94981288E50E94AB1B811189
:1037900002C080E0089580E30E949E1B8823C9F345
:1037A00081E00E949E1B8823A1F384E98093BC00E2
:1037B0008FE39CE90197F1F700C0000088E50E94C3
:1037C000AB1B882331F380E00E949E1B882309F302
:1037D00080E00E949E1B8823E1F280E00E949E1BF5
:1037E0008823B9F280E00E949E1B882391F280E03A
:1037F0000E949E1B882369F280E00E949E1B882302
:1038000041F280E00E949E1B882319F280E90E9409
:103810009E1B882309F4BDCF84E98093BC008FE30D
:103820009CE90197F1F700C0000088E50E94AB1BFE
:10383000882309F4AECF87E00E949E1B882309F4F9
:10384000A8CF80E00E949E1B882309F4A2CF81E4C8
:103850000E949E1B882309F49CCF84E98093BC00BE
:103860008FE39CE90197F1F700C0000088E50E9412
:10387000AB1B882309F48DCF8AE10E949E1B88230D
:1038800009F487CF80E40E949E1B882309F481CF2E
:1038900080E00E949E1B882309F47BCF84E98093FB
:1038A000BC008FE39CE90197F1F700C0000088E5B8
:1038B0000E94AB1B882309F46CCF83E30E949E1BFC
:1038C000882309F466CF83E00E949E1B882309F4B5
:1038D00060CF84E98093BC008FE39CE90197F1F706
:1038E00000C0000088E50E94AB1B882309F451CF7B
:1038F00080E30E949E1B882309F44BCF88E00E943E
:103900009E1B882309F445CF84E98093BC008FE394
:103910009CE90197F1F700C0000081E00895CF9382
:10392000C82F84EA8093BC000E948C1B882369F016
:103930008C2F880F8F5F0E949E1B883429F484E9A6
:103940008093BC0080E001C081E0CF910895EF92A8
:10395000FF920F931F93CF93DF93CDB7DEB760979E
:103960000FB6F894DEBF0FBECDBF7C018E010F5F96
:103970001F4F80E1F80111928A95E9F788E50E94CE
:10398000AB1B811102C080E05EC086E30E949E1BDB
:103990008823C9F384E98093BC00F5E8FA95F1F730
:1039A000000088E50E948F1C882369F3F8019E01BE
:1039B000205F3F4F94EC9093BC008091BC0087FF48
:1039C000FCCF8091BB008193E217F307A1F784E855
:1039D0008093BC008091BC0087FFFCCF8091BB002E
:1039E000888B84E98093BC00DE01149687016C917A
:1039F000762F7073AD0142505109FA01808190E039
:103A0000F0E17F9F800D911D1124F8019183808347
:103A1000762F707C4F5F5F4FFA01808190E0F4E079
:103A20007F9F800D911D1124F801938382836F7015
:103A3000862F90E09583848313960A5F1F4FA21709
:103A4000B307A9F681E060960FB6F894DEBF0FBE0B
:103A5000CDBFDF91CF911F910F91FF90EF9008950F
:103A600084E98093BC0008951F920F920FB60F92C5
:103A700011242F933F934F935F936F937F938F9373
:103A80009F93AF93BF93EF93FF930E944803FF91DF
:103A9000EF91BF91AF919F918F917F916F915F91C6
:103AA0004F913F912F910F900FBE0F901F9018953F
:103AB0001F920F920FB60F9211242F933F934F93A3
:103AC0005F936F937F938F939F93AF93BF93EF9386
:103AD000FF930E945103FF91EF91BF91AF919F918E
:103AE0008F917F916F915F914F913F912F910F90A7
:103AF0000FBE0F901F9018951F920F920FB60F9246
:103B000011242F933F934F935F936F937F938F93E2
:103B10009F93AF93BF93EF93FF936A9A8EB194E014
:103B200089278EB90E94B10DFF91EF91BF91AF919E
:103B30009F918F917F916F915F914F913F912F91C5
:103B40000F900FBE0F901F9018951F920F920FB6F7
:103B50000F9211242F933F934F935F936F937F9313
:103B60008F939F93AF93BF93EF93FF930E944F1256
:103B7000FF91EF91BF91AF919F918F917F916F9145
:103B80005F914F913F912F910F900FBE0F901F901B
:103B900018951F920F920FB60F9211242F933F93F7
:103BA0004F935F936F937F938F939F93AF93BF9345
:103BB000EF93FF930E943003FF91EF91BF91AF917C
:103BC0009F918F917F916F915F914F913F912F9135
:103BD0000F900FBE0F901F90189580E885BF85BF8E
:103BE000E1E6F0E0808310820E9498122FEF83ECD0
:103BF00099E0215080409040E1F700C000000E9411
:103C00002E0E2FEF89E698E1215080409040E1F799
:103C100000C0000080912B0190912C010E94A30D07
:103C20000E9463120E9458020E9449100E943504AB
:103C3000789408958F929F92AF92BF92CF92DF9225
:103C4000EF92FF92C090D201D090D301E090D401C6
:103C5000F090D50120E030E0A901C701B6010E9433
:103C6000992118162CF460E070E086EE92EC04C006
:103C700060E070E086EE92E4A70196010E94221FA8
:103C80006B017C012091D6013091D7014091D80180
:103C90005091D90160E070E0CB010E94221FA70182
:103CA00096010E94961F9B01AC016BED7FE089ECB1
:103CB0009FE30E94221F6B017C0120E030E0A901FC
:103CC0000E94E91F87FF0AC02BED3FE049EC50E45A
:103CD000C701B6010E94231F6B017C012091DA010C
:103CE0003091DB014091DC015091DD01C701B6014B
:103CF0000E94221F6B017C019F772AE037ED43EA87
:103D00005DE30E94E91F87FF07C02DEC3CEC4CE40B
:103D10005FE3CA01B90129C020E030E044E353E485
:103D2000C701B6010E94992118161CF46FEF7FEFAE
:103D300002C061E070E0882777FD8095982F0E948F
:103D40008B206B017C0120E030E040E05FEB0E94C3
:103D5000A4214B015C0120E030E040E05FE3C701BB
:103D6000B6010E94A421A5019401FF90EF90DF907D
:103D7000CF90BF90AF909F908F900C940D04CF93F5
:103D8000DF93CDB7DEB72C970FB6F894DEBF0FBE2A
:103D9000CDBF0E94ED1D8CE0E82E90E4F92E8EED53
:103DA00091E00E94BB0D892B79F081E090E0209199
:103DB000DE013091DF012130310511F080E090E02B
:103DC00090937101809370010E944B10CE01019677
:103DD0000E945C0CFE013196A2EDB1E08E2D0190A7
:103DE0000D928A95E1F70E94EB100E941E118091BE
:103DF0002D0190912E01892B11F00E941A1E0E9414
:103E00008F12009172011091730120917401309111
:103E10007501601B710B820B930B653F714081052F
:103E200091050CF4BCCF6E9A8EB18F258EB90E948D
:103E30008F12609372017093730180937401909359
:103E40007501ADCF5058BB27AA270ED027C2F0D19D
:103E500030F0F5D120F031F49F3F11F41EF4C0C1D1
:103E60000EF4E095E7FBB6C1E92F3AD280F3BA171A
:103E7000620773078407950718F071F49EF552C224
:103E80000EF4E0950B2EBA2FA02D0B01B901900175
:103E90000C01CA01A0011124FF27591B99F0593FB9
:103EA00050F4503E68F11A16F040A22F232F342F01
:103EB0004427585FF3CF469537952795A795F0404F
:103EC0005395C9F77EF41F16BA0B620B730B840B64
:103ED000BAF09150A1F0FF0FBB1F661F771F881F1C
:103EE000C2F70EC0BA0F621F731F841F48F4879574
:103EF00077956795B795F7959E3F08F0B3CF939563
:103F0000880F08F09927EE0F97958795089590D11F
:103F100058F080E891E009F49EEF91D128F040E854
:103F200051E059F45EEF09C05BC1FCC1E92FE078B4
:103F3000D7D168F3092E052AC1F32617370748079A
:103F4000590738F00E2E07F8E02569F0E025E06407
:103F50000AC0EF6307F8009407FADB01B9019D017D
:103F6000DC01CA01AD01EF934AD098D10AD05F912C
:103F7000552331F02BED3FE049E450FD49EC63CF90
:103F80000895DF93DD27B92FBF7740E85FE316166A
:103F9000170648075B0710F4D92FCFD19F938F9353
:103FA0007F936F937CD2E0E6F1E01DD177D12F9122
:103FB0003F914F915F91D4D1DD2349F09058A2EA0F
:103FC0002AED3FE049EC5FE3D0785D274DDFDF91DC
:103FD00065C1DCD008F481E0089539D1E3956FC163
:103FE0000CD05CC12CD140F023D130F021F45F3FE4
:103FF00019F0F0C0511197C1F3C072D198F3992311
:10400000C9F35523B1F3951B550BBB27AA2762179C
:104010007307840738F09F5F5F4F220F331F441FE1
:10402000AA1FA9F333D00E2E3AF0E0E830D0915019
:104030005040E695001CCAF729D0FE2F27D0660F06
:10404000771F881FBB1F261737074807AB07B0E845
:1040500009F0BB0B802DBF01FF2793585F4F2AF05B
:104060009E3F510568F0B6C05EC15F3FECF3983EDD
:10407000DCF3869577956795B795F7959F5FC9F7B8
:10408000880F911D9695879597F90895E1E0660F41
:10409000771F881FBB1F621773078407BA0720F0BA
:1040A000621B730B840BBA0BEE1F88F7E095089523
:1040B00004D06894B11137C108951AD188F09F5780
:1040C00090F0B92F9927B751A0F0D1F0660F771F64
:1040D000881F991F1AF0BA95C9F712C0B13081F044
:1040E00021D1B1E008951EC1672F782F8827B85FCE
:1040F00039F0B93FCCF3869577956795B395D9F7A5
:104100003EF490958095709561957F4F8F4F9F4FAE
:104110000895E89409C097FB3EF4909580957095BA
:1041200061957F4F8F4F9F4F9923A9F0F92F96E903
:10413000BB279395F695879577956795B795F11178
:10414000F8CFFAF4BB0F11F460FF1BC06F5F7F4F15
:104150008F4F9F4F16C0882311F096E911C0772327
:1041600021F09EE8872F762F05C0662371F096E830
:10417000862F70E060E02AF09A95660F771F881FFF
:10418000DAF7880F9695879597F90895990F0008A3
:10419000550FAA0BE0E8FEEF16161706E807F90719
:1041A000C0F012161306E407F50798F0621B730BB4
:1041B000840B950B39F40A2661F0232B242B252B35
:1041C00021F408950A2609F4A140A6958FEF811DD8
:1041D000811D089597F99F6780E870E060E0089579
:1041E0009FEF80EC0895DF93CF931F930F93FF927F
:1041F000EF92DF927B018C01689405C0DA2EEF010B
:10420000AFD0FE01E894A591259135914591559146
:10421000AEF3EF0129DEFE019701A801DA9479F7E8
:10422000DF90EF90FF900F911F91CF91DF91089554
:1042300000240A9416161706180609060895002485
:104240000A9412161306140605060895C9CF50D015
:10425000E8F3E894E0E0BB279F57F0F02AED3FE059
:1042600049EC06C0EE0FBB0F661F771F881F28F0B2
:10427000B23A62077307840728F0B25A620B730BD5
:10428000840BE3959A9572F7803830F49A95BB0FBA
:10429000661F771F881FD2F7904806C1092E039426
:1042A000000C11F4882352F0BB0F40F4BF2B11F423
:1042B00060FF04C06F5F7F4F8F4F9F4F0895EF9354
:1042C000E0FF06C0A2EA2AED3FE049EC5FEBCCDD5F
:1042D000E5DF0F90039401FC9058EDE8F1E0F7C0A2
:1042E00057FD9058440F551F59F05F3F71F04795A7
:1042F000880F97FB991F61F09F3F79F0879508958C
:10430000121613061406551FF2CF4695F1DF08C0AA
:10431000161617061806991FF1CF869571056105C7
:1043200008940895E894BB2766277727CB0197F96F
:1043300008952CDF08F48FEF08959B01AC0160E035
:1043400070E080E89FE34CCE0BD0A8CF71DF28F05F
:1043500076DF18F0952309F03DCF42CF1124E3CF4B
:10436000BFDFA0F3959FD1F3950F50E0551F629FDB
:10437000F001729FBB27F00DB11D639FAA27F00DBE
:10438000B11DAA1F649F6627B00DA11D661F829FE5
:104390002227B00DA11D621F739FB00DA11D621FCA
:1043A000839FA00D611D221F749F3327A00D611DE7
:1043B000231F849F600D211D822F762F6A2F1124C9
:1043C0009F5750408AF0E1F088234AF0EE0FFF1F1C
:1043D000BB1F661F771F881F91505040A9F79E3F53
:1043E000510570F0F7CE9FCF5F3FECF3983EDCF3C2
:1043F000869577956795B795F795E7959F5FC1F790
:10440000FE2B880F911D9695879597F908959F9398
:104410001EDF0F9007FCEE5F52CF11F40EF4E0CEDA
:1044200041C066DFD0F39923D9F3CEF39F57550BE4
:1044300087FF46D00024A0E640EA900180585695B8
:10444000979528F4805C660F771F881F20F0261749
:104450003707480730F4621B730B840B202931297E
:104460004A2BA69517940794202531254A2758F7FB
:10447000660F771F881F20F026173707480730F48C
:10448000620B730B840B200D311D411DA09581F72C
:10449000B901842F9158880F9695879508959B01AF
:1044A000AC0152CF9F3F31F0915020F48795779522
:1044B0006795B795880F911D9695879597F90895FB
:1044C00091505040660F771F881FD2F708959F9331
:1044D0008F937F936F93FF93EF939B01AC0134DF36
:1044E000EF91FF9180DE2F913F914F915F912CCF03
:1044F00097FB072E16F4009407D077FD09D00E9491
:10450000922207FC05D03EF4909581959F4F089527
:10451000709561957F4F0895EE0FFF1F0590F49100
:10452000E02D0994AA1BBB1B51E107C0AA1FBB1FAA
:10453000A617B70710F0A61BB70B881F991F5A952F
:10454000A9F780959095BC01CD010895BB274A300D
:1045500031F4992322F4BDE2909581959F4F0C94FC
:10456000E322BB272A3051F4992342F4BDE290950F
:104570008095709561957F4F8F4F9F4F0C94C1220E
:10458000BB27FA01A62F6217710581059105330B30
:1045900030FB66F0AA27660F771F881F991FAA1F96
:1045A000A21710F0A21B63953850A9F7A05DAA339B
:1045B00008F0A95DA19336F7B111B1931082CA0139
:1045C0000C94FC22BB27FB015527AA27880F991FB3
:1045D000AA1FA41710F0A41B83955051B9F7A05D32
:1045E000AA3308F0A95DA193009779F7B111B193AF
:1045F0001192CB010C94FC22DC01FC01672F71911C
:104600007723E1F7329704C07C916D9370836291B8
:0C461000AE17BF07C8F30895F894FFCF61
:10461C000D001A00140010001D001700010001000D
:10462C0000000100BC019C01B801FD0145037003B1
:10463C0097035D0300E100000000082C000100005E
:10464C00010002000300040001000200020003004C
:08465C0004000100030004004A
:00000001FF
