:100000000C940F020C942C020C942C020C94141AD5
:100010000C942C020C942C020C942C020C942C02A8
:100020000C942C020C942C020C94BA150C94F5151B
:100030000C942C020C942C020C942C020C942C0288
:100040000C942C020C942C020C942C020C942C0278
:100050000C942C020C942C020C942C020C942C0268
:100060000C942C020C942C020C942C020C942C0258
:100070000C942C020C94611A0C942C020C942C02FB
:100080000C943D1A0C942C020C942C020C942C020F
:100090000C942C020C942C020C942C020C942C0228
:1000A0000C942C020C942C020C942C027E028002E4
:1000B000870289029502A102A802AF02C002A30C26
:1000C000A70CAD0CB00CBE0CCC0CC10CC40C320D8A
:1000D000350D380D510D6A0D6D0D700D730D5715E1
:1000E000541551154E154B154815451542153F151C
:1000F0003C1539153615331530152D152A152715CC
:10010000241521151E151B151815151512150F157B
:100110000C150915061503150015FD14FA14F7142E
:10012000F414F114EE14EB14E814E514E214DF14E3
:10013000DC14D914D614D314D014CD14CA14C71493
:10014000C414C114BE14BB14B814B514B214AF1443
:10015000AC14A914A614A314A0149D149A149714F3
:10016000084AD73B3BCE016E84BCBFFDC12F3D6C1E
:1001700074319ABD56833DDA3D00C77F11BED9E484
:10018000BB4C3E916BAAAABE000000803F05A84C64
:10019000CDB2D44EB93836A9020C50B99186880830
:1001A0003CA6AAAA2ABE000000803F00426164204B
:1001B00063686172616374657220726563656976F4
:1001C000656421204974207761733A2000207363AD
:1001D000616C653A20002074683A20002079433A27
:1001E00020000A20436F6E737420646174613A20AA
:1001F00078433A20003A20002076003A2000207907
:10020000003A20000A206D576969207800556E7207
:1002100065636F676E697A656420576972656C659E
:1002200073734D6573736167650A00576972656C16
:100230006573734D65737361676520697320554EEF
:100240004B4E4F574E2E0A00576972656C6573739B
:100250004D6573736167652069732047414D455F44
:100260004F5645522E0A00576972656C6573734D7F
:100270006573736167652069732048414C46544932
:100280004D452E0A00576972656C6573734D657331
:10029000736167652069732050415553452E0A00EC
:1002A0000A000953636F726520426C75652069739B
:1002B00020000A000953636F72652052656420694B
:1002C000732000576972656C6573734D6573736154
:1002D000676520697320474F414C5F422E0A000A30
:1002E000000953636F726520426C75652069732045
:1002F000000A000953636F726520526564206973B8
:100300002000576972656C6573734D65737361671F
:100310006520697320474F414C5F522E0A00576990
:1003200072656C6573734D6573736167652069737E
:1003300020504C41592E0A00576972656C657373E1
:100340004D65737361676520697320434F4D4D5F41
:10035000544553542E0A0074696D65725F696E6965
:100360007469616C697A6564210A00000100009F6C
:10037000031200020000B1034300030000F4030471
:1003800001030904F80312020309040C0406030321
:1003900009041404080001C11201803601813612DB
:1003A00001000202000010C0167A040001010203DD
:1003B0000109024300020100C032090400000102E9
:1003C000020100052400100105240101010424029A
:1003D00006052406000107058203100040090401F8
:1003E00000020A0000000705030240000007058420
:1003F000024000000403090412034A002E002000FA
:100400004600690065006E006500000006034D00AF
:1004100032000000080334003100300000001124D5
:100420001FBECFEFDAE0DEBFCDBF11E0A0E0B1E04C
:10043000E2EBFFE302C005900D92A834B107D9F7B3
:1004400021E0A8E4B1E001C01D92A23EB207E1F7AD
:100450000E94631B0C94D71F0C94000080B38F7311
:1004600080BB81B38F7381BBECE7F0E080818F7735
:10047000808380818F7B8083AAE7B0E08C91846049
:100480008C938C9181608C93EEE7F0E080818160A9
:10049000808380818260808380818061808380818D
:1004A0008062808380818064808380818068808393
:1004B000EDE7F0E0808181608083808188608083C7
:1004C0008081806180838C9188608C938C918F7700
:1004D0008C93089520917A002F7720937A0090933F
:1004E0004B0180934A018930910508F05BC0FC0103
:1004F000EA5AFF4F80917B000C942B1F8F7D29C0FF
:100500008F7D80937B0080917C008B7F08C08F7DE6
:1005100038C08F7D80937B0080917C0084608093C5
:100520007C0080917C008D7F25C08F7D80937B0037
:1005300080917C00846080937C0080917C0082604C
:100540002AC08F7D80937B0080917C0084600DC0E9
:10055000806280937B0080917C008B7F17C08062DB
:1005600080937B0080917C008B7F80937C008091C6
:100570007C00826080937C0080917C00816010C050
:10058000806280937B0080917C00846080937C00FB
:1005900080917C008D7F80937C0080917C008E7F99
:1005A00080937C0080917A00806880937A008091AB
:1005B0007A00806480937A00089520914C013091F4
:1005C0004D01232B71F420914E0130914F01232BCB
:1005D00041F421E030E030934D0120934C010E9422
:1005E0006A0280914E0190914F01892B71F0109217
:1005F0004F0110924E016091480170914901809124
:100600004A0190914B010C940A0F089581E090E00B
:1006100090934F0180934E0110924D0110924C0126
:1006200080917800909179009093490180934801DE
:10063000EAE7F0E080818F7780830895089580E075
:1006400090E0AAE7B4E48093820190938301A093A1
:100650008401B09385018093860190938701A093D4
:100660008801B093890110928A0110928B01109237
:100670008C0110928D0110928E0110928F011092B8
:100680009001109291011092920110929301109298
:100690009401109295011092960110929701109278
:1006A00098011092990110929A0110929B01109258
:1006B0009C0110929D010895EF92FF920F931F935A
:1006C000CF93DF93CDB7DEB7FE0139966CE171E0D1
:1006D00044E151E09E012F5D3F4F8CE0E82E81E028
:1006E000F82E84E090E000811181DB010D931D93D1
:1006F000BD0102811381DA010D931D93AD01D90172
:100700000D911D919D01D7010D931D937D010197C1
:100710003696009741F7DF91CF911F910F91FF908F
:10072000EF900895861B970B421B530B889FB001D7
:10073000899F700D700D1124449FC001459F900D3D
:10074000900D1124680F791F882777FD8095982FC9
:100750000E942A1D0E94B01E0E94F71CCB01089522
:10076000FC014191519121E030E080E090E02617BA
:10077000370764F4A191B191A417B50714F0DA0119
:1007800001C0C9012F5F3F4FAD01F1CF0895FC01BA
:100790004191519121E030E080E090E02617370749
:1007A00064F4A191B1914A175B0714F0DA0101C01A
:1007B000C9012F5F3F4FAD01F1CF08952F923F92B6
:1007C0004F925F926F927F928F929F92AF92BF9261
:1007D000CF92DF92EF92FF920F931F93CF93DF930D
:1007E000CDB7DEB7A4970FB6F894DEBF0FBECDBF6E
:1007F0009E878D878B014A016091820170918301F0
:1008000080918401909185016D8F7E8F8F8F98A349
:100810008091860190918701A0918801B091890112
:10082000898F9A8FAB8FBC8F60918A0170918B01F9
:1008300080918C0190918D016D8B7E8B8F8B988F29
:1008400080918E0190918F01A0919001B0919101C2
:10085000898B9A8BAB8BBC8BDA014D905C90119796
:100860001296AD90BC901397F80120803180628081
:1008700073809201A501B101C3010E949203988B7C
:100880008F87D4011496CD90DC901597F801E48001
:10089000F5809501A601B301C7010E9492035C0196
:1008A0009201A601B101C7010E9492032F853889E8
:1008B00038872F83BA86A9869C878B8763E070E090
:1008C000CE0107960E94B003FC01EE0FFF1F61E00E
:1008D00070E06C0F7D1FE60FF71FE680F780FE01CA
:1008E00037969B015E017DE0A70EB11C48EEC42E39
:1008F00043E0D42E419151914C9DC0014D9D900DEE
:100900005C9D900D1124B7010E94171FD9016D93B2
:100910007D939D01EA15FB0569F789819A812B81F9
:100920003C81820F931F2D813E81820F931F8B325A
:10093000B2E19B070CF4ABC063E070E0CE0101961E
:100940000E94B0037C0163E070E0CE0101960E943A
:10095000C703E114F10469F48130910539F422E010
:1009600030E0309373012093720123C082E090E065
:100970000EC0892BA9F4EA94EF2839F41092730180
:100980001092720181E090E014C081E090E09093B9
:100990007301809372011092A1011092A0010DC009
:1009A000EA94EF2859F3109273011092720182E0D9
:1009B00090E09093A1018093A0014091A0015091FB
:1009C000A101440F551FF801E40FF51F60817181EB
:1009D00070937D0160937C0180917201909173010D
:1009E000880F991FF801E80FF91F2081318130939A
:1009F0007B0120937A01F401E40FF51F008111813E
:100A00001093770100937601F401E80FF91FE0805D
:100A1000F180F0927501E0927401CB01820F931F77
:100A200097FD0196959587959093AB018093AA01C8
:100A3000C8018E0D9F1D97FD019695958795909302
:100A4000790180937801621B730B882777FD80956D
:100A5000982F0E942A1D2BED3FE049EC5FE30E9496
:100A6000C11B9B01AC01B8016E197F09882777FD76
:100A70008095982F29A33AA34BA35CA30E942A1D1B
:100A800029A13AA14BA15CA10E94351C24C2863A3F
:100A90002EE092070CF066C163E070E0CE01019693
:100AA0000E94B0037C0163E070E0CE0101960E94D9
:100AB000C703E114F10479F48130910529F490938E
:100AC00073018093720104C010927301109272013D
:100AD00082E090E011C00097A1F431E0E316F10448
:100AE00029F4F0927301E09272011BC0109273011D
:100AF0001092720181E090E09093A9018093A80187
:100B000014C08130910539F422E030E03093730154
:100B100020937201F1CF82E090E090937301809373
:100B200072011092A9011092A8014091A801509160
:100B3000A901BA01660F771FF801E60FF71FE080E1
:100B4000F180F092A701E092A6012091720130910C
:100B50007301C901880F991FF801E80FF91F208060
:100B6000318030927B0120927A01F401E60FF71F69
:100B7000C080D180D092AD01C092AC01F401E80FE9
:100B8000F91F60817181788B6F8770937501609315
:100B9000740183E090E0841B950B821B930B880FFC
:100BA000991FF801E80FF91FA080B180B092A5014C
:100BB000A092A401F401E80FF91F008111811093A4
:100BC000A3010093A201B70162197309882777FD79
:100BD0008095982F0E942A1D9B01AC01B6018F853C
:100BE0009889681B790B882777FD8095982F29A312
:100BF0003AA34BA35CA30E942A1D29A13AA14BA1B1
:100C00005CA10E94351C29E130E94DE85FE30E94B8
:100C1000C21B2BED3FE049E450E40E94C21B2B01B4
:100C20003C0120E030E0A9010E94881C87FD09C03A
:100C300040927E0150927F0160928001709281010A
:100C400010C02BED3FE049EC50E4C301B2010E941B
:100C5000C21B60937E0170937F018093800190930B
:100C600081019801A601B501C7010E949203BC0150
:100C7000882777FD8095982F0E942A1D23E436E16E
:100C800042E35FE30E94431E6B017C0120EF35E8E5
:100C900049E55FE360917E0170917F018091800161
:100CA000909181010E94C11B2BED3FE049E450E48B
:100CB0000E94C11B2B013C010E948C1C9B01AC01BA
:100CC000B501882777FD8095982F29A33AA34BA3D8
:100CD0005CA30E942A1D4B015C0129A13AA14BA1F2
:100CE0005CA1C701B6010E94431E9B01AC01C50176
:100CF000B4010E94C21B0E94F71C4B015C0170935F
:100D00007D0160937C01C301B2010E94A61E9B017C
:100D1000AC01B801882777FD8095982F29A33AA3C5
:100D20004BA35CA30E942A1D2B013C0129A13AA1DF
:100D30004BA15CA1C701B6010E94431E9B01AC01FF
:100D4000C301B2010E94C21B0E94F71C709377017D
:100D500060937601820C931C97FE46C2AFEF8A1A0D
:100D60009A0A42C28F3BFFE09F070CF4D6C063E0B3
:100D700070E0CE0101960E94B0037C0163E070E058
:100D8000CE0101960E94C703E114F10469F4813099
:100D9000910539F422E030E0309373012093720121
:100DA0002DC082E090E011C0892BC1F421E0E21651
:100DB000F10449F41092730110927201F092A101B2
:100DC000E092A0011FC081E090E0909373018093B6
:100DD00072011092A1011092A00114C0EA94EF28B0
:100DE00029F4109273011092720106C081E090E024
:100DF000909373018093720182E090E09093A1013F
:100E00008093A0014091A0015091A101440F551F72
:100E1000F801E40FF51F6081718170937D0160938B
:100E20007C018091720190917301880F991FF801E4
:100E3000E80FF91F2081318130937B0120937A01E3
:100E4000F401E40FF51FE080F180F0927701E09269
:100E50007601F401E80FF91F0081118110937501EB
:100E600000937401CB01820F931F97FD0196959516
:100E700087959093AB018093AA01C701800F911FC2
:100E800097FD0196959587959093790180937801C8
:100E9000621B730B882777FD8095982F0E942A1D6F
:100EA0009B01AC01B701601B710B882777FD809512
:100EB000982F29A33AA34BA35CA30E942A1D29A122
:100EC0003AA14BA15CA10E94351C2BED3FE049ECFF
:100ED0005FE30E94C11B6B017C0160937E017093F4
:100EE0007F01809380019093810120E030E0A9018F
:100EF0000E94881C87FFB1C12BED3FE049EC50E414
:100F0000C701B6010E94C21B60937E0170937F01EE
:100F10008093800190938101A0C18E3B9F4009F492
:100F200078C163E070E0CE0101960E94B0037C01BD
:100F300063E070E0CE0101960E94C703E114F10462
:100F400079F48130910529F41092A1011092A00149
:100F50002CC081E090E09093A1018093A00111C08A
:100F60000097A1F482E090E09093A1018093A0010A
:100F700071E0E716F10429F4F092A901E092A801CA
:100F800018C01092A9011092A80113C0019729F46A
:100F90001092A1011092A00106C081E090E0909310
:100FA000A1018093A00182E090E09093A901809339
:100FB000A8014091A0015091A101BA01660F771FCD
:100FC000F801E60FF71F2080318030927D012092DA
:100FD0007C012091A8013091A901C901880F991FB6
:100FE000F801E80FF91FE080F180F092A701E0928C
:100FF000A601F401E60FF71FA081B181B88BAF877E
:10100000B0937701A0937601F401E80FF91FC08037
:10101000D180D092AD01C092AC0183E090E0841BFE
:10102000950B821B930B880F991FF801E80FF91F8E
:10103000A080B180B092A501A092A401F401E80FB4
:10104000F91F008111811093A3010093A201B10146
:101050006A197B09882777FD8095982F0E942A1DA1
:101060009B01AC016F857889601B710B882777FD28
:101070008095982F29A33AA34BA35CA30E942A1D15
:1010800029A13AA14BA15CA10E94351C20EF35E8B3
:1010900049E55FE30E94C21B2BED3FE049E450E4C9
:1010A0000E94C21B2B013C0120E030E0A9010E94FC
:1010B000881C87FD09C040927E0150927F0160929A
:1010C00080017092810110C02BED3FE049EC50E4AB
:1010D000C301B2010E94C21B60937E0170937F0125
:1010E00080938001909381019801A601B501C70109
:1010F0000E949203BC01882777FD8095982F0E945B
:101100002A1D23ED3BE94EE55FE30E94431E6B0180
:101110007C0124E036E54EE05FE360917E01709152
:101120007F0180918001909181010E94C11B2BED74
:101130003FE049EC5FE30E94C11B2B013C010E9490
:101140008C1C9B01AC01B501882777FD8095982FF9
:1011500029A33AA34BA35CA30E942A1D4B015C0167
:1011600029A13AA14BA15CA1C701B6010E94431E6F
:101170009B01AC01C501B4010E94C21B0E94F71C77
:101180004B015C0170937B0160937A01C301B20152
:101190000E94A61E9B01AC01B801882777FD8095AF
:1011A000982F29A33AA34BA35CA30E942A1D2B01CD
:1011B0003C0129A13AA14BA15CA1C701B6010E9443
:1011C000431E9B01AC01C301B2010E94C21B0E94DD
:1011D000F71C7093750160937401820C931C97FE49
:1011E00003C0BFEF8B1A9B0A959487949092AB0132
:1011F0008092AA01EF85F8896E0F7F1F77FF02C0EA
:101200006F5F7F4F75956795709379016093780153
:1012100024C06D8D7E8D8F8D98A1AD85BE856D931B
:101220007D938D939C931397698D7A8D8B8D9C8D77
:1012300014966D937D938D939C9317976D897E89FA
:101240008F89988D18966D937D938D939C931B97A2
:1012500069897A898B899C8950C0609178017091E5
:101260007901882777FD8095982F0E942A1D4B01D0
:101270005C01C0907E01D0907F01E0908001F090F1
:101280008101209176013091770140917401509154
:10129000750160917C0170917D0180917A0190913E
:1012A0007B010E9492038C016091AA017091AB01B5
:1012B000882777FD8095982F0E942A1DED85FE8551
:1012C000608371838283938384829582A682B782AE
:1012D000C086D186E286F386B801882777FD80959F
:1012E000982F0E942A1D9B01AC0160E070E088EEFF
:1012F00091E40E948F1CAD85BE851C966D937D93F5
:101300008D939C931F978D859E85A4960FB6F89418
:10131000DEBF0FBECDBFDF91CF911F910F91FF9028
:10132000EF90DF90CF90BF90AF909F908F907F9085
:101330006F905F904F903F902F9008952F923F9223
:101340004F925F926F927F928F929F92AF92BF92D5
:10135000CF92DF92EF92FF920F931F93CF93DF9381
:10136000CDB7DEB7C254D1090FB6F894DEBF0FBEB9
:10137000CDBF9AAB89AB8B013A01DA01ED90FC90BD
:10138000119712962D903C901397FB0180809180CD
:10139000228133813CAB2BAB9701A101B4018BA916
:1013A0009CA90E94920398AF8FABD3011496AD9085
:1013B000BC901597F801448055809101A5016BA957
:1013C0007CA9C2010E9492039AAF89AFD3011696FD
:1013D0000D90BC91A02DBEABADABF801C680D780FF
:1013E0009501AD01B201C6010E9492039CAF8BAF83
:1013F0002DA93EA9A701B601C4010E9492039EAF88
:101400008DAF9701A501B401C2010E9492037C0136
:1014100091014DA95EA96BA97CA9C6010E94920306
:101420002FA938AD3EA32DA3A9ADBAADB8A7AFA3E0
:10143000EBADFCADFAA7E9A72DAD3EAD3CA72BA7C0
:10144000FEA6EDA698AB8FA766E070E0CE0185966C
:101450000E94B003FC01EE0FFF1F81E090E08C0FB3
:101460009D1FE80FF91FC4A0D5A09E012B5D3F4F23
:10147000FE0179967E0191E3E90EF11C4F0198EE91
:10148000A92E93E0B92ED9016D917D919D016A9DA0
:10149000C0016B9D900D7A9D900D1124B6010E94A4
:1014A000171F619371932E153F0569F78CE0EFE2EA
:1014B000F1E0DE011D9601900D928A95E1F78CE036
:1014C000EBE3F1E0DE01119601900D928A95E1F7D0
:1014D00066E070E0C4010E94B003FC01EE0FFF1F44
:1014E00021E030E02C0F3D1FE20FF31FC484D584B0
:1014F000E080F18066E070E0C4010E94C703FC0157
:10150000EE0FFF1F81E090E08C0F9D1FE80FF91F89
:101510002485358580819181C216D30641F4D0920D
:10152000A101C092A0019093730180937201C8162B
:10153000D90641F49093A1018093A00130937301E7
:1015400020937201E216F30641F4F092A101E092B9
:10155000A0019093730180937201E816F90641F49B
:10156000F092A101E092A0013093730120937201E7
:101570002091A0013091A10121503048220F331F4A
:10158000F801E20FF31FE080F180809172019091E9
:10159000730181509048880F991FF801E80FF91FD7
:1015A00000811181F301E20FF31FA080B180F301EC
:1015B000E80FF91FC080D1804701800E911E97FE71
:1015C00003C09FEF891A990A9594879415012C0CF2
:1015D0003D1C37FE03C0AFEF2A1A3A0A3594279410
:1015E000B701601B710B882777FD8095982F0E94AB
:1015F0002A1D9B01AC01B5016C197D09882777FD77
:101600008095982F2FAF21963FAF219722964FAF0D
:10161000229723965FAF23970E942A1D2FAD219614
:101620003FAD219722964FAD229723965FAD23972A
:101630000E94351C2BED3FE049EC5FE30E94C11B8B
:101640002B013C0120E030E0A9010E94881C87FFAB
:101650000AC02BED3FE049EC50E4C301B2010E9407
:10166000C21B2B013C019501A601B701C8010E94D4
:1016700092038C01B401882777FD8095982F0E94F2
:101680002A1DE9A9FAA96083718382839383B1013A
:10169000882777FD8095982F0E942A1DA9A9BAA9AD
:1016A00014966D937D938D939C931797FD014086BF
:1016B000518662867386B801882777FD8095982FBA
:1016C0000E942A1D9B01AC0160E070E088EE91E46D
:1016D0000E948F1CA9A9BAA91C966D937D938D9326
:1016E0009C931F97CD01CE5BDF4F0FB6F894DEBF02
:1016F0000FBECDBFDF91CF911F910F91FF90EF9063
:10170000DF90CF90BF90AF909F908F907F906F9021
:101710005F904F903F902F9008958F929F92AF923D
:10172000BF92CF92DF92EF92FF920F931F93CF93CE
:10173000DF93CDB7DEB7A0970FB6F894DEBF0FBE2C
:10174000CDBF4C0120910C0130910D0180910E0113
:1017500090910F01280F391F809110019091110174
:10176000280F391F8091120190911301280F391F02
:101770000CE011E040E050E080E090E0D8016D9195
:101780007D918D01672BD1F0FC01EE0FFF1F61E011
:1017900070E06C0F7D1FE60FF71FBA01645E7E4F8D
:1017A000DB016D917C9171876087BA016C5E7E4F21
:1017B000DB016D917C917183608301964E5F5F4F79
:1017C00048305105D9F62330310559F4AE014F5F49
:1017D0005F4FBE01675F7F4FCE0141960E94DE03DF
:1017E0000DC02430310599F4AE014F5F5F4FBE014B
:1017F000675F7F4FCE0141960E949E0980E1FE0106
:101800007196A2E8B1E001900D928A95E1F7EDB7EB
:10181000FEB73C970FB6F894FEBF0FBEEDBFADB755
:10182000BEB711968CE0E2E9F1E001900D928A9545
:10183000E1F7A0908201B0908301C0908401D09024
:101840008501E0908601F090870100918801109158
:10185000890120918A0130918B0140918C01509136
:101860008D0160918E0170918F0180919001909116
:1018700091010E94E40D8CE0E2E9F1E0D4010190D5
:101880000D928A95E1F70FB6F894DEBF0FBECDBF7B
:10189000C401A0960FB6F894DEBF0FBECDBFDF9196
:1018A000CF911F910F91FF90EF90DF90CF90BF905D
:1018B000AF909F908F9008954AE0682F81E00E943A
:1018C0003F131092B1011092B0011092AF0110922B
:1018D000AE0108958091B0019091B101019690936D
:1018E000B1018093B00108950F931F93CF93DF93BD
:1018F000CDB7DEB72A970FB6F894DEBF0FBECDBFC7
:101900008C012091B0013091B1018091AE01909194
:10191000AF012817390709F44DC001969093AF0124
:101920008093AE016AE0CE0101960E949F12498128
:1019300050E0FA01E05AF109E830F10568F5E15AA2
:10194000FF4F0C942B1FF8011182108222C081E0FE
:1019500090E0F801918380832FC082E090E002C084
:1019600083E090E0F801918380838A8190E0938303
:1019700082838B8190E0958384830BC084E090E028
:1019800005C085E090E002C086E090E0F801918318
:10199000808381E090E010C087E090E0F8019183BF
:1019A00080838CEA91E00E946017898190E00E9418
:1019B0008C17EFCF80E090E02A960FB6F894DEBF48
:1019C0000FBECDBFDF91CF911F910F9108950E945F
:1019D0008F130E94A8138823E1F32FEF89E698E183
:1019E000215080409040E1F700C000000E94A81301
:1019F000882389F06E9A76986A9A72982FEF83ED11
:101A000090E3215080409040E1F700C000006E9AC2
:101A1000769A6A9A729A0895AF92BF92CF92DF92A5
:101A2000EF92FF920F931F93CF93DF93CDB7DEB763
:101A300060970FB6F894DEBF0FBECDBFA982BA8201
:101A4000CB82DC82ED82FE82EB80FC800D811E81E8
:101A5000E981FA81E830F10508F048C0E959FF4F03
:101A60000C942B1F88E393E043C08EE193E040C0C9
:101A700082E093E00E94601783EF92E00E9460177B
:101A8000C7010E94091881EF92E00E94601781EE61
:101A900092E00E946017C8010E9409188FED92E041
:101AA00027C083EC92E00E94601784EB92E00E94D2
:101AB0006017C7010E94091882EB92E00E9460172C
:101AC00082EA92E00E946017C8010E94091880EA29
:101AD00092E00EC085E892E00BC087E692E008C075
:101AE00088E492E005C08BE292E002C08DE092E0D3
:101AF00060960FB6F894DEBF0FBECDBFDF91CF91D9
:101B00001F910F91FF90EF90DF90CF90BF90AF901B
:101B10000C9460170E94F71CCB010C940918CF920B
:101B2000DF92EF92FF920F931F93CF93DF93CDB786
:101B3000DEB7CE010B967C016E0193E2C90ED11C7B
:101B400000E010E084E092E00E946017C8010E946B
:101B50003E1881E092E00E946017F7018081918138
:101B60000E943E188EEF91E00E946017C8010E940B
:101B70003E188BEF91E00E946017F70182819381FC
:101B80000E943E1888EF91E00E946017C8010E94F1
:101B90003E1885EF91E00E946017F60181919191C6
:101BA0006F010E943E180F5F1F4FF6E0EF0EF11C11
:101BB0000430110539F6DF91CF911F910F91FF90FD
:101BC000EF90DF90CF900895AF92BF92CF92DF92C7
:101BD000EF92FF920F931F93CF93DF93CDB7DEB7B2
:101BE00060970FB6F894DEBF0FBECDBFA982BA8250
:101BF000CB82DC82ED82FE820F83188729873A87A9
:101C00004B875C876D877E878F87988B82EE91E00C
:101C10000E94601769817A818B819C810E94F71CE8
:101C2000CB010E943E188CED91E00E9460176D81FF
:101C30007E818F8198850E94F71CCB010E943E18FF
:101C400086ED91E00E94601720E030E048EC52E41D
:101C500069857A858B859C850E94431E0E94F71CAE
:101C6000CB010E943E188DEC91E00E9460176D85BB
:101C70007E858F8598890E94F71CCB0160960FB6F0
:101C8000F894DEBF0FBECDBFDF91CF911F910F91B2
:101C9000FF90EF90DF90CF90BF90AF900C943E18E4
:101CA0000C9451198F929F92AF92BF92CF92DF9274
:101CB000EF92FF920F931F93CF93DF93CDB7DEB7D1
:101CC00068970FB6F894DEBF0FBECDBFCE01019668
:101CD0000E94C418811110C01092CB011092CA0149
:101CE0001092CD011092CC011092CF011092CE0132
:101CF0001092D1011092D001FE0131968AEC91E050
:101D0000B2EB8B2EB1E09B2E8E01075E1F4FEE24AF
:101D1000E394F12C6081718142815381C480D5802C
:101D20009B01220F331FAA24A394B12CAC0EBD1E1D
:101D30002A0D3B1DD9012D913C912F3F334079F461
:101D40009A01220F331F2A0D3B1DD9012D913C9181
:101D50002F3F334021F4DC011D921C920FC0DC01A7
:101D6000ED92FC92D40111967C936E9313965C9342
:101D70004E9312971596DC92CE9214973696029651
:101D8000B6E08B0E911CE017F10721F68DB79EB7D8
:101D900080970FB6F8949EBF0FBE8DBFADB7BEB78C
:101DA000119680E2E2EBF1E001900D928A95E1F765
:101DB0000E945C030FB6F894DEBF0FBECDBF6896DD
:101DC0000FB6F894DEBF0FBECDBFDF91CF911F914C
:101DD0000F91FF90EF90DF90CF90BF90AF909F90CA
:101DE0008F90089580915001909151010E94DD02E1
:101DF00080915001909151010196893091052CF408
:101E000090935101809350010895109251011092C6
:101E100050010895FC01EE0FFF1FEE5AFE4F718333
:101E20006083089581E090E0209152013091530148
:101E3000253F314014F480E090E008952F923F92C6
:101E40004F925F926F927F928F929F92AF92BF92CA
:101E5000CF92DF92EF92FF920F931F93CF93DF9376
:101E600000D000D0CDB7DEB78091540190915501DC
:101E7000813293400CF0EFC0E4E5F1E000E010E0C7
:101E800020E034E081E090E0419151914217530706
:101E900014F0A90101C08C0101968930910579F4F3
:101EA0001801220C331CC1018E5A9E4F1C011C824A
:101EB0001B82812C912C54017501640102C09A018E
:101EC000E3CF8B819C8101969A8389838B819C814E
:101ED000800F911F09970CF046C0EB81FC81EE0F3B
:101EE000FF1FE20DF31D60817181882777FD8095CA
:101EF000982F0E942A1D20E030E040E85AE30E941B
:101F0000431E2B013C019B01AC01C501B4010E94A1
:101F1000C21B4B015C01EB81FC81BF01882777FD6F
:101F20008095982F0E942A1D20E030E044E352E47F
:101F30000E94431E20E030E044E353E40E94C11BB2
:101F40009B01AC01C301B2010E94431E9B01AC0185
:101F5000C701B6010E94C21B6B017C0129813A8135
:101F60003C832B83AECFE4E5F1E0FA83E9832224BE
:101F70002394312C2B813C81215031093C832B83CC
:101F8000201631060CF044C0E981FA81619171910B
:101F9000FA83E983882777FD8095982F0E942A1D70
:101FA00020E030E040E85AE30E94431E2B013C0150
:101FB0009B01AC01C501B4010E94C21B4B015C0135
:101FC0006B817C81620D731D882777FD8095982F2A
:101FD0000E942A1D20E030E044E352E40E94431EA8
:101FE00020E030E044E353E40E94C11B9B01AC01BC
:101FF000C301B2010E94431E9B01AC01C701B6019F
:102000000E94C21B6B017C01FFEF2F1A3F0AB8CF61
:10201000A5019401C701B6010E948F1C20E030E0A9
:1020200044E353E40E94C21B6B017C01015011097F
:102030008DE2809FB001819F700D1124882777FD6C
:102040008095982F0E942A1D9B01AC01C701B60103
:102050000E94C21B03C060E070E0CB010F900F90A4
:102060000F900F90DF91CF911F910F91FF90EF9004
:10207000DF90CF90BF90AF909F908F907F906F90A8
:102080005F904F903F902F900895809164019091C0
:102090006501A0916601B09167010196A11DB11D76
:1020A0008093640190936501A0936601B0936701EA
:1020B000089560916401709165018091660190912D
:1020C00067010895A1E9B0E08C918F7E8C938C918B
:1020D00088608C93E0E9F0E080818D7F808380814F
:1020E0008E7F808380818F77808380818F7B8083C8
:1020F000E1E7F0E0808182608083C19A80E89EE31E
:1021000090939900809398008C918B7F8C938C9105
:102110008D7F8C938C9181608C9387E593E00E94F6
:1021200060170895589A599A5A9A8CE08093B8008B
:10213000E9E6F0E080818062808380818F7E808309
:10214000EA9A7894089584E88093BC008091BC005A
:1021500087FFFCCF8091BB00089584E98093BC0089
:10216000089520E030E08091BC0087FD06C02F5F1D
:102170003F4F83E0293E3807B1F780E0285E3340C7
:1021800009F081E008958093BB0084E88093BC004F
:102190000E94B110882319F08091B900887F0895BA
:1021A0000F931F93182F062F84EA8093BC000E9480
:1021B000B110882371F0812F880F002331F08F5FD9
:1021C0000E94C310883451F404C00E94C3108032AE
:1021D00029F484E98093BC0080E001C081E01F9174
:1021E0000F9108950F931F93162F042F60E00E9404
:1021F000D010882379F0812F0E94C310882351F0DA
:10220000802F0E94C310882329F084E98093BC00AA
:1022100081E001C080E01F910F9108950F931F93FB
:10222000082F162F60E00E94D0108823C1F0812F64
:102230000E94C310882399F084E98093BC00802F0A
:1022400061E00E94D010882351F084E88093BC00A4
:102250008091BC0087FFFCCF8091BB0001C080E073
:102260001F910F910895DF92EF92FF920F931F93AA
:10227000DF93CF9300D000D000D0CDB7DEB7082FCA
:10228000D92E7E010894E11CF11C1EE489E6612F21
:102290000E940E11F70181937F0111501834B1F79C
:1022A000DE011196802F9D2D9C01F9019E01295F71
:1022B0003F4F8D919D91958384833297A217B307E9
:1022C000C1F781E026960FB6F894DEBF0FBECDBFF2
:1022D000CF91DF911F910F91FF90EF90DF900895C4
:1022E000DF92EF92FF920F931F93DF93CF9300D073
:1022F00000D000D0CDB7DEB7082FD92E7E010894CC
:10230000E11CF11C18E489E6612F0E940E11F7010F
:1023100081937F0111501234B1F7DE011196802FA5
:102320009D2D9C01F9019E01295F3F4F8D919D914B
:10233000958384833297A217B307C1F781E026966D
:102340000FB6F894DEBF0FBECDBFCF91DF911F91C6
:102350000F91FF90EF90DF900895DF92EF92FF9240
:102360000F931F93DF93CF9300D000D000D0CDB751
:10237000DEB7082FD92E7E010894E11CF11C10E471
:1023800089E6612F0E940E11F70181937F011150A0
:102390001A33B1F7DE011196802F9D2D9C01F901B2
:1023A0009E01295F3F4F8D919D9195838483329744
:1023B000A217B307C1F781E026960FB6F894DEBFE7
:1023C0000FBECDBFCF91DF911F910F91FF90EF9086
:1023D000DF900895DF92EF92FF920F931F93DF93A8
:1023E000CF93CDB7DEB764970FB6F894DEBF0FBEBC
:1023F000CDBF082FD92E7E010894E11CF11C1EE4EC
:1024000089E6612F0E940E11F70181937F0111501F
:102410001A33B1F7DE011196802F9D2D9C01F90131
:102420009E01295F3F4F1E968D919C911F9795832A
:10243000848316968D919C911797938782878D91AF
:102440009D91918B808B3297A217B30761F781E042
:1024500064960FB6F894DEBF0FBECDBFCF91DF916B
:102460001F910F91FF90EF90DF9008950F931F93AE
:10247000182F062F843008F05EC0643008F05BC06F
:102480000E94921088EB9BE020E931E0F90131973E
:10249000F1F70197D9F789E665E70E940E118836B2
:1024A00009F049C089E66BE641E00E94F210110F85
:1024B000110F110F89E66CE1412F0E94F210000FFD
:1024C000000F000F89E66BE1402F0E94F21089E6B1
:1024D00067E342E00E94F2108EE162E040E00E9479
:1024E000F21089E667E340E00E94F21089E664E3B7
:1024F0004EE10E94F21089E667E641E00E94F21088
:1025000089E664E24DE10E94F21089E665E24EE957
:102510000E94F21089E666E243E00E94F21089E62A
:1025200067E246E90E94F21089E66AE640E20E940C
:10253000F21081E001C080E01F910F9108959C018D
:1025400084EA8093BC008091BC0087FFFCCF81E5CA
:102550008093BB0084E88093BC008091BC0087FF1F
:10256000FCCF8091B900887F8834A1F084EC8093FF
:10257000BC008091BC0087FFFCCF8091BB00861718
:1025800049F4A0E0B0E0772767FD70956150704096
:1025900094EC12C084E98093BC0080E0089590938D
:1025A000BC008091BC0087FFFCCF8091BB00F9018B
:1025B000EA0FFB1F80831196A617B70784F384E800
:1025C0008093BC008091BC0087FFFCCF8091BB0052
:1025D000A20FB31F8C9384E98093BC0081E008951F
:1025E000982FF89484EA8093BC008091BC0087FF08
:1025F000FCCF80E58093BB0084E88093BC00809191
:10260000BC0087FFFCCF8091B900887F803231F415
:1026100084E98093BC00789480E0089583E08093FF
:10262000BB0084E88093BC008091BC0087FFFCCF96
:102630009093BB0084E88093BC008091BC0087FF2E
:10264000FCCF20E030E0552747FD509594E80EC0C0
:10265000FB01E20FF31F80818093BB009093BC00CD
:102660008091BC0087FFFCCF2F5F3F4F24173507B9
:102670007CF384E98093BC00789481E00895FF9214
:102680000F931F93182F062FF42E0E94921084EAA6
:102690008093BC008091BC0087FFFCCF80E58093D5
:1026A000BB0084E88093BC008091BC0087FFFCCF16
:1026B0008091B900887F803229F484E98093BC003E
:1026C00080E029C081E08093BB0084E88093BC0057
:1026D0008091BC0087FFFCCF1093BB0084E88093FF
:1026E000BC008091BC0087FFFCCF0093BB0084E856
:1026F0008093BC008091BC0087FFFCCFF092BB00B0
:1027000084E88093BC008091BC0087FFFCCF84E903
:102710008093BC0081E01F910F91FF90089581E0AC
:102720008093D70080EA8093D80082E189BD09B404
:1027300000FEFDCF80E98093D8001092E000109257
:102740006801109269018CE08093E200789408950A
:102750008091680108959FB7F8948091680188235B
:1027600039F083E08093E9008091E80085FD03C0A3
:102770009FBF8FEF08952091F1008091E80085FDC3
:1027800003C08BE68093E8009FBF822F08959FB718
:10279000F89480916801882329F083E08093E90010
:1027A0008091F2009FBF089580916801882371F0A5
:1027B0009FB7F89483E08093E9002BE602C0209352
:1027C000E8008091E80085FDFACF9FBF0895482F6B
:1027D000809168018823D9F12FB7F89484E0809321
:1027E000E90080916B01882341F08091E80085FD2C
:1027F00002C02FBF12C010926B019091E400975E4F
:1028000034E08091E80085FD13C02FBF8091E40083
:10281000891729F481E080936B018FEF08958091EF
:1028200068018823A1F02FB7F8943093E900E9CF2D
:102830004093F1008091E80085FD03C08AE3809316
:10284000E80085E080936A012FBF80E008958FEF54
:102850000895282F80916801882351F09FB7F8943C
:1028600084E08093E9008091E80085FD03C09FBF6C
:102870008FEF08952093F1008091E80085FD03C05B
:102880008AE38093E80085E080936A019FBF80E03F
:102890000895CF93DF93EC0180916801882309F4B8
:1028A0001CC13FB7F89484E08093E90080916B01EC
:1028B000882309F407C18091E80085FD02C03FBF6D
:1028C0000CC110926B01FEC09091E400975E809164
:1028D000E80085FD13C03FBF8091E400891721F413
:1028E00081E080936B01F9C080916801882309F42D
:1028F000F4C03FB7F8945093E900E9CF8091F2001B
:102900002A2F281B822F90E06817790708F4262FBA
:10291000822F90E08134910508F0C6C081599F4F05
:10292000FC01EE0FFF1F0590F491E02D09948991B1
:102930008093F10089918093F10089918093F10057
:1029400089918093F10089918093F100899180931E
:10295000F10089918093F10089918093F100899130
:102960008093F10089918093F10089918093F10027
:1029700089918093F10089918093F10089918093EE
:10298000F10089918093F10089918093F100899100
:102990008093F10089918093F10089918093F100F7
:1029A00089918093F10089918093F10089918093BE
:1029B000F10089918093F10089918093F1008991D0
:1029C0008093F10089918093F10089918093F100C7
:1029D00089918093F10089918093F100899180938E
:1029E000F10089918093F10089918093F1008991A0
:1029F0008093F10089918093F10089918093F10097
:102A000089918093F10089918093F100899180935D
:102A1000F10089918093F10089918093F10089916F
:102A20008093F10089918093F10089918093F10066
:102A300089918093F10089918093F100899180932D
:102A4000F10089918093F10089918093F10089913F
:102A50008093F10089918093F10089918093F10036
:102A600089918093F10089918093F10089918093FD
:102A7000F10089918093F10089918093F10089910F
:102A80008093F10089918093F10089918093F10006
:102A900089918093F10089918093F10089918093CD
:102AA000F10089918093F10089918093F1008091E8
:102AB000E80085FD02C0B093E800621B71094093F5
:102AC0006A0104C054E0A0E4BAE345E06115710571
:102AD00009F0FACE3FBF80E001C08FEFDF91CF91C8
:102AE00008959FB7F89480916A01882341F084E0AB
:102AF0008093E9008AE38093E80010926A019FBF07
:102B00000895809128010895809129010895809168
:102B10002A010895809169010895382F9FB7F8948C
:102B200080916801882339F022E02093E9008091A8
:102B3000E80085FD03C09FBF8FEF089581EA809371
:102B4000F10080E28093F1001092F1001092F10008
:102B50001092F1001092F1002093F1001092F10018
:102B60003093F1001092F1008AE38093E8009FBF58
:102B700080E008951F920F920FB60F9211248F9349
:102B80009F938091E1001092E100982F83FF11C084
:102B90001092E90081E08093EB001092EC0082E15A
:102BA0008093ED0088E08093F0001092680110920D
:102BB000690192FF13C080916801882379F08091A8
:102BC0006A01882359F0815080936A01882331F487
:102BD00084E08093E9008AE38093E8009F918F91DD
:102BE0000F900FBE0F901F9018951F920F920FB667
:102BF0000F9211240F931F932F933F934F935F9343
:102C00006F937F938F939F93AF93BF93EF93FF93B4
:102C10001092E9008091E80083FF3CC14091F100EF
:102C20003091F1008091F100682F70E02091F10067
:102C3000922F80E0682B792B8091F100A82FB0E0D3
:102C40002091F100922F80E0A82BB92B1091F10078
:102C50000091F10082EF8093E800363009F05AC00D
:102C600022E733E0A90145505040F901379785919B
:102C700094918617970701F5FA01859194918A1727
:102C80009B07D1F49A012E5F3F4FF9016591749132
:102C90002E5F3F4FF9014491212F30E0902F80E0CB
:102CA000282B392B2F3F310519F010F02FEF30E092
:102CB000241758F4422F09C0295F3F4F495F5F4FE7
:102CC000F3E02C393F0789F6E5C05EEF8091E8001C
:102CD000282F30E0C90185709070892BB9F322FD4F
:102CE000DCC0342F413108F030E1232FCB0106C086
:102CF000FC010196E491E093F10021502223C1F7F9
:102D0000630F711D431B5093E8004423F9F63031E3
:102D1000E9F2C3C0353061F48EEF8093E800809112
:102D2000E80080FFFCCF862F80688093E300B5C069
:102D3000393051F5442309F0ADC060936801109219
:102D4000690110926A018EEF8093E80085E993E0B3
:102D500021E02093E900FC010196E491E093EB006F
:102D6000EE2369F0AC014F5F5F4FFC0184918093CB
:102D7000EC00CA010196FA0134913093ED002F5F07
:102D8000253039F78EE181C0383061F4403809F0E0
:102D900081C08091E80080FFFCCF80916801809322
:102DA000F10050C0313289F4413A09F073C080918A
:102DB000E80080FFFCCFE4E2F1E081918093F10034
:102DC00081E0EB32F807C9F73DC03032A1F441325F
:102DD00009F060C08091E80082FFFCCFE4E2F1E0FE
:102DE0008091F100819381E0EB32F807C9F78BEF16
:102DF0008093E80027C0323251F4413209F04AC0D2
:102E0000609369018091E80080FFFCCF1BC03323F1
:102E1000E9F48091E80080FFFCCF423811F080E0B7
:102E20000DC0A093E9008091EB0090E025E096951D
:102E300087952A95E1F781701092E9008093F1005F
:102E40001092F1008EEF8093E80027C0313011F02E
:102E5000333001F54230F1F4672BE1F42A2F2F775C
:102E6000822F81508430B0F48EEF8093E80020935D
:102E7000E900333079F089E18093EB0081E090E064
:102E800002C0880F991F2A95E2F78093EA001092FA
:102E9000EA0003C081E28093EB00FF91EF91BF91C4
:102EA000AF919F918F917F916F915F914F913F91E2
:102EB0002F911F910F910F900FBE0F901F9018959B
:102EC0001F93CF93DF93EC01FE0121961491112300
:102ED00049F01A3019F48DE00E94E713812F0E9407
:102EE000E713F2CFDF91CF911F910895982F8A3089
:102EF00010F087E301C080E3890F0E94E713089573
:102F00001F93182F82958F700E947617812F8F70D4
:102F10000E9476171F9108951F93182F892F0E94E2
:102F20008017812F0E9480171F9108950E9480179B
:102F30000895EF92FF920F931F93DF93CF93CDB736
:102F4000DEB72B970FB6F894DEBF0FBECDBF8E0154
:102F50000F5F1F4F2BE0F80111922A95E9F7A801A6
:102F60002AE030E00E94751F3BE0E32EF12CEC0ECE
:102F7000FD1EF8018081882311F00E94E7130F5F86
:102F80001F4F0E151F05A9F72B960FB6F894DEBF3D
:102F90000FBECDBFCF91DF911F910F91FF90EF90AA
:102FA0000895EF92FF920F931F93DF93CF93CDB7C6
:102FB000DEB72B970FB6F894DEBF0FBECDBF8E01E4
:102FC0000F5F1F4F2BE0F80111922A95E9F7A80136
:102FD0002AE030E00E945B1F4CE0E42EF12CEC0E66
:102FE000FD1EF8018081882311F00E94E7130F5F16
:102FF0001F4F0E151F05A9F72B960FB6F894DEBFCD
:103000000FBECDBFCF91DF911F910F91FF90EF9039
:103010000895EF92FF920F931F93DF93CF9300D009
:1030200000D000D0CDB7DEB78E010F5F1F4F26E076
:10303000F80111922A95E9F7B8014AE050E00E94A0
:10304000A21F56E0E52EF12CEC0EFD1EF80180814A
:10305000882311F00E94E7130F5F1F4F0E151F0505
:10306000A9F726960FB6F894DEBF0FBECDBFCF915D
:10307000DF911F910F91FF90EF900895EF92FF92D3
:103080000F931F93DF93CF93CDB7DEB727970FB67C
:10309000F894DEBF0FBECDBF8E010F5F1F4F27E03C
:1030A000F80111922A95E9F7B8014AE050E00E9430
:1030B000451F68E0E62EF12CEC0EFD1EF801808124
:1030C000882311F00E94E7130F5F1F4F0E151F0595
:1030D000A9F727960FB6F894DEBF0FBECDBFCF91EC
:1030E000DF911F910F91FF90EF90089520E030E065
:1030F0008091BC0087FD06C02F5F3F4F83E0293ED3
:103100003807B1F780E0285E334009F081E0089588
:103110008093BB0084E88093BC000E9476188823CB
:1031200019F08091B900887F08951F93182F84EAC1
:103130008093BC000E947618882369F0110F812FBC
:103140008F5F0E948818883411F081E004C084E900
:103150008093BC0080E01F9108951F93182F84EA8C
:103160008093BC000E947618882361F0812F880F1D
:103170000E948818803211F081E004C084E98093B5
:10318000BC0080E01F9108950F931F93DF93CF93AE
:10319000CDB7DEB760970FB6F894DEBF0FBECDBFD8
:1031A000182F092F88E50E94AD18882309F469C0FB
:1031B00086E30E948818882309F463C084E9809319
:1031C000BC0085E88A95F1F788E50E949518882368
:1031D00009F457C0FE01319680E1DF011D928A9506
:1031E000E9F794EC9E01205F3F4F9093BC008091E3
:1031F000BC0087FFFCCF8091BB008193E217F307EF
:10320000A1F784E88093BC008091BC0087FFFCCFCD
:103210008091BB00888B84E98093BC00DE0112960C
:10322000212F302FC901FC01BE01625F7F4F129632
:103230002C91129730E0C9018073907054E0880F90
:10324000991F5A95E1F74C91840F911D91838083CA
:10325000C901807C9070880F991F880F991F119663
:103260004C911197840F911D938382832F7030703E
:103270003583248313963696A617B707C1F681E0E7
:1032800001C080E060960FB6F894DEBF0FBECDBFE0
:10329000CF91DF911F910F91089584E98093BC0035
:1032A00008951F93CF93DF930E94921088E50E94A8
:1032B000AD18882309F4B3C080E30E9488188823DE
:1032C00009F4ADC081E00E948818882309F4A7C0E2
:1032D00084E98093BC0080E49CE90197F1F788E5DC
:1032E0000E94AD18882309F49AC080E00E948818D3
:1032F000882309F494C080E00E948818882309F488
:103300008EC080E00E948818882309F488C080E07D
:103310000E948818882309F482C080E00E948818DF
:10332000882309F47CC080E00E948818882309F46F
:1033300076C080E00E948818882309F470C080E974
:103340000E948818882309F46AC014E91093BC000D
:10335000C0E4DCE9CE010197F1F788E50E94AD18E1
:10336000882309F45CC087E00E948818882309F448
:1033700056C080E00E948818882309F450C081E478
:103380000E948818882309F44AC01093BC00CE011B
:103390000197F1F788E50E94AD18882309F43FC032
:1033A0008AE10E948818882309F439C080E40E94C9
:1033B00088188823A1F180E00E948818882379F179
:1033C0001093BC00CE010197F1F788E50E94AD187B
:1033D000882329F183E30E948818882301F183E080
:1033E0000E9488188823D9F01093BC00CE01019761
:1033F000F1F788E50E94AD18882389F080E30E94E8
:103400008818882361F088E00E948818882339F0A2
:103410001093BC00CE010197F1F781E001C080E07C
:10342000DF91CF911F9108951F920F920FB60F92C7
:1034300011242F933F934F935F936F937F938F93B9
:103440009F93AF93BF93EF93FF936A9A8EB194E0EB
:1034500089278EB90E946A0CFF91EF91BF91AF91BD
:103460009F918F917F916F915F914F913F912F919C
:103470000F900FBE0F901F9018951F920F920FB6CE
:103480000F9211242F933F934F935F936F937F93EA
:103490008F939F93AF93BF93EF93FF930E94451039
:1034A000FF91EF91BF91AF919F918F917F916F911C
:1034B0005F914F913F912F910F900FBE0F901F90F2
:1034C00018951F920F920FB60F9211242F933F93CE
:1034D0004F935F936F937F938F939F93AF93BF931C
:1034E000EF93FF930E940603FF91EF91BF91AF917D
:1034F0009F918F917F916F915F914F913F912F910C
:103500000F900FBE0F901F90189580E885BF85BF64
:10351000E1E6F0E0808310820E9492102FEF83ECAE
:1035200099E0215080409040E1F700C000000E94E7
:10353000E70C2FEF89E698E1215080409040E1F7B9
:1035400000C0000080912B0190912C010E945C0C26
:103550000E9462100E942E020E94500E0E941F03C1
:10356000789408958F929F92AF92BF92CF92DF92FC
:10357000EF92FF92C0909201D0909301E09094015D
:10358000F090950120E030E0A901C701B6010E944A
:10359000381E18162CF460E070E086EE92EC04C041
:1035A00060E070E086EE92E4A70196010E94C11BE4
:1035B0006B017C0120919601309197014091980117
:1035C0005091990160E070E0CB010E94C11BA701FE
:1035D00096010E94351C20E030E044E353E40E9451
:1035E000431E2BED3FE049E450E40E948F1C9B01F9
:1035F000AC0160E070E084EB92E40E94C11B6B01BF
:103600007C0120E030E0A9010E94881C87FF0AC0ED
:1036100020E030E044EB53E4C701B6010E94C21B36
:103620006B017C0120919A0130919B0140919C019A
:1036300050919D01C701B6010E94C11B6B017C0125
:103640009F7720E030E040EA50E40E94881C87FF2A
:1036500007C02DEC3CEC4CE45FE3CA01B90129C082
:1036600020E030E044E353E4C701B6010E94381E75
:1036700018161CF46FEF7FEF02C061E070E088273E
:1036800077FD8095982F0E942A1D6B017C0120E018
:1036900030E040E05FEB0E94431E4B015C0120E004
:1036A00030E040E05FE3C701B6010E94431EA50180
:1036B0009401FF90EF90DF90CF90BF90AF909F90DC
:1036C0008F900C941E03CF93DF93CDB7DEB72C976A
:1036D0000FB6F894DEBF0FBECDBF0E94851A8CE0F6
:1036E000E82E90E4F92E82ED91E00E94740C892B73
:1036F00079F081E090E02091D2013091D301213026
:10370000310511F080E090E090936D0180936C01A1
:103710000E94520ECE0101960E948D0BFE01319641
:10372000A2E9B1E08E2D01900D928A95E1F780918A
:103730002D0190912E01892B11F00E94B21A0E9446
:10374000591000916E0110916F012091700130911C
:103750007101601B710B820B930B653F71408105FA
:1037600091050CF26E9A8EB18F258EB90E94591078
:1037700060936E0170936F0180937001909371015B
:10378000B2CF5058BB27AA270ED027C2F0D130F0B5
:10379000F5D120F031F49F3F11F41EF4C0C10EF4B6
:1037A000E095E7FBB6C1E92F3AD280F3BA1762077A
:1037B00073078407950718F071F49EF552C20EF452
:1037C000E0950B2EBA2FA02D0B01B90190010C0131
:1037D000CA01A0011124FF27591B99F0593F50F449
:1037E000503E68F11A16F040A22F232F342F4427A1
:1037F000585FF3CF469537952795A795F040539599
:10380000C9F77EF41F16BA0B620B730B840BBAF068
:103810009150A1F0FF0FBB1F661F771F881FC2F7D3
:103820000EC0BA0F621F731F841F48F487957795E7
:103830006795B795F7959E3F08F0B3CF9395880F9E
:1038400008F09927EE0F97958795089590D158F035
:1038500080E891E009F49EEF91D128F040E851E032
:1038600059F45EEF09C05BC1FCC1E92FE078D7D104
:1038700068F3092E052AC1F32617370748075907A9
:1038800038F00E2E07F8E02569F0E025E0640AC064
:10389000EF6307F8009407FADB01B9019D01DC0131
:1038A000CA01AD01EF934AD098D10AD05F91552358
:1038B00031F02BED3FE049E450FD49EC63CF089532
:1038C000DF93DD27B92FBF7740E85FE316161706B1
:1038D00048075B0710F4D92FCFD19F938F937F9325
:1038E0006F937CD2E0E6F1E01DD177D12F913F912B
:1038F0004F915F91D4D1DD2349F09058A2EA2AED8F
:103900003FE049EC5FE3D0785D274DDFDF9165C193
:10391000DCD008F481E0089539D1E3956FC10CD073
:103920005CC12CD140F023D130F021F45F3F19F07D
:10393000F0C0511197C1F3C072D198F39923C9F324
:103940005523B1F3951B550BBB27AA2762177307A5
:10395000840738F09F5F5F4F220F331F441FAA1F59
:10396000A9F333D00E2E3AF0E0E830D09150504019
:10397000E695001CCAF729D0FE2F27D0660F771FC7
:10398000881FBB1F261737074807AB07B0E809F0A9
:10399000BB0B802DBF01FF2793585F4F2AF09E3F3E
:1039A000510568F0B6C05EC15F3FECF3983EDCF3B2
:1039B000869577956795B795F7959F5FC9F7880FB7
:1039C000911D9695879597F90895E1E0660F771F09
:1039D000881FBB1F621773078407BA0720F0621B9A
:1039E000730B840BBA0BEE1F88F7E095089504D093
:1039F0006894B11137C108951AD188F09F5790F09B
:103A0000B92F9927B751A0F0D1F0660F771F881F03
:103A1000991F1AF0BA95C9F712C0B13081F021D1BF
:103A2000B1E008951EC1672F782F8827B85F39F05D
:103A3000B93FCCF3869577956795B395D9F73EF462
:103A400090958095709561957F4F8F4F9F4F08950A
:103A5000E89409C097FB3EF4909580957095619528
:103A60007F4F8F4F9F4F9923A9F0F92F96E9BB27DE
:103A70009395F695879577956795B795F111F8CF5A
:103A8000FAF4BB0F11F460FF1BC06F5F7F4F8F4FC5
:103A90009F4F16C0882311F096E911C0772321F0BB
:103AA0009EE8872F762F05C0662371F096E8862F53
:103AB00070E060E02AF09A95660F771F881FDAF7AA
:103AC000880F9695879597F90895990F0008550FD7
:103AD000AA0BE0E8FEEF16161706E807F907C0F094
:103AE00012161306E407F50798F0621B730B840B9C
:103AF000950B39F40A2661F0232B242B252B21F476
:103B000008950A2609F4A140A6958FEF811D811D15
:103B1000089597F99F6780E870E060E008959FEF4F
:103B200080EC0895DF93CF931F930F93FF92EF9252
:103B3000DF927B018C01689405C0DA2EEF01AFD0D3
:103B4000FE01E894A5912591359145915591AEF3EB
:103B5000EF0129DEFE019701A801DA9479F7DF90E1
:103B6000EF90FF900F911F91CF91DF910895002466
:103B70000A941616170618060906089500240A94D2
:103B800012161306140605060895C9CF50D0E8F39F
:103B9000E894E0E0BB279F57F0F02AED3FE049ECC6
:103BA00006C0EE0FBB0F661F771F881F28F0B23AC2
:103BB00062077307840728F0B25A620B730B840BF9
:103BC000E3959A9572F7803830F49A95BB0F661F8B
:103BD000771F881FD2F7904806C1092E0394000C66
:103BE00011F4882352F0BB0F40F4BF2B11F460FF97
:103BF00004C06F5F7F4F8F4F9F4F0895EF93E0FF9B
:103C000006C0A2EA2AED3FE049EC5FEBCCDDE5DF40
:103C10000F90039401FC9058EDE8F1E0F7C057FDD8
:103C20009058440F551F59F05F3F71F04795880F2A
:103C300097FB991F61F09F3F79F0879508951216C1
:103C400013061406551FF2CF4695F1DF08C016166D
:103C500017061806991FF1CF86957105610508941E
:103C60000895E894BB2766277727CB0197F9089535
:103C70002CDF08F48FEF08959B01AC0160E070E049
:103C800080E89FE34CCE0BD0A8CF71DF28F076DF21
:103C900018F0952309F03DCF42CF1124E3CFBFDFC9
:103CA000A0F3959FD1F3950F50E0551F629FF0014F
:103CB000729FBB27F00DB11D639FAA27F00DB11DA8
:103CC000AA1F649F6627B00DA11D661F829F222731
:103CD000B00DA11D621F739FB00DA11D621F839FB8
:103CE000A00D611D221F749F3327A00D611D231F8E
:103CF000849F600D211D822F762F6A2F11249F57DC
:103D000050408AF0E1F088234AF0EE0FFF1FBB1FFE
:103D1000661F771F881F91505040A9F79E3F51059D
:103D200070F0F7CE9FCF5F3FECF3983EDCF38695C3
:103D300077956795B795F795E7959F5FC1F7FE2B48
:103D4000880F911D9695879597F908959F931EDF8B
:103D50000F9007FCEE5F52CF11F40EF4E0CE41C09D
:103D600066DFD0F39923D9F3CEF39F57550B87FF26
:103D700046D00024A0E640EA9001805856959795D9
:103D800028F4805C660F771F881F20F026173707FE
:103D9000480730F4621B730B840B202931294A2B0E
:103DA000A69517940794202531254A2758F7660FC2
:103DB000771F881F20F026173707480730F4620B5B
:103DC000730B840B200D311D411DA09581F7B901A6
:103DD000842F9158880F9695879508959B01AC0183
:103DE00052CF9F3F31F0915020F48795779567959A
:103DF000B795880F911D9695879597F908959150DD
:103E00005040660F771F881FD2F708959F938F93B6
:103E10007F936F93FF93EF939B01AC0134DFEF919E
:103E2000FF9180DE2F913F914F915F912CCF97FBB7
:103E3000072E16F4009407D077FD09D00E94311F99
:103E400007FC05D03EF4909581959F4F089570959D
:103E500061957F4F0895EE0FFF1F0590F491E02DBF
:103E60000994AA1BBB1B51E107C0AA1FBB1FA617C1
:103E7000B70710F0A61BB70B881F991F5A95A9F713
:103E800080959095BC01CD0108954532510520F4EF
:103E9000423010F00C94501FFB011082CB010895AA
:103EA000BB274A3031F4992322F4BDE290958195E5
:103EB0009F4F0C94AE1F2532310520F4223010F0B4
:103EC0000C94661FFA011082CA010895BB272A309C
:103ED00051F4992342F4BDE29095809570956195D7
:103EE0007F4F8F4F9F4F0C94811F2532310520F457
:103EF000223010F00C94801FFA011082CA0108953C
:103F0000BB27FA01A62F6217710581059105330BB6
:103F100030FB66F0AA27660F771F881F991FAA1F1C
:103F2000A21710F0A21B63953850A9F7A05DAA3321
:103F300008F0A95DA19336F7B111B1931082CA01BF
:103F40000C94C71F4532510520F4423010F00C94F8
:103F5000AD1FFB011082CB010895BB27FB01552744
:103F6000AA27880F991FAA1FA41710F0A41B8395D6
:103F70005051B9F7A05DAA3308F0A95DA19300974D
:103F800079F7B111B1931192CB010C94C71FDC01E9
:103F9000FC01672F71917723E1F7329704C07C9180
:103FA0006D9370836291AE17BF07C8F30895F894BC
:023FB000FFCF41
:103FB2000D001A00140010001D001700010001007E
:103FC20000000100BC019C01B801FD014503700322
:103FD20097035D0300E100000000082C00010001CE
:103FE20000020003000400010002000200030004BA
:083FF2000001000300040000BF
:00000001FF
