:100000000C9465020C9482020C9482020C940021E0
:100010000C9482020C9482020C9482020C94820250
:100020000C9482020C9482020C94861C0C94C01CCA
:100030000C9482020C9482020C9482020C94820230
:100040000C9482020C94B8200C94DC200C94820254
:100050000C9482020C9482020C9482020C94820210
:100060000C9482020C9482020C9482020C94820200
:100070000C9482020C9448210C9482020C9482020B
:100080000C9424210C9482020C9482020C9482021F
:100090000C9482020C9482020C9482020C948202D0
:1000A0000C9482020C9482020C948202D402D60236
:1000B000EB02DF02F702DD02FE0205031603390E32
:1000C0003D0E430E460E540E620E570E5A0EC80ECB
:1000D000CB0ECE0EE70E000F030F060F090F2E1CDE
:1000E000261C1E1C161C0E1C061CFE1BF61BEE1BE3
:1000F000E61BDE1BD61BCE1BC61BBE1BB61BAE1BD8
:10010000A61B9E1B961B8E1B861B7E1B761B6E1BC7
:10011000661B5E1B561B4E1B461B3E1B361B2E1BB7
:10012000261B1E1B161B0E1B061BFE1AF61AEE1AAA
:10013000E61ADE1AD61ACE1AC61ABE1AB61AAE1A9F
:10014000A61A9E1A961A8E1A861A7E1A761A6E1A8F
:10015000661A5E1A561A4E1A461A3E1A361A2E1A7F
:10016000084AD73B3BCE016E84BCBFFDC12F3D6C1E
:1001700074319ABD56833DDA3D00C77F11BED9E484
:10018000BB4C3E916BAAAABE000000803F05A84C64
:10019000CDB2D44EB93836A9020C50B99186880830
:1001A0003CA6AAAA2ABE000000803F00426164204B
:1001B00063686172616374657220726563656976F4
:1001C000656421204974207761733A200072656468
:1001D00000626C75650020646566656E6465642DFB
:1001E000676F616C3A200020676F616C69653A2027
:1001F000000A4C6F6F70206D6F646573202D207046
:100200006C61793A20002072696768743A20000AAC
:100210004D6F746F72206475747920287831303096
:1002200029202D206C6566743A2000207068692AA8
:100230003130303A20002079506F733A20000A4361
:10024000757272656E74202D2078506F733A20009D
:10025000207363616C653A20002074683A200020A6
:1002600079433A20000A436F6E73742064617461AD
:10027000202D2078433A20003A20002076003A20B2
:10028000002079003A20000A6D57696920626C6F7E
:100290006273202D2078002056616C69643A20003A
:1002A00020446973743A20000A205075636B202D36
:1002B00020416E676C653A200020000A205075636B
:1002C0006B204144432056616C733A00556E726551
:1002D000636F676E697A656420576972656C6573D0
:1002E000734D6573736167650A00576972656C6564
:1002F00073734D65737361676520697320554E4B49
:100300004E4F574E2E0A00576972656C6573734DD8
:100310006573736167652069732047414D455F4F81
:100320005645522E0A00576972656C6573734D65A8
:1003300073736167652069732048414C4654494D89
:10034000452E0A00576972656C6573734D6573734A
:100350006167652069732050415553452E0A000A94
:10036000000953636F726520426C756520697320C4
:10037000000A000953636F72652052656420697337
:100380002000576972656C6573734D65737361679F
:100390006520697320474F414C5F422E0A000A00D6
:1003A0000953636F726520426C7565206973200084
:1003B0000A000953636F72652052656420697320D7
:1003C00000576972656C6573734D6573736167651A
:1003D00020697320474F414C5F522E0A00576972C3
:1003E000656C6573734D6573736167652069732010
:1003F000504C41592E0A00576972656C6573734DF4
:1004000065737361676520697320434F4D4D5F5479
:100410004553542E0A0000010000AD0412000200F2
:10042000006A044300030000660404010309045247
:100430000412020309044A040603030904400408E1
:100440000803340031003000000006034D00320084
:10045000000012034A002E002000460069006500DB
:100460006E00650000000403090409024300020154
:1004700000C032090400000102020100052400103E
:1004800001052401010104240206052406000107D8
:1004900005820310004009040100020A0000000761
:1004A000050302400000070584024000001201001D
:1004B0000202000010C0167A0400010102030100CC
:1004C00001C1120180360181360011241FBECFEF19
:1004D000DAE0DEBFCDBF11E0A0E0B1E0ECEEFEE47B
:1004E00002C005900D92AA34B107D9F722E0AAE420
:1004F000B1E001C01D92AE30B207E1F70E940723C0
:100500000C9474270C94000080B38F7380BB81B36C
:100510008F7381BBECE7F0E080818F7780838081EF
:1005200080648083AAE7B0E08C9184608C938C9186
:1005300081608C93EEE7F0E0808181608083808130
:1005400082608083808180618083808180628083FB
:10055000808180648083808180688083EDE7F0E023
:1005600080818160808380818860808380818061D8
:1005700080838C9188608C938C918F778C93089575
:1005800020917A002F7720937A0090934D018093E9
:100590004C018930910508F05BC0FC01EA5AFF4F1D
:1005A00080917B000C94F4268F7D29C08F7D8093F1
:1005B0007B0080917C008B7F08C08F7D38C08F7D51
:1005C00080937B0080917C00846080937C0080918C
:1005D0007C008D7F25C08F7D80937B0080917C0087
:1005E000846080937C0080917C0082602AC08F7D33
:1005F00080937B0080917C0084600DC0806280933A
:100600007B0080917C008B7F17C0806280937B0091
:1006100080917C008B7F80937C0080917C00826045
:1006200080937C0080917C00816010C08062809308
:100630007B0080917C00846080937C0080917C00B2
:100640008D7F80937C0080917C008E7F80937C00E6
:1006500080917A00806880937A0080917A0080642B
:1006600080937A00089520914E0130914F01232B01
:1006700071F42091500130915101232B41F421E07C
:1006800030E030934F0120934E010E94C0028091D0
:10069000500190915101892B71F0109251011092EB
:1006A000500160914A0170914B0180914C019091F1
:1006B0004D010C94A411089581E090E090935101B4
:1006C0008093500110924F0110924E01809178005A
:1006D0009091790090934B0180934A01EAE7F0E012
:1006E00080818F7780830895109255011092540174
:1006F000289A29982A9A2B980895109253011092BB
:100700005201299A28982B9A2A980895E1E8F0E056
:1007100080818960808380E293E090938900809358
:10072000880080E991E090938B0080938A00EFE647
:10073000F0E0808186608083089584B18F6084B901
:10074000289829982A982B980895CF92DF92EF92B3
:10075000FF926B017C0120E030E0A9010E9451244E
:1007600087FD1EC020E030E040E85FE3C701B6012E
:100770000E9401261816A4F06091880070918900EB
:1007800080E090E00E94F1249B01AC01C701B6011A
:100790000E940C260E94C52470938B0060938A00EF
:1007A000FF90EF90DF90CF900895CF92DF92EF927D
:1007B000FF926B017C0120E030E0A9010E945124EE
:1007C00087FD1EC020E030E040E85FE3C701B601CE
:1007D0000E9401261816A4F060918800709189008B
:1007E00080E090E00E94F1249B01AC01C701B601BA
:1007F0000E940C260E94C52470938D0060938C008B
:10080000FF90EF90DF90CF900895A1E8B0E08C9139
:1008100080618C938C9188608C93E0E8F0E080811B
:100820008260808380818160808384B1806C84B9A0
:1008300080818062808380818F7E808380818860D8
:10084000808380818B7F8083EFE6F0E0808182600F
:10085000808380E293E090938900809388008C915C
:100860008B7F8C938C918D7F8C938C9181608C93FA
:1008700008950E9486030E949D030C940504CF9264
:10088000DF92EF92FF92CF93DF9300D000D0CDB7ED
:10089000DEB76B017C0129833A834B835C830E9422
:1008A000A50329813A814B815C81CA01B9010E946B
:1008B000D50329813A814B815C81C701B6010F9034
:1008C0000F900F900F90DF91CF91FF90EF90DF90FE
:1008D000CF900C948A1088EE93E09093A7018093B8
:1008E000A6019093A9018093A8011092AA011092E9
:1008F000AB011092AC011092AD011092AE011092BA
:10090000AF011092B0011092B10110928A011092C1
:100910008B0110928C0110928D0110928E01109219
:100920008F011092900110929101109292011092F9
:10093000930110929401109295010895EF92FF9205
:100940000F931F93CF93DF93CDB7DEB7FE01399698
:100950006CE171E044E151E09E012F5D3F4F8CE07E
:10096000E82E81E0F82E84E090E000811181DB0127
:100970000D931D93BD0102811381DA010D931D9327
:10098000AD01D9010D911D919D01D7010D931D93CD
:100990007D0101973696009741F7DF91CF911F9126
:1009A0000F91FF90EF900895861B970B421B530BFE
:1009B000889FB001899F700D700D1124449FC00164
:1009C000459F900D900D1124680F791F882777FDA2
:1009D0008095982F0E94F3240E9479260E94C024BB
:1009E000CB010895FC014191519121E030E080E07C
:1009F00090E02617370764F4A191B191A417B507C9
:100A000014F0DA0101C0C9012F5F3F4FAD01F1CFF2
:100A10000895FC014191519121E030E080E090E0A7
:100A20002617370764F4A191B1914A175B0714F0B8
:100A3000DA0101C0C9012F5F3F4FAD01F1CF089529
:100A40002F923F924F925F926F927F928F929F92DE
:100A5000AF92BF92CF92DF92EF92FF920F931F93CC
:100A6000CF93DF93CDB7DEB7A0970FB6F894DEBF74
:100A70000FBECDBF9E878D878B014A012091A601B5
:100A80003091A7013C8F2B8F6091A8017091A90133
:100A90007A8F698F8091AA019091AB01A091AC01EE
:100AA000B091AD018D8B9E8BAF8BB88F6091AE01F5
:100AB0007091AF018091B0019091B101698B7A8BF7
:100AC0008B8B9C8BDA014D905C9011971296AD90B8
:100AD000BC901397F801208031806280738092016E
:100AE000A501B101C3010E94D404988B8F87D40162
:100AF0001496CD90DC901597F801E480F58095016F
:100B0000A601B301C7010E94D4045C019201A601B1
:100B1000B101C7010E94D4042F85388938872F83FB
:100B2000BA86A9869C878B8763E070E0CE01079622
:100B30000E94F204FC01EE0FFF1F61E070E06C0FF9
:100B40007D1FE60FF71FC680D780FE0137969B01F9
:100B50007E017DE0E70EF11C48EEA42E43E0B42EAA
:100B6000419151914A9DC0014B9D900D5A9D900D10
:100B70001124B6010E94E026D9016D937D939D0159
:100B8000EE15FF0569F789819A812B813C81820FDF
:100B9000931F2D813E81820F931F8B32B2E19B0701
:100BA0000CF4ABC063E070E0CE0101960E94F20449
:100BB0007C0163E070E0CE0101960E940905E1141A
:100BC000F10469F48130910539F422E030E030938A
:100BD00097012093960123C082E090E00EC0892BFC
:100BE000A9F4EA94EF2839F4109297011092960133
:100BF00081E090E014C081E090E0909397018093B1
:100C000096011092B5011092B4010DC0EA94EF283C
:100C100059F3109297011092960182E090E0909320
:100C2000B5018093B4014091B4015091B501440FD6
:100C3000551FF801E40FF51F608171817093A101C8
:100C40006093A0018091960190919701880F991F60
:100C5000F801E80FF91F2081318130939F01209323
:100C60009E01F401E40FF51F0081118110939B0197
:100C700000939A01F401E80FF91FE080F180F092EF
:100C80009901E0929801CB01820F931F97FD019685
:100C9000959587959093BF018093BE01C8018E0DF5
:100CA0009F1D97FD01969595879590939D01809343
:100CB0009C01621B730B882777FD8095982F0E94FB
:100CC000F3242BED3FE049EC5FE30E948A239B0174
:100CD000AC01B8016E197F09882777FD8095982FA0
:100CE0002D8F3E8F4F8F58A30E94F3242D8D3E8D64
:100CF0004F8D58A10E94FE2324C2863A2EE092070F
:100D00000CF066C163E070E0CE0101960E94F2042F
:100D10007C0163E070E0CE0101960E940905E114B8
:100D2000F10479F48130910529F49093970180932F
:100D3000960104C0109297011092960182E090E013
:100D400011C00097A1F431E0E316F10429F4F09208
:100D50009701E09296011BC01092970110929601A4
:100D600081E090E09093BD018093BC0114C081307C
:100D7000910539F422E030E03093970120939601F9
:100D8000F1CF82E090E090939701809396011092CA
:100D9000BD011092BC014091BC015091BD01BA014E
:100DA000660F771FF801E60FF71FE080F180F092E1
:100DB000BB01E092BA012091960130919701C901DF
:100DC000880F991FF801E80FF91F208031803092B9
:100DD0009F0120929E01F401E60FF71FC080D18091
:100DE000D092C101C092C001F401E80FF91F6081E7
:100DF0007181788B6F87709399016093980183E07C
:100E000090E0841B950B821B930B880F991FF801B0
:100E1000E80FF91FA080B180B092B901A092B8018B
:100E2000F401E80FF91F008111811093B7010093BD
:100E3000B601B70162197309882777FD8095982F4D
:100E40000E94F3249B01AC01B6018F859889681B31
:100E5000790B882777FD8095982F2D8F3E8F4F8FA8
:100E600058A30E94F3242D8D3E8D4F8D58A10E94D2
:100E7000FE2329E130E94DE85FE30E948B232BED4F
:100E80003FE049E450E40E948B232B013C0120E029
:100E900030E0A9010E94512487FD09C04092A201BF
:100EA0005092A3016092A4017092A50110C02BED95
:100EB0003FE049EC50E4C301B2010E948B236093F0
:100EC000A2017093A3018093A4019093A5019801BE
:100ED000A601B501C7010E94D404BC01882777FD93
:100EE0008095982F0E94F32423E436E142E35FE3E8
:100EF0000E940C266B017C0120EF35E849E55FE399
:100F00006091A2017091A3018091A4019091A5012B
:100F10000E948A232BED3FE049E450E40E948A239B
:100F20002B013C010E9455249B01AC01B50188278F
:100F300077FD8095982F2D8F3E8F4F8F58A30E945D
:100F4000F3244B015C012D8D3E8D4F8D58A1C701BF
:100F5000B6010E940C269B01AC01C501B4010E94A0
:100F60008B230E94C0244B015C017093A10160930C
:100F7000A001C301B2010E946F269B01AC01B80120
:100F8000882777FD8095982F2D8F3E8F4F8F58A300
:100F90000E94F3242B013C012D8D3E8D4F8D58A1D5
:100FA000C701B6010E940C269B01AC01C301B2012E
:100FB0000E948B230E94C02470939B0160939A012E
:100FC000820C931C97FE46C2AFEF8A1A9A0A42C25D
:100FD0008F3BFFE09F070CF4D6C063E070E0CE01CA
:100FE00001960E94F2047C0163E070E0CE0101965C
:100FF0000E940905E114F10469F48130910539F486
:1010000022E030E030939701209396012DC082E0DA
:1010100090E011C0892BC1F421E0E216F10449F4FB
:101020001092970110929601F092B501E092B401EE
:101030001FC081E090E090939701809396011092F9
:10104000B5011092B40114C0EA94EF2829F410926B
:1010500097011092960106C081E090E0909397016D
:101060008093960182E090E09093B5018093B40163
:101070004091B4015091B501440F551FF801E40FA0
:10108000F51F608171817093A1016093A00180912F
:10109000960190919701880F991FF801E80FF91FA9
:1010A0002081318130939F0120939E01F401E40F50
:1010B000F51FE080F180F0929B01E0929A01F4012B
:1010C000E80FF91F00811181109399010093980195
:1010D000CB01820F931F97FD01969595879590936D
:1010E000BF018093BE01C701800F911F97FD01963C
:1010F0009595879590939D0180939C01621B730B3E
:10110000882777FD8095982F0E94F3249B01AC01DE
:10111000B701601B710B882777FD8095982F2D8F65
:101120003E8F4F8F58A30E94F3242D8D3E8D4F8DFF
:1011300058A10E94FE232BED3FE049EC5FE30E94A3
:101140008A236B017C016093A2017093A3018093B9
:10115000A4019093A50120E030E0A9010E94512450
:1011600087FFAFC12BED3FE049EC50E4C701B6016A
:101170000E948B236093A2017093A3018093A4012A
:101180009093A5019EC18E3B9F4009F478C163E016
:1011900070E0CE0101960E94F2047C0163E070E0F1
:1011A000CE0101960E940905E114F10479F4813021
:1011B000910529F41092B5011092B4012CC081E080
:1011C00090E09093B5018093B40111C00097A1F411
:1011D00082E090E09093B5018093B40171E0E7164E
:1011E000F10429F4F092BD01E092BC0118C0109204
:1011F000BD011092BC0113C0019729F41092B501F2
:101200001092B40106C081E090E09093B501809304
:10121000B40182E090E09093BD018093BC014091C5
:10122000B4015091B501BA01660F771FF801E60FBE
:10123000F71F208031803092A1012092A0012091DF
:10124000BC013091BD01C901880F991FF801E80F59
:10125000F91FE080F180F092BB01E092BA01F40145
:10126000E60FF71FA081B181B88BAF87B0939B01C8
:10127000A0939A01F401E80FF91FC080D180D092A9
:10128000C101C092C00183E090E0841B950B821BDA
:10129000930B880F991FF801E80FF91FA080B18008
:1012A000B092B901A092B801F401E80FF91F0081D2
:1012B00011811093B7010093B601B1016A197B093E
:1012C000882777FD8095982F0E94F3249B01AC011D
:1012D0006F857889601B710B882777FD8095982F23
:1012E0002D8F3E8F4F8F58A30E94F3242D8D3E8D5E
:1012F0004F8D58A10E94FE2320EF35E849E55FE3BA
:101300000E948B232BED3FE049E450E40E948B23A5
:101310002B013C0120E030E0A9010E94512487FD0F
:1013200009C04092A2015092A3016092A401709260
:10133000A50110C02BED3FE049EC50E4C301B20120
:101340000E948B236093A2017093A3018093A40158
:101350009093A5019801A601B501C7010E94D4048C
:10136000BC01882777FD8095982F0E94F32423EDF8
:101370003BE94EE55FE30E940C266B017C0124E013
:1013800036E54EE05FE36091A2017091A301809188
:10139000A4019091A5010E948A232BED3FE049EC26
:1013A0005FE30E948A232B013C010E9455249B018C
:1013B000AC01B501882777FD8095982F2D8F3E8F42
:1013C0004F8F58A30E94F3244B015C012D8D3E8D5D
:1013D0004F8D58A1C701B6010E940C269B01AC019C
:1013E000C501B4010E948B230E94C0244B015C0103
:1013F00070939F0160939E01C301B2010E946F260A
:101400009B01AC01B801882777FD8095982F2D8F1F
:101410003E8F4F8F58A30E94F3242B013C012D8D4A
:101420003E8D4F8D58A1C701B6010E940C269B012D
:10143000AC01C301B2010E948B230E94C0247093AF
:10144000990160939801820C931C97FE03C0BFEF33
:101450008B1A9B0A959487949092BF018092BE014B
:10146000EF85F8896E0F7F1F77FF02C06F5F7F4F98
:101470007595679570939D0160939C0122C0EB8DDB
:10148000FC8DAD85BE851196FC93EE93298D3A8D2A
:1014900013963C932E9312976D897E898F89988D30
:1014A00014966D937D938D939C93179769897A8990
:1014B0008B899C8918966D937D938D939C931B9734
:1014C00041C0A090BE01B090BF0100919C0110915D
:1014D0009D01C090A201D090A301E090A401F090E2
:1014E000A50120919A0130919B0140919801509162
:1014F00099016091A0017091A10180919E0190914C
:101500009F010E94D404ED85FE85B182A0821383E1
:101510000283C482D582E682F782BC01882777FDE8
:101520008095982F0E94F3249B01AC0160E070E04D
:1015300088EE91E40E945824ED85FE8560877187CE
:10154000828793878D859E85A0960FB6F894DEBF1F
:101550000FBECDBFDF91CF911F910F91FF90EF9004
:10156000DF90CF90BF90AF909F908F907F906F90C3
:101570005F904F903F902F9008952F923F924F92FF
:101580005F926F927F928F929F92AF92BF92CF9213
:10159000DF92EF92FF920F931F93CF93DF93CDB71C
:1015A000DEB7C254D1090FB6F894DEBF0FBECDBF6F
:1015B0009AAB89AB8B013A01DA01ED90FC9011975F
:1015C00012962D903C901397FB0180809180228190
:1015D00033813CAB2BAB9701A101B4018BA99CA932
:1015E0000E94D40498AF8FABD3011496AD90BC90F9
:1015F0001597F801448055809101A5016BA97CA93C
:10160000C2010E94D4049AAF89AFD30116960D90FF
:10161000BC91A02DBEABADABF801C680D7809501C3
:10162000AD01B201C6010E94D4049CAF8BAF2DA9BD
:101630003EA9A701B601C4010E94D4049EAF8DAF9C
:101640009701A501B401C2010E94D4047C0191015B
:101650004DA95EA96BA97CA9C6010E94D4042FA93B
:1016600038AD3EA32DA3A9ADBAADB8A7AFA3EBADDE
:10167000FCADFAA7E9A72DAD3EAD3CA72BA7FEA672
:10168000EDA698AB8FA766E070E0CE0185960E942C
:10169000F204FC01EE0FFF1F81E090E08C0F9D1F14
:1016A000E80FF91FC4A0D5A09E012B5D3F4FFE019E
:1016B00079967E0191E3E90EF11C4F0198EEA92E77
:1016C00093E0B92ED9016D917D919D016A9DC00174
:1016D0006B9D900D7A9D900D1124B6010E94E0261D
:1016E000619371932E153F0569F78CE0E2E3F1E019
:1016F000DE011D9601900D928A95E1F78CE0EEE3F4
:10170000F1E0DE01119601900D928A95E1F766E015
:1017100070E0C4010E94F204FC01EE0FFF1F21E003
:1017200030E02C0F3D1FE20FF31FC484D584E0800E
:10173000F18066E070E0C4010E940905FC01EE0F33
:10174000FF1F81E090E08C0F9D1FE80FF91F24859B
:10175000358580819181C216D30641F4D092B501BE
:10176000C092B4019093970180939601C816D90650
:1017700041F49093B5018093B40130939701209385
:101780009601E216F30641F4F092B501E092B4013D
:101790009093970180939601E816F90641F4F09230
:1017A000B501E092B4013093970120939601209106
:1017B000B4013091B50121503048220F331FF80198
:1017C000E20FF31FE080F1808091960190919701E4
:1017D00081509048880F991FF801E80FF91F008188
:1017E0001181F301E20FF31FA080B180F301E80F34
:1017F000F91FC080D1804701800E911E97FE03C063
:101800009FEF891A990A9594879415012C0C3D1C19
:1018100037FE03C0AFEF2A1A3A0A35942794B7016E
:10182000601B710B882777FD8095982F0E94F32409
:101830009B01AC01B5016C197D09882777FD809566
:10184000982F2FAF21963FAF219722964FAF229727
:1018500023965FAF23970E94F3242FAD21963FADCF
:10186000219722964FAD229723965FAD23970E9432
:10187000FE232BED3FE049EC5FE30E948A232B011E
:101880003C0120E030E0A9010E94512487FF0AC0FA
:101890002BED3FE049EC50E4C301B2010E948B23E1
:1018A0002B013C019501A601B701C8010E94D40497
:1018B000E9A9FAA9918280823382228244825582E8
:1018C00066827782BC01882777FD8095982F0E94D9
:1018D000F3249B01AC0160E070E088EE91E40E948B
:1018E0005824E9A9FAA96087718782879387CF0175
:1018F000CE5BDF4F0FB6F894DEBF0FBECDBFDF91DA
:10190000CF911F910F91FF90EF90DF90CF90BF90FC
:10191000AF909F908F907F906F905F904F903F908F
:101920002F9008954F925F926F927F928F929F9225
:10193000AF92BF92CF92DF92EF92FF920F931F93DD
:10194000CF93DF93CDB7DEB7AC970FB6F894DEBF79
:101950000FBECDBF8C0180910C0190910D012091A3
:101960000E0130910F01820F931F209110013091D1
:101970001101820F931F2091120130911301820FE8
:10198000931F7CE0E72E71E0F72E20E030E040E08E
:1019900050E0D7016D917D917D01672BD9F0FA015F
:1019A000EE0FFF1F61E070E06C0F7D1FE60FF71F69
:1019B000B901645E7E4FDB016D917C917187608718
:1019C000B9016C5E7E4FDB016D917C917183608308
:1019D0004F5F5F4F2E5F3F4F28303105D1F6833088
:1019E000910559F4AE014F5F5F4FBE01675F7F4FB6
:1019F000CE0141960E9420050CC0049799F4AE01D7
:101A00004F5F5F4FBE01675F7F4FCE0141960E94DF
:101A1000BD0A8CE0FE017196A6EAB1E001900D923C
:101A20008A95E1F76091AE017091AF018091B001AC
:101A30009091B1016D8F7E8F8F8F98A34090AA01F6
:101A40005090AB016090AC017090AD01C301B20148
:101A50000E9455246B017C016091A6017091A70141
:101A60006F5F7140882777FD8095982F0E94F3243F
:101A700069A37AA38BA39CA3C301B2010E946F2622
:101A80004B015C016FE771E08091A8019091A90181
:101A9000681B790B882777FD8095982F0E94F32487
:101AA0006DA37EA38FA398A729A13AA14BA15CA106
:101AB000C701B6010E940C2669A77AA78BA79CA72D
:101AC0002DA13EA14FA158A5C501B4010E940C262D
:101AD0009B01AC0169A57AA58BA59CA50E948A23D0
:101AE0009B01AC016D8D7E8D8F8D98A10E940C267F
:101AF00060938A0170938B0180938C0190938D0188
:101B000029A13AA14BA15CA1C501B4010E940C26F8
:101B10004B015C012DA13EA14FA158A5C701B60103
:101B20000E940C269B01AC01C501B4010E948B23CD
:101B30009B01AC016D8D7E8D8F8D98A10E940C262E
:101B400060938E0170938F01809390019093910127
:101B5000A301920160E070E0CB010E948A236B0137
:101B60007C012BED3FE049E450EC0E94512487FDBD
:101B700009C0C0929201D0929301E0929401F09238
:101B8000950110C02BED3FE049EC50E4C701B601D0
:101B90000E948B2360939201709393018093940130
:101BA000909395018CE0EAE8F1E0D80101900D9264
:101BB0008A95E1F7C801AC960FB6F894DEBF0FBE68
:101BC000CDBFDF91CF911F910F91FF90EF90DF90EC
:101BD000CF90BF90AF909F908F907F906F905F90CD
:101BE0004F9008954AE0682F81E00E942A181092D1
:101BF000C5011092C4011092C3011092C201089550
:101C00008091C4019091C50101969093C501809384
:101C1000C40108950F931F93CF93DF93CDB7DEB721
:101C20002A970FB6F894DEBF0FBECDBF8C0120916E
:101C3000C4013091C5018091C2019091C301281760
:101C4000390709F44DC001969093C3018093C201F6
:101C50006AE0CE0101960E948218498150E0FA01A3
:101C6000E05AF109E830F10568F5E15AFF4F0C94AC
:101C7000F426F8011182108222C081E090E0F80180
:101C8000918380832FC082E090E002C083E090E0E7
:101C9000F801918380838A8190E0938382838B8192
:101CA00090E0958384830BC084E090E005C085E0DC
:101CB00090E002C086E090E0F8019183808381E0AB
:101CC00090E010C087E090E0F801918380838CEA77
:101CD00091E00E940F1E898190E00E94381EEFCF94
:101CE00080E090E02A960FB6F894DEBF0FBECDBF1D
:101CF000DF91CF911F910F9108950E9423190E94A7
:101D00003C198823E1F32FEF89E698E121508040C8
:101D10009040E1F700C000000E943C19882389F040
:101D20006E9A76986A9A72982FEF89E698E1215018
:101D300080409040E1F700C000006E9A769A6A9A5F
:101D4000729A0895AF92BF92CF92DF92EF92FF9274
:101D50000F931F93CF93DF93CDB7DEB760970FB686
:101D6000F894DEBF0FBECDBFA982BA82CB82DC82DF
:101D7000ED82FE82EB80FC800D811E81E981FA817B
:101D8000E830F10508F048C0E959FF4F0C94F426FB
:101D900087EF93E043C08DED93E040C081EC93E08A
:101DA0000E940F1E82EB93E00E940F1EC7010E944B
:101DB000771E80EB93E00E940F1E80EA93E00E9462
:101DC0000F1EC8010E94771E8EE993E027C082E8AB
:101DD00093E00E940F1E83E793E00E940F1EC7014D
:101DE0000E94771E81E793E00E940F1E81E693E038
:101DF0000E940F1EC8010E94771E8FE593E00EC05F
:101E000084E493E00BC086E293E008C087E093E0AF
:101E100005C08AEE92E002C08CEC92E060960FB6AC
:101E2000F894DEBF0FBECDBFDF91CF911F910F9110
:101E3000FF90EF90DF90CF90BF90AF900C940F1E6B
:101E40000F931F93CF93DF938C018BEB92E00E9453
:101E50000F1EE80109E010E089EB92E00E940F1EDE
:101E6000899199910E94771E015011090115110560
:101E700099F7DF91CF911F910F910895EF92FF9203
:101E80000F931F93CF93DF930E94BC117C010E949C
:101E9000FB128C010E94F612EC0188EA92E00E948B
:101EA0000F1EB701882777FD8095982F0E94F32495
:101EB00020E030E048EC52E40E940C260E94C0244E
:101EC000CB010E94431E80EA92E00E940F1EB801DF
:101ED000882777FD8095982F0E94F32420E030E03A
:101EE00048EC52E40E940C260E94C024CB010E94C0
:101EF000431E87E992E00E940F1ECE01DF91CF9131
:101F00001F910F91FF90EF900C94431ECF92DF92A0
:101F1000EF92FF920F931F93CF93DF93CDB7DEB76E
:101F2000CE010B967C016E0193E2C90ED11C00E03C
:101F300010E087E892E00E940F1EC8010E94431E35
:101F400084E892E00E940F1EF701808191810E9437
:101F5000431E81E892E00E940F1EC8010E94431EAA
:101F60008EE792E00E940F1EF701828193810E940A
:101F7000431E8BE792E00E940F1EC8010E94431E81
:101F800088E792E00E940F1EF601819191916F0106
:101F90000E94431E0F5F1F4FF6E0EF0EF11C04304E
:101FA000110539F6DF91CF911F910F91FF90EF90BE
:101FB000DF90CF900895EF92FF920F931F93CF93EE
:101FC000DF93CDB7DEB72C970FB6F894DEBF0FBE08
:101FD000CDBFE982FA820B831C832D833E834F831E
:101FE000588769877A878B879C8785E692E00E946D
:101FF0000F1E89819A810E94431E8FE592E00E9404
:102000000F1E8B819C810E94431E89E592E00E94F5
:102010000F1E20E030E048EC52E46D817E818F811C
:1020200098850E940C260E94C024CB010E94431E6A
:1020300080E592E00E940F1E20E030E048EC52E480
:1020400069857A858B859C850E940C260E94C02418
:10205000CB012C960FB6F894DEBF0FBECDBFDF913B
:10206000CF911F910F91FF90EF900C94431EEF9230
:10207000FF920F931F93CF93DF93CDB7DEB72C97CB
:102080000FB6F894DEBF0FBECDBFE982FA820B8394
:102090001C832D833E834F83588769877A878B877C
:1020A0009C878EE392E00E940F1E69817A818B816A
:1020B0009C810E94C024CB010E94431E86E392E0D3
:1020C0000E940F1E6D817E818F8198850E94C024A1
:1020D000CB010E94431E8BE292E00E940F1E20E083
:1020E00030E048EC52E469857A858B859C850E94B6
:1020F0000C260E94C024CB012C960FB6F894DEBFAC
:102100000FBECDBFDF91CF911F910F91FF90EF9048
:102110000C94431E8F929F92AF92BF92CF92DF9208
:10212000EF92FF924B015C0169017A018FE092E02E
:102130000E940F1E20E030E048EC52E4C501B401DB
:102140000E940C260E94C024CB010E94431E86E000
:1021500092E00E940F1E20E030E048EC52E4C701FC
:10216000B6010E940C260E94C024CB01FF90EF9084
:10217000DF90CF90BF90AF909F908F900C94431EB4
:10218000EF92FF920F931F93CF93DF93EC017B01AC
:102190008A0181EF91E00E940F1ECE010E94431E32
:1021A00087EE91E00E940F1EC7010E94431E86ED3C
:1021B00091E00E940F1E012B19F081ED91E002C009
:1021C0008DEC91E0DF91CF911F910F91FF90EF90F7
:1021D0000C940F1E0C94461F8F929F92AF92BF9249
:1021E000CF92DF92EF92FF920F931F93CF93DF93E3
:1021F000CDB7DEB768970FB6F894DEBF0FBECDBF80
:10220000CE0101960E942B20811110C01092DF0197
:102210001092DE011092E1011092E0011092E301B0
:102220001092E2011092E5011092E401FE01319654
:102230008EED91E0B6EC8B2EB1E09B2E8E01075E09
:102240001F4FEE24E394F12C608171814281538110
:10225000C480D5809B01220F331FAA24A394B12CE4
:10226000AC0EBD1E2A0D3B1DD9012D913C912F3F77
:10227000334079F49A01220F331F2A0D3B1DD901F7
:102280002D913C912F3F334021F4DC011D921C9293
:102290000FC0DC01ED92FC92D40111967C936E93F9
:1022A00013965C934E9312971596DC92CE921497E8
:1022B00036960296B6E08B0E911CE017F10721F6D8
:1022C0008DB79EB780970FB6F8949EBF0FBE8DBF97
:1022D000ADB7BEB7119680E2E6ECF1E001900D9249
:1022E0008A95E1F70E949E040FB6F894DEBF0FBEF8
:1022F000CDBF68960FB6F894DEBF0FBECDBFDF919D
:10230000CF911F910F91FF90EF90DF90CF90BF90F2
:10231000AF909F908F9008958091580190915901AE
:102320000E943303809158019091590101968930A0
:1023300091052CF4909359018093580108951092BF
:102340005901109258010895FC01EE0FFF1FE65A43
:10235000FE4F80E094E0861B970B91838083089565
:1023600081E090E020915A0130915B01253F31409E
:1023700014F480E090E008952F923F924F925F9284
:102380006F927F928F929F92AF92BF92CF92DF9285
:10239000EF92FF920F931F93CF93DF9300D000D063
:1023A000CDB7DEB780915C0190915D01873B934092
:1023B0000CF002C1ECE5F1E000E010E020E034E0D8
:1023C00081E090E0419151914217530714F0A90127
:1023D00001C08C0101968930910579F41801220C15
:1023E000331CC101865A9E4F1C011C821B82C12CCA
:1023F000D12C76014601570102C09A01E3CF8B81AF
:102400009C8101969A8389838B819C81800F911F87
:1024100009970CF046C0EB81FC81EE0FFF1FE20D27
:10242000F31D60817181882777FD8095982F0E9428
:10243000F32420E030E040E85AE30E940C262B0110
:102440003C019B01AC01C701B6010E948B236B01CB
:102450007C01EB81FC81BF01882777FD8095982F57
:102460000E94F32420E030E044E352E40E940C2672
:1024700020E030E044E353E40E948A239B01AC0156
:10248000C301B2010E940C269B01AC01C501B4013D
:102490000E948B234B015C0129813A813C832B8371
:1024A000AECFECE5F1E0FA83E98322242394312CCA
:1024B0002B813C81215031093C832B83201631062E
:1024C0000CF044C0E981FA8161917191FA83E9834A
:1024D000882777FD8095982F0E94F32420E030E034
:1024E00040E85AE30E940C262B013C019B01AC0101
:1024F000C701B6010E948B236B017C016B817C813B
:10250000620D731D882777FD8095982F0E94F32414
:1025100020E030E044E352E40E940C2620E030E06A
:1025200044E353E40E948A239B01AC01C301B2013E
:102530000E940C269B01AC01C501B4010E948B23B3
:102540004B015C01FFEF2F1A3F0AB8CF662463945A
:10255000712C2DEC3CEC4CEC5DE3C701B6010E9404
:102560000126181614F0612C712C7092570160929C
:102570005601A7019601C501B4010E94582420E02C
:1025800030E044E353E40E948B236B017C01015053
:1025900011098DE2809FB001819F700D1124882761
:1025A00077FD8095982F0E94F3249B01AC01C70111
:1025B000B6010E948B2303C060E070E0CB010F9056
:1025C0000F900F900F90DF91CF911F910F91FF907F
:1025D000EF90DF90CF90BF90AF909F908F907F90C3
:1025E0006F905F904F903F902F900895809156018B
:1025F000909157010895ECE5F1E060E070E0819181
:102600009191681779070CF4BC0181E0EC36F8076A
:10261000B1F7882777FD8095982F0E94F32420E05A
:1026200030E040E85AE30E940C269B01AC0160E0D8
:1026300070E080E89FE30E948A23089508954F92F6
:102640005F926F927F92AF92BF92CF92DF92EF92A2
:10265000FF920F931F93CF93DF93CDB7DEB72897E9
:102660000FB6F894DEBF0FBECDBF69837A838B832C
:102670009C8329013A01ED82FE820F831887B601FF
:10268000882777FD8095982F0E94F32429813A812D
:102690004B815C810E948A236B017C01B5018827F4
:1026A00077FD8095982F0E94F324A30192010E9448
:1026B0008A23A70196010E94FE239B01AC016BEDCA
:1026C0007FE089EC9FE30E948A232D813E814F8128
:1026D00058850E948A232B013C012BED3FE049E401
:1026E00050EC0E94512487FF0AC02BED3FE049ECDB
:1026F00050E4C301B2010E948B232B013C012BED5E
:102700003FE049E450E4C301B2010E9401261816DB
:1027100054F42BED3FE049EC50E4C301B2010E94B8
:102720008A232B013C01C301B20128960FB6F8940D
:10273000DEBF0FBECDBFDF91CF911F910F91FF90F4
:10274000EF90DF90CF90BF90AF907F906F905F90B1
:102750004F9008954F925F926F927F928F929F92C7
:10276000AF92BF92CF92DF92EF92FF92CF93DF931F
:10277000CDB7DEB72C970FB6F894DEBF0FBECDBF36
:102780004B015C0129013A019B01AC0160E070E062
:1027900080E89FE30E948A236B017C012BED3FE0E0
:1027A00049E450E4C301B2010E9458242B013C01CA
:1027B00020E030E0A9010E94012618169CF4A30134
:1027C000920160E070E080E89FE30E948A236987BD
:1027D0007A878B879C87412C512C80E8682E8FE369
:1027E000782E12C020E030E040E85FE3C301B20180
:1027F0000E948B232B013C0180E090E0A0E8BFE326
:1028000089879A87AB87BC87A7019601C501B40168
:102810000E948A234B015C01A30192010E940C26B5
:102820009B01AC01C701B6010E948B23762EAB0140
:10283000BC0149835A836B837C8329853A854B8508
:102840005C85C501B4010E940C269B01AC01C70147
:10285000B6010E948B23E62F462F572FBC014D83D4
:102860005E836F837887272D3A814B815C816E2F41
:102870007E818F8198852C960FB6F894DEBF0FBEAF
:10288000CDBFDF91CF91FF90EF90DF90CF90BF90C1
:10289000AF909F908F907F906F905F904F90089532
:1028A000AF92BF92CF92DF92EF92FF920F931F935E
:1028B000CF93DF93CDB7DEB728970FB6F894DEBF7E
:1028C0000FBECDBF21E030E0281B390B86EE829F82
:1028D0006001839FD00C112483E7C81AD108E090CF
:1028E000EE01F090EF010091F0011091F1012091C3
:1028F000EA013091EB014091EC015091ED016091C2
:10290000E6017091E7018091E8019091E901A12C25
:10291000B12C0E941F139B01AC0100912401109166
:1029200025016DEC7CEC8CE49FE30E94AA132983C3
:102930003A834B835C836D837E838F8398872D815D
:102940003E814F81588569817A818B819C8128964F
:102950000FB6F894DEBF0FBECDBFDF91CF911F91B0
:102960000F91FF90EF90DF90CF90BF90AF900C94BD
:102970003F040F931F93CF93DF93CDB7DEB7289714
:102980000FB6F894DEBF0FBECDBF009124011091A9
:102990002501209172013091730140917401509191
:1029A00075016DEC7CEC8CE49FE30E94AA132983F3
:1029B0003A834B835C836D837E838F8398872D81DD
:1029C0003E814F81588569817A818B819C812896CF
:1029D0000FB6F894DEBF0FBECDBFDF91CF911F9130
:1029E0000F910C943F04AF92BF92CF92DF92EF927F
:1029F000FF920F931F93CF93DF93CDB7DEB7289746
:102A00000FB6F894DEBF0FBECDBF26EEAC01249FFB
:102A1000C001259F900D11246C0153E7C51AD10800
:102A2000E090EE01F090EF010091F0011091F101C2
:102A30002091EA013091EB014091EC015091ED01C0
:102A40006091E6017091E7018091E8019091E901C0
:102A5000A12CB12C0E941F139B01AC0100912401F9
:102A6000109125016DEC7CEC8CE49FE30E94AA138D
:102A700029833A834B835C836D837E838F8398871E
:102A80002D813E814F81588569817A818B819C811E
:102A900028960FB6F894DEBF0FBECDBFDF91CF9161
:102AA0001F910F91FF90EF90DF90CF90BF90AF906C
:102AB0000C943F04EF92FF920F931F93CF93DF93F9
:102AC000CDB7DEB72C970FB6F894DEBF0FBECDBFE3
:102AD0007C018B010E94EC10CE0101960E94920CA9
:102AE0008CE0FE013196A6EEB1E001900D928A9540
:102AF000E1F70E948C110E94BC11BC01882777FD70
:102B00008095982F0E94F324609372017093730153
:102B10008093740190937501EF28C1F58091240191
:102B200090912501892B79F0C8012C960FB6F89465
:102B3000DEBF0FBECDBFDF91CF911F910F91FF90F0
:102B4000EF900C94501480916C0190916D01892B41
:102B500071F02C960FB6F894DEBF0FBECDBFDF919B
:102B6000CF911F910F91FF90EF900C94B914C80171
:102B70002C960FB6F894DEBF0FBECDBFDF91CF917C
:102B80001F910F91FF90EF900C94F3142C960FB6B9
:102B9000F894DEBF0FBECDBFDF91CF911F910F9193
:102BA000FF90EF9008958091760190917701A09128
:102BB0007801B09179010196A11DB11D8093760134
:102BC00090937701A0937801B09379010895E1E99A
:102BD000F0E080818F7E8083808188608083A0E99F
:102BE000B0E08C918D7F8C938C918E7F8C938C91A7
:102BF0008F778C938C918F7B8C93A1E7B0E08C9135
:102C000082608C93C19A80E89EE3909399008093B0
:102C1000980080818B7F808380818D7F80838081FD
:102C20008160808308956091760170917701809131
:102C30007801909179010895589A599A5A9A8CE09E
:102C40008093B800E9E6F0E0808180628083808133
:102C50008F7E8083EA9A7894089584E88093BC00FC
:102C60008091BC0087FFFCCF8091BB00089584E970
:102C70008093BC00089520E030E08091BC0087FD87
:102C800006C02F5F3F4F293E83E03807B1F781E050
:102C9000283E334009F480E008958093BB0084E827
:102CA0008093BC000E943B16882321F08091B900DC
:102CB000887F089580E008951F93CF93DF931F923C
:102CC000CDB7DEB7182F84EA8093BC0069830E94D9
:102CD0003B166981811104C094E99093BC0014C033
:102CE000812F880F662331F08F5F0E944D16883444
:102CF00051F404C00E944D16803229F484E9809377
:102D0000BC0080E001C081E00F90DF91CF911F9166
:102D10000895CF93DF93C82FD62F60E00E945C16F2
:102D2000882391F08D2F0E944D16882369F084E945
:102D30008093BC0061E08C2F0E945C16882321F0F8
:102D4000DF91CF910C942D1680E0DF91CF91089503
:102D5000CF93DF93D62FC42F60E00E945C168111C1
:102D600002C080E00EC08D2F0E944D168823C9F34B
:102D70008C2F0E944D168823A1F384E98093BC0018
:102D800081E0DF91CF910895CF93DF93D82FC62FA5
:102D9000843010F080E05BC06430E0F70E941C16C5
:102DA0002FEF85EA9EE0215080409040E1F700C07F
:102DB000000065E789E60E948916883659F741E0E8
:102DC0006BE689E60E94A8164D2F440F440F440F6E
:102DD0006CE189E60E94A8164C2F440F440F440F63
:102DE0006BE189E60E94A81642E067E389E60E944B
:102DF000A81640E062E08EE10E94A81640E067E37A
:102E000089E60E94A8164EE164E389E60E94A816AE
:102E100041E067E689E60E94A8164DE164E289E692
:102E20000E94A8164EE965E289E60E94A81643E0D2
:102E300066E289E60E94A81646E967E289E60E94F2
:102E4000A81640E26AE689E60E94A81681E0DF91B2
:102E5000CF910895EF92FF920F931F93CF93DF933B
:102E6000CDB7DEB765970FB6F894DEBF0FBECDBF06
:102E70008C01CE0101967C019EE4692F89E69D8B31
:102E80000E948916F70181937F019D8991509A33A1
:102E9000A1F78F859889F801958384838F81988520
:102EA0009387828789819A81918B808B89899A897E
:102EB0009383828389859A85918780878B819C8182
:102EC000978786878B899C89918380838B859C8556
:102ED000978386838D819E819587848781E065961F
:102EE0000FB6F894DEBF0FBECDBFDF91CF911F911B
:102EF0000F91FF90EF900895EF92FF920F931F9321
:102F0000CF93DF93CDB7DEB727970FB6F894DEBF28
:102F10000FBECDBF8C01CE0101967C0190E4692FDC
:102F200089E69F830E948916F70181937F019F8123
:102F300091509A33A1F789819A81F801958384830E
:102F40008B819C81938382838D819E8191838083F9
:102F500081E027960FB6F894DEBF0FBECDBFDF919C
:102F6000CF911F910F91FF90EF900895EF92FF92F4
:102F70000F931F93CF93DF93CDB7DEB727970FB68D
:102F8000F894DEBF0FBECDBF8C01CE0101967C014F
:102F900098E4692F89E69F830E948916F70181933F
:102FA0007F019F8191509234A1F789819A81F80124
:102FB000958384838B819C81938382838D819E8181
:102FC0009183808381E027960FB6F894DEBF0FBE11
:102FD000CDBFDF91CF911F910F91FF90EF9008959A
:102FE000EF92FF920F931F93CF93DF93CDB7DEB78E
:102FF00027970FB6F894DEBF0FBECDBF8C01CE0170
:1030000001967C019EE4692F89E69F830E948916C0
:10301000F70181937F019F8191509834A1F78981B5
:103020009A81F801958384838B819C819383828329
:103030008D819E819183808381E027960FB6F894DD
:10304000DEBF0FBECDBFDF91CF911F910F91FF90DB
:10305000EF900895CF93DF9300D01F92CDB7DEB7E6
:103060004B836A8389830E941C1694EA9093BC0068
:1030700089816A814B819091BC0097FFFCCF90E5DC
:103080009093BB0094E89093BC009091BC0097FF94
:10309000FCCF9091B900987F903229F484E9809315
:1030A000BC0080E029C091E09093BB0094E890932D
:1030B000BC009091BC0097FFFCCF8093BB0084E8DC
:1030C0008093BC008091BC0087FFFCCF6093BB0065
:1030D00084E88093BC008091BC0087FFFCCF4093C4
:1030E000BB0084E88093BC008091BC0087FFFCCFCC
:1030F00084E98093BC0081E00F900F900F90DF91E6
:10310000CF91089524EA2093BC002091BC0027FFB2
:10311000FCCF21E52093BB0024E82093BC00209144
:10312000BC0027FFFCCF2091B900287F2834A9F0EC
:1031300024EC2093BC002091BC0027FFFCCF209101
:10314000BB0026130AC0FC0120E030E0772767FDB2
:1031500070956150710944EC0EC084E98093BC0005
:1031600080E008955091BC0057FFFCCF5091BB0008
:1031700051932F5F3F4F261737071CF44093BC0035
:10318000F1CF44E84093BC004091BC0047FFFCCF26
:103190004091BB00FC01E20FF31F408384E9809360
:1031A000BC0081E00895F89494EA9093BC0090915B
:1031B000BC0097FFFCCF90E59093BB0094E8909300
:1031C000BC009091BC0097FFFCCF9091B900987F14
:1031D000903231F484E98093BC00789480E00895C3
:1031E00093E09093BB0094E89093BC009091BC0056
:1031F00097FFFCCF8093BB0084E88093BC00809154
:10320000BC0087FFFCCFFB01552747FD509524E804
:10321000CF01861B970B8417950754F481918093F7
:10322000BB002093BC008091BC0087FFFCCFF0CF97
:1032300084E98093BC00789481E008958091E8004F
:1032400080FFFCCF089581E08093D70080EA8093CF
:10325000D80082E189BD09B400FEFDCF80E98093EA
:10326000D8001092E00010927D0110927A018CE05B
:103270008093E2007894089580917D0108959FB72E
:10328000F89480917D01882339F083E08093E900F0
:103290008091E80085FD03C09FBF8FEF0895809166
:1032A000F1002091E80025FD03C02BE62093E80003
:1032B0009FBF08959FB7F89480917D01882331F0D6
:1032C00083E08093E9008091F20001C080E09FBF1D
:1032D000089580917D01882371F08FB7F89493E071
:1032E0009093E9002BE69091E80095FF03C02093AE
:1032F000E800F9CF8FBF089590917D01992371F077
:103300009FB7F89424E02093E90020917B012223C9
:1033100049F02091E80025FD03C09FBF8FEF08957D
:1033200010927B012091E400275E34E04091E80098
:1033300045FD12C09FBF9091E400921304C081E04C
:1033400080937B01EBCF90917D01992339F39FB757
:10335000F8943093E900EACF8093F1008091E8007F
:1033600085FD03C08AE38093E80085E080937C01BB
:103370009FBF80E0089590917D019923D1F09FB780
:10338000F89424E02093E9002091E80025FD02C094
:103390009FBF0FC08093F1008091E80085FD03C0BE
:1033A0008AE38093E80085E080937C019FBF80E002
:1033B00008958FEF0895EF92FF921F93CF93DF93BD
:1033C0007C01CB0120917D01222371F0AFB7F894ED
:1033D00024E02093E90020917B01222349F02091F1
:1033E000E80025FD03C0AFBF8FEF42C210927B0102
:1033F000B4E0C0E4DAE315E0009709F437C22091A5
:10340000E400275E3091E80035FD12C0AFBF309177
:10341000E400321304C081E080937B01E5CF30915A
:103420007D01332309F3AFB7F894B093E900EACFF5
:103430002091F2004C2F421B242F30E0821793077B
:1034400008F4482F841B910950E04134510508F0DD
:10345000FDC141595F4FFA010C94F426F701208118
:103460002093F10097012F5F3F4F7901F7012081F1
:103470002093F10097012F5F3F4F7901F7012081E1
:103480002093F10097012F5F3F4F7901F7012081D1
:103490002093F10097012F5F3F4F7901F7012081C1
:1034A0002093F10097012F5F3F4F7901F7012081B1
:1034B0002093F10097012F5F3F4F7901F7012081A1
:1034C0002093F10097012F5F3F4F7901F701208191
:1034D0002093F10097012F5F3F4F7901F701208181
:1034E0002093F10097012F5F3F4F7901F701208171
:1034F0002093F10097012F5F3F4F7901F701208161
:103500002093F10097012F5F3F4F7901F701208150
:103510002093F10097012F5F3F4F7901F701208140
:103520002093F10097012F5F3F4F7901F701208130
:103530002093F10097012F5F3F4F7901F701208120
:103540002093F10097012F5F3F4F7901F701208110
:103550002093F10097012F5F3F4F7901F701208100
:103560002093F10097012F5F3F4F7901F7012081F0
:103570002093F10097012F5F3F4F7901F7012081E0
:103580002093F10097012F5F3F4F7901F7012081D0
:103590002093F10097012F5F3F4F7901F7012081C0
:1035A0002093F10097012F5F3F4F7901F7012081B0
:1035B0002093F10097012F5F3F4F7901F7012081A0
:1035C0002093F10097012F5F3F4F7901F701208190
:1035D0002093F10097012F5F3F4F7901F701208180
:1035E0002093F10097012F5F3F4F7901F701208170
:1035F0002093F10097012F5F3F4F7901F701208160
:103600002093F10097012F5F3F4F7901F70120814F
:103610002093F10097012F5F3F4F7901F70120813F
:103620002093F10097012F5F3F4F7901F70120812F
:103630002093F10097012F5F3F4F7901F70120811F
:103640002093F10097012F5F3F4F7901F70120810F
:103650002093F10097012F5F3F4F7901F7012081FF
:103660002093F10097012F5F3F4F7901F7012081EF
:103670002093F10097012F5F3F4F7901F7012081DF
:103680002093F10097012F5F3F4F7901F7012081CF
:103690002093F10097012F5F3F4F7901F7012081BF
:1036A0002093F10097012F5F3F4F7901F7012081AF
:1036B0002093F10097012F5F3F4F7901F70120819F
:1036C0002093F10097012F5F3F4F7901F70120818F
:1036D0002093F10097012F5F3F4F7901F70120817F
:1036E0002093F10097012F5F3F4F7901F70120816F
:1036F0002093F10097012F5F3F4F7901F70120815F
:103700002093F10097012F5F3F4F7901F70120814E
:103710002093F10097012F5F3F4F7901F70120813E
:103720002093F10097012F5F3F4F7901F70120812E
:103730002093F10097012F5F3F4F7901F70120811E
:103740002093F10097012F5F3F4F7901F70120810E
:103750002093F10097012F5F3F4F7901F7012081FE
:103760002093F10097012F5F3F4F7901F7012081EE
:103770002093F10097012F5F3F4F7901F7012081DE
:103780002093F10097012F5F3F4F7901F7012081CE
:103790002093F10097012F5F3F4F7901F7012081BE
:1037A0002093F10097012F5F3F4F7901F7012081AE
:1037B0002093F10097012F5F3F4F7901F70120819E
:1037C0002093F10097012F5F3F4F7901F70120818E
:1037D0002093F10097012F5F3F4F7901F70120817E
:1037E0002093F10097012F5F3F4F7901F70120816E
:1037F0002093F10097012F5F3F4F7901F70120815E
:103800002093F10097012F5F3F4F7901F70120814D
:103810002093F10097012F5F3F4F7901F70120813D
:103820002093F10097012F5F3F4F7901F70120812D
:103830002093F10097012F5F3F4F7901F70120811D
:103840002093F10097012F5F3F4F7901F70120810D
:103850002093F10097012F5F3F4F79012091E800FD
:1038600025FFD093E80010937C01C6CDAFBF80E068
:10387000DF91CF911F91FF90EF9008958FB7F8944B
:1038800090917C01992341F094E09093E9009AE3B0
:103890009093E80010927C018FBF089580912A01D7
:1038A000089580912B01089580912C0108958091B5
:1038B0007A0108959FB7F89420917D01222339F071
:1038C00022E02093E9003091E80035FD03C09FBF5E
:1038D0008FEF089531EA3093F10030E23093F10038
:1038E0001092F1001092F1001092F1001092F1008C
:1038F0002093F1001092F1008093F1001092F100FA
:103900008AE38093E8009FBF80E008951F920F92A2
:103910000FB60F9211248F939F938091E100109224
:10392000E10083FF11C01092E90091E09093EB0059
:103930001092EC0092E19093ED0098E09093F000EB
:1039400010927D0110927A0182FF13C080917D0157
:10395000882379F080917C01882359F081508093ED
:103960007C01811106C084E08093E9008AE38093A2
:10397000E8009F918F910F900FBE0F901F901895A8
:103980001F920F920FB60F921124EF92FF920F9396
:103990001F932F933F934F935F936F937F938F93D7
:1039A0009F93AF93BF93EF93FF93CF93DF931F92B8
:1039B000CDB7DEB71092E9008091E80083FF14C113
:1039C0009091F1008091F1003091F1002091F1008F
:1039D000E32EF12CF22A0091F1002091F10010E089
:1039E000122B2091F1006091F10032EF3093E8004A
:1039F000863009F046C036E086E194E0FC0145914E
:103A000054914E155F0539F4FC013296459154915D
:103A10004017510721F00796315081F7E5C0FC01AE
:103A2000349645915491FC013696849130E0362BC2
:103A30002F3F310519F010F02FEF30E0281708F470
:103A4000822F3EEF9091E800292F2570D9F392FD47
:103A5000CEC0982F813108F090E1FA01292F22235E
:103A600031F064916093F10021503196F8CF490F05
:103A7000511D891B3093E8008111E4CF903111F37F
:103A8000B6C0853051F48EEF8093E8000E941E1975
:103A90008E2D80688093E300AAC0893059F591117A
:103AA00080C0E0927D0110927A0110927C018EEF2D
:103AB0008093E80041E08FEB94E04093E9009C01A3
:103AC0002F5F3F4FFC0154915093EB00552359F069
:103AD000F90124912093EC009C012D5F3F4F31961A
:103AE00084918093ED004F5F453011F0C901E5CF1F
:103AF0008EE175C0883051F4903809F052C00E94B0
:103B00001E1980917D018093F10047C0813279F4C4
:103B1000913A09F046C00E941E19E6E2F1E0819157
:103B20008093F10081E0ED32F807C9F736C08032AA
:103B300099F49132B1F58091E80082FFFCCFE6E282
:103B4000F1E08091F100819381E0ED32F807C9F74F
:103B50008BEF8093E80021C0823241F4913209F06A
:103B600043C0E0927A010E941E1917C0811119C04A
:103B700099830E941E199981923851F40093E900AB
:103B80008091EB0085FB882780F91092E90001C045
:103B900080E08093F1001092F1008EEF8093E800B6
:103BA00026C0282F2D7F2130F9F49230E9F4EF2838
:103BB000D9F40F779FEF900F9430B0F49EEF90936D
:103BC000E8000093E900833079F089E18093EB000D
:103BD00081E090E0002E01C0880F0A94EAF78093FC
:103BE000EA001092EA0003C081E28093EB000F909C
:103BF000DF91CF91FF91EF91BF91AF919F918F9105
:103C00007F916F915F914F913F912F911F910F91F4
:103C1000FF90EF900F900FBE0F901F9018951F937D
:103C2000CF93DF93EC01FE011491112351F01A3070
:103C300019F48DE00E947C19812F0E947C19219635
:103C4000F2CFDF91CF911F9108958A3010F490E365
:103C500001C097E3890F0C947C19CF93C82F8295EC
:103C60008F700E94251E8C2F8F70CF910C94251E73
:103C7000CF93C82F892F0E942D1E8C2FCF910C948B
:103C80002D1E0C942D1EEF92FF920F931F93CF9336
:103C9000DF93CDB7DEB727970FB6F894DEBF0FBE20
:103CA000CDBF8E010F5F1F4F27E0F80111922A95BB
:103CB000E9F74AE0B8010E940E277E01F8E0EF0E16
:103CC000F11CF80181918F0181110E947C190E1560
:103CD0001F05B9F727960FB6F894DEBF0FBECDBF0C
:103CE000DF91CF911F910F91FF90EF900895EF9288
:103CF000FF920F931F93CF93DF9300D000D000D09B
:103D0000CDB7DEB78E010F5F1F4F26E0F80111928D
:103D10002A95E9F74AE0B8010E944A277E01F6E0B9
:103D2000EF0EF11CF80181918F0181110E947C1925
:103D30000E151F05B9F726960FB6F894DEBF0FBE15
:103D4000CDBFDF91CF911F910F91FF90EF9008951C
:103D5000EF92FF920F931F93CF93DF93CDB7DEB710
:103D60002B970FB6F894DEBF0FBECDBF8E010F5F4D
:103D70001F4F2BE0F80111922A95E9F72AE0A801DC
:103D80000E9419277E01FCE0EF0EF11CF8018191E1
:103D90008F0181110E947C190E151F05B9F72B9612
:103DA0000FB6F894DEBF0FBECDBFDF91CF911F914C
:103DB0000F91FF90EF900895EF92FF920F931F9352
:103DC000CF93DF93CDB7DEB72B970FB6F894DEBF56
:103DD0000FBECDBF8E010F5F1F4F2BE0F801119278
:103DE0002A95E9F72AE0A8010E9428277E01FBE036
:103DF000EF0EF11CF80181918F0181110E947C1955
:103E00000E151F05B9F72B960FB6F894DEBF0FBE3F
:103E1000CDBFDF91CF911F910F91FF90EF9008954B
:103E200020E030E08091BC0087FD06C02F5F3F4F4F
:103E3000293E83E03807B1F781E0283E334009F49A
:103E400080E008958093BB0084E88093BC000E94CA
:103E5000101F882319F08091B900887F0895CF93AF
:103E6000C82F84EA8093BC000E94101F882361F051
:103E70008C2F880F0E94221F803229F484E98093BE
:103E8000BC0080E001C081E0CF9108950E941C1623
:103E900088E50E942F1F811102C080E0089580E311
:103EA0000E94221F8823C9F381E00E94221F8823D9
:103EB000A1F384E98093BC008FE39CE90197F1F7BB
:103EC00000C0000088E50E942F1F882331F380E0A6
:103ED0000E94221F882309F380E00E94221F88236A
:103EE000E1F280E00E94221F8823B9F280E00E9464
:103EF000221F882391F280E00E94221F882369F20A
:103F000080E00E94221F882341F280E00E94221F4D
:103F1000882319F280E90E94221F882309F4BDCF6B
:103F200084E98093BC008FE39CE90197F1F700C01E
:103F3000000088E50E942F1F882309F4AECF87E098
:103F40000E94221F882309F4A8CF80E00E94221F2C
:103F5000882309F4A2CF81E40E94221F882309F458
:103F60009CCF84E98093BC008FE39CE90197F1F733
:103F700000C0000088E50E942F1F882309F48DCF20
:103F80008AE10E94221F882309F487CF80E40E94DF
:103F9000221F882309F481CF80E00E94221F8823FA
:103FA00009F47BCF84E98093BC008FE39CE90197FF
:103FB000F1F700C0000088E50E942F1F882309F454
:103FC0006CCF83E30E94221F882309F466CF83E02D
:103FD0000E94221F882309F460CF84E98093BC00EB
:103FE0008FE39CE90197F1F700C0000088E50E948B
:103FF0002F1F882309F451CF80E30E94221F8823BA
:1040000009F44BCF88E00E94221F882309F445CF92
:1040100084E98093BC008FE39CE90197F1F700C02D
:10402000000081E00895CF93C82F84EA8093BC00FC
:104030000E94101F882369F08C2F880F8F5F0E94C9
:10404000221F883429F484E98093BC0080E001C0F9
:1040500081E0CF910895EF92FF920F931F93CF933A
:10406000DF93CDB7DEB760970FB6F894DEBF0FBE13
:10407000CDBF7C018E010F5F1F4F80E1F8011192CF
:104080008A95E9F788E50E942F1F811102C080E020
:104090005EC086E30E94221F8823C9F384E98093CF
:1040A000BC00F5E8FA95F1F7000088E50E941320BE
:1040B000882369F3F8019E01205F3F4F94EC9093B1
:1040C000BC008091BC0087FFFCCF8091BB00819336
:1040D000E217F307A1F784E88093BC008091BC004D
:1040E00087FFFCCF8091BB00888B84E98093BC0064
:1040F000DE01149687016C91762F7073AD014250EA
:104100005109FA01808190E0F0E17F9F800D911DBF
:104110001124F80191838083762F707C4F5F5F4F6D
:10412000FA01808190E0F4E07F9F800D911D1124C1
:10413000F801938382836F70862F90E09583848348
:1041400013960A5F1F4FA217B307A9F681E0609686
:104150000FB6F894DEBF0FBECDBFDF91CF911F9198
:104160000F91FF90EF90089584E98093BC0008952B
:104170001F920F920FB60F9211242F933F934F93DC
:104180005F936F937F938F939F93AF93BF93EF93BF
:10419000FF930E947403FF91EF91BF91AF919F91A4
:1041A0008F917F916F915F914F913F912F910F90E0
:1041B0000FBE0F901F9018951F920F920FB60F927F
:1041C00011242F933F934F935F936F937F938F931C
:1041D0009F93AF93BF93EF93FF930E947D03FF9153
:1041E000EF91BF91AF919F918F917F916F915F916F
:1041F0004F913F912F910F900FBE0F901F901895E8
:104200001F920F920FB60F9211242F933F934F934B
:104210005F936F937F938F939F93AF93BF93EF932E
:10422000FF930E94000EFF91EF91BF91AF919F917C
:104230008F917F916F915F914F913F912F910F904F
:104240000FBE0F901F9018951F920F920FB60F92EE
:1042500011242F933F934F935F936F937F938F938B
:104260009F93AF93BF93EF93FF930E94D315FF915A
:10427000EF91BF91AF919F918F917F916F915F91DE
:104280004F913F912F910F900FBE0F901F90189557
:104290001F920F920FB60F9211242F933F934F93BB
:1042A0005F936F937F938F939F93AF93BF93EF939E
:1042B000FF930E945C03FF91EF91BF91AF919F919B
:1042C0008F917F916F915F914F913F912F910F90BF
:1042D0000FBE0F901F90189580E885BF85BFE1E65F
:1042E000F0E0808310820E941C162FEF83EC99E08F
:1042F000215080409040E1F700C000000E947D0EF8
:1043000080912D0190912E010E94F20D0E94E715DF
:104310000E9484020E94EA100E946B040E943904E9
:1043200053985B9A229A239A2A982B987894089506
:104330008F929F92AF92BF92CF92DF92EF92FF92B5
:1043400080917E0190917F012AE1289FB001299FF1
:10435000700D781B11246D587F4F882777FD80954D
:10436000982F0E94F3242091F2013091F3014091A3
:10437000F4015091F5010E948A236B017C01209188
:10438000F6013091F7014091F8015091F90160E098
:1043900070E0CB010E948A23A70196010E94FE23B0
:1043A0009B01AC016BED7FE089EC9FE30E948A23C7
:1043B0006B017C0120E030E0A9010E94512487FFBD
:1043C0000AC02BED3FE049EC50E4C701B6010E9462
:1043D0008B236B017C012091FA013091FB0140910C
:1043E000FC015091FD01C701B6010E948A236B01B7
:1043F0007C019F772AE037ED43EA5DE30E94512478
:1044000087FF07C02DEC3CEC4CE45FE3CA01B90127
:1044100031C020E030E044E353E4C701B6010E941C
:10442000012618161CF46FEF7FEF02C061E070E008
:10443000882777FD8095982F0E94F3242DEC3CEC83
:104440004CEC5DE30E940C266B017C019B01AC01EE
:1044500060E070E080E09FE30E948A234B015C01F2
:1044600020E030E040E05FE3C701B6010E948B230B
:10447000A5019401FF90EF90DF90CF90BF90AF9097
:104480009F908F900C943F04CF92DF92EF92FF9217
:104490000F931F93CF93DF93CDB7DEB72C970FB653
:1044A000F894DEBF0FBECDBF0E94EC10CE01019686
:1044B0000E94920C8CE0FE013196A2EFB1E00190D7
:1044C0000D928A95E1F74B9906C081E090E09093B8
:1044D000810180938001C090F201D090F301E090BF
:1044E000F401F090F50101E010E020E030E0A901D6
:1044F000C701B6010E940126181614F000E010E072
:1045000010937F0100937E0120E030E044EB52ECF9
:10451000C701B6010E94512487FD0AC020E030E0A7
:1045200044EB52E4C701B6010E940126181634F488
:1045300081E090E090938301809382012C960FB6E6
:10454000F894DEBF0FBECDBFDF91CF911F910F91C9
:10455000FF90EF90DF90CF9008958091800190912F
:104560008101892B51F12A9A2FEF84E39CE021509D
:1045700080409040E1F700C000002A982FEF84E3CC
:104580009CE0215080409040E1F700C000002A9A52
:104590002FEF84E39CE0215080409040E1F700C081
:1045A00000002A982FEF84E39CE021508040904047
:1045B000E1F700C000002A9A08952B9A2FEF84E3B8
:1045C0009CE0215080409040E1F700C000002B9813
:1045D0002FEF84E39CE0215080409040E1F700C041
:1045E00000002B9A2FEF84E39CE021508040904004
:1045F000E1F700C000002B982FEF84E39CE02150EE
:1046000080409040E1F700C000002B9A0895CF93BE
:10461000DF93CDB7DEB72C970FB6F894DEBF0FBE91
:10462000CDBF0E946C216E9A76986A9A729A8CE03D
:10463000E82E90E4F92E0E94EC10CE0101960E9423
:10464000920CFE013196A2EFB1E08E2D01900D92F9
:104650008A95E1F78EEF91E00E940A0E892B99F07E
:104660008091FE019091FF0121E030E081309105C1
:1046700011F020E030E03093300120932F01892B9E
:1046800011F40E94AD2280912F01909130016A9A1D
:10469000892B61F0729860917E0170917F01809109
:1046A0008201909183010E945A1509C0729A20E0FC
:1046B00030E040E05FE3CA01B9010E943F0480910D
:1046C000840190918501892B11F00E9498210E940C
:1046D0001316009186011091870120918801309175
:1046E0008901601B710B820B930B653F7140810543
:1046F00091050CF4A0CF6E9A8EB18F258EB90E94D1
:1047000013166093860170938701809388019093BC
:10471000890191CF5058BB27AA270ED027C2F0D1CC
:1047200030F0F5D120F031F49F3F11F41EF4C0C1F8
:104730000EF4E095E7FBB6C1E92F3AD280F3BA1741
:10474000620773078407950718F071F49EF552C24B
:104750000EF4E0950B2EBA2FA02D0B01B90190019C
:104760000C01CA01A0011124FF27591B99F0593FE0
:1047700050F4503E68F11A16F040A22F232F342F28
:104780004427585FF3CF469537952795A795F04076
:104790005395C9F77EF41F16BA0B620B730B840B8B
:1047A000BAF09150A1F0FF0FBB1F661F771F881F43
:1047B000C2F70EC0BA0F621F731F841F48F487959B
:1047C00077956795B795F7959E3F08F0B3CF93958A
:1047D000880F08F09927EE0F97958795089590D147
:1047E00058F080E891E009F49EEF91D128F040E87C
:1047F00051E059F45EEF09C05BC1FCC1E92FE078DC
:10480000D7D168F3092E052AC1F3261737074807C1
:10481000590738F00E2E07F8E02569F0E025E0642E
:104820000AC0EF6307F8009407FADB01B9019D01A4
:10483000DC01CA01AD01EF934AD098D10AD05F9153
:10484000552331F02BED3FE049E450FD49EC63CFB7
:104850000895DF93DD27B92FBF7740E85FE3161691
:10486000170648075B0710F4D92FCFD19F938F937A
:104870007F936F937CD2E0E6F1E01DD177D12F9149
:104880003F914F915F91D4D1DD2349F09058A2EA36
:104890002AED3FE049EC5FE3D0785D274DDFDF9103
:1048A00065C1DCD008F481E0089539D1E3956FC18A
:1048B0000CD05CC12CD140F023D130F021F45F3F0B
:1048C00019F0F0C0511197C1F3C072D198F3992338
:1048D000C9F35523B1F3951B550BBB27AA276217C4
:1048E0007307840738F09F5F5F4F220F331F441F09
:1048F000AA1FA9F333D00E2E3AF0E0E830D0915041
:104900005040E695001CCAF729D0FE2F27D0660F2D
:10491000771F881FBB1F261737074807AB07B0E86C
:1049200009F0BB0B802DBF01FF2793585F4F2AF082
:104930009E3F510568F0B6C05EC15F3FECF3983E04
:10494000DCF3869577956795B795F7959F5FC9F7DF
:10495000880F911D9695879597F90895E1E0660F68
:10496000771F881FBB1F621773078407BA0720F0E1
:10497000621B730B840BBA0BEE1F88F7E09508954A
:1049800004D06894B11137C108951AD188F09F57A7
:1049900090F0B92F9927B751A0F0D1F0660F771F8B
:1049A000881F991F1AF0BA95C9F712C0B13081F06B
:1049B00021D1B1E008951EC1672F782F8827B85FF5
:1049C00039F0B93FCCF3869577956795B395D9F7CC
:1049D0003EF490958095709561957F4F8F4F9F4FD6
:1049E0000895E89409C097FB3EF4909580957095E2
:1049F00061957F4F8F4F9F4F9923A9F0F92F96E92B
:104A0000BB279395F695879577956795B795F1119F
:104A1000F8CFFAF4BB0F11F460FF1BC06F5F7F4F3C
:104A20008F4F9F4F16C0882311F096E911C077234E
:104A300021F09EE8872F762F05C0662371F096E857
:104A4000862F70E060E02AF09A95660F771F881F26
:104A5000DAF7880F9695879597F90895990F0008CA
:104A6000550FAA0BE0E8FEEF16161706E807F90740
:104A7000C0F012161306E407F50798F0621B730BDB
:104A8000840B950B39F40A2661F0232B242B252B5C
:104A900021F408950A2609F4A140A6958FEF811DFF
:104AA000811D089597F99F6780E870E060E00895A0
:104AB0009FEF80EC0895DF93CF931F930F93FF92A6
:104AC000EF92DF927B018C01689405C0DA2EEF0132
:104AD000AFD0FE01E894A59125913591459155916E
:104AE000AEF3EF0129DEFE019701A801DA9479F710
:104AF000DF90EF90FF900F911F91CF91DF9108957C
:104B000000240A94161617061806090608950024AC
:104B10000A9412161306140605060895C9CF50D03C
:104B2000E8F3E894E0E0BB279F57F0F02AED3FE080
:104B300049EC06C0EE0FBB0F661F771F881F28F0D9
:104B4000B23A62077307840728F0B25A620B730BFC
:104B5000840BE3959A9572F7803830F49A95BB0FE1
:104B6000661F771F881FD2F7904806C1092E03944D
:104B7000000C11F4882352F0BB0F40F4BF2B11F44A
:104B800060FF04C06F5F7F4F8F4F9F4F0895EF937B
:104B9000E0FF06C0A2EA2AED3FE049EC5FEBCCDD86
:104BA000E5DF0F90039401FC9058EDE8F1E0F7C0C9
:104BB00057FD9058440F551F59F05F3F71F04795CE
:104BC000880F97FB991F61F09F3F79F087950895B3
:104BD000121613061406551FF2CF4695F1DF08C0D2
:104BE000161617061806991FF1CF869571056105EF
:104BF00008940895E894BB2766277727CB0197F997
:104C000008952CDF08F48FEF08959B01AC0160E05C
:104C100070E080E89FE34CCE0BD0A8CF71DF28F086
:104C200076DF18F0952309F03DCF42CF1124E3CF72
:104C3000BFDFA0F3959FD1F3950F50E0551F629F02
:104C4000F001729FBB27F00DB11D639FAA27F00DE5
:104C5000B11DAA1F649F6627B00DA11D661F829F0C
:104C60002227B00DA11D621F739FB00DA11D621FF1
:104C7000839FA00D611D221F749F3327A00D611D0E
:104C8000231F849F600D211D822F762F6A2F1124F0
:104C90009F5750408AF0E1F088234AF0EE0FFF1F43
:104CA000BB1F661F771F881F91505040A9F79E3F7A
:104CB000510570F0F7CE9FCF5F3FECF3983EDCF3E9
:104CC000869577956795B795F795E7959F5FC1F7B7
:104CD000FE2B880F911D9695879597F908959F93C0
:104CE0001EDF0F9007FCEE5F52CF11F40EF4E0CE02
:104CF00041C066DFD0F39923D9F3CEF39F57550B0C
:104D000087FF46D00024A0E640EA900180585695DF
:104D1000979528F4805C660F771F881F20F0261770
:104D20003707480730F4621B730B840B20293129A5
:104D30004A2BA69517940794202531254A2758F722
:104D4000660F771F881F20F026173707480730F4B3
:104D5000620B730B840B200D311D411DA09581F753
:104D6000B901842F9158880F9695879508959B01D6
:104D7000AC0152CF9F3F31F0915020F48795779549
:104D80006795B795880F911D9695879597F9089522
:104D900091505040660F771F881FD2F708959F9358
:104DA0008F937F936F93FF93EF939B01AC0134DF5D
:104DB000EF91FF9180DE2F913F914F915F912CCF2A
:104DC00097FB072E16F4009407D077FD09D00E94B8
:104DD000FA2607FC05D03EF4909581959F4F0895E3
:104DE000709561957F4F0895EE0FFF1F0590F49128
:104DF000E02D0994AA1BBB1B51E107C0AA1FBB1FD2
:104E0000A617B70710F0A61BB70B881F991F5A9556
:104E1000A9F780959095BC01CD010895BB274A3034
:104E200031F4992322F4BDE2909581959F4F0C9423
:104E30004B27BB272A3051F4992342F4BDE29095C9
:104E40008095709561957F4F8F4F9F4F0C942927C8
:104E5000BB27FA01A62F6217710581059105330B57
:104E600030FB66F0AA27660F771F881F991FAA1FBD
:104E7000A21710F0A21B63953850A9F7A05DAA33C2
:104E800008F0A95DA19336F7B111B1931082CA0160
:104E90000C946427BB27FB015527AA27880F991F6D
:104EA000AA1FA41710F0A41B83955051B9F7A05D59
:104EB000AA3308F0A95DA193009779F7B111B193D6
:104EC0001192CB010C946427DC01FC01672F7191D6
:104ED0007723E1F7329704C07C916D9370836291E0
:0C4EE000AE17BF07C8F30895F894FFCF89
:104EEC000D001A00140010001D0017000100010035
:104EFC0000000100BC019C01B801FD0145037003D9
:104F0C0097035D03010000E100000000082C000184
:104F1C000000010002000300040001000200020076
:0A4F2C00030004000100030004006C
:00000001FF
