:100000000C9432020C944F020C944F020C94FC1A84
:100010000C944F020C944F020C944F020C944F021C
:100020000C944F020C944F020C94A2160C94DD1603
:100030000C944F020C944F020C944F020C944F02FC
:100040000C944F020C944F020C944F020C944F02EC
:100050000C944F020C944F020C944F020C944F02DC
:100060000C944F020C944F020C944F020C944F02CC
:100070000C944F020C94491B0C944F020C944F02A9
:100080000C94251B0C944F020C944F020C944F02BD
:100090000C944F020C944F020C944F020C944F029C
:1000A0000C944F020C944F020C944F02A102A30235
:1000B000AA02AC02B802C402CB02D202E302F70CDD
:1000C000FB0C010D040D120D200D150D180D860DE4
:1000D000890D8C0DA50DBE0DC10DC40DC70D3F16AC
:1000E0003C1639163616331630162D162A162716D4
:1000F000241621161E161B161816151612160F1684
:100100000C160916061603160016FD15FA15F71536
:10011000F415F115EE15EB15E815E515E215DF15EB
:10012000DC15D915D615D315D015CD15CA15C7159B
:10013000C415C115BE15BB15B815B515B215AF154B
:10014000AC15A915A615A315A0159D159A159715FB
:10015000941591158E158B158815851582157F15AB
:10016000084AD73B3BCE016E84BCBFFDC12F3D6C1E
:1001700074319ABD56833DDA3D00C77F11BED9E484
:10018000BB4C3E916BAAAABE000000803F05A84C64
:10019000CDB2D44EB93836A9020C50B99186880830
:1001A0003CA6AAAA2ABE000000803F00426164204B
:1001B00063686172616374657220726563656976F4
:1001C000656421204974207761733A2000207068AB
:1001D000692A3130303A20002079506F733A20007C
:1001E0000A2043757272656E742078506F733A20DE
:1001F00000207363616C653A20002074683A200027
:100200002079433A20000A20436F6E7374206461A2
:1002100074613A2078433A20003A20002076003A70
:1002200020002079003A20000A206D576969207863
:10023000000A205075636B20416E676C653A2000A0
:1002400020000A205075636B204144432056616CA6
:10025000733A00556E7265636F676E697A656420E4
:10026000576972656C6573734D6573736167650A71
:1002700000576972656C6573734D6573736167656B
:1002800020697320554E4B4E4F574E2E0A0057692A
:1002900072656C6573734D6573736167652069730F
:1002A0002047414D455F4F5645522E0A005769720F
:1002B000656C6573734D6573736167652069732041
:1002C00048414C4654494D452E0A00576972656CA9
:1002D0006573734D65737361676520697320504161
:1002E0005553452E0A000A000953636F7265204278
:1002F0006C756520697320000A000953636F72658D
:10030000205265642069732000576972656C6573BB
:10031000734D65737361676520697320474F414C66
:100320005F422E0A000A000953636F726520426C17
:10033000756520697320000A000953636F72652098
:100340005265642069732000576972656C65737328
:100350004D65737361676520697320474F414C5F3A
:10036000522E0A00576972656C6573734D6573731D
:1003700061676520697320504C41592E0A00576906
:1003800072656C6573734D6573736167652069731E
:1003900020434F4D4D5F544553542E0A0074696DF0
:1003A00065725F696E697469616C697A6564210A56
:1003B0000000010000E5031200020000F703430003
:1003C0000300003A0404010309043E041202030975
:1003D00004520406030309045A04080001C112016F
:1003E00080360181361201000202000010C0167A28
:1003F0000400010102030109024300020100C032AE
:100400000904000001020201000524001001052476
:1004100001010104240206052406000107058203E8
:1004200010004009040100020A0000000705030251
:100430004000000705840240000004030904120381
:100440004A002E0020004600690065006E0065002D
:10045000000006034D0032000000080334003100A4
:100460003000000011241FBECFEFDAE0DEBFCDBFA9
:1004700011E0A0E0B1E0E0E7F1E402C005900D92E8
:10048000A834B107D9F721E0A8E4B1E001C01D927A
:10049000AA3EB207E1F70E943F1C0C94B6200C94D0
:1004A000000080B38F7380BB81B38F7381BBECE797
:1004B000F0E080818F778083808180648083AAE7E9
:1004C000B0E08C9184608C938C9181608C93EEE78A
:1004D000F0E0808181608083808182608083808180
:1004E000806180838081806280838081806480835A
:1004F000808180688083EDE7F0E080818160808387
:100500008081886080838081806180838C91886015
:100510008C938C918F778C93089520917A002F770C
:1005200020937A0090934B0180934A018930910582
:1005300008F05BC0FC01EA5AFF4F80917B000C94ED
:100540000A208F7D29C08F7D80937B0080917C0065
:100550008B7F08C08F7D38C08F7D80937B0080911A
:100560007C00846080937C0080917C008D7F25C01E
:100570008F7D80937B0080917C00846080937C00E1
:1005800080917C0082602AC08F7D80937B00809167
:100590007C0084600DC0806280937B0080917C0031
:1005A0008B7F17C0806280937B0080917C008B7F63
:1005B00080937C0080917C00826080937C0080919D
:1005C0007C00816010C0806280937B0080917C0001
:1005D000846080937C0080917C008D7F80937C0080
:1005E00080917C008E7F80937C0080917A0080686F
:1005F00080937A0080917A00806480937A000895D5
:1006000020914C0130914D01232B71F420914E012A
:1006100030914F01232B41F421E030E030934D0124
:1006200020934C010E948D0280914E0190914F01C8
:10063000892B71F010924F0110924E016091480188
:100640007091490180914A0190914B010C94D20F15
:10065000089581E090E090934F0180934E011092B5
:100660004D0110924C018091780090917900909307
:10067000490180934801EAE7F0E080818F77808329
:100680000895089588EE93E090938F0180938E01F2
:100690009093910180939001109292011092930196
:1006A0001092940110929501109296011092970168
:1006B0001092980110929901109272011092730198
:1006C00010927401109275011092760110927701C8
:1006D000109278011092790110927A0110927B01A8
:1006E00010927C0110927D010895EF92FF920F937A
:1006F0001F93CF93DF93CDB7DEB7FE0139966CE140
:1007000071E044E151E09E012F5D3F4F8CE0E82E07
:1007100081E0F82E84E090E000811181DB010D93EF
:100720001D93BD0102811381DA010D931D93AD016B
:10073000D9010D911D919D01D7010D931D937D014F
:1007400001973696009741F7DF91CF911F910F9156
:10075000FF90EF900895861B970B421B530B889FC9
:10076000B001899F700D700D1124449FC001459FF9
:10077000900D900D1124680F791F882777FD8095C3
:10078000982F0E94091E0E948F1F0E94D61DCB0128
:100790000895FC014191519121E030E080E090E02A
:1007A0002617370764F4A191B191A417B50714F087
:1007B000DA0101C0C9012F5F3F4FAD01F1CF0895AC
:1007C000FC014191519121E030E080E090E026175A
:1007D000370764F4A191B1914A175B0714F0DA016D
:1007E00001C0C9012F5F3F4FAD01F1CF08952F9296
:1007F0003F924F925F926F927F928F929F92AF92B1
:10080000BF92CF92DF92EF92FF920F931F93CF93FD
:10081000DF93CDB7DEB7A0970FB6F894DEBF0FBE5B
:10082000CDBF9E878D878B014A0120918E0130912B
:100830008F013C8F2B8F60919001709191017A8F85
:10084000698F8091920190919301A0919401B09150
:1008500095018D8B9E8BAF8BB88F609196017091B7
:1008600097018091980190919901698B7A8B8B8B7C
:100870009C8BDA014D905C9011971296AD90BC90D4
:100880001397F80120803180628073809201A50166
:10089000B101C3010E94AB03988B8F87D4011496DA
:1008A000CD90DC901597F801E480F5809501A601C4
:1008B000B301C7010E94AB035C019201A601B10123
:1008C000C7010E94AB032F85388938872F83BA86EA
:1008D000A9869C878B8763E070E0CE0107960E9413
:1008E000C903FC01EE0FFF1F61E070E06C0F7D1F7C
:1008F000E60FF71FC680D780FE0137969B017E0169
:100900007DE0E70EF11C48EEA42E43E0B42E4191A9
:1009100051914A9DC0014B9D900D5A9D900D1124FF
:10092000B6010E94F61FD9016D937D939D01EE15CE
:10093000FF0569F789819A812B813C81820F931F82
:100940002D813E81820F931F8B32B2E19B070CF405
:10095000ABC063E070E0CE0101960E94C9037C0148
:1009600063E070E0CE0101960E94E003E114F1041F
:1009700069F48130910539F422E030E030937F0151
:1009800020937E0123C082E090E00EC0892BA9F461
:10099000EA94EF2839F410927F0110927E0181E0F1
:1009A00090E014C081E090E090937F0180937E01FD
:1009B00010929D0110929C010DC0EA94EF2859F30A
:1009C00010927F0110927E0182E090E090939D0151
:1009D00080939C0140919C0150919D01440F551FB3
:1009E000F801E40FF51F60817181709389016093B4
:1009F000880180917E0190917F01880F991FF801F5
:100A0000E80FF91F208131813093870120938601FF
:100A1000F401E40FF51F008111811093830100930D
:100A20008201F401E80FF91FE080F180F09281016A
:100A3000E0928001CB01820F931F97FD019695955F
:100A400087959093A7018093A601C8018E0D9F1DE5
:100A500097FD0196959587959093850180938401E4
:100A6000621B730B882777FD8095982F0E94091EC3
:100A70002BED3FE049EC5FE30E94A01C9B01AC0121
:100A8000B8016E197F09882777FD8095982F2D8FE3
:100A90003E8F4F8F58A30E94091E2D8D3E8D4F8D86
:100AA00058A10E94141D24C2863A2EE092070CF031
:100AB00066C163E070E0CE0101960E94C9037C012B
:100AC00063E070E0CE0101960E94E003E114F104BE
:100AD00079F48130910529F490937F0180937E0110
:100AE00004C010927F0110927E0182E090E011C05C
:100AF0000097A1F431E0E316F10429F4F0927F01AC
:100B0000E0927E011BC010927F0110927E0181E075
:100B100090E09093A5018093A40114C081309105C9
:100B200039F422E030E030937F0120937E01F1CF51
:100B300082E090E090937F0180937E011092A50166
:100B40001092A4014091A4015091A501BA01660F31
:100B5000771FF801E60FF71FE080F180F092A30104
:100B6000E092A20120917E0130917F01C901880F9E
:100B7000991FF801E80FF91F20803180309287011A
:100B800020928601F401E60FF71FC080D180D09239
:100B9000A901C092A801F401E80FF91F60817181D9
:100BA000788B6F87709381016093800183E090E080
:100BB000841B950B821B930B880F991FF801E80F7C
:100BC000F91FA080B180B092A101A092A001F40110
:100BD000E80FF91F0081118110939F0100939E017E
:100BE000B70162197309882777FD8095982F0E94B5
:100BF000091E9B01AC01B6018F859889681B790B92
:100C0000882777FD8095982F2D8F3E8F4F8F58A383
:100C10000E94091E2D8D3E8D4F8D58A10E94141DDE
:100C200029E130E94DE85FE30E94A11C2BED3FE094
:100C300049E450E40E94A11C2B013C0120E030E07B
:100C4000A9010E94671D87FD09C040928A01509248
:100C50008B0160928C0170928D0110C02BED3FE0F2
:100C600049EC50E4C301B2010E94A11C60938A01C7
:100C700070938B0180938C0190938D019801A60154
:100C8000B501C7010E94AB03BC01882777FD8095A1
:100C9000982F0E94091E23E436E142E35FE30E949D
:100CA000221F6B017C0120EF35E849E55FE360918D
:100CB0008A0170918B0180918C0190918D010E942D
:100CC000A01C2BED3FE049E450E40E94A01C2B0146
:100CD0003C010E946B1D9B01AC01B501882777FD8B
:100CE0008095982F2D8F3E8F4F8F58A30E94091EFD
:100CF0004B015C012D8D3E8D4F8D58A1C701B60172
:100D00000E94221F9B01AC01C501B4010E94A11CDD
:100D10000E94D61D4B015C0170938901609388018C
:100D2000C301B2010E94851F9B01AC01B801882755
:100D300077FD8095982F2D8F3E8F4F8F58A30E945F
:100D4000091E2B013C012D8D3E8D4F8D58A1C701F1
:100D5000B6010E94221F9B01AC01C301B2010E9497
:100D6000A11C0E94D61D7093830160938201820CA6
:100D7000931C97FE46C2AFEF8A1A9A0A42C28F3B73
:100D8000FFE09F070CF4D6C063E070E0CE0101964F
:100D90000E94C9037C0163E070E0CE0101960E94CD
:100DA000E003E114F10469F48130910539F422E0A3
:100DB00030E030937F0120937E012DC082E090E0EF
:100DC00011C0892BC1F421E0E216F10449F410921C
:100DD0007F0110927E01F0929D01E0929C011FC064
:100DE00081E090E090937F0180937E0110929D01BD
:100DF00010929C0114C0EA94EF2829F410927F010C
:100E000010927E0106C081E090E090937F01809374
:100E10007E0182E090E090939D0180939C0140913F
:100E20009C0150919D01440F551FF801E40FF51FDF
:100E300060817181709389016093880180917E0146
:100E400090917F01880F991FF801E80FF91F208109
:100E500031813093870120938601F401E40FF51F5F
:100E6000E080F180F0928301E0928201F401E80FCA
:100E7000F91F008111811093810100938001CB0142
:100E8000820F931F97FD0196959587959093A701E3
:100E90008093A601C701800F911F97FD019695953C
:100EA00087959093850180938401621B730B88273B
:100EB00077FD8095982F0E94091E9B01AC01B70118
:100EC000601B710B882777FD8095982F2D8F3E8FA3
:100ED0004F8F58A30E94091E2D8D3E8D4F8D58A116
:100EE0000E94141D2BED3FE049EC5FE30E94A01C23
:100EF0006B017C0160938A0170938B0180938C015C
:100F000090938D0120E030E0A9010E94671D87FFCA
:100F1000AFC12BED3FE049EC50E4C701B6010E94A0
:100F2000A11C60938A0170938B0180938C01909334
:100F30008D019EC18E3B9F4009F478C163E070E053
:100F4000CE0101960E94C9037C0163E070E0CE01EE
:100F500001960E94E003E114F10479F481309105D7
:100F600029F410929D0110929C012CC081E090E028
:100F700090939D0180939C0111C00097A1F482E0A1
:100F800090E090939D0180939C0171E0E716F1043D
:100F900029F4F092A501E092A40118C01092A501D5
:100FA0001092A40113C0019729F410929D01109290
:100FB0009C0106C081E090E090939D0180939C018C
:100FC00082E090E09093A5018093A40140919C0160
:100FD00050919D01BA01660F771FF801E60FF71FC8
:100FE0002080318030928901209288012091A401D3
:100FF0003091A501C901880F991FF801E80FF91F69
:10100000E080F180F092A301E092A201F401E60FEA
:10101000F71FA081B181B88BAF87B0938301A093F4
:101020008201F401E80FF91FC080D180D092A9019C
:10103000C092A80183E090E0841B950B821B930B68
:10104000880F991FF801E80FF91FA080B180B092B6
:10105000A101A092A001F401E80FF91F0081118104
:1010600010939F0100939E01B1016A197B098827A3
:1010700077FD8095982F0E94091E9B01AC016F851A
:101080007889601B710B882777FD8095982F2D8FAD
:101090003E8F4F8F58A30E94091E2D8D3E8D4F8D80
:1010A00058A10E94141D20EF35E849E55FE30E9436
:1010B000A11C2BED3FE049E450E40E94A11C2B0150
:1010C0003C0120E030E0A9010E94671D87FD09C0B6
:1010D00040928A0150928B0160928C0170928D0136
:1010E00010C02BED3FE049EC50E4C301B2010E9477
:1010F000A11C60938A0170938B0180938C01909363
:101100008D019801A601B501C7010E94AB03BC0186
:10111000882777FD8095982F0E94091E23ED3BE9D3
:101120004EE55FE30E94221F6B017C0124E036E55F
:101130004EE05FE360918A0170918B0180918C0198
:1011400090918D010E94A01C2BED3FE049EC5FE3E4
:101150000E94A01C2B013C010E946B1D9B01AC0155
:10116000B501882777FD8095982F2D8F3E8F4F8F63
:1011700058A30E94091E4B015C012D8D3E8D4F8DA1
:1011800058A1C701B6010E94221F9B01AC01C501F5
:10119000B4010E94A11C0E94D61D4B015C017093FA
:1011A000870160938601C301B2010E94851F9B01E4
:1011B000AC01B801882777FD8095982F2D8F3E8F41
:1011C0004F8F58A30E94091E2B013C012D8D3E8D8F
:1011D0004F8D58A1C701B6010E94221F9B01AC018F
:1011E000C301B2010E94A11C0E94D61D709381010F
:1011F00060938001820C931C97FE03C0BFEF8B1A93
:101200009B0A959487949092A7018092A601EF85FE
:10121000F8896E0F7F1F77FF02C06F5F7F4F759554
:101220006795709385016093840122C0EB8DFC8DDE
:10123000AD85BE851196FC93EE93298D3A8D13965C
:101240003C932E9312976D897E898F89988D149681
:101250006D937D938D939C93179769897A898B8978
:101260009C8918966D937D938D939C931B9741C099
:10127000A090A601B090A701009184011091850172
:10128000C0908A01D0908B01E0908C01F0908D018C
:101290002091820130918301409180015091810120
:1012A00060918801709189018091860190918701F8
:1012B0000E94AB03ED85FE85B182A0821383028379
:1012C000C482D582E682F782BC01882777FD8095AB
:1012D000982F0E94091E9B01AC0160E070E088EE2F
:1012E00091E40E946E1DED85FE856087718782877F
:1012F00093878D859E85A0960FB6F894DEBF0FBEAE
:10130000CDBFDF91CF911F910F91FF90EF90DF90B4
:10131000CF90BF90AF909F908F907F906F905F9095
:101320004F903F902F9008952F923F924F925F924F
:101330006F927F928F929F92AF92BF92CF92DF92E5
:10134000EF92FF920F931F93CF93DF93CDB7DEB74A
:10135000C254D1090FB6F894DEBF0FBECDBF9AAB11
:1013600089AB8B013A01DA01ED90FC90119712964E
:101370002D903C901397FB018080918022813381D6
:101380003CAB2BAB9701A101B4018BA99CA90E9496
:10139000AB0398AF8FABD3011496AD90BC9015976B
:1013A000F801448055809101A5016BA97CA9C20177
:1013B0000E94AB039AAF89AFD30116960D90BC91F2
:1013C000A02DBEABADABF801C680D7809501AD01B5
:1013D000B201C6010E94AB039CAF8BAF2DA93EA901
:1013E000A701B601C4010E94AB039EAF8DAF970168
:1013F000A501B401C2010E94AB037C0191014DA97A
:101400005EA96BA97CA9C6010E94AB032FA938ADC8
:101410003EA32DA3A9ADBAADB8A7AFA3EBADFCAD6C
:10142000FAA7E9A72DAD3EAD3CA72BA7FEA6EDA6DA
:1014300098AB8FA766E070E0CE0185960E94C90345
:10144000FC01EE0FFF1F81E090E08C0F9D1FE80F65
:10145000F91FC4A0D5A09E012B5D3F4FFE017996D8
:101460007E0191E3E90EF11C4F0198EEA92E93E065
:10147000B92ED9016D917D919D016A9DC0016B9D31
:10148000900D7A9D900D1124B6010E94F61F619374
:1014900071932E153F0569F78CE0EFE2F1E0DE0174
:1014A0001D9601900D928A95E1F78CE0EBE3F1E057
:1014B000DE01119601900D928A95E1F766E070E0E9
:1014C000C4010E94C903FC01EE0FFF1F21E030E0C0
:1014D0002C0F3D1FE20FF31FC484D584E080F18000
:1014E00066E070E0C4010E94E003FC01EE0FFF1F04
:1014F00081E090E08C0F9D1FE80FF91F2485358552
:1015000080819181C216D30641F4D0929D01C09290
:101510009C0190937F0180937E01C816D90641F407
:1015200090939D0180939C0130937F0120937E01D5
:10153000E216F30641F4F0929D01E0929C01909333
:101540007F0180937E01E816F90641F4F0929D0137
:10155000E0929C0130937F0120937E0120919C01B9
:1015600030919D0121503048220F331FF801E20FC6
:10157000F31FE080F18080917E0190917F01815086
:101580009048880F991FF801E80FF91F0081118119
:10159000F301E20FF31FA080B180F301E80FF91F00
:1015A000C080D1804701800E911E97FE03C09FEF3F
:1015B000891A990A9594879415012C0C3D1C37FEC5
:1015C00003C0AFEF2A1A3A0A35942794B701601B7B
:1015D000710B882777FD8095982F0E94091E9B012B
:1015E000AC01B5016C197D09882777FD8095982F8E
:1015F0002FAF21963FAF219722964FAF2297239688
:101600005FAF23970E94091E2FAD21963FAD219712
:1016100022964FAD229723965FAD23970E94141D0B
:101620002BED3FE049EC5FE30E94A01C2B013C0145
:1016300020E030E0A9010E94671D87FF0AC02BED62
:101640003FE049EC50E4C301B2010E94A11C2B0110
:101650003C019501A601B701C8010E94AB03E9A9AD
:10166000FAA99182808233822282448255826682E4
:101670007782BC01882777FD8095982F0E94091EEC
:101680009B01AC0160E070E088EE91E40E946E1D69
:10169000E9A9FAA96087718782879387CF01CE5B1A
:1016A000DF4F0FB6F894DEBF0FBECDBFDF91CF91F5
:1016B0001F910F91FF90EF90DF90CF90BF90AF9070
:1016C0009F908F907F906F905F904F903F902F9062
:1016D00008954F925F926F927F928F929F92AF92F6
:1016E000BF92CF92DF92EF92FF920F931F93CF930F
:1016F000DF93CDB7DEB7AC970FB6F894DEBF0FBE61
:10170000CDBF8C0180910C0190910D0120910E01B3
:1017100030910F01820F931F209110013091110120
:10172000820F931F2091120130911301820F931F9A
:101730007CE0E72E71E0F72E20E030E040E050E062
:10174000D7016D917D917D01672BD9F0FA01EE0FE4
:10175000FF1F61E070E06C0F7D1FE60FF71FB901FE
:10176000645E7E4FDB016D917C9171876087B9016A
:101770006C5E7E4FDB016D917C91718360834F5F66
:101780005F4F2E5F3F4F28303105D1F683309105F2
:1017900059F4AE014F5F5F4FBE01675F7F4FCE01CF
:1017A00041960E94F7030CC0049799F4AE014F5F75
:1017B0005F4FBE01675F7F4FCE0141960E94940943
:1017C0008CE0FE017196AEE8B1E001900D928A9531
:1017D000E1F7609196017091970180919801909145
:1017E00099016D8F7E8F8F8F98A3409092015090BA
:1017F00093016090940170909501C301B2010E9421
:101800006B1D6B017C0160918E0170918F016F5F88
:101810007140882777FD8095982F0E94091E69A343
:101820007AA38BA39CA3C301B2010E94851F4B0125
:101830005C016FE771E08091900190919101681BCC
:10184000790B882777FD8095982F0E94091E6DA33C
:101850007EA38FA398A729A13AA14BA15CA1C701A0
:10186000B6010E94221F69A77AA78BA79CA72DA16A
:101870003EA14FA158A5C501B4010E94221F9B01A2
:10188000AC0169A57AA58BA59CA50E94A11C9B0112
:10189000AC016D8D7E8D8F8D98A10E94221F60936B
:1018A0007201709373018093740190937501C50167
:1018B000B401905829A13AA14BA15CA10E94221F1A
:1018C0004B015C012DA13EA14FA158A5C701B60156
:1018D0000E94221F9B01AC01C501B4010E94A11C02
:1018E0009B01AC016D8D7E8D8F8D98A10E94221F72
:1018F00060937601709377018093780190937901DA
:10190000A30192016BED7FE089E490E40E94A01CAA
:1019100060937A0170937B0180937C0190937D01A9
:101920008CE0E2E7F1E0D80101900D928A95E1F7B1
:10193000C801AC960FB6F894DEBF0FBECDBFDF91E5
:10194000CF911F910F91FF90EF90DF90CF90BF90BC
:10195000AF909F908F907F906F905F904F90089581
:101960004AE0682F81E00E9427141092AD01109286
:10197000AC011092AB011092AA0108958091AC01C4
:101980009091AD0101969093AD018093AC010895C3
:101990000F931F93CF93DF93CDB7DEB72A970FB680
:1019A000F894DEBF0FBECDBF8C012091AC01309109
:1019B000AD018091AA019091AB012817390709F474
:1019C0004DC001969093AB018093AA016AE0CE01CD
:1019D00001960E948713498150E0FA01E05AF1090B
:1019E000E830F10568F5E15AFF4F0C940A20F80140
:1019F0001182108222C081E090E0F80191838083FF
:101A00002FC082E090E002C083E090E0F801918373
:101A100080838A8190E0938382838B8190E0958399
:101A200084830BC084E090E005C085E090E002C0B4
:101A300086E090E0F8019183808381E090E010C01F
:101A400087E090E0F801918380838CEA91E00E9426
:101A50004818898190E00E947418EFCF80E090E0F0
:101A60002A960FB6F894DEBF0FBECDBFDF91CF919F
:101A70001F910F9108950E9477140E94901488235B
:101A8000E1F32FEF89E698E1215080409040E1F7A3
:101A900000C000000E949014882389F06E9A769806
:101AA0006A9A72982FEF83ED90E321508040904026
:101AB000E1F700C000006E9A769A6A9A729A0895C9
:101AC000AF92BF92CF92DF92EF92FF920F931F934C
:101AD000CF93DF93CDB7DEB760970FB6F894DEBF34
:101AE0000FBECDBFA982BA82CB82DC82ED82FE829C
:101AF000EB80FC800D811E81E981FA81E830F105DF
:101B000008F048C0E959FF4F0C940A208EE793E093
:101B100043C084E693E040C088E493E00E94481804
:101B200089E393E00E944818C7010E94F11887E3F7
:101B300093E00E94481887E293E00E944818C80189
:101B40000E94F11885E293E027C089E093E00E94AB
:101B500048188AEF92E00E944818C7010E94F118C5
:101B600088EF92E00E94481888EE92E00E944818A0
:101B7000C8010E94F11886EE92E00EC08BEC92E054
:101B80000BC08DEA92E008C08EE892E005C081E7C4
:101B900092E002C083E592E060960FB6F894DEBF53
:101BA0000FBECDBFDF91CF911F910F91FF90EF90AE
:101BB000DF90CF90BF90AF900C9448180F931F9375
:101BC000CF93DF938C0182E492E00E944818E801F1
:101BD00009E010E080E492E00E9448188991999110
:101BE0000E94F118015011090115110599F7DF91B3
:101BF000CF911F910F910895CF92DF92EF92FF92B4
:101C00006B017C0181E392E00E944818C701B60194
:101C10000E94D61DCB01FF90EF90DF90CF900C94E7
:101C20002619CF92DF92EF92FF920F931F93CF93DB
:101C3000DF93CDB7DEB7CE010B967C016E0193E248
:101C4000C90ED11C00E010E088E292E00E94481822
:101C5000C8010E94261985E292E00E944818F70107
:101C6000808191810E94261982E292E00E944818A8
:101C7000C8010E9426198FE192E00E944818F701DE
:101C8000828193810E9426198CE192E00E9448187B
:101C9000C8010E94261989E192E00E944818F601C5
:101CA000819191916F010E9426190F5F1F4FF6E0FD
:101CB000EF0EF11C0430110539F6DF91CF911F9121
:101CC0000F91FF90EF90DF90CF900895EF92FF92E9
:101CD0000F931F93CF93DF93CDB7DEB72C970FB63B
:101CE000F894DEBF0FBECDBFE982FA820B831C835E
:101CF0002D833E834F83588769877A878B879C879C
:101D000086E092E00E94481889819A810E942619F3
:101D100080E092E00E9448188B819C810E942619E5
:101D20008AEF91E00E94481820E030E048EC52E44D
:101D30006D817E818F8198850E94221F0E94D61D11
:101D4000CB010E94261981EF91E00E94481820E003
:101D500030E048EC52E469857A858B859C850E9449
:101D6000221F0E94D61DCB012C960FB6F894DEBF21
:101D70000FBECDBFDF91CF911F910F91FF90EF90DC
:101D80000C942619EF92FF920F931F93CF93DF933A
:101D9000CDB7DEB72C970FB6F894DEBF0FBECDBF20
:101DA000E982FA820B831C832D833E834F835887FD
:101DB00069877A878B879C8780EE91E00E9448181C
:101DC00069817A818B819C810E94D61DCB010E9402
:101DD000261988ED91E00E9448186D817E818F81DF
:101DE00098850E94D61DCB010E9426198DEC91E0AA
:101DF0000E94481820E030E048EC52E469857A857A
:101E00008B859C850E94221F0E94D61DCB012C969B
:101E10000FB6F894DEBF0FBECDBFDF91CF911F91FB
:101E20000F91FF90EF900C9426190C94391A8F9211
:101E30009F92AF92BF92CF92DF92EF92FF920F9359
:101E40001F93CF93DF93CDB7DEB768970FB6F894A3
:101E5000DEBF0FBECDBFCE0101960E94AC1981112D
:101E600010C01092C7011092C6011092C9011092C1
:101E7000C8011092CB011092CA011092CD011092AC
:101E8000CC01FE01319686EC91E0BEEA8B2EB1E0EA
:101E90009B2E8E01075E1F4FEE24E394F12C608190
:101EA000718142815381C480D5809B01220F331FF1
:101EB000AA24A394B12CAC0EBD1E2A0D3B1DD90142
:101EC0002D913C912F3F334079F49A01220F331F1B
:101ED0002A0D3B1DD9012D913C912F3F334021F418
:101EE000DC011D921C920FC0DC01ED92FC92D4012A
:101EF00011967C936E9313965C934E93129715965E
:101F0000DC92CE92149736960296B6E08B0E911C18
:101F1000E017F10721F68DB79EB780970FB6F894BA
:101F20009EBF0FBE8DBFADB7BEB7119680E2EEEA81
:101F3000F1E001900D928A95E1F70E9475030FB6CA
:101F4000F894DEBF0FBECDBF68960FB6F894DEBF23
:101F50000FBECDBFDF91CF911F910F91FF90EF90FA
:101F6000DF90CF90BF90AF909F908F900895809119
:101F70005001909151010E94000380915001909175
:101F800051010196893091052CF490935101809371
:101F9000500104C0109251011092500182E591E06D
:101FA0000C94DE0DFC01EE0FFF1FEE5AFE4F80E099
:101FB00094E0861B970B91838083089581E090E0E5
:101FC0002091520130915301253F314014F480E0BB
:101FD00090E008952F923F924F925F926F927F927E
:101FE0008F929F92AF92BF92CF92DF92EF92FF9229
:101FF0000F931F93CF93DF9300D000D000D0CDB7C5
:10200000DEB78091540190915501813293400CF0DC
:1020100004C1E4E5F1E01E821D8220E034E081E0AD
:1020200090E0419151914217530734F48730910564
:1020300019F09E838D839A0101968930910589F765
:102040008D819E819A8389831C01220C331CF101AE
:10205000EE5AFE4F1F0100E010E0812C912C54013C
:1020600075016401F8013196FC83EB832D813E817B
:10207000293031050CF04CC0F801EE0FFF1FE20DC6
:10208000F31D80819181BC01882777FD8095982F71
:102090000E94091E20E030E040E85AE30E94221F1F
:1020A0002B013C012D813E812730310549F19B01F7
:1020B000AC01C501B4010E94A11C4B015C01B80137
:1020C000882777FD8095982F0E94091E20E030E038
:1020D00044E352E40E94221F20E030E044E353E452
:1020E0000E94A01C9B01AC01C301B2010E94221FEF
:1020F0009B01AC01C701B6010E94A11C6B017C01D0
:102100008D819E8101969E838D830B811C81AACF38
:1021100094E5292E91E0392E81E090E09C838B8319
:1021200001501109EB81FC8129813A81E217F30703
:102130000CF049C0F101619171911F01882777FD71
:102140008095982F0E94091E20E030E040E85AE375
:102150000E94221F2B013C012B813C81273031053D
:1021600061F19B01AC01C501B4010E94A11C4B01AE
:102170005C016B817C81600F711F882777FD8095E2
:10218000982F0E94091E20E030E044E352E40E94B0
:10219000221F20E030E044E353E40E94A01C9B0196
:1021A000AC01C301B2010E94221F9B01AC01C70117
:1021B000B6010E94A11C6B017C018B819C81019660
:1021C0009C838B83AFCFA5019401C701B6010E9408
:1021D0006E1D20E030E044E353E40E94A11C6B013B
:1021E0007C0189819A8101972DE2289FB001299F66
:1021F000700D1124882777FD8095982F0E94091E65
:102200009B01AC01C701B6010E94A11C8B017C019E
:102210000E94FC0D3E2D2F2D04C000E010E030E0A8
:1022200020E0B801832F922F26960FB6F894DEBFD8
:102230000FBECDBFDF91CF911F910F91FF90EF9017
:10224000DF90CF90BF90AF909F908F907F906F90D6
:102250005F904F903F902F900895809164019091EE
:102260006501A0916601B09167010196A11DB11DA4
:102270008093640190936501A0936601B093670118
:10228000089560916401709165018091660190915B
:1022900067010895A1E9B0E08C918F7E8C938C91B9
:1022A00088608C93E0E9F0E080818D7F808380817D
:1022B0008E7F808380818F77808380818F7B8083F6
:1022C000E1E7F0E0808182608083C19A80E89EE34C
:1022D00090939900809398008C918B7F8C938C9134
:1022E0008D7F8C938C9181608C938DE993E00E941B
:1022F00048180895589A599A5A9A8CE08093B800D1
:10230000E9E6F0E080818062808380818F7E808337
:10231000EA9A7894089584E88093BC008091BC0088
:1023200087FFFCCF8091BB00089584E98093BC00B7
:10233000089520E030E08091BC0087FD06C02F5F4B
:102340003F4F83E0293E3807B1F780E0285E3340F5
:1023500009F081E008958093BB0084E88093BC007D
:102360000E949911882319F08091B900887F0895FF
:102370000F931F93182F062F84EA8093BC000E94AE
:102380009911882371F0812F880F002331F08F5F1E
:102390000E94AB11883451F404C00E94AB1180320A
:1023A00029F484E98093BC0080E001C081E01F91A2
:1023B0000F9108950F931F93162F042F60E00E9432
:1023C000B811882379F0812F0E94AB11882351F036
:1023D000802F0E94AB11882329F084E98093BC00F0
:1023E00081E001C080E01F910F9108950F931F932A
:1023F000082F162F60E00E94B8118823C1F0812FAA
:102400000E94AB11882399F084E98093BC00802F4F
:1024100061E00E94B811882351F084E88093BC00E9
:102420008091BC0087FFFCCF8091BB0001C080E0A1
:102430001F910F910895DF92EF92FF920F931F93D8
:10244000DF93CF9300D000D000D0CDB7DEB7082FF8
:10245000D92E7E010894E11CF11C1EE489E6612F4F
:102460000E94F611F70181937F0111501834B1F7E2
:10247000DE011196802F9D2D9C01F9019E01295F9F
:102480003F4F8D919D91958384833297A217B30717
:10249000C1F781E026960FB6F894DEBF0FBECDBF20
:1024A000CF91DF911F910F91FF90EF90DF900895F2
:1024B000DF92EF92FF920F931F93DF93CF9300D0A1
:1024C00000D000D0CDB7DEB7082FD92E7E010894FA
:1024D000E11CF11C18E489E6612F0E94F611F70156
:1024E00081937F0111501234B1F7DE011196802FD4
:1024F0009D2D9C01F9019E01295F3F4F8D919D917A
:10250000958384833297A217B307C1F781E026969B
:102510000FB6F894DEBF0FBECDBFCF91DF911F91F4
:102520000F91FF90EF90DF900895DF92EF92FF926E
:102530000F931F93DF93CF9300D000D000D0CDB77F
:10254000DEB7082FD92E7E010894E11CF11C10E49F
:1025500089E6612F0E94F611F70181937F011150E6
:102560001A33B1F7DE011196802F9D2D9C01F901E0
:102570009E01295F3F4F8D919D9195838483329772
:10258000A217B307C1F781E026960FB6F894DEBF15
:102590000FBECDBFCF91DF911F910F91FF90EF90B4
:1025A000DF900895DF92EF92FF920F931F93DF93D6
:1025B000CF93CDB7DEB764970FB6F894DEBF0FBEEA
:1025C000CDBF082FD92E7E010894E11CF11C1EE41A
:1025D00089E6612F0E94F611F70181937F01115066
:1025E0001A33B1F7DE011196802F9D2D9C01F90160
:1025F0009E01295F3F4F1E968D919C911F97958359
:10260000848316968D919C911797938782878D91DD
:102610009D91918B808B3297A217B30761F781E070
:1026200064960FB6F894DEBF0FBECDBFCF91DF9199
:102630001F910F91FF90EF90DF9008950F931F93DC
:10264000182F062F843008F05EC0643008F05BC09D
:102650000E947A1188EB9BE020E931E0F901319783
:10266000F1F70197D9F789E665E70E94F6118836F8
:1026700009F049C089E66BE641E00E94DA11110FCA
:10268000110F110F89E66CE1412F0E94DA11000F42
:10269000000F000F89E66BE1402F0E94DA1189E6F6
:1026A00067E342E00E94DA118EE162E040E00E94BE
:1026B000DA1189E667E340E00E94DA1189E664E313
:1026C0004EE10E94DA1189E667E641E00E94DA11E4
:1026D00089E664E24DE10E94DA1189E665E24EE99D
:1026E0000E94DA1189E666E243E00E94DA1189E687
:1026F00067E246E90E94DA1189E66AE640E20E9452
:10270000DA1181E001C080E01F910F9108959C01D2
:1027100084EA8093BC008091BC0087FFFCCF81E5F8
:102720008093BB0084E88093BC008091BC0087FF4D
:10273000FCCF8091B900887F8834A1F084EC80932D
:10274000BC008091BC0087FFFCCF8091BB00861746
:1027500049F4A0E0B0E0772767FD709561507040C4
:1027600094EC12C084E98093BC0080E008959093BB
:10277000BC008091BC0087FFFCCF8091BB00F901B9
:10278000EA0FFB1F80831196A617B70784F384E82E
:102790008093BC008091BC0087FFFCCF8091BB0080
:1027A000A20FB31F8C9384E98093BC0081E008954D
:1027B000982FF89484EA8093BC008091BC0087FF36
:1027C000FCCF80E58093BB0084E88093BC008091BF
:1027D000BC0087FFFCCF8091B900887F803231F444
:1027E00084E98093BC00789480E0089583E080932E
:1027F000BB0084E88093BC008091BC0087FFFCCFC5
:102800009093BB0084E88093BC008091BC0087FF5C
:10281000FCCF20E030E0552747FD509594E80EC0EE
:10282000FB01E20FF31F80818093BB009093BC00FB
:102830008091BC0087FFFCCF2F5F3F4F24173507E7
:102840007CF384E98093BC00789481E00895FF9242
:102850000F931F93182F062FF42E0E947A1184EAEB
:102860008093BC008091BC0087FFFCCF80E5809303
:10287000BB0084E88093BC008091BC0087FFFCCF44
:102880008091B900887F803229F484E98093BC006C
:1028900080E029C081E08093BB0084E88093BC0085
:1028A0008091BC0087FFFCCF1093BB0084E880932D
:1028B000BC008091BC0087FFFCCF0093BB0084E884
:1028C0008093BC008091BC0087FFFCCFF092BB00DE
:1028D00084E88093BC008091BC0087FFFCCF84E932
:1028E0008093BC0081E01F910F91FF90089581E0DB
:1028F0008093D70080EA8093D80082E189BD09B433
:1029000000FEFDCF80E98093D8001092E000109285
:102910006801109269018CE08093E2007894089538
:102920008091680108959FB7F89480916801882389
:1029300039F083E08093E9008091E80085FD03C0D1
:102940009FBF8FEF08952091F1008091E80085FDF1
:1029500003C08BE68093E8009FBF822F08959FB746
:10296000F89480916801882329F083E08093E9003E
:102970008091F2009FBF089580916801882371F0D3
:102980009FB7F89483E08093E9002BE602C0209380
:10299000E8008091E80085FDFACF9FBF0895482F99
:1029A000809168018823D9F12FB7F89484E080934F
:1029B000E90080916B01882341F08091E80085FD5A
:1029C00002C02FBF12C010926B019091E400975E7D
:1029D00034E08091E80085FD13C02FBF8091E400B2
:1029E000891729F481E080936B018FEF089580911E
:1029F00068018823A1F02FB7F8943093E900E9CF5C
:102A00004093F1008091E80085FD03C08AE3809344
:102A1000E80085E080936A012FBF80E008958FEF82
:102A20000895282F80916801882351F09FB7F8946A
:102A300084E08093E9008091E80085FD03C09FBF9A
:102A40008FEF08952093F1008091E80085FD03C089
:102A50008AE38093E80085E080936A019FBF80E06D
:102A60000895CF93DF93EC0180916801882309F4E6
:102A70001CC13FB7F89484E08093E90080916B011A
:102A8000882309F407C18091E80085FD02C03FBF9B
:102A90000CC110926B01FEC09091E400975E809192
:102AA000E80085FD13C03FBF8091E400891721F441
:102AB00081E080936B01F9C080916801882309F45B
:102AC000F4C03FB7F8945093E900E9CF8091F20049
:102AD0002A2F281B822F90E06817790708F4262FE9
:102AE000822F90E08134910508F0C6C081599F4F34
:102AF000FC01EE0FFF1F0590F491E02D09948991E0
:102B00008093F10089918093F10089918093F10085
:102B100089918093F10089918093F100899180934C
:102B2000F10089918093F10089918093F10089915E
:102B30008093F10089918093F10089918093F10055
:102B400089918093F10089918093F100899180931C
:102B5000F10089918093F10089918093F10089912E
:102B60008093F10089918093F10089918093F10025
:102B700089918093F10089918093F10089918093EC
:102B8000F10089918093F10089918093F1008991FE
:102B90008093F10089918093F10089918093F100F5
:102BA00089918093F10089918093F10089918093BC
:102BB000F10089918093F10089918093F1008991CE
:102BC0008093F10089918093F10089918093F100C5
:102BD00089918093F10089918093F100899180938C
:102BE000F10089918093F10089918093F10089919E
:102BF0008093F10089918093F10089918093F10095
:102C000089918093F10089918093F100899180935B
:102C1000F10089918093F10089918093F10089916D
:102C20008093F10089918093F10089918093F10064
:102C300089918093F10089918093F100899180932B
:102C4000F10089918093F10089918093F10089913D
:102C50008093F10089918093F10089918093F10034
:102C600089918093F10089918093F10089918093FB
:102C7000F10089918093F10089918093F100809116
:102C8000E80085FD02C0B093E800621B7109409323
:102C90006A0104C054E0A0E4BAE345E0611571059F
:102CA00009F0FACE3FBF80E001C08FEFDF91CF91F6
:102CB00008959FB7F89480916A01882341F084E0D9
:102CC0008093E9008AE38093E80010926A019FBF35
:102CD0000895809128010895809129010895809197
:102CE0002A010895809169010895382F9FB7F894BB
:102CF00080916801882339F022E02093E9008091D7
:102D0000E80085FD03C09FBF8FEF089581EA80939F
:102D1000F10080E28093F1001092F1001092F10036
:102D20001092F1001092F1002093F1001092F10046
:102D30003093F1001092F1008AE38093E8009FBF86
:102D400080E008951F920F920FB60F9211248F9377
:102D50009F938091E1001092E100982F83FF11C0B2
:102D60001092E90081E08093EB001092EC0082E188
:102D70008093ED0088E08093F0001092680110923B
:102D8000690192FF13C080916801882379F08091D6
:102D90006A01882359F0815080936A01882331F4B5
:102DA00084E08093E9008AE38093E8009F918F910B
:102DB0000F900FBE0F901F9018951F920F920FB695
:102DC0000F9211240F931F932F933F934F935F9371
:102DD0006F937F938F939F93AF93BF93EF93FF93E3
:102DE0001092E9008091E80083FF3CC14091F1001E
:102DF0003091F1008091F100682F70E02091F10096
:102E0000922F80E0682B792B8091F100A82FB0E001
:102E10002091F100922F80E0A82BB92B1091F100A6
:102E20000091F10082EF8093E800363009F05AC03B
:102E300028EB33E0A90145505040F90137978591BF
:102E400094918617970701F5FA01859194918A1755
:102E50009B07D1F49A012E5F3F4FF9016591749160
:102E60002E5F3F4FF9014491212F30E0902F80E0F9
:102E7000282B392B2F3F310519F010F02FEF30E0C0
:102E8000241758F4422F09C0295F3F4F495F5F4F15
:102E9000F3E0223E3F0789F6E5C05EEF8091E8004F
:102EA000282F30E0C90185709070892BB9F322FD7D
:102EB000DCC0342F413108F030E1232FCB0106C0B4
:102EC000FC010196E491E093F10021502223C1F727
:102ED000630F711D431B5093E8004423F9F6303112
:102EE000E9F2C3C0353061F48EEF8093E800809141
:102EF000E80080FFFCCF862F80688093E300B5C098
:102F0000393051F5442309F0ADC060936801109247
:102F1000690110926A018EEF8093E8008BED93E0D7
:102F200021E02093E900FC010196E491E093EB009D
:102F3000EE2369F0AC014F5F5F4FFC0184918093F9
:102F4000EC00CA010196FA0134913093ED002F5F35
:102F5000253039F78EE181C0383061F4403809F00E
:102F600081C08091E80080FFFCCF80916801809350
:102F7000F10050C0313289F4413A09F073C08091B8
:102F8000E80080FFFCCFE4E2F1E081918093F10062
:102F900081E0EB32F807C9F73DC03032A1F441328D
:102FA00009F060C08091E80082FFFCCFE4E2F1E02C
:102FB0008091F100819381E0EB32F807C9F78BEF44
:102FC0008093E80027C0323251F4413209F04AC000
:102FD000609369018091E80080FFFCCF1BC0332320
:102FE000E9F48091E80080FFFCCF423811F080E0E6
:102FF0000DC0A093E9008091EB0090E025E096954C
:1030000087952A95E1F781701092E9008093F1008D
:103010001092F1008EEF8093E80027C0313011F05C
:10302000333001F54230F1F4672BE1F42A2F2F778A
:10303000822F81508430B0F48EEF8093E80020938B
:10304000E900333079F089E18093EB0081E090E092
:1030500002C0880F991F2A95E2F78093EA00109228
:10306000EA0003C081E28093EB00FF91EF91BF91F2
:10307000AF919F918F917F916F915F914F913F9110
:103080002F911F910F910F900FBE0F901F901895C9
:103090001F93CF93DF93EC01FE012196149111232E
:1030A00049F01A3019F48DE00E94CF14812F0E944C
:1030B000CF14F2CFDF91CF911F910895982F8A30CE
:1030C00010F087E301C080E3890F0E94CF140895B8
:1030D0001F93182F82958F700E945E18812F8F701A
:1030E0000E945E181F9108951F93182F892F0E9428
:1030F0006818812F0E9468181F9108950E9468180F
:103100000895EF92FF920F931F93DF93CF93CDB764
:10311000DEB72B970FB6F894DEBF0FBECDBF8E0182
:103120000F5F1F4F2BE0F80111922A95E9F7A801D4
:103130002AE030E00E9454203BE0E32EF12CEC0E1C
:10314000FD1EF8018081882311F00E94CF140F5FCB
:103150001F4F0E151F05A9F72B960FB6F894DEBF6B
:103160000FBECDBFCF91DF911F910F91FF90EF90D8
:103170000895EF92FF920F931F93DF93CF93CDB7F4
:10318000DEB72B970FB6F894DEBF0FBECDBF8E0112
:103190000F5F1F4F2BE0F80111922A95E9F7A80164
:1031A0002AE030E00E943A204CE0E42EF12CEC0EB4
:1031B000FD1EF8018081882311F00E94CF140F5F5B
:1031C0001F4F0E151F05A9F72B960FB6F894DEBFFB
:1031D0000FBECDBFCF91DF911F910F91FF90EF9068
:1031E0000895EF92FF920F931F93DF93CF9300D038
:1031F00000D000D0CDB7DEB78E010F5F1F4F26E0A5
:10320000F80111922A95E9F7B8014AE050E00E94CE
:10321000812056E0E52EF12CEC0EFD1EF801808198
:10322000882311F00E94CF140F5F1F4F0E151F054A
:10323000A9F726960FB6F894DEBF0FBECDBFCF918B
:10324000DF911F910F91FF90EF900895EF92FF9201
:103250000F931F93DF93CF93CDB7DEB727970FB6AA
:10326000F894DEBF0FBECDBF8E010F5F1F4F27E06A
:10327000F80111922A95E9F7B8014AE050E00E945E
:10328000242068E0E62EF12CEC0EFD1EF801808172
:10329000882311F00E94CF140F5F1F4F0E151F05DA
:1032A000A9F727960FB6F894DEBF0FBECDBFCF911A
:1032B000DF911F910F91FF90EF90089520E030E093
:1032C0008091BC0087FD06C02F5F3F4F83E0293E01
:1032D0003807B1F780E0285E334009F081E00895B7
:1032E0008093BB0084E88093BC000E945E19882311
:1032F00019F08091B900887F08951F93182F84EAF0
:103300008093BC000E945E19882369F0110F812F01
:103310008F5F0E947019883411F081E004C084E945
:103320008093BC0080E01F9108951F93182F84EABA
:103330008093BC000E945E19882361F0812F880F62
:103340000E947019803211F081E004C084E98093FA
:10335000BC0080E01F9108950F931F93DF93CF93DC
:10336000CDB7DEB760970FB6F894DEBF0FBECDBF06
:10337000182F092F88E50E949519882309F469C040
:1033800086E30E947019882309F463C084E980935E
:10339000BC0085E88A95F1F788E50E947D198823AD
:1033A00009F457C0FE01319680E1DF011D928A9534
:1033B000E9F794EC9E01205F3F4F9093BC00809111
:1033C000BC0087FFFCCF8091BB008193E217F3071D
:1033D000A1F784E88093BC008091BC0087FFFCCFFC
:1033E0008091BB00888B84E98093BC00DE0112963B
:1033F000212F302FC901FC01BE01625F7F4F129661
:103400002C91129730E0C9018073907054E0880FBE
:10341000991F5A95E1F74C91840F911D91838083F8
:10342000C901807C9070880F991F880F991F119691
:103430004C911197840F911D938382832F7030706C
:103440003583248313963696A617B707C1F681E015
:1034500001C080E060960FB6F894DEBF0FBECDBF0E
:10346000CF91DF911F910F91089584E98093BC0063
:1034700008951F93CF93DF930E947A1188E50E94ED
:103480009519882309F4B3C080E30E94701988233A
:1034900009F4ADC081E00E947019882309F4A7C027
:1034A00084E98093BC0080E49CE90197F1F788E50A
:1034B0000E949519882309F49AC080E00E9470192F
:1034C000882309F494C080E00E947019882309F4CD
:1034D0008EC080E00E947019882309F488C080E0C3
:1034E0000E947019882309F482C080E00E9470193C
:1034F000882309F47CC080E00E947019882309F4B5
:1035000076C080E00E947019882309F470C080E9B9
:103510000E947019882309F46AC014E91093BC0052
:10352000C0E4DCE9CE010197F1F788E50E94951926
:10353000882309F45CC087E00E947019882309F48D
:1035400056C080E00E947019882309F450C081E4BD
:103550000E947019882309F44AC01093BC00CE0160
:103560000197F1F788E50E949519882309F43FC077
:103570008AE10E947019882309F439C080E40E940E
:1035800070198823A1F180E00E947019882379F1D5
:103590001093BC00CE010197F1F788E50E949519C0
:1035A000882329F183E30E947019882301F183E0C5
:1035B0000E9470198823D9F01093BC00CE010197A6
:1035C000F1F788E50E949519882389F080E30E942D
:1035D0007019882361F088E00E947019882339F0FF
:1035E0001093BC00CE010197F1F781E001C080E0AB
:1035F000DF91CF911F9108951F920F920FB60F92F6
:1036000011242F933F934F935F936F937F938F93E7
:103610009F93AF93BF93EF93FF936A9A8EB194E019
:1036200089278EB90E94BE0CFF91EF91BF91AF9197
:103630009F918F917F916F915F914F913F912F91CA
:103640000F900FBE0F901F9018951F920F920FB6FC
:103650000F9211242F933F934F935F936F937F9318
:103660008F939F93AF93BF93EF93FF930E942D117E
:10367000FF91EF91BF91AF919F918F917F916F914A
:103680005F914F913F912F910F900FBE0F901F9020
:1036900018951F920F920FB60F9211242F933F93FC
:1036A0004F935F936F937F938F939F93AF93BF934A
:1036B000EF93FF930E942903FF91EF91BF91AF9188
:1036C0009F918F917F916F915F914F913F912F913A
:1036D0000F900FBE0F901F90189580E885BF85BF93
:1036E000E1E6F0E0808310820E947A112FEF83ECF4
:1036F00099E0215080409040E1F700C000000E9416
:103700003B0D2FEF89E698E1215080409040E1F792
:1037100000C0000080912B0190912C010E94B00C00
:103720000E944A110E9451020E94150F0E944203FA
:10373000789408958F929F92AF92BF92CF92DF922A
:10374000EF92FF92C090CE01D090CF01E090D001D7
:10375000F090D10120E030E0A901C701B6010E943C
:10376000171F18162CF460E070E086EE92EC04C08F
:1037700060E070E086EE92E4A70196010E94A01C32
:103780006B017C012091D2013091D3014091D40191
:103790005091D50160E070E0CB010E94A01CA70110
:1037A00096010E94141D9B01AC016BED7FE089EC3A
:1037B0009FE30E94A01C6B017C0120E030E0A90186
:1037C0000E94671D87FF0AC02BED3FE049EC50E4E3
:1037D000C701B6010E94A11C6B017C012091D6019A
:1037E0003091D7014091D8015091D901C701B6015C
:1037F0000E94A01C6B017C019F772AE037ED43EA11
:103800005DE30E94671D87FF07C02DEC3CEC4CE494
:103810005FE3CA01B90129C020E030E044E353E48A
:10382000C701B6010E94171F18161CF46FEF7FEF37
:1038300002C061E070E0882777FD8095982F0E9494
:10384000091E6B017C0120E030E040E05FEB0E944C
:10385000221F4B015C0120E030E040E05FE3C70144
:10386000B6010E94221FA5019401FF90EF90DF9006
:10387000CF90BF90AF909F908F900C944103CF93C7
:10388000DF93CDB7DEB72C970FB6F894DEBF0FBE2F
:10389000CDBF0E946D1B8CE0E82E90E4F92E8AEDDE
:1038A00091E00E94C80C892B79F081E090E0209192
:1038B000DA013091DB012130310511F080E090E038
:1038C00090936D0180936C010E94170FCE010196B9
:1038D0000E94690BFE013196AEECB1E08E2D019095
:1038E0000D928A95E1F70E94B70F80912D0190917A
:1038F0002E01892B11F00E949A1B0E944111009108
:103900006E0110916F012091700130917101601B67
:10391000710B820B930B653F7140810591050CF48F
:10392000BECF6E9A8EB18F258EB90E9441116093E1
:103930006E0170936F018093700190937101AFCF0E
:103940005058BB27AA270ED027C2F0D130F0F5D1AE
:1039500020F031F49F3F11F41EF4C0C10EF4E09545
:10396000E7FBB6C1E92F3AD280F3BA1762077307B3
:103970008407950718F071F49EF552C20EF4E09595
:103980000B2EBA2FA02D0B01B90190010C01CA0119
:10399000A0011124FF27591B99F0593F50F4503EC4
:1039A00068F11A16F040A22F232F342F4427585FB6
:1039B000F3CF469537952795A795F0405395C9F7CE
:1039C0007EF41F16BA0B620B730B840BBAF0915086
:1039D000A1F0FF0FBB1F661F771F881FC2F70EC025
:1039E000BA0F621F731F841F48F4879577956795F8
:1039F000B795F7959E3F08F0B3CF9395880F08F0E1
:103A00009927EE0F97958795089590D158F080E803
:103A100091E009F49EEF91D128F040E851E059F48B
:103A20005EEF09C05BC1FCC1E92FE078D7D168F334
:103A3000092E052AC1F3261737074807590738F01A
:103A40000E2E07F8E02569F0E025E0640AC0EF6378
:103A500007F8009407FADB01B9019D01DC01CA01F6
:103A6000AD01EF934AD098D10AD05F91552331F040
:103A70002BED3FE049E450FD49EC63CF0895DF931F
:103A8000DD27B92FBF7740E85FE316161706480712
:103A90005B0710F4D92FCFD19F938F937F936F93B0
:103AA0007CD2E0E6F1E01DD177D12F913F914F918B
:103AB0005F91D4D1DD2349F09058A2EA2AED3FE08E
:103AC00049EC5FE3D0785D274DDFDF9165C1DCD045
:103AD00008F481E0089539D1E3956FC10CD05CC141
:103AE0002CD140F023D130F021F45F3F19F0F0C029
:103AF000511197C1F3C072D198F39923C9F355239B
:103B0000B1F3951B550BBB27AA27621773078407D0
:103B100038F09F5F5F4F220F331F441FAA1FA9F386
:103B200033D00E2E3AF0E0E830D091505040E69578
:103B3000001CCAF729D0FE2F27D0660F771F881FD9
:103B4000BB1F261737074807AB07B0E809F0BB0BC8
:103B5000802DBF01FF2793585F4F2AF09E3F5105EC
:103B600068F0B6C05EC15F3FECF3983EDCF386952B
:103B700077956795B795F7959F5FC9F7880F911D62
:103B80009695879597F90895E1E0660F771F881F4E
:103B9000BB1F621773078407BA0720F0621B730B01
:103BA000840BBA0BEE1F88F7E095089504D0689453
:103BB000B11137C108951AD188F09F5790F0B92FED
:103BC0009927B751A0F0D1F0660F771F881F991F72
:103BD0001AF0BA95C9F712C0B13081F021D1B1E025
:103BE00008951EC1672F782F8827B85F39F0B93F35
:103BF000CCF3869577956795B395D9F73EF4909574
:103C00008095709561957F4F8F4F9F4F0895E894F1
:103C100009C097FB3EF490958095709561957F4F14
:103C20008F4F9F4F9923A9F0F92F96E9BB279395C2
:103C3000F695879577956795B795F111F8CFFAF4D2
:103C4000BB0F11F460FF1BC06F5F7F4F8F4F9F4F03
:103C500016C0882311F096E911C0772321F09EE861
:103C6000872F762F05C0662371F096E8862F70E0C7
:103C700060E02AF09A95660F771F881FDAF7880FA1
:103C80009695879597F90895990F0008550FAA0BF7
:103C9000E0E8FEEF16161706E807F907C0F012165F
:103CA0001306E407F50798F0621B730B840B950B62
:103CB00039F40A2661F0232B242B252B21F40895B7
:103CC0000A2609F4A140A6958FEF811D811D089554
:103CD00097F99F6780E870E060E008959FEF80ECBF
:103CE0000895DF93CF931F930F93FF92EF92DF928C
:103CF0007B018C01689405C0DA2EEF01AFD0FE0184
:103D0000E894A5912591359145915591AEF3EF0138
:103D100029DEFE019701A801DA9479F7DF90EF9090
:103D2000FF900F911F91CF91DF91089500240A9485
:103D30001616170618060906089500240A94121686
:103D40001306140605060895C9CF50D0E8F3E89489
:103D5000E0E0BB279F57F0F02AED3FE049EC06C0BA
:103D6000EE0FBB0F661F771F881F28F0B23A62075D
:103D70007307840728F0B25A620B730B840BE39528
:103D80009A9572F7803830F49A95BB0F661F771FAB
:103D9000881FD2F7904806C1092E0394000C11F435
:103DA000882352F0BB0F40F4BF2B11F460FF04C016
:103DB0006F5F7F4F8F4F9F4F0895EF93E0FF06C0D7
:103DC000A2EA2AED3FE049EC5FEBCCDDE5DF0F90A6
:103DD000039401FC9058EDE8F1E0F7C057FD9058CE
:103DE000440F551F59F05F3F71F04795880F97FBBF
:103DF000991F61F09F3F79F0879508951216130679
:103E00001406551FF2CF4695F1DF08C016161706A7
:103E10001806991FF1CF86957105610508940895DC
:103E2000E894BB2766277727CB0197F908952CDF05
:103E300008F48FEF08959B01AC0160E070E080E82A
:103E40009FE34CCE0BD0A8CF71DF28F076DF18F0BF
:103E5000952309F03DCF42CF1124E3CFBFDFA0F37C
:103E6000959FD1F3950F50E0551F629FF001729F0F
:103E7000BB27F00DB11D639FAA27F00DB11DAA1F2E
:103E8000649F6627B00DA11D661F829F2227B00D7B
:103E9000A11D621F739FB00DA11D621F839FA00D06
:103EA000611D221F749F3327A00D611D231F849F56
:103EB000600D211D822F762F6A2F11249F575040AD
:103EC0008AF0E1F088234AF0EE0FFF1FBB1F661F48
:103ED000771F881F91505040A9F79E3F510570F001
:103EE000F7CE9FCF5F3FECF3983EDCF38695779556
:103EF0006795B795F795E7959F5FC1F7FE2B880FFC
:103F0000911D9695879597F908959F931EDF0F90C1
:103F100007FCEE5F52CF11F40EF4E0CE41C066DF35
:103F2000D0F39923D9F3CEF39F57550B87FF46D093
:103F30000024A0E640EA900180585695979528F411
:103F4000805C660F771F881F20F026173707480709
:103F500030F4621B730B840B202931294A2BA69560
:103F600017940794202531254A2758F7660F771FA5
:103F7000881F20F026173707480730F4620B730BB1
:103F8000840B200D311D411DA09581F7B901842FAF
:103F90009158880F9695879508959B01AC0152CF53
:103FA0009F3F31F0915020F4879577956795B795AD
:103FB000880F911D9695879597F9089591505040D7
:103FC000660F771F881FD2F708959F938F937F9373
:103FD0006F93FF93EF939B01AC0134DFEF91FF915F
:103FE00080DE2F913F914F915F912CCF97FB072E51
:103FF00016F4009407D077FD09D00E94102007FC2A
:1040000005D03EF4909581959F4F089570956195E8
:104010007F4F0895EE0FFF1F0590F491E02D099456
:10402000AA1BBB1B51E107C0AA1FBB1FA617B707DE
:1040300010F0A61BB70B881F991F5A95A9F78095FA
:104040009095BC01CD0108954532510520F44230D0
:1040500010F00C942F20FB011082CB010895BB2798
:104060004A3031F4992322F4BDE2909581959F4F17
:104070000C948D202532310520F4223010F00C9460
:104080004520FA011082CA010895BB272A3051F455
:10409000992342F4BDE290958095709561957F4F8C
:1040A0008F4F9F4F0C9460202532310520F4223031
:1040B00010F00C945F20FA011082CA010895BB270A
:1040C000FA01A62F6217710581059105330B30FBAC
:1040D00066F0AA27660F771F881F991FAA1FA217CD
:1040E00010F0A21B63953850A9F7A05DAA3308F021
:1040F000A95DA19336F7B111B1931082CA010C9456
:10410000A6204532510520F4423010F00C948C204A
:10411000FB011082CB010895BB27FB015527AA277D
:10412000880F991FAA1FA41710F0A41B8395505144
:10413000B9F7A05DAA3308F0A95DA193009779F7BC
:10414000B111B1931192CB010C94A620DC01FC01BA
:10415000672F71917723E1F7329704C07C916D93BB
:1041600070836291AE17BF07C8F30895F894FFCF2C
:104170000D001A00140010001D00170001000100BE
:1041800000000100BC019C01B801FD014503700362
:1041900097035D0300E100000000082C000100010E
:1041A00000020003000400010002000200030004FA
:0841B0000001000300040000FF
:00000001FF
