:100000000C9441020C945E020C945E020C942C1E23
:100010000C945E020C945E020C945E020C945E02E0
:100020000C945E020C945E020C94B2190C94EC19C0
:100030000C945E020C945E020C945E020C945E02C0
:100040000C945E020C94E41D0C94081E0C945E0249
:100050000C945E020C945E020C945E020C945E02A0
:100060000C945E020C945E020C945E020C945E0290
:100070000C945E020C94791E0C945E020C945E0249
:100080000C94551E0C945E020C945E020C945E025D
:100090000C945E020C945E020C945E020C945E0260
:1000A0000C945E020C945E020C945E02B002B202EA
:1000B000C702BB02D302B902DA02E102F202E40D86
:1000C000E80DEE0DF10DFF0D0D0E020E050E730E77
:1000D000760E790E920EAB0EAE0EB10EB40E5A190C
:1000E00052194A1942193A1932192A1922191A1998
:1000F00012190A190219FA18F218EA18E218DA188D
:10010000D218CA18C218BA18B218AA18A2189A187F
:1001100092188A1882187A1872186A1862185A186F
:1001200052184A1842183A1832182A1822181A185F
:1001300012180A180218FA17F217EA17E217DA1754
:10014000D217CA17C217BA17B217AA17A2179A1747
:1001500092178A1782177A1772176A1762175A1737
:10016000084AD73B3BCE016E84BCBFFDC12F3D6C1E
:1001700074319ABD56833DDA3D00C77F11BED9E484
:10018000BB4C3E916BAAAABE000000803F05A84C64
:10019000CDB2D44EB93836A9020C50B99186880830
:1001A0003CA6AAAA2ABE000000803F00426164204B
:1001B00063686172616374657220726563656976F4
:1001C000656421204974207761733A2000207269A8
:1001D0006768743A20000A204D6F746F722064754E
:1001E000747920287831303029206C6566743A2083
:1001F00000207068692A3130303A20002079506F31
:10020000733A20000A43757272656E742078506FDD
:10021000733A2000207363616C653A200020746893
:100220003A20002079433A20000A436F6E7374200D
:10023000646174613A2078433A20003A20002076C5
:10024000003A20002079003A20000A6D57696920A1
:1002500078002056616C69643A2000204469737408
:100260003A20000A205075636B20416E676C653A36
:10027000200020000A205075636B20414443205623
:10028000616C733A00556E7265636F676E697A656B
:100290006420576972656C6573734D65737361672C
:1002A000650A00576972656C6573734D6573736198
:1002B000676520697320554E4B4E4F574E2E0A00EE
:1002C000576972656C6573734D65737361676520FB
:1002D00069732047414D455F4F5645522E0A0057DE
:1002E0006972656C6573734D6573736167652069C9
:1002F000732048414C4654494D452E0A00576972B7
:10030000656C6573734D65737361676520697320F0
:1003100050415553452E0A000A000953636F726518
:1003200020426C756520697320000A000953636FD1
:100330007265205265642069732000576972656C8C
:100340006573734D65737361676520697320474FEB
:10035000414C5F422E0A000A000953636F72652008
:10036000426C756520697320000A000953636F723F
:1003700065205265642069732000576972656C6559
:1003800073734D65737361676520697320474F41CF
:100390004C5F522E0A00576972656C6573734D6528
:1003A000737361676520697320504C41592E0A00B0
:1003B000576972656C6573734D657373616765200A
:1003C000697320434F4D4D5F544553542E0A00002E
:1003D0000100006604120002000023044300030031
:1003E000001F0404010309040B041202030904039F
:1003F000040603030904F90308080334003100303C
:1004000000000006034D003200000012034A002ED7
:100410000020004600690065006E006500000004D1
:1004200003090409024300020100C032090400006C
:10043000010202010005240010010524010101044C
:100440002402060524060001070582031000400966
:10045000040100020A000000070503024000000733
:100460000584024000001201000202000010C016C4
:100470007A040001010203010001C112018036016A
:10048000813611241FBECFEFDAE0DEBFCDBF11E011
:10049000A0E0B1E0E6E3F8E402C005900D92A834D4
:1004A000B107D9F721E0A8E4B1E001C01D92AE3F49
:1004B000B207E1F70E94D81F0C9419240C94000095
:1004C00080B38F7380BB81B38F7381BBECE7F0E0A7
:1004D00080818F778083808180648083AAE7B0E009
:1004E0008C9184608C938C9181608C93EEE7F0E02A
:1004F000808181608083808182608083808180614F
:100500008083808180628083808180648083808119
:1005100080688083EDE7F0E0808181608083808166
:10052000886080838081806180838C9188608C93D7
:100530008C918F778C93089520917A002F77209358
:100540007A0090934B0180934A018930910508F01D
:100550005BC0FC01EA5AFF4F80917B000C94992309
:100560008F7D29C08F7D80937B0080917C008B7F65
:1005700008C08F7D38C08F7D80937B0080917C0088
:10058000846080937C0080917C008D7F25C08F7D6E
:1005900080937B0080917C00846080937C008091BC
:1005A0007C0082602AC08F7D80937B0080917C00DC
:1005B00084600DC0806280937B0080917C008B7F83
:1005C00017C0806280937B0080917C008B7F80933A
:1005D0007C0080917C00826080937C0080917C0014
:1005E000816010C0806280937B0080917C00846079
:1005F00080937C0080917C008D7F80937C00809133
:100600007C008E7F80937C0080917A00806880934C
:100610007A0080917A00806480937A000895209116
:100620004C0130914D01232B71F420914E013091FA
:100630004F01232B41F421E030E030934D01209312
:100640004C010E949C0280914E0190914F01892B98
:1006500071F010924F0110924E016091480170911B
:10066000490180914A0190914B010C9433110895F6
:1006700081E090E090934F0180934E0110924D01E4
:1006800010924C01809178009091790090934901EB
:1006900080934801EAE7F0E080818F7780830895B6
:1006A0001092530110925201289A29982A9A2B9855
:1006B00008951092510110925001299A28982B9A6E
:1006C0002A980895E1E8F0E080818960808380E2E3
:1006D00093E0909389008093880080E991E0909363
:1006E0008B0080938A00EFE6F0E080818660808353
:1006F000089584B18F6084B9289829982A982B98F6
:100700000895CF92DF92EF92FF926B017C0120E07F
:1007100030E0A9010E94F62087FD1EC020E030E0F5
:1007200040E85FE3C701B6010E94A6221816A4F0B4
:10073000609188007091890080E090E00E9496218D
:100740009B01AC01C701B6010E94B1220E946A213F
:1007500070938B0060938A00FF90EF90DF90CF90B2
:100760000895CF92DF92EF92FF926B017C0120E01F
:1007700030E0A9010E94F62087FD1EC020E030E095
:1007800040E85FE3C701B6010E94A6221816A4F054
:10079000609188007091890080E090E00E9496212D
:1007A0009B01AC01C701B6010E94B1220E946A21DF
:1007B00070938D0060938C00FF90EF90DF90CF904E
:1007C0000895A1E8B0E08C9180618C938C91886051
:1007D0008C93E0E8F0E0808182608083808181609A
:1007E000808384B1806C84B98081806280838081C1
:1007F0008F7E808380818860808380818B7F8083EF
:10080000EFE6F0E080818260808380E293E0909365
:100810008900809388008C918B7F8C938C918D7F45
:100820008C938C9181608C930895CF93DF9300D04B
:1008300000D0CDB7DEB729833A834B835C830E9417
:10084000810329813A814B815C81CA01B9010F90F2
:100850000F900F900F90DF91CF910C94B10388EE21
:1008600093E09093A3018093A2019093A5018093BC
:10087000A4011092A6011092A7011092A801109253
:10088000A9011092AA011092AB011092AC01109232
:10089000AD0110928601109287011092880110928A
:1008A000890110928A0110928B0110928C01109292
:1008B0008D0110928E0110928F0110929001109272
:1008C00091010895EF92FF920F931F93CF93DF93BF
:1008D000CDB7DEB7FE0139966CE171E044E151E03D
:1008E0009E012F5D3F4F8CE0E82E81E0F82E84E0E2
:1008F00090E000811181DB010D931D93BD01028108
:100900001381DA010D931D93AD01D9010D911D9154
:100910009D01D7010D931D937D0101973696009798
:1009200041F7DF91CF911F910F91FF90EF900895C4
:10093000861B970B421B530B889FB001899F700D3C
:10094000700D1124449FC001459F900D900D1124FE
:10095000680F791F882777FD8095982F0E9498212E
:100960000E941E230E946521CB010895FC01419144
:10097000519121E030E080E090E02617370764F4E1
:10098000A191B191A417B50714F0DA0101C0C90112
:100990002F5F3F4FAD01F1CF0895FC01419151917F
:1009A00021E030E080E090E02617370764F4A19161
:1009B000B1914A175B0714F0DA0101C0C9012F5F3A
:1009C0003F4FAD01F1CF08952F923F924F925F922A
:1009D0006F927F928F929F92AF92BF92CF92DF924F
:1009E000EF92FF920F931F93CF93DF93CDB7DEB7B4
:1009F000A0970FB6F894DEBF0FBECDBF9E878D8740
:100A00008B014A012091A2013091A3013C8F2B8FD1
:100A10006091A4017091A5017A8F698F8091A601E0
:100A20009091A701A091A801B091A9018D8B9E8BF7
:100A3000AF8BB88F6091AA017091AB018091AC012E
:100A40009091AD01698B7A8B8B8B9C8BDA014D90E9
:100A50005C9011971296AD90BC901397F80120808E
:100A60003180628073809201A501B101C3010E94AF
:100A70009804988B8F87D4011496CD90DC901597AD
:100A8000F801E480F5809501A601B301C7010E9439
:100A900098045C019201A601B101C7010E9498046B
:100AA0002F85388938872F83BA86A9869C878B87BC
:100AB00063E070E0CE0107960E94B604FC01EE0FE1
:100AC000FF1F61E070E06C0F7D1FE60FF71FC6800F
:100AD000D780FE0137969B017E017DE0E70EF11C79
:100AE00048EEA42E43E0B42E419151914A9DC0019D
:100AF0004B9D900D5A9D900D1124B6010E948523A7
:100B0000D9016D937D939D01EE15FF0569F78981EC
:100B10009A812B813C81820F931F2D813E81820F10
:100B2000931F8B32B2E19B070CF4ABC063E070E023
:100B3000CE0101960E94B6047C0163E070E0CE0114
:100B400001960E94CD04E114F10469F4813091050D
:100B500039F422E030E0309393012093920123C0D6
:100B600082E090E00EC0892BA9F4EA94EF2839F4D2
:100B7000109293011092920181E090E014C081E004
:100B800090E090939301809392011092B1011092A2
:100B9000B0010DC0EA94EF2859F31092930110921E
:100BA000920182E090E09093B1018093B001409176
:100BB000B0015091B101440F551FF801E40FF51F2A
:100BC0006081718170939D0160939C01809192017D
:100BD00090919301880F991FF801E80FF91F208168
:100BE000318130939B0120939A01F401E40FF51FAA
:100BF000008111811093970100939601F401E80F91
:100C0000F91FE080F180F0929501E0929401CB0110
:100C1000820F931F97FD0196959587959093BB0141
:100C20008093BA01C8018E0D9F1D97FD0196959581
:100C300087959093990180939801621B730B882785
:100C400077FD8095982F0E9498212BED3FE049EC8D
:100C50005FE30E942F209B01AC01B8016E197F0950
:100C6000882777FD8095982F2D8F3E8F4F8F58A323
:100C70000E9498212D8D3E8D4F8D58A10E94A3205A
:100C800024C2863A2EE092070CF066C163E070E061
:100C9000CE0101960E94B6047C0163E070E0CE01B3
:100CA00001960E94CD04E114F10479F4813091059C
:100CB00029F4909393018093920104C010929301C0
:100CC0001092920182E090E011C00097A1F431E00F
:100CD000E316F10429F4F0929301E09292011BC013
:100CE000109293011092920181E090E09093B901EB
:100CF0008093B80114C08130910539F422E030E0CE
:100D00003093930120939201F1CF82E090E0909391
:100D10009301809392011092B9011092B801409111
:100D2000B8015091B901BA01660F771FF801E60FBB
:100D3000F71FE080F180F092B701E092B6012091B8
:100D4000920130919301C901880F991FF801E80FB2
:100D5000F91F2080318030929B0120929A01F4018A
:100D6000E60FF71FC080D180D092BD01C092BC01B8
:100D7000F401E80FF91F60817181788B6F877093A0
:100D800095016093940183E090E0841B950B821B96
:100D9000930B880F991FF801E80FF91FA080B1800D
:100DA000B092B501A092B401F401E80FF91F0081DF
:100DB00011811093B3010093B201B7016219730955
:100DC000882777FD8095982F0E9498219B01AC0180
:100DD000B6018F859889681B790B882777FD8095E8
:100DE000982F2D8F3E8F4F8F58A30E9498212D8DC5
:100DF0003E8D4F8D58A10E94A32029E130E94DE896
:100E00005FE30E9430202BED3FE049E450E40E9474
:100E100030202B013C0120E030E0A9010E94F620A7
:100E200087FD09C040929E0150929F016092A001EF
:100E30007092A10110C02BED3FE049EC50E4C301DA
:100E4000B2010E94302060939E0170939F018093B5
:100E5000A0019093A1019801A601B501C7010E94CC
:100E60009804BC01882777FD8095982F0E949821CF
:100E700023E436E142E35FE30E94B1226B017C018F
:100E800020EF35E849E55FE360919E0170919F0195
:100E90008091A0019091A1010E942F202BED3FE0B5
:100EA00049E450E40E942F202B013C010E94FA20CB
:100EB0009B01AC01B501882777FD8095982F2D8F78
:100EC0003E8F4F8F58A30E9498214B015C012D8DBE
:100ED0003E8D4F8D58A1C701B6010E94B1229B01E2
:100EE000AC01C501B4010E9430200E9465214B0174
:100EF0005C0170939D0160939C01C301B2010E944B
:100F000014239B01AC01B801882777FD8095982FA9
:100F10002D8F3E8F4F8F58A30E9498212B013C01AB
:100F20002D8D3E8D4F8D58A1C701B6010E94B12273
:100F30009B01AC01C301B2010E9430200E946521D7
:100F40007093970160939601820C931C97FE46C2A2
:100F5000AFEF8A1A9A0A42C28F3BFFE09F070CF458
:100F6000D6C063E070E0CE0101960E94B6047C0119
:100F700063E070E0CE0101960E94CD04E114F1041B
:100F800069F48130910539F422E030E03093930127
:100F9000209392012DC082E090E011C0892BC1F412
:100FA00021E0E216F10449F41092930110929201AB
:100FB000F092B101E092B0011FC081E090E0909307
:100FC0009301809392011092B1011092B00114C06C
:100FD000EA94EF2829F4109293011092920106C02E
:100FE00081E090E0909393018093920182E090E001
:100FF0009093B1018093B0014091B0015091B10143
:10100000440F551FF801E40FF51F60817181709343
:101010009D0160939C018091920190919301880FB2
:10102000991FF801E80FF91F2081318130939B014E
:1010300020939A01F401E40FF51FE080F180F09213
:101040009701E0929601F401E80FF91F00811181E8
:101050001093950100939401CB01820F931F97FD8C
:101060000196959587959093BB018093BA01C7012E
:10107000800F911F97FD0196959587959093990103
:1010800080939801621B730B882777FD8095982FBA
:101090000E9498219B01AC01B701601B710B88274E
:1010A00077FD8095982F2D8F3E8F4F8F58A30E94EC
:1010B00098212D8D3E8D4F8D58A10E94A3202BEDA0
:1010C0003FE049EC5FE30E942F206B017C016093BD
:1010D0009E0170939F018093A0019093A10120E055
:1010E00030E0A9010E94F62087FFAFC12BED3FE061
:1010F00049EC50E4C701B6010E94302060939E0184
:1011000070939F018093A0019093A1019EC18E3B9B
:101110009F4009F478C163E070E0CE0101960E941F
:10112000B6047C0163E070E0CE0101960E94CD041C
:10113000E114F10479F48130910529F41092B101A0
:101140001092B0012CC081E090E09093B1018093A7
:10115000B00111C00097A1F482E090E09093B1013A
:101160008093B00171E0E716F10429F4F092B9011F
:10117000E092B80118C01092B9011092B80113C0E2
:10118000019729F41092B1011092B00106C081E0DC
:1011900090E09093B1018093B00182E090E0909351
:1011A000B9018093B8014091B0015091B101BA01E9
:1011B000660F771FF801E60FF71F2080318030920D
:1011C0009D0120929C012091B8013091B901C90183
:1011D000880F991FF801E80FF91FE080F180F09265
:1011E000B701E092B601F401E60FF71FA081B181CB
:1011F000B88BAF87B0939701A0939601F401E80FE5
:10120000F91FC080D180D092BD01C092BC0183E0A3
:1012100090E0841B950B821B930B880F991FF8019C
:10122000E80FF91FA080B180B092B501A092B4017F
:10123000F401E80FF91F008111811093B3010093AD
:10124000B201B1016A197B09882777FD8095982F33
:101250000E9498219B01AC016F857889601B710BFE
:10126000882777FD8095982F2D8F3E8F4F8F58A31D
:101270000E9498212D8D3E8D4F8D58A10E94A32054
:1012800020EF35E849E55FE30E9430202BED3FE099
:1012900049E450E40E9430202B013C0120E030E082
:1012A000A9010E94F62087FD09C040929E0150923C
:1012B0009F016092A0017092A10110C02BED3FE050
:1012C00049EC50E4C301B2010E94302060939E01BA
:1012D00070939F018093A0019093A1019801A601B2
:1012E000B501C7010E949804BC01882777FD80954D
:1012F000982F0E94982123ED3BE94EE55FE30E9481
:10130000B1226B017C0124E036E54EE05FE36091A1
:101310009E0170919F018091A0019091A1010E9476
:101320002F202BED3FE049EC5FE30E942F202B01A3
:101330003C010E94FA209B01AC01B501882777FD92
:101340008095982F2D8F3E8F4F8F58A30E94982104
:101350004B015C012D8D3E8D4F8D58A1C701B6010B
:101360000E94B1229B01AC01C501B4010E94302052
:101370000E9465214B015C0170939B0160939A016F
:10138000C301B2010E9414239B01AC01B80188275C
:1013900077FD8095982F2D8F3E8F4F8F58A30E94F9
:1013A00098212B013C012D8D3E8D4F8D58A1C701F9
:1013B000B6010E94B1229B01AC01C301B2010E949F
:1013C00030200E9465217093950160939401820CF6
:1013D000931C97FE03C0BFEF8B1A9B0A95948794CA
:1013E0009092BB018092BA01EF85F8896E0F7F1F42
:1013F00077FF02C06F5F7F4F759567957093990176
:101400006093980122C0EB8DFC8DAD85BE85119651
:10141000FC93EE93298D3A8D13963C932E9312975D
:101420006D897E898F89988D14966D937D938D93A8
:101430009C93179769897A898B899C8918966D93F3
:101440007D938D939C931B9741C0A090BA01B0905F
:10145000BB010091980110919901C0909E01D0901C
:101460009F01E090A001F090A101209196013091A0
:101470009701409194015091950160919C01709168
:101480009D0180919A0190919B010E949804ED85A5
:10149000FE85B182A08213830283C482D582E68254
:1014A000F782BC01882777FD8095982F0E949821AC
:1014B0009B01AC0160E070E088EE91E40E94FD20A9
:1014C000ED85FE8560877187828793878D859E85F0
:1014D000A0960FB6F894DEBF0FBECDBFDF91CF91BF
:1014E0001F910F91FF90EF90DF90CF90BF90AF9042
:1014F0009F908F907F906F905F904F903F902F9034
:1015000008952F923F924F925F926F927F928F92A7
:101510009F92AF92BF92CF92DF92EF92FF920F9382
:101520001F93CF93DF93CDB7DEB7C254D1090FB667
:10153000F894DEBF0FBECDBF9AAB89AB8B013A01E9
:10154000DA01ED90FC90119712962D903C90139734
:10155000FB0180809180228133813CAB2BAB9701D2
:10156000A101B4018BA99CA90E94980498AF8FABEC
:10157000D3011496AD90BC901597F8014480558026
:101580009101A5016BA97CA9C2010E9498049AAFA0
:1015900089AFD30116960D90BC91A02DBEABADAB1B
:1015A000F801C680D7809501AD01B201C6010E9445
:1015B00098049CAF8BAF2DA93EA9A701B601C40129
:1015C0000E9498049EAF8DAF9701A501B401C2019E
:1015D0000E9498047C0191014DA95EA96BA97CA988
:1015E000C6010E9498042FA938AD3EA32DA3A9AD32
:1015F000BAADB8A7AFA3EBADFCADFAA7E9A72DAD87
:101600003EAD3CA72BA7FEA6EDA698AB8FA766E044
:1016100070E0CE0185960E94B604FC01EE0FFF1F1C
:1016200081E090E08C0F9D1FE80FF91FC4A0D5A0AA
:101630009E012B5D3F4FFE0179967E0191E3E90EFD
:10164000F11C4F0198EEA92E93E0B92ED9016D91AE
:101650007D919D016A9DC0016B9D900D7A9D900DBD
:101660001124B6010E948523619371932E153F05C5
:1016700069F78CE0E0E3F1E0DE011D9601900D9248
:101680008A95E1F78CE0ECE3F1E0DE011196019040
:101690000D928A95E1F766E070E0C4010E94B604FD
:1016A000FC01EE0FFF1F21E030E02C0F3D1FE20F89
:1016B000F31FC484D584E080F18066E070E0C4014B
:1016C0000E94CD04FC01EE0FFF1F81E090E08C0F23
:1016D0009D1FE80FF91F2485358580819181C216F1
:1016E000D30641F4D092B101C092B001909393011E
:1016F00080939201C816D90641F49093B10180936A
:10170000B0013093930120939201E216F30641F465
:10171000F092B101E092B001909393018093920115
:10172000E816F90641F4F092B101E092B00130936D
:101730009301209392012091B0013091B101215089
:101740003048220F331FF801E20FF31FE080F180D1
:10175000809192019091930181509048880F991F38
:10176000F801E80FF91F00811181F301E20FF31F67
:10177000A080B180F301E80FF91FC080D18047013C
:10178000800E911E97FE03C09FEF891A990A9594C7
:10179000879415012C0C3D1C37FE03C0AFEF2A1AAD
:1017A0003A0A35942794B701601B710B882777FD9F
:1017B0008095982F0E9498219B01AC01B5016C196E
:1017C0007D09882777FD8095982F2FAF21963FAF11
:1017D000219722964FAF229723965FAF23970E94BF
:1017E00098212FAD21963FAD219722964FAD22979C
:1017F00023965FAD23970E94A3202BED3FE049EC99
:101800005FE30E942F202B013C0120E030E0A90182
:101810000E94F62087FF0AC02BED3FE049EC50E420
:10182000C301B2010E9430202B013C019501A601A9
:10183000B701C8010E949804E9A9FAA9918280829F
:10184000338222824482558266827782BC01882755
:1018500077FD8095982F0E9498219B01AC0160E054
:1018600070E088EE91E40E94FD20E9A9FAA9608762
:10187000718782879387CF01CE5BDF4F0FB6F894D5
:10188000DEBF0FBECDBFDF91CF911F910F91FF90B3
:10189000EF90DF90CF90BF90AF909F908F907F9010
:1018A0006F905F904F903F902F9008954F925F926E
:1018B0006F927F928F929F92AF92BF92CF92DF9260
:1018C000EF92FF920F931F93CF93DF93CDB7DEB7C5
:1018D000AC970FB6F894DEBF0FBECDBF8C018091E0
:1018E0000C0190910D0120910E0130910F01820F9A
:1018F000931F2091100130911101820F931F2091AD
:10190000120130911301820F931F7CE0E72E71E0EA
:10191000F72E20E030E040E050E0D7016D917D915E
:101920007D01672BD9F0FA01EE0FFF1F61E070E037
:101930006C0F7D1FE60FF71FB901645E7E4FDB0160
:101940006D917C9171876087B9016C5E7E4FDB0180
:101950006D917C91718360834F5F5F4F2E5F3F4F2E
:1019600028303105D1F68330910559F4AE014F5F2F
:101970005F4FBE01675F7F4FCE0141960E94E40436
:101980000CC0049799F4AE014F5F5F4FBE01675FD3
:101990007F4FCE0141960E94810A8CE0FE01719634
:1019A000A2EAB1E001900D928A95E1F76091AA0157
:1019B0007091AB018091AC019091AD016D8F7E8FE4
:1019C0008F8F98A34090A6015090A7016090A80126
:1019D0007090A901C301B2010E94FA206B017C0141
:1019E0006091A2017091A3016F5F7140882777FD1C
:1019F0008095982F0E94982169A37AA38BA39CA31A
:101A0000C301B2010E9414234B015C016FE771E036
:101A10008091A4019091A501681B790B882777FD1F
:101A20008095982F0E9498216DA37EA38FA398A7DD
:101A300029A13AA14BA15CA1C701B6010E94B12224
:101A400069A77AA78BA79CA72DA13EA14FA158A556
:101A5000C501B4010E94B1229B01AC0169A57AA520
:101A60008BA59CA50E9430209B01AC016D8D7E8DC5
:101A70008F8D98A10E94B122609386017093870197
:101A80008093880190938901C501B401905829A1E0
:101A90003AA14BA15CA10E94B1224B015C012DA196
:101AA0003EA14FA158A5C701B6010E94B1229B01DA
:101AB000AC01C501B4010E9430209B01AC016D8DC9
:101AC0007E8D8F8D98A10E94B12260938A017093C0
:101AD0008B0180938C0190938D01A30192016BED9A
:101AE0007FE089E490E40E942F2060938E01709340
:101AF0008F0180939001909391018CE0E6E8F1E0F2
:101B0000D80101900D928A95E1F7C801AC960FB605
:101B1000F894DEBF0FBECDBFDF91CF911F910F9123
:101B2000FF90EF90DF90CF90BF90AF909F908F90FD
:101B30007F906F905F904F9008954AE0682F81E00A
:101B40000E9456151092C1011092C0011092BF015F
:101B50001092BE0108958091C0019091C10101963B
:101B60009093C1018093C00108950F931F93CF9369
:101B7000DF93CDB7DEB72A970FB6F894DEBF0FBE5E
:101B8000CDBF8C012091C0013091C1018091BE0177
:101B90009091BF012817390709F44DC00196909321
:101BA000BF018093BE016AE0CE0101960E94AE158E
:101BB000498150E0FA01E05AF109E830F10568F591
:101BC000E15AFF4F0C949923F8011182108222C030
:101BD00081E090E0F801918380832FC082E090E063
:101BE00002C083E090E0F801918380838A8190E0D5
:101BF000938382838B8190E0958384830BC084E000
:101C000090E005C085E090E002C086E090E0F80139
:101C10009183808381E090E010C087E090E0F8013C
:101C2000918380838CEA91E00E943B1B898190E044
:101C30000E94641BEFCF80E090E02A960FB6F894E4
:101C4000DEBF0FBECDBFDF91CF911F910F910895E1
:101C50000E944F160E9468168823E1F32FEF89E651
:101C600098E1215080409040E1F700C000000E94C0
:101C70006816882389F06E9A76986A9A72982FEF80
:101C800083ED90E3215080409040E1F700C00000D8
:101C90006E9A769A6A9A729A0895AF92BF92CF928C
:101CA000DF92EF92FF920F931F93CF93DF93CDB705
:101CB000DEB760970FB6F894DEBF0FBECDBFA98226
:101CC000BA82CB82DC82ED82FE82EB80FC800D81C9
:101CD0001E81E981FA81E830F10508F048C0E95930
:101CE000FF4F0C94992380EB93E043C086E993E087
:101CF00040C08AE793E00E943B1B8BE693E00E9482
:101D00003B1BC7010E94A31B89E693E00E943B1B7B
:101D100089E593E00E943B1BC8010E94A31B87E555
:101D200093E027C08BE393E00E943B1B8CE293E09F
:101D30000E943B1BC7010E94A31B8AE293E00E9402
:101D40003B1B8AE193E00E943B1BC8010E94A31B3E
:101D500088E193E00EC08DEF92E00BC08FED92E032
:101D600008C080EC92E005C083EA92E002C085E8FA
:101D700092E060960FB6F894DEBF0FBECDBFDF9144
:101D8000CF911F910F91FF90EF90DF90CF90BF9078
:101D9000AF900C943B1B0F931F93CF93DF938C0159
:101DA00084E792E00E943B1BE80109E010E082E733
:101DB00092E00E943B1B899199910E94A31B0150C4
:101DC00011090115110599F7DF91CF911F910F911D
:101DD0000895EF92FF920F931F93CF93DF930E948A
:101DE0004B117C010E948A128C010E948512EC0129
:101DF00083E692E00E943B1BB701882777FD809520
:101E0000982F0E94982120E030E048EC52E40E9494
:101E1000B1220E946521CB010E946F1B8BE592E0ED
:101E20000E943B1BB801882777FD8095982F0E9460
:101E3000982120E030E048EC52E40E94B1220E9458
:101E40006521CB010E946F1B82E592E00E943B1B43
:101E5000CE01DF91CF911F910F91FF90EF900C94E5
:101E60006F1BCF92DF92EF92FF920F931F93CF934E
:101E7000DF93CDB7DEB7CE010B967C016E0193E206
:101E8000C90ED11C00E010E08AE492E00E943B1BE6
:101E9000C8010E946F1B87E492E00E943B1BF70180
:101EA000808191810E946F1B84E492E00E943B1B21
:101EB000C8010E946F1B81E492E00E943B1BF70166
:101EC000828193810E946F1B8EE392E00E943B1BF4
:101ED000C8010E946F1B8BE392E00E943B1BF6013E
:101EE000819191916F010E946F1B0F5F1F4FF6E070
:101EF000EF0EF11C0430110539F6DF91CF911F91DF
:101F00000F91FF90EF90DF90CF900895EF92FF92A6
:101F10000F931F93CF93DF93CDB7DEB72C970FB6F8
:101F2000F894DEBF0FBECDBFE982FA820B831C831B
:101F30002D833E834F83588769877A878B879C8759
:101F400089E292E00E943B1B89819A810E946F1B6B
:101F500083E292E00E943B1B8B819C810E946F1B5D
:101F60008DE192E00E943B1B20E030E048EC52E41F
:101F70006D817E818F8198850E94B1220E946521AA
:101F8000CB010E946F1B84E192E00E943B1B20E08A
:101F900030E048EC52E469857A858B859C850E9407
:101FA000B1220E946521CB012C960FB6F894DEBFBA
:101FB0000FBECDBFDF91CF911F910F91FF90EF909A
:101FC0000C946F1BEF92FF920F931F93CF93DF93AD
:101FD000CDB7DEB72C970FB6F894DEBF0FBECDBFDE
:101FE000E982FA820B831C832D833E834F835887BB
:101FF00069877A878B879C8784E092E00E943B1BED
:1020000069817A818B819C810E946521CB010E942C
:102010006F1B8CEF91E00E943B1B6D817E818F8155
:1020200098850E946521CB010E946F1B81EF91E092
:102030000E943B1B20E030E048EC52E469857A8541
:102040008B859C850E94B1220E946521CB012C9634
:102050000FB6F894DEBF0FBECDBFDF91CF911F91B9
:102060000F91FF90EF900C946F1BCF92DF92EF9245
:10207000FF921F93CF93DF9300D000D0CDB7DEB790
:102080006B017C0186ED91E029833A834B835C836D
:102090000E943B1BC701B6010E94652114E6169FF2
:1020A000F001179FF00D1124CF010E946F1B8DECE2
:1020B00091E00E943B1B29813A814B815C81CA01DE
:1020C000B9010E946521169F9001179F300D1124C0
:1020D000C9010F900F900F900F90DF91CF911F913A
:1020E000FF90EF90DF90CF900C946F1B0C94721CBC
:1020F0008F929F92AF92BF92CF92DF92EF92FF9218
:102100000F931F93CF93DF93CDB7DEB768970FB6CA
:10211000F894DEBF0FBECDBFCE0101960E94571DC1
:10212000811110C01092DB011092DA011092DD01D2
:102130001092DC011092DF011092DE011092E10199
:102140001092E001FE0131968AED91E0B2EC8B2E07
:10215000B1E09B2E8E01075E1F4FEE24E394F12C1D
:102160006081718142815381C480D5809B01220F9F
:10217000331FAA24A394B12CAC0EBD1E2A0D3B1D07
:10218000D9012D913C912F3F334079F49A01220FD0
:10219000331F2A0D3B1DD9012D913C912F3F334018
:1021A00021F4DC011D921C920FC0DC01ED92FC9227
:1021B000D40111967C936E9313965C934E93129771
:1021C0001596DC92CE92149736960296B6E08B0E58
:1021D000911CE017F10721F68DB79EB780970FB6D7
:1021E000F8949EBF0FBE8DBFADB7BEB7119680E20B
:1021F000E2ECF1E001900D928A95E1F70E94620411
:102200000FB6F894DEBF0FBECDBF68960FB6F89438
:10221000DEBF0FBECDBFDF91CF911F910F91FF9019
:10222000EF90DF90CF90BF90AF909F908F900895E8
:1022300080915601909157010E940F0380915601A1
:10224000909157010196893091052CF49093570194
:102250008093560104C0109257011092560188E5F0
:1022600091E00C94CB0EFC01EE0FFF1FE85AFE4FDD
:1022700080E094E0861B970B91838083089581E032
:1022800090E02091580130915901253F314014F4DC
:1022900080E090E008952F923F924F925F926F926C
:1022A0007F928F929F92AF92BF92CF92DF92EF92E6
:1022B000FF920F931F93CF93DF9300D000D0CDB741
:1022C000DEB780915A0190915B01873B93400CF0FF
:1022D00002C1EAE5F1E000E010E020E034E081E056
:1022E00090E0419151914217530714F0A90101C0A8
:1022F0008C0101968930910579F41801220C331C68
:10230000C101885A9E4F1C011C821B82C12CD12CFA
:1023100076014601570102C09A01E3CF8B819C816F
:1023200001969A8389838B819C81800F911F0997E5
:102330000CF046C0EB81FC81EE0FFF1FE20DF31D98
:1023400060817181882777FD8095982F0E94982160
:1023500020E030E040E85AE30E94B1222B013C012A
:102360009B01AC01C701B6010E9430206B017C01CA
:10237000EB81FC81BF01882777FD8095982F0E9413
:10238000982120E030E044E352E40E94B12220E0B2
:1023900030E044E353E40E942F209B01AC01C301D1
:1023A000B2010E94B1229B01AC01C501B4010E949F
:1023B00030204B015C0129813A813C832B83AECFD5
:1023C000EAE5F1E0FA83E98322242394312C2B817E
:1023D0003C81215031093C832B83201631060CF0BF
:1023E00044C0E981FA8161917191FA83E983882778
:1023F00077FD8095982F0E94982120E030E040E8FA
:102400005AE30E94B1222B013C019B01AC01C701A0
:10241000B6010E9430206B017C016B817C81620DD2
:10242000731D882777FD8095982F0E94982120E0C2
:1024300030E044E352E40E94B12220E030E044E383
:1024400053E40E942F209B01AC01C301B2010E9402
:10245000B1229B01AC01C501B4010E9430204B01A7
:102460005C01FFEF2F1A3F0AB8CF66246394712CEA
:1024700020E030E040E05FE3C701B6010E94A62201
:10248000181614F0612C712C709255016092540151
:10249000A7019601C501B4010E94FD2020E030E0B3
:1024A00044E353E40E9430206B017C010150110988
:1024B0008DE2809FB001819F700D1124882777FDE8
:1024C0008095982F0E9498219B01AC01C701B6010D
:1024D0000E94302003C060E070E0CB010F900F90AD
:1024E0000F900F90DF91CF911F910F91FF90EF9080
:1024F000DF90CF90BF90AF909F908F907F906F9024
:102500005F904F903F902F9008958091540190914B
:1025100055010895EAE5F1E060E070E08191919164
:10252000681779070CF4BC0181E0EA36F807B1F7C7
:10253000882777FD8095982F0E94982120E030E031
:1025400040E85AE30E94B1229B01AC0160E070E0D8
:1025500080E89FE30E942F200895CF93DF93CDB7AB
:10256000DEB72C970FB6F894DEBF0FBECDBF9093A9
:102570007501809374010E947810CE0101960E942B
:10258000560C8CE0FE013196A6E8B1E001900D9268
:102590008A95E1F70E9418110E944B11BC0188270F
:1025A00077FD8095982F0E94982160937001709319
:1025B000710180937201909373010E948A12BC0191
:1025C000882777FD8095982F0E94982160936C0151
:1025D00070936D0180936E0190936F010E943F1183
:1025E00090936B0180936A012C960FB6F894DEBF2E
:1025F0000FBECDBFDF91CF910895089508958091CA
:10260000760190917701A0917801B09179010196BE
:10261000A11DB11D8093760190937701A09378015D
:10262000B09379010895E1E9F0E080818F7E8083A5
:10263000808188608083A0E9B0E08C918D7F8C934D
:102640008C918E7F8C938C918F778C938C918F7BD8
:102650008C93A1E7B0E08C9182608C93C19A80E862
:102660009EE3909399008093980080818B7F808374
:1026700080818D7F808380818160808308956091D7
:102680007601709177018091780190917901089598
:10269000589A599A5A9A8CE08093B800E9E6F0E08B
:1026A00080818062808380818F7E8083EA9A7894A3
:1026B000089584E88093BC008091BC0087FFFCCF24
:1026C0008091BB00089584E98093BC00089520E0C8
:1026D00030E08091BC0087FD06C02F5F3F4F293E50
:1026E00083E03807B1F781E0283E334009F480E009
:1026F00008958093BB0084E88093BC000E94671318
:10270000882321F08091B900887F089580E00895A2
:102710001F93CF93DF931F92CDB7DEB7182F84EAB4
:102720008093BC0069830E9467136981811104C092
:1027300094E99093BC0014C0812F880F662331F078
:102740008F5F0E947913883451F404C00E9479137A
:10275000803229F484E98093BC0080E001C081E0EC
:102760000F90DF91CF911F910895CF93DF93C82FE2
:10277000D62F60E00E948813882391F08D2F0E944D
:102780007913882369F084E98093BC0061E08C2F81
:102790000E948813882321F0DF91CF910C94591364
:1027A00080E0DF91CF910895CF93DF93D62FC42F90
:1027B00060E00E948813811102C080E00EC08D2F5E
:1027C0000E9479138823C9F38C2F0E9479138823E0
:1027D000A1F384E98093BC0081E0DF91CF9108955B
:1027E000CF93DF93D82FC62F843010F080E05BC0EA
:1027F0006430E0F70E9448132FEF85EA9EE02150F5
:1028000080409040E1F700C0000065E789E60E9443
:10281000B513883659F741E06BE689E60E94D41378
:102820004D2F440F440F440F6CE189E60E94D413EE
:102830004C2F440F440F440F6BE189E60E94D413E0
:1028400042E067E389E60E94D41340E062E08EE153
:102850000E94D41340E067E389E60E94D4134EE15E
:1028600064E389E60E94D41341E067E689E60E94AA
:10287000D4134DE164E289E60E94D4134EE965E287
:1028800089E60E94D41343E066E289E60E94D413ED
:1028900046E967E289E60E94D41340E26AE689E6E7
:1028A0000E94D41381E0DF91CF910895EF92FF92BF
:1028B0000F931F93CF93DF93CDB7DEB765970FB616
:1028C000F894DEBF0FBECDBF8C01CE0101967C0116
:1028D0009EE4692F89E69D8B0E94B513F7018193D1
:1028E0007F019D8991509A33A1F78F859889F801CE
:1028F000958384838F8198859387828789819A8144
:10290000918B808B89899A899383828389859A8523
:10291000918780878B819C81978786878B899C890B
:10292000918380838B859C85978386838D819E810F
:102930009587848781E065960FB6F894DEBF0FBE59
:10294000CDBFDF91CF911F910F91FF90EF90089530
:10295000EF92FF920F931F93CF93DF93CDB7DEB724
:1029600027970FB6F894DEBF0FBECDBF8C01CE0106
:1029700001967C0190E4692F89E69F830E94B5133C
:10298000F70181937F019F8191509A33A1F789814B
:102990009A81F801958384838B819C8193838283C0
:1029A0008D819E819183808381E027960FB6F89474
:1029B000DEBF0FBECDBFDF91CF911F910F91FF9072
:1029C000EF900895EF92FF920F931F93CF93DF93B1
:1029D000CDB7DEB727970FB6F894DEBF0FBECDBFD9
:1029E0008C01CE0101967C0198E4692F89E69F83D2
:1029F0000E94B513F70181937F019F81915092341A
:102A0000A1F789819A81F801958384838B819C81C8
:102A1000938382838D819E819183808381E0279639
:102A20000FB6F894DEBF0FBECDBFDF91CF911F91DF
:102A30000F91FF90EF900895EF92FF920F931F93E5
:102A4000CF93DF93CDB7DEB727970FB6F894DEBFED
:102A50000FBECDBF8C01CE0101967C019EE4692F93
:102A600089E69F830E94B513F70181937F019F81BF
:102A700091509834A1F789819A81F80195838483D4
:102A80008B819C81938382838D819E8191838083BE
:102A900081E027960FB6F894DEBF0FBECDBFDF9161
:102AA000CF911F910F91FF90EF900895CF93DF93F7
:102AB00000D01F92CDB7DEB74B836A8389830E9413
:102AC000481394EA9093BC0089816A814B8190916C
:102AD000BC0097FFFCCF90E59093BB0094E89093E7
:102AE000BC009091BC0097FFFCCF9091B900987FFB
:102AF000903229F484E98093BC0080E029C091E001
:102B00009093BB0094E89093BC009091BC0097FF19
:102B1000FCCF8093BB0084E88093BC008091BC0014
:102B200087FFFCCF6093BB0084E88093BC0080915A
:102B3000BC0087FFFCCF4093BB0084E88093BC00BF
:102B40008091BC0087FFFCCF84E98093BC0081E0CA
:102B50000F900F900F90DF91CF91089524EA20936A
:102B6000BC002091BC0027FFFCCF21E52093BB00D7
:102B700024E82093BC002091BC0027FFFCCF2091CB
:102B8000B900287F2834A9F024EC2093BC002091C0
:102B9000BC0027FFFCCF2091BB0026130AC0FC011C
:102BA00020E030E0772767FD70956150710944ECB3
:102BB0000EC084E98093BC0080E008955091BC0071
:102BC00057FFFCCF5091BB0051932F5F3F4F26170B
:102BD00037071CF44093BC00F1CF44E84093BC009D
:102BE0004091BC0047FFFCCF4091BB00FC01E20FCD
:102BF000F31F408384E98093BC0081E00895F8943A
:102C000094EA9093BC009091BC0097FFFCCF90E5B4
:102C10009093BB0094E89093BC009091BC0097FF08
:102C2000FCCF9091B900987F903231F484E9809381
:102C3000BC00789480E0089593E09093BB0094E802
:102C40009093BC009091BC0097FFFCCF8093BB0099
:102C500084E88093BC008091BC0087FFFCCFFB011F
:102C6000552747FD509524E8CF01861B970B841705
:102C7000950754F481918093BB002093BC00809110
:102C8000BC0087FFFCCFF0CF84E98093BC00789430
:102C900081E008958091E80080FFFCCF089581E0F5
:102CA0008093D70080EA8093D80082E189BD09B47F
:102CB00000FEFDCF80E98093D8001092E0001092D2
:102CC0007D0110927A018CE08093E200789408955F
:102CD00080917D0108959FB7F89480917D018823AC
:102CE00039F083E08093E9008091E80085FD03C01E
:102CF0009FBF8FEF08958091F1002091E80025FD9E
:102D000003C02BE62093E8009FBF08959FB7F89477
:102D100080917D01882331F083E08093E9008091E8
:102D2000F20001C080E09FBF089580917D0188235B
:102D300071F08FB7F89493E09093E9002BE69091AF
:102D4000E80095FF03C02093E800F9CF8FBF0895F6
:102D500090917D01992371F09FB7F89424E020931E
:102D6000E90020917B01222349F02091E80025FD14
:102D700003C09FBF8FEF089510927B012091E40064
:102D8000275E34E04091E80045FD12C09FBF90915E
:102D9000E400921304C081E080937B01EBCF90911B
:102DA0007D01992339F39FB7F8943093E900EACF76
:102DB0008093F1008091E80085FD03C08AE3809351
:102DC000E80085E080937C019FBF80E008959091AA
:102DD0007D019923D1F09FB7F89424E02093E90076
:102DE0002091E80025FD02C09FBF0FC08093F10035
:102DF0008091E80085FD03C08AE38093E80085E0C8
:102E000080937C019FBF80E008958FEF0895EF923B
:102E1000FF921F93CF93DF937C01CB0120917D0123
:102E2000222371F0AFB7F89424E02093E9002091B9
:102E30007B01222349F02091E80025FD03C0AFBFAC
:102E40008FEF42C210927B01B4E0C0E4DAE315E0F8
:102E5000009709F437C22091E400275E3091E80022
:102E600035FD12C0AFBF3091E400321304C081E0E1
:102E700080937B01E5CF30917D01332309F3AFB718
:102E8000F894B093E900EACF2091F2004C2F421B56
:102E9000242F30E08217930708F4482F841B9109F0
:102EA00050E04134510508F0FDC141595F4FFA012E
:102EB0000C949923F70120812093F10097012F5F53
:102EC0003F4F7901F70120812093F10097012F5F97
:102ED0003F4F7901F70120812093F10097012F5F87
:102EE0003F4F7901F70120812093F10097012F5F77
:102EF0003F4F7901F70120812093F10097012F5F67
:102F00003F4F7901F70120812093F10097012F5F56
:102F10003F4F7901F70120812093F10097012F5F46
:102F20003F4F7901F70120812093F10097012F5F36
:102F30003F4F7901F70120812093F10097012F5F26
:102F40003F4F7901F70120812093F10097012F5F16
:102F50003F4F7901F70120812093F10097012F5F06
:102F60003F4F7901F70120812093F10097012F5FF6
:102F70003F4F7901F70120812093F10097012F5FE6
:102F80003F4F7901F70120812093F10097012F5FD6
:102F90003F4F7901F70120812093F10097012F5FC6
:102FA0003F4F7901F70120812093F10097012F5FB6
:102FB0003F4F7901F70120812093F10097012F5FA6
:102FC0003F4F7901F70120812093F10097012F5F96
:102FD0003F4F7901F70120812093F10097012F5F86
:102FE0003F4F7901F70120812093F10097012F5F76
:102FF0003F4F7901F70120812093F10097012F5F66
:103000003F4F7901F70120812093F10097012F5F55
:103010003F4F7901F70120812093F10097012F5F45
:103020003F4F7901F70120812093F10097012F5F35
:103030003F4F7901F70120812093F10097012F5F25
:103040003F4F7901F70120812093F10097012F5F15
:103050003F4F7901F70120812093F10097012F5F05
:103060003F4F7901F70120812093F10097012F5FF5
:103070003F4F7901F70120812093F10097012F5FE5
:103080003F4F7901F70120812093F10097012F5FD5
:103090003F4F7901F70120812093F10097012F5FC5
:1030A0003F4F7901F70120812093F10097012F5FB5
:1030B0003F4F7901F70120812093F10097012F5FA5
:1030C0003F4F7901F70120812093F10097012F5F95
:1030D0003F4F7901F70120812093F10097012F5F85
:1030E0003F4F7901F70120812093F10097012F5F75
:1030F0003F4F7901F70120812093F10097012F5F65
:103100003F4F7901F70120812093F10097012F5F54
:103110003F4F7901F70120812093F10097012F5F44
:103120003F4F7901F70120812093F10097012F5F34
:103130003F4F7901F70120812093F10097012F5F24
:103140003F4F7901F70120812093F10097012F5F14
:103150003F4F7901F70120812093F10097012F5F04
:103160003F4F7901F70120812093F10097012F5FF4
:103170003F4F7901F70120812093F10097012F5FE4
:103180003F4F7901F70120812093F10097012F5FD4
:103190003F4F7901F70120812093F10097012F5FC4
:1031A0003F4F7901F70120812093F10097012F5FB4
:1031B0003F4F7901F70120812093F10097012F5FA4
:1031C0003F4F7901F70120812093F10097012F5F94
:1031D0003F4F7901F70120812093F10097012F5F84
:1031E0003F4F7901F70120812093F10097012F5F74
:1031F0003F4F7901F70120812093F10097012F5F64
:103200003F4F7901F70120812093F10097012F5F53
:103210003F4F7901F70120812093F10097012F5F43
:103220003F4F7901F70120812093F10097012F5F33
:103230003F4F7901F70120812093F10097012F5F23
:103240003F4F7901F70120812093F10097012F5F13
:103250003F4F7901F70120812093F10097012F5F03
:103260003F4F7901F70120812093F10097012F5FF3
:103270003F4F7901F70120812093F10097012F5FE3
:103280003F4F7901F70120812093F10097012F5FD3
:103290003F4F7901F70120812093F10097012F5FC3
:1032A0003F4F7901F70120812093F10097012F5FB3
:1032B0003F4F79012091E80025FFD093E80010935B
:1032C0007C01C6CDAFBF80E0DF91CF911F91FF9011
:1032D000EF9008958FB7F89490917C01992341F075
:1032E00094E09093E9009AE39093E80010927C01B7
:1032F0008FBF089580912801089580912901089534
:1033000080912A01089580917A0108959FB7F894D9
:1033100020917D01222339F022E02093E9003091B1
:10332000E80035FD03C09FBF8FEF089531EA309369
:10333000F10030E23093F1001092F1001092F100B0
:103340001092F1001092F1002093F1001092F10020
:103350008093F1001092F1008AE38093E8009FBF10
:1033600080E008951F920F920FB60F9211248F9351
:103370009F938091E1001092E10083FF11C01092B1
:10338000E90091E09093EB001092EC0092E19093B1
:10339000ED0098E09093F00010927D0110927A0178
:1033A00082FF13C080917D01882379F080917C0198
:1033B000882359F0815080937C01811106C084E0FC
:1033C0008093E9008AE38093E8009F918F910F90AA
:1033D0000FBE0F901F9018951F920F920FB60F926D
:1033E0001124EF92FF920F931F932F933F934F93CC
:1033F0005F936F937F938F939F93AF93BF93EF935D
:10340000FF93CF93DF931F92CDB7DEB71092E90001
:103410008091E80083FF14C19091F1008091F10048
:103420003091F1002091F100E32EF12CF22A00916D
:10343000F1002091F10010E0122B2091F100609139
:10344000F10032EF3093E800863009F046C036E0F4
:103450008FEC93E0FC01459154914E155F0539F4D2
:10346000FC013296459154914017510721F007967F
:10347000315081F7E5C0FC01349645915491FC012F
:103480003696849130E0362B2F3F310519F010F03D
:103490002FEF30E0281708F4822F3EEF9091E800DC
:1034A000292F2570D9F392FDCEC0982F813108F0D5
:1034B00090E1FA01292F222331F064916093F10009
:1034C00021503196F8CF490F511D891B3093E800E8
:1034D0008111E4CF903111F3B6C0853051F48EEFF5
:1034E0008093E8000E944A168E2D80688093E30046
:1034F000AAC0893059F5911180C0E0927D011092E7
:103500007A0110927C018EEF8093E80041E088E719
:1035100094E04093E9009C012F5F3F4FFC015491E0
:103520005093EB00552359F0F90124912093EC00BE
:103530009C012D5F3F4F319684918093ED004F5F4A
:10354000453011F0C901E5CF8EE175C0883051F4E6
:10355000903809F052C00E944A1680917D018093F4
:10356000F10047C0813279F4913A09F046C00E94D7
:103570004A16E4E2F1E081918093F10081E0EB32C0
:10358000F807C9F736C0803299F49132B1F58091CD
:10359000E80082FFFCCFE4E2F1E08091F10081934A
:1035A00081E0EB32F807C9F78BEF8093E80021C088
:1035B000823241F4913209F043C0E0927A010E94D4
:1035C0004A1617C0811119C099830E944A16998121
:1035D000923851F40093E9008091EB0085FB882735
:1035E00080F91092E90001C080E08093F100109210
:1035F000F1008EEF8093E80026C0282F2D7F213028
:10360000F9F49230E9F4EF28D9F40F779FEF900F97
:103610009430B0F49EEF9093E8000093E90083307B
:1036200079F089E18093EB0081E090E0002E01C009
:10363000880F0A94EAF78093EA001092EA0003C028
:1036400081E28093EB000F90DF91CF91FF91EF919A
:10365000BF91AF919F918F917F916F915F914F91AA
:103660003F912F911F910F91FF90EF900F900FBE00
:103670000F901F9018951F93CF93DF93EC01FE01DD
:103680001491112351F01A3019F48DE00E94A816FC
:10369000812F0E94A8162196F2CFDF91CF911F9122
:1036A00008958A3010F490E301C097E3890F0C94D9
:1036B000A816CF93C82F82958F700E94511B8C2F14
:1036C0008F70CF910C94511BCF93C82F892F0E94DC
:1036D000591B8C2FCF910C94591B0C94591BEF92B2
:1036E000FF920F931F93CF93DF93CDB7DEB727974A
:1036F0000FB6F894DEBF0FBECDBF8E010F5F1F4F18
:1037000027E0F80111922A95E9F74AE0B8010E94F2
:10371000B3237E01F8E0EF0EF11CF80181918F01D7
:1037200081110E94A8160E151F05B9F727960FB62E
:10373000F894DEBF0FBECDBFDF91CF911F910F91E7
:10374000FF90EF900895EF92FF920F931F93CF9306
:10375000DF9300D000D000D0CDB7DEB78E010F5F71
:103760001F4F26E0F80111922A95E9F74AE0B801C7
:103770000E94EF237E01F6E0EF0EF11CF80181912B
:103780008F0181110E94A8160E151F05B9F7269604
:103790000FB6F894DEBF0FBECDBFDF91CF911F9162
:1037A0000F91FF90EF900895EF92FF920F931F9368
:1037B000CF93DF93CDB7DEB72B970FB6F894DEBF6C
:1037C0000FBECDBF8E010F5F1F4F2BE0F80111928E
:1037D0002A95E9F72AE0A8010E94BE237E01FCE0B9
:1037E000EF0EF11CF80181918F0181110E94A81642
:1037F0000E151F05B9F72B960FB6F894DEBF0FBE56
:10380000CDBFDF91CF911F910F91FF90EF90089561
:10381000EF92FF920F931F93CF93DF93CDB7DEB755
:103820002B970FB6F894DEBF0FBECDBF8E010F5F92
:103830001F4F2BE0F80111922A95E9F72AE0A80121
:103840000E94CD237E01FBE0EF0EF11CF801819177
:103850008F0181110E94A8160E151F05B9F72B962E
:103860000FB6F894DEBF0FBECDBFDF91CF911F9191
:103870000F91FF90EF90089520E030E08091BC0020
:1038800087FD06C02F5F3F4F293E83E03807B1F721
:1038900081E0283E334009F480E008958093BB0026
:1038A00084E88093BC000E943C1C882319F080911E
:1038B000B900887F0895CF93C82F84EA8093BC0015
:1038C0000E943C1C882361F08C2F880F0E944E1CA4
:1038D000803229F484E98093BC0080E001C081E05B
:1038E000CF9108950E94481388E50E945B1C8111C6
:1038F00002C080E0089580E30E944E1C8823C9F333
:1039000081E00E944E1C8823A1F384E98093BC00CF
:103910008FE39CE90197F1F700C0000088E50E9461
:103920005B1C882331F380E00E944E1C882309F33E
:1039300080E00E944E1C8823E1F280E00E944E1C31
:103940008823B9F280E00E944E1C882391F280E027
:103950000E944E1C882369F280E00E944E1C88233E
:1039600041F280E00E944E1C882319F280E90E94F7
:103970004E1C882309F4BDCF84E98093BC008FE3FB
:103980009CE90197F1F700C0000088E50E945B1CEC
:10399000882309F4AECF87E00E944E1C882309F4E7
:1039A000A8CF80E00E944E1C882309F4A2CF81E4B6
:1039B0000E944E1C882309F49CCF84E98093BC00AC
:1039C0008FE39CE90197F1F700C0000088E50E94B1
:1039D0005B1C882309F48DCF8AE10E944E1C88234A
:1039E00009F487CF80E40E944E1C882309F481CF1C
:1039F00080E00E944E1C882309F47BCF84E98093E9
:103A0000BC008FE39CE90197F1F700C0000088E556
:103A10000E945B1C882309F46CCF83E30E944E1C38
:103A2000882309F466CF83E00E944E1C882309F4A2
:103A300060CF84E98093BC008FE39CE90197F1F7A4
:103A400000C0000088E50E945B1C882309F451CF68
:103A500080E30E944E1C882309F44BCF88E00E942B
:103A60004E1C882309F445CF84E98093BC008FE382
:103A70009CE90197F1F700C0000081E00895CF9321
:103A8000C82F84EA8093BC000E943C1C882369F004
:103A90008C2F880F8F5F0E944E1C883429F484E994
:103AA0008093BC0080E001C081E0CF910895EF9247
:103AB000FF920F931F93CF93DF93CDB7DEB760973D
:103AC0000FB6F894DEBF0FBECDBF7C018E010F5F35
:103AD0001F4F80E1F80111928A95E9F788E50E946D
:103AE0005B1C811102C080E05EC086E30E944E1C18
:103AF0008823C9F384E98093BC00F5E8FA95F1F7CF
:103B0000000088E50E943F1D882369F3F8019E01AB
:103B1000205F3F4F94EC9093BC008091BC0087FFE6
:103B2000FCCF8091BB008193E217F307A1F784E8F3
:103B30008093BC008091BC0087FFFCCF8091BB00CC
:103B4000888B84E98093BC00DE01149687016C9118
:103B5000762F7073AD0142505109FA01808190E0D7
:103B6000F0E17F9F800D911D1124F80191838083E6
:103B7000762F707C4F5F5F4FFA01808190E0F4E018
:103B80007F9F800D911D1124F801938382836F70B4
:103B9000862F90E09583848313960A5F1F4FA217A8
:103BA000B307A9F681E060960FB6F894DEBF0FBEAA
:103BB000CDBFDF91CF911F910F91FF90EF900895AE
:103BC00084E98093BC0008951F920F920FB60F9264
:103BD00011242F933F934F935F936F937F938F9312
:103BE0009F93AF93BF93EF93FF930E945003FF9176
:103BF000EF91BF91AF919F918F917F916F915F9165
:103C00004F913F912F910F900FBE0F901F901895DD
:103C10001F920F920FB60F9211242F933F934F9341
:103C20005F936F937F938F939F93AF93BF93EF9324
:103C3000FF930E945903FF91EF91BF91AF919F9124
:103C40008F917F916F915F914F913F912F910F9045
:103C50000FBE0F901F9018951F920F920FB60F92E4
:103C600011242F933F934F935F936F937F938F9381
:103C70009F93AF93BF93EF93FF936A9A8EB194E0B3
:103C800089278EB90E94AB0DFF91EF91BF91AF9143
:103C90009F918F917F916F915F914F913F912F9164
:103CA0000F900FBE0F901F9018951F920F920FB696
:103CB0000F9211242F933F934F935F936F937F93B2
:103CC0008F939F93AF93BF93EF93FF930E94FF1245
:103CD000FF91EF91BF91AF919F918F917F916F91E4
:103CE0005F914F913F912F910F900FBE0F901F90BA
:103CF00018951F920F920FB60F9211242F933F9396
:103D00004F935F936F937F938F939F93AF93BF93E3
:103D1000EF93FF930E943803FF91EF91BF91AF9112
:103D20009F918F917F916F915F914F913F912F91D3
:103D30000F900FBE0F901F90189580E885BF85BF2C
:103D4000E1E6F0E0808310820E9448132FEF83ECBD
:103D500099E0215080409040E1F700C000000E94AF
:103D6000280E2FEF89E698E1215080409040E1F73E
:103D700000C0000080912B0190912C010E949D0DAC
:103D80000E9413130E9460020E9476100E942F046A
:103D9000229A239A2A982B98789408958F929F922A
:103DA000AF92BF92CF92DF92EF92FF92C090E2016A
:103DB000D090E301E090E401F090E50120E030E0F4
:103DC000A901C701B6010E94A62218162CF460E0D2
:103DD00070E086EE92EC04C060E070E086EE92E463
:103DE000A70196010E942F206B017C012091E60122
:103DF0003091E7014091E8015091E90160E070E005
:103E0000CB010E942F20A70196010E94A3209B01B5
:103E1000AC016BED7FE089EC9FE30E942F206B01EA
:103E20007C0120E030E0A9010E94F62087FF0AC053
:103E30002BED3FE049EC50E4C701B6010E94302071
:103E40006B017C012091EA013091EB014091EC0182
:103E50005091ED01C701B6010E942F206B017C013A
:103E60009F772AE037ED43EA5DE30E94F62087FF63
:103E700007C02DEC3CEC4CE45FE3CA01B90131C052
:103E800020E030E044E353E4C701B6010E94A622DB
:103E900018161CF46FEF7FEF02C061E070E0882716
:103EA00077FD8095982F0E94982120E030E040E037
:103EB0005FE30E94B1226B017C019B01AC0160E0D9
:103EC00070E080E09FE30E942F204B015C0120E026
:103ED00030E040E05FE3C701B6010E943020A50159
:103EE0009401FF90EF90DF90CF90BF90AF909F90A4
:103EF0008F900C9415040F931F93CF93DF93CDB73E
:103F0000DEB72C970FB6F894DEBF0FBECDBF0E9470
:103F10007810CE0101960E94560C8CE0FE0131967D
:103F2000A2EEB1E001900D928A95E1F76091EA016D
:103F30007091EB018091EC019091ED010E941423AE
:103F400001E010E020E030E0A9010E94A62218164E
:103F500014F000E010E010937F0100937E012C9696
:103F60000FB6F894DEBF0FBECDBFDF91CF911F918A
:103F70000F91089580917E0190917F01892B61F0CE
:103F80002A9A2FEF83ED90E3215080409040E1F793
:103F900000C000002A9808952B9A2FEF83ED90E33C
:103FA000215080409040E1F700C000002B98089518
:103FB0000E949D1E0E947B1FC0E48EEE91E00E9435
:103FC000B50D892B99F08091EE019091EF0121E0E0
:103FD00030E08130910511F020E030E03093810134
:103FE00020938001892B11F40E94BA1F80918001D7
:103FF00090918101892B41F420E030E040E05FE3C3
:10400000CA01B9010E94150480912D0190912E01E1
:10401000892B11F00E94CE1E0E943F130091820155
:10402000109183012091840130918501601B710BF7
:10403000820B930B653F7140810591050CF4BDCF58
:104040006E9A8EB18C278EB90E943F1360938201C5
:10405000709383018093840190938501AECF505873
:10406000BB27AA270ED027C2F0D130F0F5D120F01F
:1040700031F49F3F11F41EF4C0C10EF4E095E7FB4C
:10408000B6C1E92F3AD280F3BA17620773078407E3
:10409000950718F071F49EF552C20EF4E0950B2EC0
:1040A000BA2FA02D0B01B90190010C01CA01A0018A
:1040B0001124FF27591B99F0593F50F4503E68F1E5
:1040C0001A16F040A22F232F342F4427585FF3CF26
:1040D000469537952795A795F0405395C9F77EF4F7
:1040E0001F16BA0B620B730B840BBAF09150A1F040
:1040F000FF0FBB1F661F771F881FC2F70EC0BA0FC6
:10410000621F731F841F48F4879577956795B7954D
:10411000F7959E3F08F0B3CF9395880F08F0992745
:10412000EE0F97958795089590D158F080E891E02B
:1041300009F49EEF91D128F040E851E059F45EEF88
:1041400009C05BC1FCC1E92FE078D7D168F3092E23
:10415000052AC1F3261737074807590738F00E2EEE
:1041600007F8E02569F0E025E0640AC0EF6307F88E
:10417000009407FADB01B9019D01DC01CA01AD0120
:10418000EF934AD098D10AD05F91552331F02BEDAF
:104190003FE049E450FD49EC63CF0895DF93DD270C
:1041A000B92FBF7740E85FE31616170648075B078D
:1041B00010F4D92FCFD19F938F937F936F937CD29D
:1041C000E0E6F1E01DD177D12F913F914F915F91C2
:1041D000D4D1DD2349F09058A2EA2AED3FE049EC22
:1041E0005FE3D0785D274DDFDF9165C1DCD008F457
:1041F00081E0089539D1E3956FC10CD05CC12CD119
:1042000040F023D130F021F45F3F19F0F0C051119C
:1042100097C1F3C072D198F39923C9F35523B1F331
:10422000951B550BBB27AA2762177307840738F025
:104230009F5F5F4F220F331F441FAA1FA9F333D084
:104240000E2E3AF0E0E830D091505040E695001C38
:10425000CAF729D0FE2F27D0660F771F881FBB1FF4
:10426000261737074807AB07B0E809F0BB0B802DCE
:10427000BF01FF2793585F4F2AF09E3F510568F01A
:10428000B6C05EC15F3FECF3983EDCF38695779550
:104290006795B795F7959F5FC9F7880F911D96951C
:1042A000879597F90895E1E0660F771F881FBB1F78
:1042B000621773078407BA0720F0621B730B840B25
:1042C000BA0BEE1F88F7E095089504D06894B111F9
:1042D00037C108951AD188F09F5790F0B92F9927C8
:1042E000B751A0F0D1F0660F771F881F991F1AF001
:1042F000BA95C9F712C0B13081F021D1B1E008956B
:104300001EC1672F782F8827B85F39F0B93FCCF3EB
:10431000869577956795B395D9F73EF490958095F6
:10432000709561957F4F8F4F9F4F0895E89409C016
:1043300097FB3EF490958095709561957F4F8F4FD8
:104340009F4F9923A9F0F92F96E9BB279395F695EE
:10435000879577956795B795F111F8CFFAF4BB0F6C
:1043600011F460FF1BC06F5F7F4F8F4F9F4F16C0D0
:10437000882311F096E911C0772321F09EE8872F5A
:10438000762F05C0662371F096E8862F70E060E016
:104390002AF09A95660F771F881FDAF7880F96958F
:1043A000879597F90895990F0008550FAA0BE0E833
:1043B000FEEF16161706E807F907C0F012161306E7
:1043C000E407F50798F0621B730B840B950B39F427
:1043D0000A2661F0232B242B252B21F408950A268D
:1043E00009F4A140A6958FEF811D811D089597F9CD
:1043F0009F6780E870E060E008959FEF80EC08958B
:10440000DF93CF931F930F93FF92EF92DF927B0185
:104410008C01689405C0DA2EEF01AFD0FE01E8945C
:10442000A5912591359145915591AEF3EF0129DE86
:10443000FE019701A801DA9479F7DF90EF90FF90E1
:104440000F911F91CF91DF91089500240A941616C1
:10445000170618060906089500240A941216130672
:10446000140605060895C9CF50D0E8F3E894E0E0BB
:10447000BB279F57F0F02AED3FE049EC06C0EE0F56
:10448000BB0F661F771F881F28F0B23A62077307B9
:10449000840728F0B25A620B730B840BE3959A954C
:1044A00072F7803830F49A95BB0F661F771F881F0C
:1044B000D2F7904806C1092E0394000C11F488230A
:1044C00052F0BB0F40F4BF2B11F460FF04C06F5FCC
:1044D0007F4F8F4F9F4F0895EF93E0FF06C0A2EAF2
:1044E0002AED3FE049EC5FEBCCDDE5DF0F90039474
:1044F00001FC9058EDE8F1E0F7C057FD9058440FEB
:10450000551F59F05F3F71F04795880F97FB991F32
:1045100061F09F3F79F087950895121613061406EF
:10452000551FF2CF4695F1DF08C01616170618067C
:10453000991FF1CF86957105610508940895E89457
:10454000BB2766277727CB0197F908952CDF08F45E
:104550008FEF08959B01AC0160E070E080E89FE37D
:104560004CCE0BD0A8CF71DF28F076DF18F0952362
:1045700009F03DCF42CF1124E3CFBFDFA0F3959FD9
:10458000D1F3950F50E0551F629FF001729FBB273A
:10459000F00DB11D639FAA27F00DB11DAA1F649FE6
:1045A0006627B00DA11D661F829F2227B00DA11D99
:1045B000621F739FB00DA11D621F839FA00D611D1F
:1045C000221F749F3327A00D611D231F849F600D40
:1045D000211D822F762F6A2F11249F5750408AF079
:1045E000E1F088234AF0EE0FFF1FBB1F661F771F05
:1045F000881F91505040A9F79E3F510570F0F7CEAB
:104600009FCF5F3FECF3983EDCF3869577956795F7
:10461000B795F795E7959F5FC1F7FE2B880F911D22
:104620009695879597F908959F931EDF0F9007FC45
:10463000EE5F52CF11F40EF4E0CE41C066DFD0F34E
:104640009923D9F3CEF39F57550B87FF46D000240B
:10465000A0E640EA900180585695979528F4805C32
:10466000660F771F881F20F026173707480730F49A
:10467000621B730B840B202931294A2BA6951794B2
:104680000794202531254A2758F7660F771F881F82
:1046900020F026173707480730F4620B730B840BA2
:1046A000200D311D411DA09581F7B901842F91582E
:1046B000880F9695879508959B01AC0152CF9F3F37
:1046C00031F0915020F4879577956795B795880FCD
:1046D000911D9695879597F9089591505040660FD2
:1046E000771F881FD2F708959F938F937F936F93BF
:1046F000FF93EF939B01AC0134DFEF91FF9180DEDC
:104700002F913F914F915F912CCF97FB072E16F47D
:10471000009407D077FD09D00E949F2307FC05D0A5
:104720003EF4909581959F4F0895709561957F4FC8
:104730000895EE0FFF1F0590F491E02D0994AA1B38
:10474000BB1B51E107C0AA1FBB1FA617B70710F07C
:10475000A61BB70B881F991F5A95A9F780959095AE
:10476000BC01CD010895BB274A3031F4992322F4CE
:10477000BDE2909581959F4F0C94F023BB272A3082
:1047800051F4992342F4BDE290958095709561951E
:104790007F4F8F4F9F4F0C94CE23BB27FA01A62F3C
:1047A0006217710581059105330B30FB66F0AA276E
:1047B000660F771F881F991FAA1FA21710F0A21B50
:1047C00063953850A9F7A05DAA3308F0A95DA193BD
:1047D00036F7B111B1931082CA010C940924BB279A
:1047E000FB015527AA27880F991FAA1FA41710F0AD
:1047F000A41B83955051B9F7A05DAA3308F0A95DB9
:10480000A193009779F7B111B1931192CB010C9458
:104810000924DC01FC01672F71917723E1F73297BE
:1048200004C07C916D9370836291AE17BF07C8F38B
:064830000895F894FFCF8B
:104836000D001A00140010001D00170001000100F1
:1048460000000100BC019C01B801FD014503700395
:1048560097035D0300E100000000082C0001000042
:104866000100020003000400010002000200030030
:0848760004000100030004002E
:00000001FF
