:100000000C94F1000C940E010C940E010C940E0152
:100010000C940E010C940E010C940E010C940E0124
:100020000C940E010C940E010C94CC040C94070556
:100030000C940E010C940E010C940E010C940E0104
:100040000C940E010C9488070C949A070C94AC073E
:100050000C940E010C940E010C940E010C940E01E4
:100060000C940E010C940E010C940E010C940E01D4
:100070000C940E010C940E010C940E010C940E01C4
:100080000C940E010C940E010C940E010C940E01B4
:100090000C940E010C940E010C940E010C940E01A4
:1000A0000C940E010C940E010C940E01690466046C
:1000B000630460045D045A045704540451044E045C
:1000C0004B044804450442043F043C04390436040C
:1000D000330430042D042A042704240421041E04BC
:1000E0001B041804150412040F040C04090406046C
:1000F00003040004FD03FA03F703F403F103EE0322
:10010000EB03E803E503E203DF03DC03D903D603D3
:10011000D303D003CD03CA03C703C403C103BE0383
:10012000BB03B803B503B203AF03AC03A9030001DB
:10013000000062011200020000740143000300008D
:10014000B7010401030904BB011202030904CF0132
:100150000603030904D701080001C112018036011A
:1001600081361201000202000010C0167A0400015C
:100170000102030109024300020100C03209040028
:100180000001020201000524001001052401010103
:10019000042402060524060001070582031000401E
:1001A00009040100020A00000007050302400000E4
:1001B000070584024000000403090412034A002ECC
:1001C0000020004600690065006E00650000000622
:1001D000034D0032000000080334003100300000FD
:1001E000000011241FBECFEFDAE0DEBFCDBF11E06B
:1001F000A0E0B1E0EEE9F6E102C005900D92A83072
:10020000B107D9F711E0A8E0B1E001C01D92A0311B
:10021000B107E1F70E9478080C944D0B0C94000094
:10022000589A599A5A9A8CE08093B800E9E6F0E01F
:1002300080818062808380818F7E8083EA9A789437
:10024000089584E88093BC008091BC0087FFFCCFB8
:100250008091BB00089584E98093BC00089520E05C
:1002600030E08091BC0087FD06C02F5F3F4F83E0E8
:10027000293E3807B1F780E0285E334009F081E07D
:1002800008958093BB0084E88093BC000E942F01F6
:10029000882319F08091B900887F08950F931F93E8
:1002A000182F062F84EA8093BC000E942F01882318
:1002B00071F0812F880F002331F08F5F0E94410180
:1002C000883451F404C00E944101803229F484E949
:1002D0008093BC0080E001C081E01F910F910895E0
:1002E0000F931F93162F042F60E00E944E01882366
:1002F00079F0812F0E944101882351F0802F0E94C4
:100300004101882329F084E98093BC0081E001C089
:1003100080E01F910F9108950F931F93082F162FC0
:1003200060E00E944E018823C1F0812F0E944101AC
:10033000882399F084E98093BC00802F61E00E94BB
:100340004E01882351F084E88093BC008091BC006A
:1003500087FFFCCF8091BB0001C080E01F910F910F
:1003600008959C0184EA8093BC008091BC0087FFC3
:10037000FCCF81E58093BB0084E88093BC00809132
:10038000BC0087FFFCCF8091B900887F8834A1F042
:1003900084EC8093BC008091BC0087FFFCCF8091EF
:1003A000BB00861749F4A0E0B0E0772767FD7095A1
:1003B0006150704094EC12C084E98093BC0080E0EE
:1003C00008959093BC008091BC0087FFFCCF809182
:1003D000BB00F901EA0FFB1F80831196A617B70730
:1003E00084F384E88093BC008091BC0087FFFCCF3D
:1003F0008091BB00A20FB31F8C9384E98093BC0053
:1004000081E00895982FF89484EA8093BC0080914D
:10041000BC0087FFFCCF80E58093BB0084E880931D
:10042000BC008091BC0087FFFCCF8091B900887F21
:10043000803231F484E98093BC00789480E00895A0
:1004400083E08093BB0084E88093BC008091BC0073
:1004500087FFFCCF9093BB0084E88093BC00809121
:10046000BC0087FFFCCF20E030E0552747FD5095CA
:1004700094E80EC0FB01E20FF31F80818093BB0064
:100480009093BC008091BC0087FFFCCF2F5F3F4F53
:10049000241735077CF384E98093BC00789481E0CD
:1004A0000895FF920F931F93182F062FF42E0E948A
:1004B000100184EA8093BC008091BC0087FFFCCFD0
:1004C00080E58093BB0084E88093BC008091BC00F1
:1004D00087FFFCCF8091B900887F803229F484E9BE
:1004E0008093BC0080E029C081E08093BB0084E859
:1004F0008093BC008091BC0087FFFCCF1093BB00B1
:1005000084E88093BC008091BC0087FFFCCF0093FF
:10051000BB0084E88093BC008091BC0087FFFCCFC7
:10052000F092BB0084E88093BC008091BC0087FF00
:10053000FCCF84E98093BC0081E01F910F91FF9074
:10054000089581E08093D70080EA8093D80082E10B
:1005500089BD09B400FEFDCF80E98093D8001092D8
:10056000E00010920801109209018CE08093E200F3
:10057000789408958091080108959FB7F894809128
:100580000801882339F083E08093E9008091E80036
:1005900085FD03C09FBF8FEF08952091F1008091EA
:1005A000E80085FD03C08BE68093E8009FBF822FA3
:1005B00008959FB7F89480910801882329F083E07B
:1005C0008093E9008091F2009FBF08958091080117
:1005D000882371F09FB7F89483E08093E9002BE6BD
:1005E00002C02093E8008091E80085FDFACF9FBF0C
:1005F0000895482F809108018823D9F12FB7F894E6
:1006000084E08093E90080910B01882341F0809180
:10061000E80085FD02C02FBF12C010920B0190911F
:10062000E400975E34E08091E80085FD13C02FBFA1
:100630008091E400891729F481E080930B018FEF0A
:100640000895809108018823A1F02FB7F894309382
:10065000E900E9CF4093F1008091E80085FD03C0F7
:100660008AE38093E80085E080930A012FBF80E051
:1006700008958FEF0895282F80910801882351F065
:100680009FB7F89484E08093E9008091E80085FDAD
:1006900003C09FBF8FEF08952093F1008091E80081
:1006A00085FD03C08AE38093E80085E080930A011A
:1006B0009FBF80E00895CF93DF93EC018091080104
:1006C000882309F41CC13FB7F89484E08093E900C3
:1006D00080910B01882309F407C18091E80085FD12
:1006E00002C03FBF0CC110920B01FEC09091E4000C
:1006F000975E8091E80085FD13C03FBF8091E400C4
:10070000891721F481E080930B01F9C080910801E1
:10071000882309F4F4C03FB7F8945093E900E9CF77
:100720008091F2002A2F281B822F90E0681779070A
:1007300008F4262F822F90E08134910508F0C6C07E
:100740008A5A9F4FFC01EE0FFF1F0590F491E02D98
:10075000099489918093F10089918093F1008991A6
:100760008093F10089918093F10089918093F10049
:1007700089918093F10089918093F1008991809310
:10078000F10089918093F10089918093F100899122
:100790008093F10089918093F10089918093F10019
:1007A00089918093F10089918093F10089918093E0
:1007B000F10089918093F10089918093F1008991F2
:1007C0008093F10089918093F10089918093F100E9
:1007D00089918093F10089918093F10089918093B0
:1007E000F10089918093F10089918093F1008991C2
:1007F0008093F10089918093F10089918093F100B9
:1008000089918093F10089918093F100899180937F
:10081000F10089918093F10089918093F100899191
:100820008093F10089918093F10089918093F10088
:1008300089918093F10089918093F100899180934F
:10084000F10089918093F10089918093F100899161
:100850008093F10089918093F10089918093F10058
:1008600089918093F10089918093F100899180931F
:10087000F10089918093F10089918093F100899131
:100880008093F10089918093F10089918093F10028
:1008900089918093F10089918093F10089918093EF
:1008A000F10089918093F10089918093F100899101
:1008B0008093F10089918093F10089918093F100F8
:1008C00089918093F10089918093F10089918093BF
:1008D000F1008091E80085FD02C0B093E800621B42
:1008E000710940930A0104C054E0A0E4BAE345E072
:1008F0006115710509F0FACE3FBF80E001C08FEFAE
:10090000DF91CF9108959FB7F89480910A018823D1
:1009100041F084E08093E9008AE38093E80010923C
:100920000A019FBF089580910401089580910501F7
:100930000895809106010895809109010895382F46
:100940009FB7F89480910801882339F022E0209322
:10095000E9008091E80085FD03C09FBF8FEF0895F7
:1009600081EA8093F10080E28093F1001092F1001F
:100970001092F1001092F1001092F1002093F1001A
:100980001092F1003093F1001092F1008AE380930D
:10099000E8009FBF80E008951F920F920FB60F925C
:1009A00011248F939F938091E1001092E100982F82
:1009B00083FF11C01092E90081E08093EB00109258
:1009C000EC0082E18093ED0088E08093F0001092CB
:1009D00008011092090192FF13C080910801882339
:1009E00079F080910A01882359F0815080930A019F
:1009F000882331F484E08093E9008AE38093E8005F
:100A00009F918F910F900FBE0F901F9018951F927E
:100A10000F920FB60F9211240F931F932F933F93B2
:100A20004F935F936F937F938F939F93AF93BF93F6
:100A3000EF93FF931092E9008091E80083FF3CC19F
:100A40004091F1003091F1008091F100682F70E049
:100A50002091F100922F80E0682B792B8091F1009A
:100A6000A82FB0E02091F100922F80E0A82BB92BA5
:100A70001091F1000091F10082EF8093E800363090
:100A800009F05AC025E331E0A90145505040F90171
:100A90003797859194918617970701F5FA0185910B
:100AA00094918A179B07D1F49A012E5F3F4FF90169
:100AB000659174912E5F3F4FF9014491212F30E0F1
:100AC000902F80E0282B392B2F3F310519F010F0A3
:100AD0002FEF30E0241758F4422F09C0295F3F4F11
:100AE000495F5F4FF1E02F353F0789F6E5C05EEFC4
:100AF0008091E800282F30E0C90185709070892B23
:100B0000B9F322FDDCC0342F413108F030E1232F4E
:100B1000CB0106C0FC010196E491E093F100215065
:100B20002223C1F7630F711D431B5093E800442338
:100B3000F9F63031E9F2C3C0353061F48EEF8093BD
:100B4000E8008091E80080FFFCCF862F80688093CA
:100B5000E300B5C0393051F5442309F0ADC06093CE
:100B600008011092090110920A018EEF8093E800AB
:100B700088E591E021E02093E900FC010196E491F1
:100B8000E093EB00EE2369F0AC014F5F5F4FFC0197
:100B900084918093EC00CA010196FA01349130935C
:100BA000ED002F5F253039F78EE181C0383061F4D8
:100BB000403809F081C08091E80080FFFCCF80912F
:100BC00008018093F10050C0313289F4413A09F0B4
:100BD00073C08091E80080FFFCCFE0E0F1E08191FC
:100BE0008093F10081E0E730F807C9F73DC030326B
:100BF000A1F4413209F060C08091E80082FFFCCF8F
:100C0000E0E0F1E08091F100819381E0E730F807C6
:100C1000C9F78BEF8093E80027C0323251F441329C
:100C200009F04AC0609309018091E80080FFFCCF81
:100C30001BC03323E9F48091E80080FFFCCF4238E9
:100C400011F080E00DC0A093E9008091EB0090E0EE
:100C500025E0969587952A95E1F781701092E90035
:100C60008093F1001092F1008EEF8093E80027C08E
:100C7000313011F0333001F54230F1F4672BE1F4FB
:100C80002A2F2F77822F81508430B0F48EEF8093FB
:100C9000E8002093E900333079F089E18093EB009C
:100CA00081E090E002C0880F991F2A95E2F78093B7
:100CB000EA001092EA0003C081E28093EB00FF910A
:100CC000EF91BF91AF919F918F917F916F915F91C4
:100CD0004F913F912F911F910F910F900FBE0F9049
:100CE0001F9018951F93CF93DF93EC01FE0121967F
:100CF0001491112349F01A3019F48DE00E94F90281
:100D0000812F0E94F902F2CFDF91CF911F910895B8
:100D1000982F8A3010F087E301C080E3890F0E948A
:100D2000F90208951F93182F82958F700E948806EC
:100D3000812F8F700E9488061F9108951F93182F8E
:100D4000892F0E949206812F0E9492061F9108957A
:100D50000E9492060895EF92FF920F931F93DF93E4
:100D6000CF93CDB7DEB72B970FB6F894DEBF0FBE8B
:100D7000CDBF8E010F5F1F4F2BE0F80111922A9516
:100D8000E9F7A8012AE030E00E94CC0A3BE0E32E1C
:100D9000F12CEC0EFD1EF8018081882311F00E94D9
:100DA000F9020F5F1F4F0E151F05A9F72B960FB6FF
:100DB000F894DEBF0FBECDBFCF91DF911F910F9191
:100DC000FF90EF900895EF92FF920F931F93DF93A0
:100DD000CF93CDB7DEB72B970FB6F894DEBF0FBE1B
:100DE000CDBF8E010F5F1F4F2BE0F80111922A95A6
:100DF000E9F7A8012AE030E00E94980A4CE0E42ECE
:100E0000F12CEC0EFD1EF8018081882311F00E9468
:100E1000F9020F5F1F4F0E151F05A9F72B960FB68E
:100E2000F894DEBF0FBECDBFCF91DF911F910F9120
:100E3000FF90EF900895EF92FF920F931F93DF932F
:100E4000CF9300D000D000D0CDB7DEB78E010F5FBA
:100E50001F4F26E0F80111922A95E9F7B8014AE000
:100E600050E00E94F10A56E0E52EF12CEC0EFD1E3A
:100E7000F8018081882311F00E94F9020F5F1F4F53
:100E80000E151F05A9F726960FB6F894DEBF0FBE04
:100E9000CDBFCF91DF911F910F91FF90EF900895FB
:100EA000EF92FF920F931F93DF93CF93CDB7DEB7EF
:100EB00027970FB6F894DEBF0FBECDBF8E010F5F30
:100EC0001F4F27E0F80111922A95E9F7B8014AE08F
:100ED00050E00E94770A68E0E62EF12CEC0EFD1E31
:100EE000F8018081882311F00E94F9020F5F1F4FE3
:100EF0000E151F05A9F727960FB6F894DEBF0FBE93
:100F0000CDBFCF91DF911F910F91FF90EF9008958A
:100F10001F920F920FB60F92112410920D01109292
:100F20000C01289A29982A9A2B980F900FBE0F909F
:100F30001F9018951F920F920FB60F9211241092C6
:100F40000F0110920E01299A28982B9A2A980F9037
:100F50000FBE0F901F9018951F920F920FB60F9211
:100F600011240F900FBE0F901F901895E1E8F0E04C
:100F700080818960808380E293E0909389008093F0
:100F8000880080E991E090938B0080938A00EFE6DF
:100F9000F0E0808186608083089584B18F6084B999
:100FA000289829982A982B980895EF92FF920F93EA
:100FB0001F937B018C0120E030E040E050E00E9474
:100FC0002E0987FD1EC0C801B70120E030E040E8CF
:100FD0005FE30E94100A1816A4F0609188007091D7
:100FE000890080E090E00E945E099B01AC01C8018D
:100FF000B7010E94140A0E94320970938B0060931B
:101000008A001F910F91FF90EF900895EF92FF9249
:101010000F931F937B018C0120E030E040E050E013
:101020000E942E0987FD1EC0C801B70120E030E0F4
:1010300040E85FE30E94100A1816A4F0609188004F
:101040007091890080E090E00E945E099B01AC01F4
:10105000C801B7010E94140A0E94320970938D00E2
:1010600060938C001F910F91FF90EF900895A1E87D
:10107000B0E08C9180618C938C9188608C93E0E8D7
:10108000F0E080818260808380818160808384B190
:10109000806C84B980818062808380818F7E808330
:1010A00080818860808380818B7F8083EFE6F0E0A1
:1010B00080818260808380E293E0909389008093B6
:1010C00088008C918B7F8C938C918D7F8C938C91ED
:1010D00081608C93089580E885BF85BFE1E6F0E0EC
:1010E000808310820E9437080E941001789408952E
:1010F000EF92FF920F931F93CF93DF930E946B08A1
:101100006E9A769A0F2EF0E0EF2EF0E0FF2EF0E0D0
:101110000F2FF0E01F2FF02DC0E9D1E064EA70E757
:101120008DE79FE30E94D50764EA70E78DE79FE3B0
:101130000E9406086E9A769888E893E1FE0131973E
:10114000F1F70197D9F76E9A769A88E893E1FE0154
:101150003197F1F70197D9F7C801B7012DEC3CECB5
:101160004CEC5DE30E94CA087B018C0120E030E07A
:1011700040E85FE30E94100A181684F60F2EF0E094
:10118000EF2EF0E0FF2EF0E00F2FF0E01F2FF02DFC
:10119000C5CF5058BB27AA270ED008C1F9D030F0D0
:1011A000FED020F031F49F3F11F41EF4EEC00EF497
:1011B000E095E7FBE4C0E92F0AD180F3BA17620794
:1011C00073078407950718F071F49EF522C10EF499
:1011D000E0950B2EBA2FA02D0B01B90190010C0147
:1011E000CA01A0011124FF27591B99F0593F50F45F
:1011F000503E68F11A16F040A22F232F342F4427B7
:10120000585FF3CF469537952795A795F0405395AE
:10121000C9F77EF41F16BA0B620B730B840BBAF07E
:101220009150A1F0FF0FBB1F661F771F881FC2F7E9
:101230000EC0BA0F621F731F841F48F487957795FD
:101240006795B795F7959E3F08F0B3CF9395880FB4
:1012500008F09927EE0F9795879508956CD008F4BC
:1012600081E00895BCD088F09F5790F0B92F99275E
:10127000B751A0F0D1F0660F771F881F991F1AF0A1
:10128000BA95C9F712C0B13081F0C3D0B1E008956A
:10129000C0C0672F782F8827B85F39F0B93FCCF3EB
:1012A000869577956795B395D9F73EF49095809597
:1012B000709561957F4F8F4F9F4F0895E89409C0B7
:1012C00097FB3EF490958095709561957F4F8F4F79
:1012D0009F4F9923A9F0F92F96E9BB279395F6958F
:1012E000879577956795B795F111F8CFFAF4BB0F0D
:1012F00011F460FF1BC06F5F7F4F8F4F9F4F16C071
:10130000882311F096E911C0772321F09EE8872FFA
:10131000762F05C0662371F096E8862F70E060E0B6
:101320002AF09A95660F771F881FDAF7880F96952F
:10133000879597F90895990F0008550FAA0BE0E8D3
:10134000FEEF16161706E807F907C0F01216130687
:10135000E407F50798F0621B730B840B950B39F4C7
:101360000A2661F0232B242B252B21F408950A262D
:1013700009F4A140A6958FEF811D811D089597F96D
:101380009F6780E870E060E008959FEF80EC08952B
:1013900000240A9416161706180609060895002454
:1013A0000A9412161306140605060895092E0394CE
:1013B000000C11F4882352F0BB0F40F4BF2B11F442
:1013C00060FF04C06F5F7F4F8F4F9F4F089557FDA1
:1013D0009058440F551F59F05F3F71F04795880FA3
:1013E00097FB991F61F09F3F79F08795089512163A
:1013F00013061406551FF2CF4695F1DF08C01616E6
:1014000017061806991FF1CF869571056105089496
:101410000895E894BB2766277727CB0197F90895AD
:101420008ADF08F48FEF08950BD0C0CFB1DF28F02A
:10143000B6DF18F0952309F0A2CFA7CF1124EACF89
:10144000C6DFA0F3959FD1F3950F50E0551F629F23
:10145000F001729FBB27F00DB11D639FAA27F00D0D
:10146000B11DAA1F649F6627B00DA11D661F829F34
:101470002227B00DA11D621F739FB00DA11D621F19
:10148000839FA00D611D221F749F3327A00D611D36
:10149000231F849F600D211D822F762F6A2F112418
:1014A0009F5750408AF0E1F088234AF0EE0FFF1F6B
:1014B000BB1F661F771F881F91505040A9F79E3FA2
:1014C000510570F05CCFA6CF5F3FECF3983EDCF3A4
:1014D000869577956795B795F795E7959F5FC1F7DF
:1014E000FE2B880F911D9695879597F90895FB011E
:1014F0009F01E8944230C4F04532B4F44A3029F4F4
:1015000097FB1EF4909581959F4F642F77270E943B
:10151000170B805D8A330CF0895D8193CB010097B6
:10152000A1F716F45DE251931082C9010C94070BE8
:10153000FA01CF93FF93EF93223044F1253234F533
:10154000C22FE894CA3049F497FB3EF490958095F9
:10155000709561957F4F8F4F9F4F2C2F33274427D6
:101560005527FF93EF930E942B0BEF91FF91605D46
:101570006A330CF0695D6193B901CA016050704033
:101580008040904051F716F4CDE2C19310828F91C4
:101590009F91CF910C94070BFA01CF93FF93EF9398
:1015A0002230CCF02532BCF4C22F2C2F3327442715
:1015B0005527FF93EF930E942B0BEF91FF91605DF6
:1015C0006A330CF0695D6193B901CA0160507040E3
:1015D0008040904051F710828F919F91CF910C9451
:1015E000070BFB019F01423074F0453264F4642F15
:1015F00077270E94170B805D8A330CF0895D8193F9
:10160000CB010097A1F71082C9010C94070BDC01F4
:10161000FC01672F71917723E1F7329704C07C9129
:101620006D9370836291AE17BF07C8F30895AA1B2C
:10163000BB1B51E107C0AA1FBB1FA617B70710F0BD
:10164000A61BB70B881F991F5A95A9F780959095EF
:10165000BC01CD010895A1E21A2EAA1BBB1BFD01FE
:101660000DC0AA1FBB1FEE1FFF1FA217B307E40781
:10167000F50720F0A21BB30BE40BF50B661F771FD9
:10168000881F991F1A9469F76095709580959095B9
:0E1690009B01AC01BD01CF010895F894FFCF7E
:08169E0000E10000000008005B
:00000001FF
