:100000000C9409010C9426010C9426010C942601F1
:100010000C9426010C9426010C9426010C942601C4
:100020000C9426010C9426010C9450060C948B061B
:100030000C9426010C9426010C9426010C942601A4
:100040000C9426010C9426010C9426010C94260194
:100050000C9426010C9426010C9426010C94260184
:100060000C9426010C9426010C9426010C94260174
:100070000C9426010C9426010C9426010C94260164
:100080000C9426010C9426010C9426010C94260154
:100090000C9426010C9426010C9426010C94260144
:1000A0000C9426010C9426010C942601ED05EA051A
:1000B000E705E405E105DE05DB05D805D505D20534
:1000C000CF05CC05C905C605C305C005BD05BA05E4
:1000D000B705B405B105AE05AB05A805A505A20594
:1000E0009F059C0599059605930590058D058A0544
:1000F0008705840581057E057B05780575057205F4
:100100006F056C0569056605630560055D055A05A3
:100110005705540551054E054B0548054505420553
:100120003F053C0539053605330530052D05000131
:10013000000062011200020000740143000300008D
:10014000B7010401030904BB011202030904CF0132
:100150000603030904D701080001C112018036011A
:1001600081361201000202000010C0167A0400015C
:100170000102030109024300020100C03209040028
:100180000001020201000524001001052401010103
:10019000042402060524060001070582031000401E
:1001A00009040100020A00000007050302400000E4
:1001B000070584024000000403090412034A002ECC
:1001C0000020004600690065006E00650000000622
:1001D000034D0032000000080334003100300000FD
:1001E0000042616420656E756D3A206465666175D4
:1001F0006C742063617365206869743F210A000A8A
:1002000000427574746F6E20707265737365643A22
:10021000200011241FBECFEFDAE0DEBFCDBF11E01A
:10022000A0E0B1E0EAE8F9E102C005900D92AC353A
:10023000B107D9F711E0ACE5B1E001C01D92AC36D1
:10024000B107E1F70E94E80B0C94C30C0C9400007A
:10025000589A599A5A9A8CE08093B800E9E6F0E0EF
:1002600080818062808380818F7E8083EA9A789407
:10027000089584E88093BC008091BC0087FFFCCF88
:100280008091BB00089584E98093BC00089520E02C
:1002900030E08091BC0087FD06C02F5F3F4F83E0B8
:1002A000293E3807B1F780E0285E334009F081E04D
:1002B00008958093BB0084E88093BC000E944701AE
:1002C000882319F08091B900887F08950F931F93B8
:1002D000182F062F84EA8093BC000E9447018823D0
:1002E00071F0812F880F002331F08F5F0E94590138
:1002F000883451F404C00E945901803229F484E901
:100300008093BC0080E001C081E01F910F910895AF
:100310000F931F93162F042F60E00E94660188231D
:1003200079F0812F0E945901882351F0802F0E947B
:100330005901882329F084E98093BC0081E001C041
:1003400080E01F910F9108950F931F93082F162F90
:1003500060E00E9466018823C1F0812F0E9459014C
:10036000882399F084E98093BC00802F61E00E948B
:100370006601882351F084E88093BC008091BC0022
:1003800087FFFCCF8091BB0001C080E01F910F91DF
:100390000895DF92EF92FF920F931F93DF93CF9315
:1003A00000D000D000D0CDB7DEB7082FD92E7E0107
:1003B0000894E11CF11C1EE489E6612F0E94A4014F
:1003C000F70181937F0111501834B1F7DE011196C6
:1003D000802F9D2D9C01F9019E01295F3F4F8D913A
:1003E0009D91958384833297A217B307C1F781E06B
:1003F00026960FB6F894DEBF0FBECDBFCF91DF912A
:100400001F910F91FF90EF90DF900895DF92EF9290
:10041000FF920F931F93DF93CF9300D000D000D0B3
:10042000CDB7DEB7082FD92E7E010894E11CF11C50
:1004300018E489E6612F0E94A401F70181937F01EE
:1004400011501234B1F7DE011196802F9D2D9C01C1
:10045000F9019E01295F3F4F8D919D919583848382
:100460003297A217B307C1F781E026960FB6F8942A
:10047000DEBF0FBECDBFCF91DF911F910F91FF90D7
:10048000EF90DF900895DF92EF92FF920F931F930A
:10049000DF93CF9300D000D000D0CDB7DEB7082FC8
:1004A000D92E7E010894E11CF11C10E489E6612F2D
:1004B0000E94A401F70181937F0111501A33B1F713
:1004C000DE011196802F9D2D9C01F9019E01295F6F
:1004D0003F4F8D919D91958384833297A217B307E7
:1004E000C1F781E026960FB6F894DEBF0FBECDBFF0
:1004F000CF91DF911F910F91FF90EF90DF900895C2
:10050000DF92EF92FF920F931F93DF93CF93CDB7BC
:10051000DEB764970FB6F894DEBF0FBECDBF082FCD
:10052000D92E7E010894E11CF11C1EE489E6612F9E
:100530000E94A401F70181937F0111501A33B1F792
:10054000DE011196802F9D2D9C01F9019E01295FEE
:100550003F4F1E968D919C911F979583848316968D
:100560008D919C911797938782878D919D91918B07
:10057000808B3297A217B30761F781E064960FB6BC
:10058000F894DEBF0FBECDBFCF91DF911F910F91C9
:10059000FF90EF90DF9008950F931F93182F062F71
:1005A000843008F05EC0643008F05BC00E9428010F
:1005B00088EB9BE020E931E0F9013197F1F70197F1
:1005C000D9F789E665E70E94A401883609F049C099
:1005D00089E66BE641E00E948801110F110F110FAF
:1005E00089E66CE1412F0E948801000F000F000F87
:1005F00089E66BE1402F0E94880189E667E342E0CB
:100600000E9488018EE162E040E00E94880189E654
:1006100067E340E00E94880189E664E34EE10E94BE
:10062000880189E667E641E00E94880189E664E284
:100630004DE10E94880189E665E24EE90E94880149
:1006400089E666E243E00E94880189E667E246E9BE
:100650000E94880189E66AE640E20E94880181E002
:1006600001C080E01F910F9108959C0184EA80935E
:10067000BC008091BC0087FFFCCF81E58093BB006C
:1006800084E88093BC008091BC0087FFFCCF809100
:10069000B900887F8834A1F084EC8093BC008091FD
:1006A000BC0087FFFCCF8091BB00861749F4A0E017
:1006B000B0E0772767FD70956150704094EC12C0F0
:1006C00084E98093BC0080E008959093BC00809101
:1006D000BC0087FFFCCF8091BB00F901EA0FFB1F34
:1006E00080831196A617B70784F384E88093BC0033
:1006F0008091BC0087FFFCCF8091BB00A20FB31F8D
:100700008C9384E98093BC0081E00895982FF8943D
:1007100084EA8093BC008091BC0087FFFCCF80E519
:100720008093BB0084E88093BC008091BC0087FF6D
:10073000FCCF8091B900887F803231F484E98093C6
:10074000BC00789480E0089583E08093BB0084E847
:100750008093BC008091BC0087FFFCCF9093BB00CE
:1007600084E88093BC008091BC0087FFFCCF20E030
:1007700030E0552747FD509594E80EC0FB01E20F8D
:10078000F31F80818093BB009093BC008091BC00DC
:1007900087FFFCCF2F5F3F4F241735077CF384E999
:1007A0008093BC00789481E00895FF920F931F938B
:1007B000182F062FF42E0E94280184EA8093BC0093
:1007C0008091BC0087FFFCCF80E58093BB0084E86C
:1007D0008093BC008091BC0087FFFCCF8091B90062
:1007E000887F803229F484E98093BC0080E029C0AE
:1007F00081E08093BB0084E88093BC008091BC00C2
:1008000087FFFCCF1093BB0084E88093BC008091ED
:10081000BC0087FFFCCF0093BB0084E88093BC0042
:100820008091BC0087FFFCCFF092BB0084E88093EE
:10083000BC008091BC0087FFFCCF84E98093BC00A2
:1008400081E01F910F91FF90089581E08093D70080
:1008500080EA8093D80082E189BD09B400FEFDCF13
:1008600080E98093D8001092E00010925C01109211
:100870005D018CE08093E2007894089580915C01A2
:1008800008959FB7F89480915C01882339F083E044
:100890008093E9008091E80085FD03C09FBF8FEF42
:1008A00008952091F1008091E80085FD03C08BE65A
:1008B0008093E8009FBF822F08959FB7F89480919E
:1008C0005C01882329F083E08093E9008091F200A5
:1008D0009FBF089580915C01882371F09FB7F894C1
:1008E00083E08093E9002BE602C02093E80080912A
:1008F000E80085FDFACF9FBF0895482F80915C01E5
:100900008823D9F12FB7F89484E08093E90080918F
:100910005F01882341F08091E80085FD02C02FBF70
:1009200012C010925F019091E400975E34E08091D4
:10093000E80085FD13C02FBF8091E400891729F4DA
:1009400081E080935F018FEF089580915C0188239F
:10095000A1F02FB7F8943093E900E9CF4093F1006C
:100960008091E80085FD03C08AE38093E80085E07C
:1009700080935E012FBF80E008958FEF0895282FA8
:1009800080915C01882351F09FB7F89484E08093B4
:10099000E9008091E80085FD03C09FBF8FEF0895B7
:1009A0002093F1008091E80085FD03C08AE38093E5
:1009B000E80085E080935E019FBF80E00895CF93BB
:1009C000DF93EC0180915C01882309F41CC13FB7DF
:1009D000F89484E08093E90080915F01882309F412
:1009E00007C18091E80085FD02C03FBF0CC1109295
:1009F0005F01FEC09091E400975E8091E80085FD64
:100A000013C03FBF8091E400891721F481E08093F7
:100A10005F01F9C080915C01882309F4F4C03FB7FD
:100A2000F8945093E900E9CF8091F2002A2F281B17
:100A3000822F90E06817790708F4262F822F90E024
:100A40008134910508F0C6C08A5A9F4FFC01EE0F11
:100A5000FF1F0590F491E02D099489918093F10096
:100A600089918093F10089918093F100899180931D
:100A7000F10089918093F10089918093F10089912F
:100A80008093F10089918093F10089918093F10026
:100A900089918093F10089918093F10089918093ED
:100AA000F10089918093F10089918093F1008991FF
:100AB0008093F10089918093F10089918093F100F6
:100AC00089918093F10089918093F10089918093BD
:100AD000F10089918093F10089918093F1008991CF
:100AE0008093F10089918093F10089918093F100C6
:100AF00089918093F10089918093F100899180938D
:100B0000F10089918093F10089918093F10089919E
:100B10008093F10089918093F10089918093F10095
:100B200089918093F10089918093F100899180935C
:100B3000F10089918093F10089918093F10089916E
:100B40008093F10089918093F10089918093F10065
:100B500089918093F10089918093F100899180932C
:100B6000F10089918093F10089918093F10089913E
:100B70008093F10089918093F10089918093F10035
:100B800089918093F10089918093F10089918093FC
:100B9000F10089918093F10089918093F10089910E
:100BA0008093F10089918093F10089918093F10005
:100BB00089918093F10089918093F10089918093CC
:100BC000F10089918093F10089918093F1008991DE
:100BD0008093F10089918093F1008091E80085FD78
:100BE00002C0B093E800621B710940935E0104C02B
:100BF00054E0A0E4BAE345E06115710509F0FACECE
:100C00003FBF80E001C08FEFDF91CF9108959FB784
:100C1000F89480915E01882341F084E08093E9009C
:100C20008AE38093E80010925E019FBF089580914F
:100C300004010895809105010895809106010895A9
:100C400080915D010895382F9FB7F89480915C01E1
:100C5000882339F022E02093E9008091E80085FDA7
:100C600003C09FBF8FEF089581EA8093F10080E277
:100C70008093F1001092F1001092F1001092F100B7
:100C80001092F1002093F1001092F1003093F100E6
:100C90001092F1008AE38093E8009FBF80E00895FE
:100CA0001F920F920FB60F9211248F939F938091F2
:100CB000E1001092E100982F83FF11C01092E9002B
:100CC00081E08093EB001092EC0082E18093ED00D4
:100CD00088E08093F00010925C0110925D0192FF19
:100CE00013C080915C01882379F080915E01882394
:100CF00059F0815080935E01882331F484E0809321
:100D0000E9008AE38093E8009F918F910F900FBED6
:100D10000F901F9018951F920F920FB60F921124EB
:100D20000F931F932F933F934F935F936F937F93F3
:100D30008F939F93AF93BF93EF93FF931092E9002C
:100D40008091E80083FF3CC14091F1003091F100B7
:100D50008091F100682F70E02091F100922F80E0E7
:100D6000682B792B8091F100A82FB0E02091F10041
:100D7000922F80E0A82BB92B1091F1000091F10087
:100D800082EF8093E800363009F05AC025E331E065
:100D9000A90145505040F9013797859194918617E4
:100DA000970701F5FA01859194918A179B07D1F471
:100DB0009A012E5F3F4FF901659174912E5F3F4F6D
:100DC000F9014491212F30E0902F80E0282B392B1E
:100DD0002F3F310519F010F02FEF30E0241758F4B1
:100DE000422F09C0295F3F4F495F5F4FF1E02F3528
:100DF0003F0789F6E5C05EEF8091E800282F30E0DC
:100E0000C90185709070892BB9F322FDDCC0342FA5
:100E1000413108F030E1232FCB0106C0FC010196DF
:100E2000E491E093F10021502223C1F7630F711D7B
:100E3000431B5093E8004423F9F63031E9F2C3C074
:100E4000353061F48EEF8093E8008091E80080FFF8
:100E5000FCCF862F80688093E300B5C0393051F510
:100E6000442309F0ADC060935C0110925D011092C3
:100E70005E018EEF8093E80088E591E021E0209309
:100E8000E900FC010196E491E093EB00EE2369F0A8
:100E9000AC014F5F5F4FFC0184918093EC00CA016D
:100EA0000196FA0134913093ED002F5F253039F728
:100EB0008EE181C0383061F4403809F081C0809102
:100EC000E80080FFFCCF80915C018093F10050C06E
:100ED000313289F4413A09F073C08091E80080FF13
:100EE000FCCFE0E0F1E081918093F10081E0E73018
:100EF000F807C9F73DC03032A1F4413209F060C0B3
:100F00008091E80082FFFCCFE0E0F1E08091F10009
:100F1000819381E0E730F807C9F78BEF8093E80011
:100F200027C0323251F4413209F04AC060935D016A
:100F30008091E80080FFFCCF1BC03323E9F480914F
:100F4000E80080FFFCCF423811F080E00DC0A09394
:100F5000E9008091EB0090E025E0969587952A9531
:100F6000E1F781701092E9008093F1001092F10096
:100F70008EEF8093E80027C0313011F0333001F557
:100F80004230F1F4672BE1F42A2F2F77822F815022
:100F90008430B0F48EEF8093E8002093E900333082
:100FA00079F089E18093EB0081E090E002C0880F46
:100FB000991F2A95E2F78093EA001092EA0003C095
:100FC00081E28093EB00FF91EF91BF91AF919F91F0
:100FD0008F917F916F915F914F913F912F911F91D1
:100FE0000F910F900FBE0F901F9018951F93CF93E6
:100FF000DF93EC01FE0121961491112349F01A3080
:1010000019F48DE00E947D04812F0E947D04F2CFAF
:10101000DF91CF911F910895982F8A3010F087E3C8
:1010200001C080E3890F0E947D0408951F93182F4B
:1010300082958F700E940C08812F8F700E940C087F
:101040001F9108951F93182F892F0E941608812F32
:101050000E9416081F9108950E9416080895EF92A5
:10106000FF920F931F93DF93CF93CDB7DEB72B97EC
:101070000FB6F894DEBF0FBECDBF8E010F5F1F4FBE
:101080002BE0F80111922A95E9F7A8012AE030E057
:101090000E94420C3BE0E32EF12CEC0EFD1EF80109
:1010A0008081882311F00E947D040F5F1F4F0E1571
:1010B0001F05A9F72B960FB6F894DEBF0FBECDBF64
:1010C000CF91DF911F910F91FF90EF900895EF92D4
:1010D000FF920F931F93DF93CF93CDB7DEB72B977C
:1010E0000FB6F894DEBF0FBECDBF8E010F5F1F4F4E
:1010F0002BE0F80111922A95E9F7A8012AE030E0E7
:101100000E940E0C4CE0E42EF12CEC0EFD1EF801BA
:101110008081882311F00E947D040F5F1F4F0E1500
:101120001F05A9F72B960FB6F894DEBF0FBECDBFF3
:10113000CF91DF911F910F91FF90EF900895EF9263
:10114000FF920F931F93DF93CF9300D000D000D076
:10115000CDB7DEB78E010F5F1F4F26E0F801119269
:101160002A95E9F7B8014AE050E00E94670C56E082
:10117000E52EF12CEC0EFD1EF8018081882311F084
:101180000E947D040F5F1F4F0E151F05A9F72696BD
:101190000FB6F894DEBF0FBECDBFCF91DF911F9188
:1011A0000F91FF90EF900895EF92FF920F931F938E
:1011B000DF93CF93CDB7DEB727970FB6F894DEBF96
:1011C0000FBECDBF8E010F5F1F4F27E0F8011192B8
:1011D0002A95E9F7B8014AE050E00E94ED0B68E07B
:1011E000E62EF12CEC0EFD1EF8018081882311F013
:1011F0000E947D040F5F1F4F0E151F05A9F727964C
:101200000FB6F894DEBF0FBECDBFCF91DF911F9117
:101210000F91FF90EF90089520E030E08091BC00A6
:1012200087FD06C02F5F3F4F83E0293E3807B1F7A7
:1012300080E0285E334009F081E008958093BB0090
:1012400084E88093BC000E940C09882319F08091E7
:10125000B900887F08951F93182F84EA8093BC00FB
:101260000E940C09882369F0110F812F8F5F0E9463
:101270001E09883411F081E004C084E98093BC0029
:1012800080E01F9108951F93182F84EA8093BC007B
:101290000E940C09882361F0812F880F0E941E098B
:1012A000803211F081E004C084E98093BC0080E0CA
:1012B0001F9108950F931F93DF93CF93CDB7DEB7A0
:1012C00060970FB6F894DEBF0FBECDBF182F092F61
:1012D00088E50E944309882309F469C086E30E94D7
:1012E0001E09882309F463C084E98093BC0085E863
:1012F0008A95F1F788E50E942B09882309F457C0E5
:10130000FE01319680E1DF011D928A95E9F794ECA8
:101310009E01205F3F4F9093BC008091BC0087FFEF
:10132000FCCF8091BB008193E217F307A1F784E81B
:101330008093BC008091BC0087FFFCCF8091BB00F4
:10134000888B84E98093BC00DE011296212F302F18
:10135000C901FC01BE01625F7F4F12962C9112976A
:1013600030E0C9018073907054E0880F991F5A953E
:10137000E1F74C91840F911D91838083C901807C9A
:101380009070880F991F880F991F11964C91119793
:10139000840F911D938382832F7030703583248353
:1013A00013963696A617B707C1F681E001C080E014
:1013B00060960FB6F894DEBF0FBECDBFCF91DF9120
:1013C0001F910F91089584E98093BC0008951F93A5
:1013D000CF93DF930E94280188E50E944309882368
:1013E00009F4B3C080E30E941E09882309F4ADC04C
:1013F00081E00E941E09882309F4A7C084E9809334
:10140000BC0080E49CE90197F1F788E50E9443095C
:10141000882309F49AC080E00E941E09882309F4F9
:1014200094C080E00E941E09882309F48EC080E0E9
:101430000E941E09882309F488C080E00E941E09CA
:10144000882309F482C080E00E941E09882309F4E1
:101450007CC080E00E941E09882309F476C080E0E9
:101460000E941E09882309F470C080E90E941E09A9
:10147000882309F46AC014E91093BC00C0E4DCE9D5
:10148000CE010197F1F788E50E944309882309F40A
:101490005CC087E00E941E09882309F456C080E0E2
:1014A0000E941E09882309F450C081E40E941E098D
:1014B000882309F44AC01093BC00CE010197F1F7CC
:1014C00088E50E944309882309F43FC08AE10E940D
:1014D0001E09882309F439C080E40E941E0988236C
:1014E000A1F180E00E941E09882379F11093BC00CD
:1014F000CE010197F1F788E50E944309882329F17D
:1015000083E30E941E09882301F183E00E941E09E3
:101510008823D9F01093BC00CE010197F1F788E53C
:101520000E944309882389F080E30E941E098823D2
:1015300061F088E00E941E09882339F01093BC00F6
:10154000CE010197F1F781E001C080E0DF91CF91FA
:101550001F910895FC01EE0FFF1FE55BFE4F808198
:1015600091810895E2E6F1E0819391E0EC36F9078C
:10157000D9F7089584B114B885B115B80895CF93FB
:10158000DF93189B03C0C0E0D0E020C0199B03C0CC
:10159000C1E0D0E01BC01A9B03C0C2E0D0E016C07F
:1015A0001B9B03C0C3E0D0E011C01C9B03C0C4E080
:1015B000D0E00CC01D9B03C0C5E0D0E007C01E9961
:1015C00003C0C7E0D0E00AC0C6E0D0E081E092E00E
:1015D0000E94F6078FEF91E00E94F607CE01DF919F
:1015E000CF9108950E9425040E943E048823E1F3D0
:1015F00008958CE262E671E04AE00E948603089555
:10160000E2E6F1E087EA819391E0EC36F907D9F759
:101610003A978CE2BF014AE00E9486030895E2E611
:10162000F1E086EA819391E0EC36F907D9F73A9731
:101630008CE2BF014AE00E9486030895E2E6F1E0F1
:1016400084EA819391E0EC36F907D9F73A978CE276
:10165000BF014AE00E9486030895909161019F5F57
:1016600090936101E2E6F1E0119281E0EC36F80737
:10167000D9F73A9783EA8083809160018093630170
:10168000909364018CE2BF014AE00E9486030895B2
:10169000909160019F5F90936001E2E6F1E011920A
:1016A00081E0EC36F807D9F73A9782EA8083909385
:1016B000630180916101809364018CE2BF014AE083
:1016C0000E9486030895E2E6F1E081EA819391E0C9
:1016D000EC36F907D9F73A978CE2BF014AE00E944D
:1016E00086030895E2E6F1E080EA819391E0EC362A
:1016F000F907D9F73A978CE2BF014AE00E948603C6
:1017000008950E94BF0A8730910509F43BC08330D9
:101710009105D9F08430910530F48130910579F04C
:10172000029780F409C085309105A9F085309105B4
:1017300078F00697B1F412C00E94720B16C00E9496
:10174000630B13C00E94480B10C00E942D0B0DC0EC
:101750000E941E0B0AC00E940F0B07C00E94000BC4
:1017600004C081EE91E00E94F6076E9A769888E8B0
:1017700093E120E931E0F9013197F1F70197D9F7C9
:101780006E9A769A089581E060E14AE00E94D5035E
:10179000089580E885BF85BF809361001092610045
:1017A0000E94F20A80E395E720E931E0F9013197E0
:1017B000F1F70197D9F70E94280181E060E14AE042
:1017C0000E94D50384B114B885B115B878940895F2
:1017D0000E94C90B0E94810BFDCFFB019F01E89481
:1017E0004230C4F04532B4F44A3029F497FB1EF479
:1017F000909581959F4F642F77270E948D0C805D77
:101800008A330CF0895D8193CB010097A1F716F420
:101810005DE251931082C9010C947D0CFA01CF93C3
:10182000FF93EF93223044F1253234F5C22FE89430
:10183000CA3049F497FB3EF4909580957095619578
:101840007F4F8F4F9F4F2C2F332744275527FF93D0
:10185000EF930E94A10CEF91FF91605D6A330CF051
:10186000695D6193B901CA01605070408040904049
:1018700051F716F4CDE2C19310828F919F91CF91D1
:101880000C947D0CFA01CF93FF93EF932230CCF0B0
:101890002532BCF4C22F2C2F332744275527FF9322
:1018A000EF930E94A10CEF91FF91605D6A330CF001
:1018B000695D6193B901CA016050704080409040F9
:1018C00051F710828F919F91CF910C947D0CFB0169
:1018D0009F01423074F0453264F4642F77270E94F0
:1018E0008D0C805D8A330CF0895D8193CB0100976C
:1018F000A1F71082C9010C947D0CDC01FC01672F5B
:1019000071917723E1F7329704C07C916D937083D6
:101910006291AE17BF07C8F30895AA1BBB1B51E124
:1019200007C0AA1FBB1FA617B70710F0A61BB70B4F
:10193000881F991F5A95A9F780959095BC01CD01F4
:101940000895A1E21A2EAA1BBB1BFD010DC0AA1F00
:10195000BB1FEE1FFF1FA217B307E407F50720F018
:10196000A21BB30BE40BF50B661F771F881F991F93
:101970001A9469F760957095809590959B01AC01DC
:0A198000BD01CF010895F894FFCFD8
:10198A0000E100000000080700436F6D6D5F746599
:10199A00737400506C61790053636F72655F72658E
:1019AA00640053636F72655F626C756500506175A0
:1019BA0073650048616C6674696D650047616D65A1
:1019CA00206F766572004E6F6E650009011301186B
:0C19DA000122012D0133013C01460100F7
:00000001FF
